:100000006F00D01A1300000013000000130000005E
:100010001300000013000000130000001300000094
:100020001300000013000000130000001300000084
:08003000130000007300100032
:100038006FF09FFC000000006F00E0336F00E033BA
:1000480000000000000000000000000000000000A8
:100058000000000000000000000000000000000098
:100068006FF09FF9000000006FF01FF9000000001A
:100078006FF09FF86FF05FF86FF01FF86FF0DFF721
:100088006FF09FF76FF05FF76F00A0406F00C00A36
:100098006F00600D6F00C00D6F00C00D6FF0DFF5D1
:1000A8006FF09FF56FF05FF56F0060296FF0DFF478
:1000B8006FF09FF46FF05FF46F00800C0000000099
:1000C8000000000000000000000000006F00C00AEF
:1000D8006F00400B6F00A00D6F00C00F6F00001481
:1000E8006F00001B6F00601C6F00801E6FF0DFF058
:1000F8006FF09FF06FF05FF06FF01FF06FF0DFEFC1
:100108006FF09FEF6F00201F6F00201F6F00E0341B
:100118006F00C0066FF05FEE6FF01FEE6FF0DFED5F
:1001280000000000000000000000000000000000C7
:080138000000000000000000BF
:100140000945EF0090188547631CF50083A741819E
:1001500009476399E700EF10E0310945EF00D01837
:1001600073002030E39BA7FEEF10A028FDB71145D8
:10017000EF009017730020307300203073002030A0
:10018000730020307300203073002030411122C6EC
:100190003734014093050008130504C0EF10C00474
:1001A00019C593050008130504C0EF10A0053244DB
:1001B000410173002030411122C63734014085458A
:1001C000130504C0EF10400211C58545130504C096
:1001D000EF1040033244410173002030411122C628
:1001E0003734014093050004130504C0EF00D07FAD
:1001F00019C593050004130504C0EF10A00037349F
:10020000014093050002130504C0EF00F07D19C5FD
:1002100093050002130504C0EF00D07E3244410173
:1002200073002030411122C637340140894513053F
:1002300004C0EF00707B11C58945130504C0EF00B1
:10024000707C373401409145130504C0EF00D0792C
:1002500011C59145130504C0EF00D07A3734014031
:10026000A145130504C0EF00307811C5A145130561
:1002700004C0EF00307937340140C145130504C094
:10028000EF00907611C5C145130504C0EF009077CB
:100290003244410173002030854537050040EF00AE
:1002A000B07411C5854537050040EF00B075730087
:1002B0002030411122C63704004085451305044013
:1002C000EF00907211C5854513050440EF0090734F
:1002D0003244410173002030411122C637140040DE
:1002E000854513050480EF00307011C58545130561
:1002F0000480EF00307132444101730020307300FC
:100300002030411122C63744004093055052130556
:100310000440EF10600311CD9305505213050440C3
:10032000EF10C00683A7418109476398E700EF10EB
:10033000600F32444101730020300547E39BE7FE24
:10034000EF102006FDB74111096522C6EF00A06D30
:100350008547631DF5002A840965EF00C06E83A7F9
:10036000418109476398E700EF10201232444101B0
:1003700073002030E39C87FEEF10400AC5BF730076
:10038000203001A09385318303C605001387C193F4
:100390009307160093F7F70F3A962300A6002380E1
:1003A000F500054693863183639EC7000347070027
:1003B0009307800D6309F70209472380050023890D
:1003C000E1828280B9456390B7028345D700938765
:1003D00021832380C7001307E00E6397E500238085
:1003E000C7002380060082800D472380E700D5BF29
:1003F000034715009307000B631AF7008347250096
:1004000003473500A207D98F239FF180034745009A
:100410009307100B631AF7008347550003476500E5
:10042000A207D98F2390F182034775009307200B11
:10043000631AF7008347850003479500A207D98F09
:100440002391F1820347A5009307300B631AF7004D
:100450008347B5000347C500A207D98F2398F182CF
:100460008280411122C63754004093055052130533
:100470000480EF00706D11CD930550521305048078
:10048000EF00D07013050480EF00706B1375F50F4B
:10049000D53D32444101730020303971054522DEDB
:1004A00026DC4ADA4ED852D656D45AD25ED062CE24
:1004B00066CC6ACA192D85476313F530EF00C06218
:1004C00085449387218303C70700E39CE4FE1385DB
:1004D000C19323800700293F1387018283570700B8
:1004E0000545B307F0402310F700EF109000239C60
:1004F000A1800945EF10E07F3305A040239DA18036
:100500000545EF1070000945EF10100093876182D8
:1005100003970700138C0182938B8181138BA18138
:1005200013844182938A21821DE703D70A00239016
:1005300097002310E40003C7C181A5469387C181BA
:10054000138A018363EAE60691660A07938606C466
:1005500036971843028703950A00EF203024B747E7
:10056000000003A607C983A647C9EF2020512A89A6
:1005700003150400AE89EF207022B747000003A6E0
:1005800087C983A6C7C9EF20604F2A86AE864A85F1
:10059000CE85EF10B05BEF20F01942054185239026
:1005A000AA002310A40041BF83160A0041476395A7
:1005B000E60005472380E70083C7070025479389A6
:1005C00081821389A1829384C1821384E182636949
:1005D000F71211678A07130787C6BA979C43828769
:1005E00003170A009306E0026314D7001147D9B736
:1005F0009306C0026314D70015476DBFAD46631460
:10060000D700214745BFB546E318D7FA25475DB760
:1006100083160A001307C002E390E6FA194759BF90
:1006200083160A001307E002E398E6F81D4759B75E
:1006300083160A0013071002E390E6F80D479DBFEA
:1006400083160A0013071002E398E6F609479DB7E0
:1006500083160A001307100299BF83170A001307B5
:1006600070036391E70203978180B307E040C207FC
:10067000C1872390E9002310F9002390F400231090
:10068000E400BDA813079003639CE70603978180ED
:10069000B307E040C207C1872390F9002310E900A7
:1006A0002390E4002310F400A1A803950A00EF3082
:1006B0006045AA8513854187938A4187EF1090375B
:1006C00003956180EF30004483AC8A012A8DE68572
:1006D000EF20F013EF30E03C931A050193DA0A4162
:1006E000E685239059016A85EF302003EF30603BA7
:1006F000420541852310A900239054012310A40032
:1007000003170A009307A005631AF70023100400DB
:100710002390040023100900239009008397E181AE
:10072000039509001D8DEF30E03DAA851385C18931
:100730009389C189EF10503683170C000315090007
:100740001D8DEF30203CAA851385418C1389418C87
:10075000EF10903483970B00039504001D8DEF304C
:10076000603AAA851385C18E9384C18EEF10D03272
:1007700083170B00031504001D8DEF30A038AA85E8
:100780001385419113844191EF101031084CEF30E3
:1007900040312AC6884CEF30C0302AC40325890175
:1007A000EF3020302AC203A58901EF30802FB246F6
:1007B00022469245EF1090180547A38EE1807254AF
:1007C000E2545259C259325AA25A125B825B724C9D
:1007D000E24C524D21617300203003950A00EF3046
:1007E0006032AA851385C184938AC184EF10902456
:1007F000839CE18033059041EF30C03083AA8A01A9
:100800002A8DD685EF20B000EF30A0292390A900D3
:100810006685EF30202FD685AA8CEF201070EF3040
:100820004028E6852310A9005685EF20407EEF3052
:1008300040272390A400D6856A85EF20106EEF3004
:1008400040266DBD03950A00EF30C02BAA851385A5
:10085000C184938AC184EF10F01D839CE18066857A
:10086000EF30402A83AA8A012A8DD685EF20207A8C
:10087000EF3020232390A9003305904159BFB707DB
:10088000002083D527010145EF10A0210397A18007
:10089000B307E040C207C1872390F9002310E900A5
:1008A000E9BB83D541800145EF10A01F0397C180AC
:1008B000C5B7B707002083D507010145EF10601EBB
:1008C0000397A180B307E040C207C1872390E900E6
:1008D0002310F900F1B383D541800145EF10601C6E
:1008E0000397C180C5B7411115469145054506C618
:1008F000EF104032B2402D46A945094541016F1025
:100900006031411106C6EF007056EF10E05AB7157E
:10091000070093061002130600029385058009451F
:10092000EF10004B85450945EF10A05513068004D4
:10093000A1450145EF00F0468546054685455945E8
:10094000EF00704C1306E02E930520030145EF00E5
:10095000907881451385C189238E0180EF10500561
:1009600085451385418CEF10B00489451385C18EF0
:10097000EF1010048D4513854191EF1070038145F0
:1009800013854187EF10607E85451385C184EF1084
:10099000C07DEF10A065813F0145EF00904F83C7F8
:1009A000D18105476390E7008147EDBF97010020A3
:1009B000938141E6174100201301C16417350000FF
:1009C0001305C54C97F5FF1F9385C5631386818179
:1009D00063FAC5008322050023A055001105910587
:1009E000E3EAC5FE13858181938581956377B50020
:1009F000232005001105E36DB5FE9302800873A066
:100A0000023097F2FFFF9382626393E212007390C9
:100A10005230EF10804D970200009382C2EE739027
:100A20001234730020309317350063DA0700B707DC
:100A3000024083A707407D8D3335A0008280B70731
:100A400002409C43CDBF9317350063D70700B7071B
:100A5000024023A2A7408280B7070240C8C3828019
:100A60005841032805004C453706014093070640CE
:100A70003E979346F8FFB1C583250640F58D2320A8
:100A8000B640D043F18ED4C31443B3E6060114C379
:100A9000184190479346F7FF758E90C7D047F18E67
:100AA000D4C7144541466399C6009447D98E94C76C
:100AB000D447558FD8C78280B6979443558F98C333
:100AC00082801C43F58F1CC38280B70701401387C7
:100AD000074083A70740584B698F09C77D8D333581
:100AE000A000828001458280B707014023AAA74069
:100AF00082809C4513F7070113F8F70001C7D8411E
:100B00003368E80083D5050013F7F50F39C31841A2
:100B10008146854E3D4F930F800293028004214E03
:100B20003396DE00B3F8C5006311160393982600D0
:100B300033131F011343F3FF3377E300B318180196
:100B400033E7E800639FF70550C98506E39AC6FDC1
:100B500018C11307F00F6375B70454412146854E41
:100B60003D4F930F800293028004414EB398CE0014
:100B700033F715016392E8021317260001173313A8
:100B8000EF001343F3FFB376D3003317E800D98E99
:100B9000639DF701232A15010506E319C6FD54C11B
:100BA0008280E39457FA10C94DB7E39757FE232884
:100BB0001501DDB719C20CC982804CC98280B70704
:100BC000014063550504D44FB707300013170501E2
:100BD0003376F5004183631DF602370600F17D167A
:100BE00037080140B3F7C60083264800758E2322DC
:100BF000C80099C59356550192063317D700D98F6F
:100C000037070140635E05025CCF8280D4436DBF2D
:100C10009317B50063D007029357050113F6F70049
:100C20008D47B397C70093C7F7FFF58FB706000F3F
:100C3000D58FC1B7935755019207B317F700E5B7A2
:100C40005CC3828013F7C50F93F73500B7050140E9
:100C5000BA9594458A073D473317F7001347F7FFC6
:100C6000758F98C598453315F500598D88C58280D4
:100C700037E700E03C4783460500898B85CB8347F7
:100C800025003697920793F7F70F2300F7400547A3
:100C900093D756003317D700544195CA938707045A
:100CA0008A07B7E600E0B69798C382803C47898BF5
:100CB000F9FF8347250083451500054636979207BF
:100CC0006394C50093E707F893F7F70F7DBF938709
:100CD0000706F9B7371702405C439146B18B63852D
:100CE000D700A1466386D706B7177A0093870720F7
:100CF0001CC1371602405C4237070020130707006B
:100D00009183BD8BBA9783C607001C41B3D7D70028
:100D10005CC15442A1829D8ABA9683C60600B3D6AE
:100D2000D70014C55442AD829D8A36970347070009
:100D3000B3D7E7005CC558423983937637001387F1
:100D40000181369703470700B3D7E7021CC98280A9
:100D50005C435443C983BD8B1396F60089076349EE
:100D6000060037173D0013070790B387E70249B71E
:100D700058439316E700E3C606FE37177A001307B9
:100D80000720E5B799C5371702401C4F5D8D08CF86
:100D90008280B7170240984F1345F5FF798D88CFB1
:100DA000828099C5371702405C4F5D8D48CF8280A5
:100DB000B7170240D84F1345F5FF798DC8CF828011
:100DC0008357050037370140130707C0C207C183A7
:100DD0006300E50237070040630CE5001307074096
:100DE0006308E50037170040130707806317E50025
:100DF00003D7250093F7F7F8D98F03D7650093F74A
:100E0000F7CFC207C183D98F2310F50083D74500E0
:100E10002316F50283D705002314F502B7370140E6
:100E2000938707C06316F50083C785002318F50272
:100E30008547231AF50082808357050203D60500F3
:100E400003D82500C207C183F99BC207C1832310C1
:100E5000F502835705028356450003578501C207F3
:100E6000C183420741831377C7F8518F03D68500AA
:100E7000F59BC20633660601D18F37360140130653
:100E800006C0C1826313C50203D6A500DD9B03D84B
:100E9000E500D18F03D64500ED9B93F6F6CFD18FB9
:100EA00003D6C50033660601D18E2312D500231C5C
:100EB000E50003D76500231AE5022310F5028280BE
:100EC0008357050265771307F7CFC207C183BD9B20
:100ED000C207C1832310F5028357050283564500DC
:100EE00003D88500C2071396060183568501C18386
:100EF00093F7F7FD758F83D605004182A206558FC3
:100F000083D6250042074183B3E606019206D58FBA
:100F1000B7360140C207938606C0C1836311D5046A
:100F200083D6A50093F7F7F703D8C5009206D58FAF
:100F300083D64500C207C183920693F7F7FBD58F8E
:100F4000FD769386F63FF18E03D6E500C207C18396
:100F5000336606010A06D18E1396060141822312DA
:100F6000C500231CE50003D76500231CE502231000
:100F7000F50282808357050203D88500C207C1832A
:100F800093F7F7EFC207C1832310F50283570502D9
:100F9000835645000357C501C20713960601420751
:100FA00083D6050041831377C7F8558F83D6250074
:100FB000C18393F7F7DFB3E60601A206D58FB736F4
:100FC0000140C207938606C04182C1836312D504E3
:100FD000FD769386F67FF58F83D6A50003D8C500EE
:100FE000A206D58F83D64500C207C183A20693F718
:100FF000F7BFD58FF576FD16F18E03D6E500C20753
:10100000C183336606011206D18E13960601418212
:101010002312C500231EE50003D76500231EE50249
:101020002310F502828003570502FD77FD17F98F23
:101030002310F50203580502835645008357C50166
:10104000657703D605001307F7CF7D8FF977220662
:10105000FD17518FB3F7070103D6250003D885008C
:10106000C2064207336606013206D18F3736014089
:10107000C207130606C0C1824183C183631BC5003A
:1010800071767D16F18E03D6C5001A06D18EC20682
:10109000C1822312D500231EE50003D7650023106B
:1010A000E5042310F5028280FD572312F50023107A
:1010B0000500231305002311050023040500828089
:1010C0008357050091C593E717002310F500828030
:1010D000C207C183F99BC207C183C5BF83574504BB
:1010E00091C52167D98F2312F5048280C607C58375
:1010F000DDBF035885000357850183570502420869
:1011000013580801C2074207C1839206418313782E
:1011100088FF93F7D7FD558EB365B8001377C7CF17
:10112000D18F2314B50013671710C207C183231C86
:10113000E5002310F502828083578501C207C18331
:10114000DD9BDD8D231CB500828003578501FD7773
:101150009387F77FF98FA205CD8FC207C183231C28
:10116000F50082808357C501C207C183DD9BDD8DF9
:10117000231EB50082800357C501FD779387F77F53
:10118000F98FA205CD8FC207C183231EF50082808F
:1011900083578501C207C183ED9BDD8D231CB500FC
:1011A000828083578501A205C207C18393F7F7BFE9
:1011B000CD8FC207C183231CF50082808357C501F0
:1011C000C207C183ED9BDD8D231EB500828083574E
:1011D000C501A205C207C18393F7F7BFCD8FC20730
:1011E000C183231EF5008280835705010355C50086
:1011F000ED8F4205418189C76D8D3335A000828016
:101200000145828093C5F5FFC205C1812318B50051
:10121000828083560501F577FD17F58F83D665002B
:10122000397122DC06DED58F03D7C5002318F500FF
:101230008356C500FD779387379FF58F83D645008A
:101240002A842EC6D58F83D68500D58F83D6A50058
:10125000D58F2316F50083574501C207C18393F745
:10126000F7CFD98F231AF5006808EFF0BFA6B7476C
:10127000014093870780B245631EF404A25783564A
:10128000C4006547B387E702C206C186984163D5AB
:10129000060406070356C4004206B3D7E702130745
:1012A00040064186B3D6E702B3F7E70292066357DA
:1012B00006028E0793872703B3D7E70213F7770059
:1012C000B367D700C207C1832314F400F2506254FD
:1012D00021618280925765B70A076DBF9207938795
:1012E0002703B3D7E702BD8BD58FE9BF81C98357E9
:1012F000C5000967D98F2316F50082800357C50002
:10130000F977FD17F98FC5BF13F7F50F85471583DB
:10131000B395B7006319F7009307C500984301CE52
:10132000D98D8CC38280894693074501E318D7FE87
:1013300093070501E5B793C5F5FFF98DDDB70355B3
:1013400045001375F51F828013F7F50F8546158349
:10135000B397B6006313D7020357C500F98F03573D
:10136000050001454207418381CB0545A181B315A5
:10137000B5006D8F3335E000828089466315D70054
:1013800003570501E1BF03574501C9BFA181854747
:10139000B397B70093C7F7FFC207C1832310F500C7
:1013A0008280916783A747CC1387B18383D5470099
:1013B00083470700938681833386F600850793F77A
:1013C000F70F2300B6002300F7000546639BC70014
:1013D00083C606009307500A638CF60023000700BB
:1013E00082808D466396D70023000700238EC1823A
:1013F000828083C7418393F7F70F85E3B7070240E5
:10140000F843C166F916758FF8C309671307874B50
:10141000B8C7F84313671700F8C382800547238ACB
:10142000E1828280916783A747CC1387418483D56B
:10143000470083470700938601843386F6008507BB
:1014400093F7F70F2300B6002300F7000546639BD0
:10145000C70083C606009307500A638CF60023007A
:10146000070082808D466396D70023000700A38182
:10147000C18482800567B707024013070796B8C783
:10148000F84313671700F8C382800547A38EE182F3
:10149000B7060240FC4241677917F98FFCC282808F
:1014A00013070008630CE50C797122D426D24AD0C8
:1014B0004ECE52CC9357550006D613FA77001374CC
:1014C000F501B684B2892E89B5E385451145EFF063
:1014D0007F8B85473394870042044180231281002B
:1014E0006319F90093970401C183A18391E38D47A8
:1014F0003EC491670A0A938707CAD29793F4F40F00
:1015000026C684434C002685EFF0AFDE854763177F
:10151000F9004E86A2852685EFF0CFE9B25022541D
:1015200092540259F249624A4561828005476395A7
:10153000E7008545214561BF09476395E70085457B
:10154000414571B70D476396E700854513050002D5
:10155000BDBF11476396E70085451305000485BFAD
:1015600015476396E7008545130500088DB71947B1
:10157000E391E7F685451305001091BF82809357EC
:10158000350013F7C7019167938707CABA970547D4
:101590009C433315A7006394E50088CB8280C8CBB9
:1015A0008280797122D44AD02A842E8905458545C6
:1015B00006D626D232C6EFF0EFFCB24601462285AF
:1015C0008145F93D9374F40113555400A6851375B4
:1015D000F50FEFF02FE78547B3949700080826C86A
:1015E0004ACC02CA3ECEEFF0AFC7B250225492545A
:1015F000025945618280B7E700E07D5723A0E718D4
:1016000023A2E718828001112304A10028002305EA
:10161000C10036C606CEA304B100EFF06FE537E691
:1016200000E01842FD76F98E03A7C194558F23A6DA
:10163000E19458429387C194D44312071183558F84
:10164000D8C303C7870085476313F7006D37F2409F
:101650000561828083A6C19437E700E09387C19437
:101660002320D710DC432322F7108280011106CEFD
:101670009387C19485462384D70003A5C194DC4396
:101680005D8D3335A0002AC6BD37F2403245056175
:10169000828001E5238A019475BF82809307002030
:1016A000630BF51663E4A706930710106308F510A3
:1016B00063E4A70289476301F50E63E7A70069C1E8
:1016C00085476305F50C82808D47630DF50C930704
:1016D0000010630FF50C8280930700116302F51070
:1016E00063EBA700930720106300F50E93073010FB
:1016F0006302F50E8280930720116300F510636783
:10170000F50E930730116301F510828093073021A5
:101710006302F51663ECA702930730206300F5120D
:1017200063EBA70093071020630DF50E93072020AD
:10173000630FF50E828093071021630FF51063E4A9
:10174000A712930700216302F510828093070030EF
:101750006307F51463EBA700930700226303F512F8
:10176000930710226306F5128280930720306306E8
:10177000F514636DF512930730306307F51482801A
:101780009306803101468545214519BB930680317A
:10179000014685452545D5BF9306803101468545DF
:1017A0002945E5B793068031014685452D45F1BFB2
:1017B00093068031014685450145C1BF93068031BE
:1017C000014685450545D1B79306803101468545DB
:1017D000094565BF93068031014685450D4575B7BE
:1017E00093068031014685453D4545B793068031D6
:1017F000014685451305300249BF930680310146F5
:1018000085451305A00251B79306803101468545F1
:101810001305B0029DBF93068031014685451945E9
:10182000ADB793068031014685451D45B9BF930686
:101830008031014685451305000281BF9306803142
:10184000014685451305100289B79306803101468C
:1018500085451305600415BF930680310146854513
:10186000130570041DB793068031014685451305A5
:10187000800421BF930680310146854513059004FD
:1018800029B7930680310146854513054002F5BD11
:10189000930680310146854513055002FDB5930638
:1018A00080310146854513056002C5B59306803138
:1018B0000146854513057002C9BD93068031014676
:1018C000854513058002D1B59306803101468545D3
:1018D000130590025DBD397126DAAA8422DC13D487
:1018E00084004AD84ED606DEAE893289453B631C59
:1018F000040E0565854513050580EFF0AFC88545E5
:101900000545EFF02FC813D74400C1476311F71006
:1019100037051600854513050504EFF04FAAB717E4
:101920000240DC4337177A0013070720C983BD8BB9
:10193000B387E7023727F400130707400A048D88AE
:10194000231501002313010023060100231A0100BF
:1019500002CEBA9723A4F18433D73703418393058A
:101960001700B38535032312E1004167130707070A
:101970003AC8096713070771B3D7B7024C009386BB
:10198000F7FFC207C183B38727032314D100B3D75E
:10199000E702231BF100B707020089073ECC9167DD
:1019A000938707CB3E9400402285EFF06FC1C9ECCE
:1019B0000C082285EFF04FC8A1452285EFF0CFF744
:1019C00091452285EFF0CFFC22858545EFF04FEF62
:1019D00022858545EFF08FF0F2506254D25442597F
:1019E000B2592161828085476317F400854505451A
:1019F000EFF02FBB29B789476315F40085450945EA
:101A0000C5BF8D47E31DF4EE85451145D5B7C547E4
:101A10006318F70037051800854513050530F5BD37
:101A2000930710026318F70037151A008545130550
:101A300005C0E5B593072002E313F7EE37151A004A
:101A4000854513050580D1BD85476390F4020C08D8
:101A50002285EFF0EFC62285A145EFF00FEF930549
:101A600000402285EFF0EFF385B789470C08228507
:101A7000639DF400EFF00FD02285A145EFF08FEECB
:101A800091452285EFF08FF381B7EFF0CFD9228512
:101A9000A145EFF04FEE930500402285EFF02FF3C4
:101AA00025B713578500916693172700938606CBB9
:101AB000B6979C4383D7C702B385F502896793879E
:101AC0000771B3D5F50201EFB75700100D89938761
:101AD000D7B03E95C2050A05C1810CC182808547F9
:101AE0006317F700B70700100D89B507DDB7894701
:101AF0006318F700B70700100D899387D710D1BF7F
:101B00008D47E31DF7FCB70700100D899387D72099
:101B1000C9B7411122C406C62E841DE19146014673
:101B200081452145EFF0DF978547631DF406914617
:101B30000146814525452244B24041016FF05F9640
:101B400009476317E5009146014681450145D9BF24
:101B500011476317E5009146014681453D45D9B7D8
:101B600019476316E50091460146814565BF214747
:101B70006318E500914601468145130560045DB791
:101B800029476318E5009146014681451305400247
:101B900051BF3147E31AE5F89146014681451305E7
:101BA000600249B78D476317F400914601468145AD
:101BB000054551B795476318F400914601468145A4
:101BC000130530028DBF9D476317F400914601460F
:101BD00081451D458DB7A5476318F4009146014620
:101BE00081451305700481BFAD476318F400914629
:101BF00001468145130550023DBFB5476318F40007
:101C00009146014681451305700235B7B240224422
:101C100041018280011122CC26CA4AC806CE2A84FC
:101C20002E89B2843DED0565854513050580EFF0ED
:101C30006F95A6854A85F13D85450545EFF08F9462
:101C400091476310F90895476399F4003705180028
:101C5000854513050530EFE09FF64800EFF0CFC44F
:101C600085473EC2C167FD173EC49167938707CB86
:101C70000A043E9400404C00230601002285EFF048
:101C80002F942285814601468945EFF08FC6228533
:101C90008545EFF0EFC2F2406244D244424905610B
:101CA000828085476316F5008545EFF08F8F51B729
:101CB0008947E30BF5FE8D47E31DF5F68545114594
:101CC000EDB7A147631BF900A547E398F4F8371572
:101CD0001A008545130505C0BDBFA947E31FF9F6E6
:101CE000AD47E39CF4F637151A00854513050580CA
:101CF0009DB791670A05938707CBAA979C4303D5A5
:101D0000470242054185828091670A05938707CB88
:101D1000AA979C43239207028280411106C615E1CF
:101D200085476394F50A9306803101462545EFF017
:101D30002FF79146014681452945B24041016FF098
:101D40002FF689476310F5029306803101468545D9
:101D500013056002EFF0CFF491460146814513056B
:101D60007002E1BFC147631EF50093068031014652
:101D700085450945EFF0CFF29146014681450D4575
:101D80006DBF930700026310F50293068031014690
:101D900085451305A002EFF0AFF09146014681455D
:101DA0001305B00259BF930720026310F502930692
:101DB0008031014685451305A004EFF06FEE914692
:101DC000014681451305B0048DBFB24041018280B8
:101DD000797122D44ECE2A84AE890545854506D632
:101DE00026D24AD0B6843289EFE0DFF9A6854A854B
:101DF0002D378947631AF9048D476396F4008545AA
:101E00001145EFE0DFDB31EC85451165EFE09FF731
:101E1000B7070C003EC49167938707CC0A043E9431
:101E200000408A854EC0228502C223160100EFF0D1
:101E30004FBE22858545EFF06FCBB25022549254AD
:101E40000259F2494561828093072002E31DF9FAA5
:101E500093073002E399F4FA3705140085454105EC
:101E60004DB785476318F400854537050200EFE05C
:101E70005FF379BF8947E31DF4F885453705040012
:101E8000FDB7916713172500938707CC0111BA9707
:101E900022CC2A8488432EC605469305505206CE8E
:101EA000EFF08FC6130554036244B246F240014678
:101EB000814505616FF02FF5B7170240DC433717F6
:101EC0007A0013070720C983BD8BB387E702372742
:101ED000F40013070740F165854601469385052008
:101EE0000145BA9723A4F184E5B5B717024098439A
:101EF000B706FFF841111367170098C3D843370698
:101F00000200758FD8C39843B706F7FEFD16758F8C
:101F100098C39843B706FCFFFD16758F98C3D84346
:101F2000B70681FFFD16758FD8C337079F0098C786
:101F300002C402C69843C166558F98C3B7160240C3
:101F4000130700509C42F18F3EC6A24785073EC44E
:101F5000B24781E7A247E397E7FEB71702409C43E9
:101F60001397E7006352070885473EC63247854707
:101F7000631AF706B72702409843B706C1FFFD165C
:101F80001367070198C39843719B98C398431367DD
:101F9000270098C3B7170240D843D8C3D843D8C343
:101FA000D843D8C3D843758FD8C3D843B7062500C4
:101FB000558FD8C39843B7060001558F98C39843EF
:101FC00093166700E3DD06FED843B7160240719B07
:101FD000D8C3D84313672700D8C32147DC42B18B4D
:101FE000E39EE7FE4101828002C649B7411122C447
:101FF00011649305842601461305103006C6EFF0E0
:102000009F8D93058426014613050030EFF0BF8CA9
:1020100093058426014613052030EFF0DF8B9305EE
:102020008426014613053030EFF0FF8A9306003115
:10203000014685451305B004EFF08FC693060031C5
:10204000014685451305A004EFF08FC593060031C6
:10205000054685451305C002EFF08FC42244B24007
:1020600093060031054685451305C00441016FF014
:102070002FC34111896706C622C49387077163C0C5
:10208000B706F9779387078F63CCF50263CB050218
:1020900089472E846308F50663E5A7048547631C1A
:1020A000F502814511E085451305B004EFF02FCD11
:1020B000A285130510302244B24041016FF07F9E8B
:1020C000BE8589473304B040630EF50263EBA70079
:1020D0008547E30AF5FCB240224441018280BE8577
:1020E00045BF8D47630DF5029147E316F5FE635535
:1020F000B00481451305C004EFF06FC8A285130535
:10210000303055BF635BB00085451305A004EFF088
:102110000FC7A2851305003079BF8145FDB7635B0A
:10212000B00081451305C002EFF06FC5A28513050D
:10213000203051B78545FDB785456DBF011122CCD3
:102140002E84AA85054506CE36C432C61D37A28523
:102150000945053732460D45B285213FA246624406
:10216000F240B6851145056129B79DE5B7470000E6
:1021700083A747CF1CC1930700005CC1B74700008D
:1021800083A787CF1CC5930700001CCD5CC51CC965
:102190005CC95CD11CD182808547E396F5FEB747C8
:1021A000000083A7C7CF1CC1930700005CC1D9BF43
:1021B00089476382F50663CEB70063DE05029307A5
:1021C00000001CCD5CC51CC95CC95CCD5CD11CD1B8
:1021D00082808D47E395F5FEB747000083A787CE41
:1021E0001CC1B747000083A7C7CE5CC1B74700003A
:1021F00083A707CF39A8B747000083A707CD1CC125
:10220000B747000083A747CD5CC1B747000083A74D
:1022100087CD1CC56DB7B747000083A7C7CD1CC1CC
:10222000B747000083A707CE5CC1B747000083A76C
:1022300047CEC5B7011126CAAE840C4122CC2A84F0
:10224000268506CE4AC84EC652C4EF1000244C4024
:10225000AA8948C42685EF1040230C48EF00305B64
:102260000C502A8A08C82685EF10204B0C44EF102A
:10227000C0212A8948C804D0D2854E85EF00305944
:10228000CA85EF00D05808CCF2406244D24442499B
:10229000B249224A0561828001114AC80329050218
:1022A00026CAAE8422CCCA852A84268506CE4EC68E
:1022B00052C456C2EF1060460C40EF10001D4C4057
:1022C000AA8A48C42685EF10401CCA852A8A08C8F5
:1022D0004A85EF00D053AA852685EF1000444C5064
:1022E000EF00F0520C44EF10401A0C4CAA8948C879
:1022F0002322240304D048CC5685EF005051D285C8
:10230000EF00F050CE85EF009050B747000083A457
:1023100007D02A89A685EF1020066354A00004CCBC
:1023200029A8B747000083A447D04A85A685EF10A7
:10233000000DE34605FE232C2401F2406244D24402
:102340004249B249224A924A056182803708100008
:1023500001117D183377B80026CA3378D80093D49A
:10236000450113D34601131E37004EC61357D5013E
:102370000E089357D60193F4F47F1373F37F06CEC0
:1023800022CC4AC893D9F50193DEF6013367C70121
:10239000131F350033E80701931F3600338E644066
:1023A0006380D9196356C0136304031CB706800009
:1023B0009307F07F3368D800638FF4369307800368
:1023C00063C0C735FD4763CDC7471305000233051A
:1023D000C541B3D7CF01B316A8003399AF00DD8E46
:1023E00033392001B357C80133E926011D8F330962
:1023F0002F41B3372F013306F7409317860063D47C
:102400000724370780007D173374E600630C042C23
:102410002285EF10807B130785FF93070002998FB9
:10242000B357F9003316E400D18F3319E900634143
:10243000972A33059740130615007D47634DC7382B
:1024400013070002118FB356C9003319E9003397FF
:10245000E700558F333920013369270133D6C70090
:1024600081449377790081CF1377F900914763080E
:10247000F70013074900333927014A963A89931721
:10248000860063D6071C138514009307F07FCE8562
:102490006304F520B70780FFFD17F18F9398D701EC
:1024A00013593900A607B3E82801B1831375F57FE6
:1024B0009396C7005205F2406244B182FE05C98E70
:1024C000CD8ED2444249B2494685B68505618280A7
:1024D000631E0E0A138314001373E37F6317032232
:1024E000B367E701B368F801639D041A6387074087
:1024F000638608443309FF41B307074133362F0190
:102500003386C7409317860063D6074C3389EF4163
:10251000B307E84033B62F013386C740F68991B739
:102520006350C00F6300030CB70680009307F07F71
:102530003368D800638AF43A9307800363CBC713E8
:10254000FD4763DFC73513090EFE93070002B3563C
:102550002801630AFE00130900043309C941331935
:102560002801B3EF2F013339F0013369D90031A2CB
:10257000B367F801638A071C9307FEFF638C073873
:102580009306F07F6309DE1A3E8E0DBDB3059340BE
:1025900063910422B367E701638707329387F5FFEE
:1025A000638107449306F07F638CD520BE85930733
:1025B000800363CCB72AFD4763CFB73C9307000283
:1025C0008D8F3319F700B356BF00B317FF0033697F
:1025D000D900B337F0003357B7003369F900330837
:1025E000E84041ACB367F801638007349307FEFF0E
:1025F000638A07209306F07F6308DE2E3E8E2DBF90
:10260000631E0E149386140093F7E67F63910734DC
:10261000B367E7016395042C6380073EB367F80155
:10262000638E07303309FF01B3070701333FE90128
:102630003386E7019317860063D70700B70780FF4B
:10264000FD177D8E854493777900E39F07E093170C
:10265000D60193583900B3E8F800935736001307B2
:10266000F07F638DE404B207B18313F5F47FCE8568
:1026700081B53369F801333920017A99B337E9011B
:102680003386E70093178600E3DF07FA8504930794
:10269000F07F6396F418CE851305F07F814781485B
:1026A00001BDC1EB6384083A931636009317D80135
:1026B0008D82B3E8D700F68993573800B3E7F80066
:1026C000F9DB81451305F07FB70708008148CDB3DA
:1026D000370680FF7D167D8E93777900998CE39580
:1026E00007D8B5B74A85EF10404E13078501FD475F
:1026F000E3D5E7D2130685FFB317C900014905BB2F
:102700003369F80133392001DDB13309FF41330664
:10271000074133342F01330486409317840063CD7F
:102720000724B3688900E39308CE81478149814437
:102730001DBFE39808F80E059317D7010D81B3E884
:10274000A700935737009DBF0E059317D7010D8142
:10275000B3E8A700F2849357370011B733059340CD
:1027600063820412B70680009307F07F558F630DD4
:10277000F32E9307800363CBA720FD4763C3A72AEB
:1027800093070002898F3319F700B356AF00B317D0
:10279000FF003369D900B337F0003357A70033691E
:1027A000F9003A987E99B337F901338607019A8484
:1027B000D1BDB70680009307F07F558FE319F3DE94
:1027C000931736008D839318D801B3E81701F68963
:1027D00093573800E5B5130715FE9306000233D76B
:1027E000E700630AD600930600043386C64033969A
:1027F000C7003369C900333920013369E900014654
:10280000814491B53309FF01B30707013336E9016C
:102810003E96931786008544E3D707E28944B707BD
:1028200080FFFD17F18F13571900137919003369D1
:1028300027019398F70133E9280113D6170015B142
:1028400013090EFE93070002B3562801630AFE0027
:10285000130900043309C94133192801B3EF2F01CB
:102860003339F0013369D90059B63369E701333997
:10287000200133892F41B3B72F013306F8409A84E2
:10288000F689A5BEB367E701638207189307F5FFD2
:102890006384071C9306F07F6304D5123E85D1BD87
:1028A00093070002B387C741B316F8003399FF00BE
:1028B00033D6CF01D18E33392001B357C80133E964
:1028C00026013E975DBB931736008D839318D80180
:1028D000B3E81701AE8493573800F68949B3EDC3C6
:1028E0003369F801E31F09DC0E059317D7010D8149
:1028F000B368F50093573700D1B36381080E931680
:1029000036009317D8018D82B3E8D700F689935724
:10291000380091BB3309FF41B3070741333F2F0113
:102920003386E7418544D1BC0E059317D7010D814D
:10293000B368F500F2849357370015B30E0593176B
:10294000D7010D81B3E8A7009357370029BB930740
:10295000F07FE382F6D43309FF013336E901B30790
:102960000701B2979398F7011359190033E9280129
:1029700013D61700B684C1B93389EF413307E84055
:1029800033B62F013304C740F68949B43369E701F0
:102990003339200101BD938705FE93060002B3572A
:1029A000F700638AD50093060004B385B640331759
:1029B000B700336FEF003339E0013369F90055BDDB
:1029C000931736008D839318D801B3E817019357F6
:1029D0003800EDB1B368C900E39708C68147814963
:1029E00059B13389EF41B307E84033B62F0133863D
:1029F000C740F689854411B4931636009317D80161
:102A00008D82B3E8D70093573800B1B993163600DA
:102A10009317D8018D82B3E8D700AA849357380062
:102A20003DB9930705FE93060002B357F700630A0A
:102A3000D500930600043385A6403317A700336FF3
:102A4000EF003339E0013369F900A9BB8145130573
:102A5000F07FB7070800A9BC3309FF01B3070701DE
:102A60003336F9013E9675B3931636009317D801A5
:102A70008D82B3E8D7009357380089B139714AD8AD
:102A800013D945014ED652D456D29399C50006DECD
:102A900022DC26DA5AD05ECE1379F97F2A8A93D9BE
:102AA000C90093DAF501630D090E9307F07F630601
:102AB000F9181354D5018E09B36934013704800025
:102AC00033E4890093143500130919C08149814BFF
:102AD00013D74601139AC6001377F77FB285135AAE
:102AE000CA0013DBF601630B07109307F07F630343
:102AF000F7049357D6010E0A33EA4701130717C0AC
:102B0000B7078000B367FA00931536003A998148F9
:102B100033C76A01BD463A851308190063E83617C2
:102B2000171600001306861E8A09B29983A60900AB
:102B3000B2968286B367CA001309F97F63990712B8
:102B400093E9290081458948E1B701479307F07F60
:102B50003704080081443204D20731807E075D8C3F
:102B6000598CA285F250625426854259D254B259EA
:102B7000225A925A025BF24B216182805A853E842E
:102B8000AE84C68B8947638DFB0E8D47E38FFBFABE
:102B900085472A87639EFB3881470144814465BF8E
:102BA00033E4A90061C036C632C4638C092A4E855D
:102BB000EF10A0012246B246AA87130755FF7544BD
:102BC000938487FF198CB399990033548A00336436
:102BD0003401B3149A0013D746011309D0C0139AD5
:102BE000C6001377F77F3309F9408149814BB285DD
:102BF000135ACA0013DBF601E31907EEB367CA00E4
:102C0000B1C7630F0A22528532C4EF00107C2246FE
:102C10002A87930655FFF547930587FF958F331A4B
:102C2000BA00B357F600B3E74701B315B60033094E
:102C3000E9401309D9C08148E1BD33E4A90001ECA2
:102C4000A14981441309F07F894B59B593E91900D3
:102C50008145854875BD4E84AA84B1491309F07F2A
:102C60008D4BBDB5914981440149854B95B593E99B
:102C70003900D2878D4869BD89475685E397FBF0B7
:102C80002A879307F07F01448144F1B5C16E138612
:102C9000FEFF93D6040113DE0501F18CF18D33861E
:102CA00095023383B6029358060133059E021A95A6
:102CB000AA98B382C60363F36800F692C16F1383C8
:102CC000FFFF33F5670093D30701B3F76800C2072E
:102CD000337366003E933306950293D80801B38799
:102CE000A602135F0601B3849302BE94FA94B38ED6
:102CF000760263F3F400FE9E416A9307FAFF935F46
:102D00000401B376F400B3F9F4007D8EC1803384FE
:102D1000D502C209338FD401B299CE98B307DE022F
:102D2000935E0401B385BF02AE97BE9E330EFE03D1
:102D300063F3BE00529EC1679385F7FF33F6BE0072
:102D40006D8C4206229693DE0E01B305D502769E67
:102D50003385AF0213D40501B386D302AA96A29697
:102D6000B38FF30363F3A600BE9F41657D15B3F7F0
:102D7000A600C2076D8DAA97B3855800B3B9350177
:102D8000FA97B2953384370133B6C500B30EC40148
:102D90003385CE0033343401B3B7E701C18F33BE7E
:102DA000CE0113D406013336C5003E943366CE00FF
:102DB0009394950032947E94B3E464002604935671
:102DC0007501B3349000DD8193179500CD8C558C3F
:102DD000DD8C9317740063DB070093D7140085889C
:102DE0009316F401DD8CD58C058042899307F93F59
:102DF0006359F00893F6740081CE93F6F4001146FF
:102E00006388C60093864400B3B496002694B684C3
:102E10009316740063D80600B70700FFFD177D8C7A
:102E2000930709409306E07F63CFF60E93D63400F4
:102E30009314D4012604D58C318093F7F77F21BBFE
:102E4000328532C4EF00705893065501F1471307DD
:102E500005022246E3D1D7DC6115B317A6008145F0
:102E6000F9B3EF00905613075501F145930705029A
:102E70002246B246E3D5E5D461153314AA00814455
:102E800099BB85469D8EB1E71309E941B3972401AB
:102E9000B3D4D40033192401B337F000B3649900DC
:102EA000DD8C93F77400B356D40081CF93F7F40010
:102EB00011466388C70093874400B3B49700A69671
:102EC000BE849397860063D80704854701448144F4
:102ED00059B113068003E341D6CC7D46E356D6FABA
:102EE0000556B307F640930500023356F400638796
:102EF000B6001309E943B3172401DD8CB334900005
:102F0000D18C93F67400014499CA93F7F4001146EA
:102F10008146E392C7FA139496003180F6068D80BD
:102F2000D58C81470DB99307F07F0144814425B1C9
:102F300042896DBD93D74501B70610001387F6FF90
:102F400093F7F77F1306E03F6D8FFD81635CF6001A
:102F50001306D041635AF600370500801345F5FF8C
:102F60002E95828001458280130630431D8E7D4858
:102F7000558F635DC80093063041B387F640B35761
:102F8000F7003305F040E5F13E8582809387D7BE98
:102F9000B317F7003355C500C98FE5B7411106C611
:102FA00022C426C20DCD9357F541B3C4A7009D8C12
:102FB0002A842685EF0070419306E041898EA94757
:102FC0007D8093F6F67F63CDA7022D47098FB3D797
:102FD000E4005505B207B394A400B18329A00144CD
:102FE000814681478144B207D206B1837E04D58FE2
:102FF000C18FB24022442685BE8592444101828021
:103000005515B397A400B207B1838144E9BF4111BC
:10301000370780007D1713D8750126C293547501B8
:103020003373A70093F4F40FB376B7004AC0137854
:10303000F80F1359F50106C622C4FD819A8726852B
:103040004A86131E3300939E3600B3880441630AF8
:10305000B90E6350100D630408149307F00F638BCF
:10306000F414B7070004B3EEFE00ED4763C117295F
:1030700093070002B3871741B397FE00B3D81E0130
:10308000B337F000B3E7F800B307FE4013975700DB
:10309000635E0718370400047D147D8C2285EF00E1
:1030A000D0326D15B317A4006348951A058D13042B
:1030B000150013070002018F3397E7003337E00054
:1030C000B3D78700D98F814413F7770019C713F757
:1030D000F70091466303D700910713975700635B8E
:1030E000071485041307F00F4A866383E4169A07D2
:1030F000A58313F5F40FB2402244A607931475017B
:1031000013D59700458D7E0692440249518D4101A9
:1031100082806399080A138714001377E70F6317F7
:10312000071463900422630D0E1EE3860EFCB307A2
:10313000DE411397570063500722B387CE412E8993
:1031400061B7635C100B630E08089307F00F63838D
:10315000F406B7070004B3EEFE00ED4763C9171F7E
:1031600093070002B3871741B397FE00B3D81E013F
:10317000B337F000B3E7F800F2971397570063579F
:10318000070A85041307F00F6384E40CB706007E7A
:1031900013D71700FD16858B758FD98F35B7638DC3
:1031A0000E08FD18B307DE41E38208EE9307F00F27
:1031B000E39DF4EA630D030801461305F00FB7071A
:1031C000400015BF33079840EDE863020E147D17E9
:1031D000630807189307F00F6319F80E2E893683DA
:1031E000D1BF638B0E04FD18B307DE01E38708F837
:1031F0009307F00FE393F4F675BF63950808850411
:1032000013F7E40F6313071263170510630F0E140F
:10321000E3830EEEB307DE01139757008144635733
:103220000700370700FC7D17F98F854413F77700F7
:10323000E31F07E813D337009307F00FE38CF4F68E
:1032400093179300A58313F5F40F4A866DB54A864C
:103250001305F00F814745B5370700FC7D17F98F3F
:1032600013F77700898CE31407E6E9B73304DE41EE
:103270009317540063C3070CE31204E201460145AF
:10328000814795BD33079840ADC49307F00FE3081D
:10329000F8F4B7070004336EFE00ED4763CCE70C8B
:1032A00093070002998FB317FE003357EE00B33730
:1032B000F000D98FF697C284C9B59307F00FE30FDA
:1032C000F8F0B7070004336EFE00ED4763C3E7086C
:1032D00093060002998EB316DE00B357EE00333723
:1032E000D000D98FB387FE40C2842E8945B385476D
:1032F00061BB630E0E067D17B307DE01C284E30EC9
:1033000007E69307F00FE31AF8F8368365B53683BE
:10331000C2842E8915B7E3040EECE38D0EE869BD77
:10332000638D0E022E86B687F9B39307F00FE38103
:10333000F4F2B307DE018583D5BD3384CE412E89F7
:10334000B1BBE31C0EFCE3890EE62E8949BD85471F
:1033500025B5854741BFE39B07EC0146814761BB2B
:10336000B387CE41C2842E8915B3B68769B336833D
:10337000C284D9B585473DBF93567501B707800014
:10338000FD1713D6750193F6F60F1308F00FB3F877
:10339000A7001357F501ED8F1376F60FFD816381BA
:1033A0000603630C06018DE211E2B1C3638E0802CD
:1033B0006305B70405451DE78280F5D779558280FE
:1033C000E39E08FE6309D60211E2EDD7E314B7FECF
:1033D000E342D6FE63C7C600E3EE17FD0145E3FDF9
:1033E000F8FC01E77D558280F5DD054582800145C9
:1033F000E39208FC8280F9DBD1B78146E1BF9356A6
:103400007501B7078000FD1713D6750193F6F60F07
:103410001308F00FB3F8A7001357F501ED8F1376DB
:10342000F60FFD81638706036309060185EA11EA49
:1034300089EB0145639B080082800945F5FFE5DAC9
:1034400031A8638C08026300B704054575D77D5524
:1034500082800945639808026304D60211E2F5D719
:10346000E315B7FEE343D6FE63C7C600E3EF17FDDF
:103470000145E3F3F8FC19E3D9BFF1D90545828092
:10348000E5D3828082808146C5B7797122D41354F6
:1034900075014ECE52CC9319950006D626D24AD04D
:1034A00056CA5AC81374F40F93D99900135AF501E8
:1034B00069C49307F00F6308F40E93973900370738
:1034C0000004B3E9E700130414F88144014B13D757
:1034D0007501939A95001377F70F93DA9A0013D931
:1034E000F50145CF9307F00F630CF7028E0A13071F
:1034F00017F8B7070004B3EAFA003A9401463345D7
:103500002A01BD47AA869305140063E09710171798
:1035100000001307A7838A04BA949C40BA97828755
:103520001304F40F63960A0C93E424000946C1BF08
:1035300001451307F00FB7074000B2502254A60709
:103540005E07A5837E05D98F92540259F249624ADB
:10355000D24A424B5D8D45618280CA86D689328BC4
:103560008947630FFB088D47E304FBFC85473685DD
:103570006310FB1A01478147C9B7639D090413D73C
:103580007501939A95001377F70F91440144054B09
:1035900093DA9A0013D9F50131F7639D0A0093E499
:1035A00014000546A9BF63920902A1441304F00F59
:1035B000094B31BF5685112D9307B5FF098CB39A7E
:1035C000FA001304A4F801461DBFB1441304F00F20
:1035D0000D4BF5BD4E852EC6CD2B9307B5FF1304BD
:1035E000A0F8B399F900098C8144014BB245C5B5E7
:1035F00093E434000D4621B78947D286E315FBF6E4
:1036000036851307F00F81470DBF41639306F3FF23
:1036100013D6090193D80A01B3F7D900B3FADA0037
:1036200033885703B389F80213570801B30A5603C6
:10363000D6994E9733061603637357011A96C167DE
:10364000FD17B376F7003378F800C206C296939957
:10365000660093570701B3393001E982B2979A07A0
:10366000B3E6D900B3E9D7009397490063D90700BF
:1036700013D7190093F71900B369F7002E841307C5
:10368000F4076350E00493F7790099C793F7F900C2
:1036900091466383D70091099397490063D9070046
:1036A000B70700F8FD17B3F9F900130704089307EB
:1036B000E00F63CBE70493976900A5831377F70FB7
:1036C000ADBD8547B386E74011C76D4601478147C9
:1036D000E345D6E61307E4093397E9003337E00002
:1036E000B3D7D900D98F13F7770019C713F7F700AD
:1036F00091466303D700910713975700634C070067
:103700009A07A583014715BD1307F00F814735B50B
:103710002E84B5B7054781470DB5370780004111A5
:103720007D179356750113D87501B377A70093F6EB
:10373000F60F935EF5013376B70026C24AC01378C0
:10374000F80F06C622C41303F00F3E8E3689F684A6
:10375000139F3700FD8113153600B38806416302BD
:10376000681093C51500638CBE106354100D631070
:1037700008106304051EFD18B307AF4063860802F6
:103780009307F00F6388F616ED4763C717291307F1
:103790000002330717413317E500B35715013337DC
:1037A000E000D98FB307FF40139757006351071A02
:1037B000370400047D147D8C228501296D15B31713
:1037C000A400634E251B3305254113041500130780
:1037D0000002018F3397E7003337E000B3D787004B
:1037E000D98F014913F7770019C713F7F7009146EE
:1037F0006303D700910713975700635E071493067E
:1038000019001307F00F93FE14006386E6169A075B
:10381000A58393F6F60FA607B240224413D597006E
:10382000DE069397FE01558D924402495D8D41015C
:1038300082806392080A138716001377E70F631BD1
:1038400007146394062263020F2071D5B307AF40BB
:103850001397570063550722B307E5410149AE842A
:1038600051B7E30005F0638ABE0AE35410FD9307E5
:10387000F00F6381F608B70700045D8D31B7635E12
:103880001009630108089307F00F6385F606B70770
:1038900000045D8DED4763C0171F13070002330757
:1038A00017413317E500B35715013337E000D98FBF
:1038B000FA9713975700635C070805091307F00F81
:1038C000630BE90AB706007E13D71700FD16858B38
:1038D000758FD98F01BF3307D84063950610630DEC
:1038E0000F147D176303071A9307F00F6314F81082
:1038F000AE84328E630F0E06814E9306F00FB7072B
:10390000400011BF39C9FD18B307AF00E38308FABF
:103910009307F00FE390F6F8F1BF63990808138955
:1039200016001377E90F63160712639B06106303F3
:103930000F16E30205EEB307AF00139757000149D6
:1039400063570700370700FC7D17F98F054913F708
:103950007700E31C07E813DE37009307F00FE30B53
:10396000F9F893179E00A5839376F90F93FE140040
:103970005DB593FE14009306F00F814769BD3707CC
:1039800000FC7D17F98F13F777003309A940E31E78
:1039900007E4D1B73304AF409317540063C3070C57
:1039A000E31C04E0814E81468147B5B53307D8401A
:1039B000B5C69307F00FE30EF8F2B7070004336FB4
:1039C000FF00ED4763CDE70C93070002998FB31713
:1039D000FF003357EF00B337F0005D8FB307A70048
:1039E0004289C1BD9307F00FE304F8F0B707000464
:1039F000336FFF00ED4763C2E70893070002998F1A
:103A0000B317FF003357EF00B337F000D98FB30778
:103A1000F5404289AE8449BB854769B3630E0F0602
:103A20007D17B307AF004289E30507E89307F00F5E
:103A3000E319F8F8328E7DBD328E4289AE8431BFF3
:103A4000E3090FEAE30805EA45BD0DCDAE8EB28766
:103A5000D9B39307F00FE300F9F2B307AF00858302
:103A6000FDB53304E541AE8481BBE31D0FFCE305E6
:103A700005E8AE84BDBD854725BD854749BF0149E1
:103A8000E39707EC814E814779B3B307E54142895B
:103A9000AE8419BBB28741B3328E42897DBD0547E2
:103AA00035BF37068000135775019307F6FF13776C
:103AB000F70F9305E007B3F6A7009357F50163FCF2
:103AC000E5009305D00963FAE5003705008013454A
:103AD000F5FF3E9582800145828093055009D18E85
:103AE00063CDE500130660093307E64033D7E600EF
:103AF0003305E040F5F33A8582801307A7F6339744
:103B0000E600FDB7411106C622C426C20DCD93576B
:103B1000F54133C4A7001D8CAA8422857D2093071C
:103B2000E0093387A74093076009FD8063CCE70273
:103B3000A1469377F70F63D5A60061153314A4004F
:103B40002604258021A08144814701442604135581
:103B50009400B2402244DE07FE045D8D458D924400
:103B6000410182809307900963DDE7009307B50167
:103B70009546B317F400898E3354D400B337F00060
:103B80005D8C954763D6A7009307B5FF3314F40007
:103B9000B70600FCFD16937774003376D40085C316
:103BA0009377F4009145638CB70011069317560084
:103BB00063D707009307F009758E3387A740131466
:103BC000660025809377F70F51B7C167637EF502D2
:103BD0009307F00F1307000263ECA700970700009C
:103BE0009387C71AAA9703C507003305A7408280A9
:103BF00021819707000093876719AA9703C50700DB
:103C000061473305A7408280B7070001636EF50066
:103C100061819707000093876717AA9703C507007C
:103C200021473305A7408280418197070000938791
:103C3000E715AA9703C5070041473305A7408280CF
:103C4000A8050000E00500001006000020060000A6
:103C5000300600004006000050060000500600003C
:103C600050060000500600005A060000AA06000098
:103C7000DA070000440800007E080000B2080000D7
:103C8000A2080000D6080000AC080000E008000010
:103C90009A9999999999E93F9A9999999999C93FC6
:103CA00000080140000C01400010014000140140D8
:103CB000002C0140000000400004004000080040CB
:103CC000003801400044004000480040004C0040E3
:103CD0000000CC420000D0410000C8420000B242C7
:103CE00000009841000016430000DC420000E04163
:103CF0000000F042CDCC4C3F0000803F3333333FD7
:103D00000000FA450000FAC584EFFFFF76EEFFFFE2
:103D100076EEFFFF74EEFFFF7CEEFFFF7CEEFFFF11
:103D200042EEFFFF74EEFFFF7CEEFFFF42EEFFFF6F
:103D30007CEEFFFF74EEFFFF70EFFFFF70EFFFFF01
:103D400070EFFFFF42EEFFFFC2F8FFFF14F8FFFF26
:103D500014F8FFFF12F8FFFF18F8FFFF18F8FFFF35
:103D6000E8F7FFFF12F8FFFF18F8FFFFE8F7FFFF83
:103D700018F8FFFF12F8FFFFB0F8FFFFB0F8FFFFE1
:103D8000B0F8FFFFE8F7FFFF00010202030303039F
:103D900004040404040404040505050505050505DB
:103DA00005050505050505050606060606060606BB
:103DB00006060606060606060606060606060606A3
:103DC000060606060606060607070707070707078B
:103DD0000707070707070707070707070707070773
:103DE0000707070707070707070707070707070763
:103DF0000707070707070707070707070707070753
:103E0000070707070707070708080808080808083A
:103E10000808080808080808080808080808080822
:103E20000808080808080808080808080808080812
:103E30000808080808080808080808080808080802
:103E400008080808080808080808080808080808F2
:103E500008080808080808080808080808080808E2
:103E600008080808080808080808080808080808D2
:103E700008080808080808080808080808080808C2
:083E80000808080808080808FA
:103E880000000000010203040102030406070809F8
:103E9800E204FA00EE026400460050003C004600CE
:083EA8000204060801000000FD
:00000001FF
