:100000006F00302E130000001300000013000000EA
:100010001300000013000000130000001300000094
:100020001300000013000000130000001300000084
:08003000130000007300100032
:100038006FF09FFC000000006F00004E6F00C04E84
:1000480000000000000000000000000000000000A8
:100058000000000000000000000000000000000098
:100068006FF09FF9000000006FF01FF9000000001A
:100078006FF09FF86FF05FF86FF01FF86FF0DFF721
:100088006FF09FF76FF05FF76F0080646F004015A7
:100098006F00A0196F00C01A6F00801B6FF0DFF5AA
:1000A8006FF09FF56FF05FF56F0060426FF0DFF45F
:1000B8006FF09FF46FF05FF46F00801C0000000089
:1000C8000000000000000000000000006F00401960
:1000D8006F00001C6F00001F6F00C0216F00002719
:1000E8006F00C02F6F0000326F00C0346FF0DFF078
:1000F8006FF09FF06FF05FF06FF01FF06FF0DFEFC1
:100108006FF09FEF6F0000366F00C0366F006057CA
:100118006F0000166FF05FEE6FF01FEE6FF0DFED0F
:1001280000000000000000000000000000000000C7
:080138000000000000000000BF
:100140003D432A876373C3029377F700BDEFADE5A4
:10015000937606FF3D8ABA960CC34CC30CC74CC7B6
:100160004107E36BD7FE11E28280B306C3408A06E3
:100170009702000096966780A6002307B700A306A3
:10018000B7002306B700A305B7002305B700A304F3
:10019000B7002304B700A303B7002303B700A302EB
:1001A000B7002302B700A301B7002301B700A300E3
:1001B000B7002300B700828093F5F50F9396850072
:1001C000D58D93960501D58D61B79396270097023B
:1001D000000096968682E78086FA9680C1171D8F6A
:1001E0003E96E374C3F8A5B7411122C6000809453D
:1001F000EF0010372A8785476318F702B7070020FA
:1002000003A7470789476315F700EF30500C11A883
:10021000B707002003A7470785476314F700EF30AF
:10022000E00D0945EF00303901003244410173000F
:100230002030411122C600081145EF00D0370100DF
:100240003244410173002030411122C600080100F0
:100250003244410173002030411122C600080100E0
:100260003244410173002030411122C600080100D0
:100270003244410173002030411122C600080100C0
:100280003244410173002030411122C600080100B0
:100290003244410173002030411122C60008930509
:1002A0000008B7370140138507C0EF20C002AA87B6
:1002B00089CB93050008B7370140138507C0EF20AD
:1002C000800801003244410173002030411122C6F0
:1002D00000088545B7370140138507C0EF10B07F90
:1002E000AA8781CB8545B7370140138507C0EF202A
:1002F000800501003244410173002030411122C6C3
:10030000000893050004B7370140138507C0EF10BC
:10031000907CAA8789CB93050004B73701401385E9
:1003200007C0EF20400293050002B7370140138554
:1003300007C0EF10507AAA8789CB93050002B73720
:100340000140138507C0EF20000001003244410145
:1003500073002030411122C600088945B73701409B
:10036000138507C0EF103077AA8781CB8945B7374F
:100370000140138507C0EF10107D9145B73701404C
:10038000138507C0EF103075AA8781CB9145B73729
:100390000140138507C0EF10107BA145B73701401E
:1003A000138507C0EF103073AA8781CBA145B737FB
:1003B0000140138507C0EF101079C145B7370140E0
:1003C000138507C0EF103071AA8781CBC145B737BD
:1003D0000140138507C0EF1010770100324441013E
:1003E00073002030411122C60008854537050040C2
:1003F000EF10706EAA8791C7854537050040EF1052
:10040000907401003244410173002030411122C632
:1004100000088545B707004013850740EF10B06B13
:10042000AA8781CB8545B707004013850740EF10A9
:10043000907101003244410173002030411122C605
:1004400000088545B717004013850780EF10B06896
:10045000AA8781CB8545B717004013850780EF1029
:10046000906E01003244410173002030411122C6D8
:10047000000801003244410173002030411122C6BE
:10048000000893055052B747004013850740EF20FE
:10049000802DAA8785CF93055052B747004013851A
:1004A0000740EF20603CB707002003A747078947B4
:1004B0006315F700EF30A05A11A8B707002003A773
:1004C000470785476314F700EF20505C0100324472
:1004D000410173002030411122C600080965EF0078
:1004E000E0672A8785476318F7020965EF00C06C4B
:1004F000B707002003A7470789476315F700EF30C8
:10050000606011A8B707002003A747078547631459
:10051000F700EF20106201003244410173002030E7
:10052000411122C60008010032444101730020300D
:10053000411122C6000801A0011122CE0010AA8795
:10054000A307F4FE83C75182138717009376F70F32
:10055000A382D1823E8793878184BA970347F4FEB2
:100560002380E70003C751828547631DF70003C757
:1005700081849307800D6307F700A38201820947F6
:10058000238CE18003C75182AD476316F70205470C
:10059000238CE1809387818403C7A7009307E00E33
:1005A0006316F7000547238CE18021A00D47238CBB
:1005B000E180A38201820100724405618280011101
:1005C00022CE00102326A4FE8327C4FE850703C77E
:1005D00007009307000B6318F7028327C4FE8907FF
:1005E00083C70700A2071397070141878327C4FE2B
:1005F0008D0783C70700C207C187D98F13970701EB
:100600004187239DE1808327C4FE910703C707002C
:100610009307100B6318F7028327C4FE950783C75F
:100620000700A2071397070141878327C4FE990794
:1006300083C70700C207C187D98F13970701418776
:10064000239EE1808327C4FE9D0703C7070093070D
:10065000200B6318F7028327C4FEA10783C7070096
:10066000A2071397070141878327C4FEA50783C705
:100670000700C207C187D98F139707014187239FBE
:10068000E1800100724405618280011122CE0010D8
:1006900093055052B757004013850780EF20A00CF8
:1006A000AA8795C793055052B75700401385078016
:1006B000EF20801BB757004013850780EF20E00331
:1006C000AA87A307F4FE8347F4FE3E85B5350100F3
:1006D0007244056173002030011122CE26CC4ACA33
:1006E0004EC800100545EF00A0672A8785476316AE
:1006F000F7280545EF00206C010083C7818113F7BF
:10070000F70F8547E31BF7FE238C01801385818457
:100710007D358397C181C207C183B307F040C2070B
:10072000C183139707014187239EE1800545EF4070
:10073000602DAA873E872390E1820945EF40802CF7
:10074000AA87C207C183B307F040C207C1831397CA
:10075000070141872391E1820545EF40C02D0945FE
:10076000EF40602DE5472313F4FE0397E1818947AD
:1007700063C7E7000397E181F9576353F7128317C3
:1007800064FE3E85EF6060452A89AE898397E181EA
:100790003E85EF608044A56703A687C283A6C7C2D3
:1007A000EF50C07DAA872E883E86C2864A85CE85B8
:1007B000EF40D077AA872E883E85C285EF60603BE8
:1007C000AA872317F4FE831764FE3E85EF60E0409E
:1007D0002A89AE898397E1813E85EF600040A56755
:1007E00003A687C283A6C7C2EF504079AA872E8886
:1007F0003E86C2864A85CE85EF50D043AA872E8892
:100800003E85C285EF60E036AA872316F4FE831783
:1008100064FE3E85EF60603C2A89AE898397E18162
:100820003E85EF60803BA56703A687C283A6C7C24B
:10083000EF50C074AA872E883E86C2864A85CE8530
:10084000EF40D06EAA872E883E85C285EF60603269
:10085000AA872315F4FE831764FE3E85EF60E03718
:100860002A89AE898397E1813E85EF600037A567CD
:1008700003A687C283A6C7C2EF504070AA872E88FE
:100880003E86C2864A85CE85EF50D03AAA872E880A
:100890003E85C285EF60E02DAA872314F4FE0DA0EB
:1008A000835764FE2314F4FE835784FE2315F4FE5D
:1008B0008357A4FE2316F4FE8357C4FE2317F4FEC9
:1008C0008317E4FE0397A181998F3E85EF607067DF
:1008D000AA87BE8513854185EF40B04F8317C4FEBC
:1008E0000397C181998F3E85EF60B065AA87BE8569
:1008F00013854188EF40F04D8317A4FE03970182D2
:10090000998F3E85EF60F063AA87BE851385418B82
:10091000EF40304C831784FE03972182998F3E85E8
:10092000EF603062AA87BE851385418EEF40704A22
:1009300093874185DC4F3E85EF60905AAA84938768
:100940004188DC4F3E85EF60B0592A899387418BFF
:10095000DC4F3E85EF60D058AA899387418EDC4FEB
:100960003E85EF60F057AA87BE864E86CA852685EB
:10097000EF40103A05472382E18201007244E244CD
:100980005249C249056173002030411106C622C494
:100990000008154691450545EF30F0702D46A945F4
:1009A0000945EF3050700100B2402244410182807D
:1009B000411106C622C40008EF300050EF40C06F5E
:1009C000EF2080199306100213060002B7170700E4
:1009D000938507800945EF40C05885450945EF409C
:1009E000A06813068004A1450145EF30A036854676
:1009F000054685455945EF30003E13854185EF405A
:100A0000D03513854188EF4050351385418BEF4039
:100A1000D0341385418EEF405034EF40D011B537BC
:100A20000145EF30204D83C74182F5DF8397A181D7
:100A30003E8681450145EF20A0548397C1813E86C3
:100A4000814513050005EF20A053839701823E8660
:100A500085450145EF20C052839721823E8685451A
:100A600013050005EF20C05193874185DC4F3E857B
:100A7000EF6090592A86AE8689471147894501451E
:100A8000EF20806793874188DC4F3E85EF60D05729
:100A90002A86AE8689471147894513050005EF2050
:100AA000A0659387418BDC4F3E85EF60F0552A8629
:100AB000AE86894711478D450145EF20E063938756
:100AC000418EDC4F3E85EF6030542A86AE868947E2
:100AD00011478D4513050005EF2000622382018236
:100AE00099B7970100209381E1D8174100201301A5
:100AF0006151179500001305A5BF97F5FF1F93855A
:100B000065501386818163FAC5008322050023A006
:100B1000550011059105E3EAC5FE13858181938592
:100B200041926377B500232005001105E36DB5FE02
:100B30009302800873A0023097F2FFFF9382025065
:100B400093E2120073905230EF400077970200005A
:100B5000938242E67390123473002030797122D66A
:100B60000018232EA4FC232604FE232404FE0327BE
:100B7000C4FDB7070010F98F89CBB70702409387F0
:100B800007409C432324F4FE31A0B70702409C4356
:100B90002324F4FE032784FE8327C4FDF98F89C72D
:100BA00085472326F4FE19A0232604FE8327C4FECE
:100BB0003E85325445618280011122CE00102326E9
:100BC000A4FE0327C4FEB7070010F98F89CBB7072F
:100BD0000240938707400327C4FED8C331A0B7075C
:100BE00002400327C4FED8C301007244056182801D
:100BF000797122D60018232EA4FC232604FEB70701
:100C00000140938707402326F4FE8327C4FDDC4779
:100C100063800712B70701409387074094438327F7
:100C2000C4FD9C4313C7F7FFB707014093870740F4
:100C3000758F98C3B707014093870740D443832734
:100C4000C4FD9C4313C7F7FFB707014093870740D4
:100C5000758FD8C38327C4FDDC430327C4FEBA972E
:100C60002326F4FE8327C4FE94438327C4FD9843C0
:100C70008327C4FE558F98C3B70701409387074069
:100C800094478327C4FD9C4313C7F7FFB707014070
:100C900093870740758F98C7B70701409387074030
:100CA000D4478327C4FD9C4313C7F7FFB707014010
:100CB00093870740758FD8C78327C4FD9847C147DE
:100CC000631FF702B70701409387074094478327C4
:100CD000C4FD9843B707014093870740558F98C7D5
:100CE000B707014093870740D4478327C4FD984343
:100CF000B707014093870740558FD8C7B1A8B707FA
:100D00000140938707402326F4FE8327C4FD9C47B8
:100D10000327C4FEBA972326F4FE8327C4FE944318
:100D20008327C4FD98438327C4FE558F98C32DA005
:100D30008327C4FDDC430327C4FEBA972326F4FEB1
:100D40008327C4FE94438327C4FD9C4313C7F7FF46
:100D50008327C4FE758F98C3010032544561828099
:100D6000797122D60018232EA4FC232604FE232406
:100D700004FEB7070140938707409C430327C4FD47
:100D8000F98F2324F4FEB707014093870740D84B1F
:100D90008327C4FDF98F81CB832784FE89C78547CC
:100DA0002326F4FE19A0232604FE8327C4FE3E85D5
:100DB000325445618280011122CE00102326A4FE08
:100DC000B7070140938707400327C4FED8CB010033
:100DD000724405618280397122DE80002326A4FCE2
:100DE0002324B4FC232604FE232004FE232404FE33
:100DF000232E04FC232204FE232C04FC832784FCE2
:100E00009C47BD8B2326F4FE832784FC9C47C18B23
:100E100089CB832784FCDC430327C4FED98F232698
:100E2000F4FE832784FC83D7070093F7F70FF1CFF5
:100E30008327C4FC9C432322F4FE232404FE65A8DC
:100E4000832784FE0547B317F700232EF4FC83277E
:100E500084FC83D707003E878327C4FDF98F2320B6
:100E6000F4FE032704FE8327C4FD6311F7088327DC
:100E700084FE8A07232EF4FC8327C4FD3D47B31765
:100E8000F700232CF4FC832784FD93C7F7FF032787
:100E900044FEF98F2322F4FE8327C4FD0327C4FEFA
:100EA000B317F700032744FED98F2322F4FE8327CC
:100EB00084FC984793078002631BF700832784FE16
:100EC00005473317F7008327C4FCD8CB05A0832739
:100ED00084FC984793078004631AF700832784FEF5
:100EE00005473317F7008327C4FC98CB832784FE7C
:100EF00085072324F4FE032784FE9D47E3F2E7F4ED
:100F00008327C4FC032744FE98C3832784FC03D7AC
:100F100007009307F00F63F1E70E8327C4FCDC435F
:100F20002322F4FE232404FE75A8832784FEA10750
:100F30000547B317F700232EF4FC832784FC83D7DF
:100F400007003E878327C4FDF98F2320F4FE032783
:100F500004FE8327C4FD6312F708832784FE8A07F3
:100F6000232EF4FC8327C4FD3D47B317F700232C41
:100F7000F4FC832784FD93C7F7FF032744FEF98F12
:100F80002322F4FE8327C4FD0327C4FEB317F70012
:100F9000032744FED98F2322F4FE832784FC98473D
:100FA00093078002631BF700832784FEA107054790
:100FB0003317F7008327C4FCD8CB832784FC9847DA
:100FC00093078004631BF700832784FEA10705476E
:100FD0003317F7008327C4FC98CB832784FE85074B
:100FE0002324F4FE032784FE9D47E3F0E7F48327E0
:100FF000C4FC032744FED8C30100725421618280DF
:10100000011122CE00102326A4FEAE872322C4FEA7
:101010002315F4FE832744FE99C70357A4FE8327B4
:10102000C4FE98CB31A00357A4FE8327C4FED8CBBF
:101030000100724405618280797122D60018232E46
:10104000A4FC232CB4FC232404FE232204FE232628
:1010500004FE232004FE8327C4FD63D80700B707DE
:101060000140DC4F2326F4FE31A0B7070140DC43EA
:101070002326F4FE8327C4FDC183BD8B2320F4FE09
:101080000327C4FDC167FD17F98F2324F4FE03274E
:10109000C4FDB70730007D8FB70730006315F70236
:1010A0000327C4FEB70700F1FD17F98F2326F4FECE
:1010B000B7070140D443B7070140370700F17D1758
:1010C000758FD8C3ADA00327C4FDB7071000F98FF3
:1010D0008DCB832704FE0D47B317F7002322F4FEC0
:1010E000832744FE93C7F7FF0327C4FEF98F232607
:1010F000F4FE0327C4FEB707000FD98F2326F4FEA2
:101100003DA08327C4FDD5839207032784FEB31730
:10111000F70093C7F7FF0327C4FEF98F2326F4FED9
:101120000327C4FEB707000FD98F2326F4FE8327B9
:1011300084FD91CF8327C4FDD5839207032784FEC6
:10114000B317F7000327C4FED98F2326F4FE8327A5
:10115000C4FD63D80700B70701400327C4FED8CFFA
:1011600031A0B70701400327C4FED8C301003254A1
:1011700045618280797122D60018AA872E87A30F35
:10118000F4FCBA87230FF4FC232604FE8347E4FD16
:101190008D8B8A073D47B317F7002326F4FE3707E8
:1011A00001408347E4FD898393F7F70F8A07BA97D5
:1011B00098478327C4FE93C7F7FFB706014003464D
:1011C000E4FD09821376F60F7D8F93172600B697FC
:1011D00098C7370701408347E4FD898393F7F70FEA
:1011E0008A07BA9798478346F4FD8347E4FD8D8BC1
:1011F0008A07B397F600B70601400346E4FD09826B
:101200001376F60F5D8F93172600B69798C70100E7
:10121000325445618280011122CE00102326A4FEA3
:101220008327C4FEFD8B0547B316F70037E700E0C0
:101230008327C4FE9583938707048A07BA9794C3CC
:101240000100724405618280011122CE0010232624
:10125000A4FE8327C4FEFD8B0547B316F70037E7CE
:1012600000E08327C4FE9583938707068A07BA9711
:1012700094C30100724405618280011122CE0010E6
:101280002326A4FEAE87A305F4FE37E700E08327FC
:10129000C4FEBA970347B4FE2380E74001007244BE
:1012A00005618280011106CE22CC00102326A4FE07
:1012B000B7E700E0BC47898B8DC38327C4FE83C793
:1012C00007003E878327C4FE83C72700920793F752
:1012D000F70FBE853A85553795A0B7E700E0BC47C4
:1012E000898BA9EF8327C4FE03C7170085476318BE
:1012F000F7028327C4FE83C707003E878327C4FE07
:1013000083C727009207E207E18793E707F8E20720
:10131000E18793F7F70FBE853A85853705A08327C8
:10132000C4FE83C707003E878327C4FE83C7270008
:10133000920793F7F70FBE853A8581378327C4FE5E
:10134000DC4381CB8327C4FE83C707003E85E1359C
:1013500039A08327C4FE83C707003E85F535010009
:10136000F240624405618280797122D60018232EF2
:10137000A4FC232604FE232404FE232204FE2320AF
:1013800004FEB7170240DC43B18B2326F4FE03278B
:10139000C4FE91476302F7020327C4FEA147630519
:1013A000F7028327C4FEC5E78327C4FD37177A00F9
:1013B0001307072098C365A08327C4FD37177A0059
:1013C0001307072098C361A8B7170240D843B7078F
:1013D0003C00F98F2324F4FEB7170240D843C167BD
:1013E000F98F2322F4FE832784FEC98389072324EF
:1013F000F4FE832744FE89EF032784FEB7173D00E0
:10140000938707903307F7028327C4FD98C381A809
:10141000B7170240D843B7070200F98F89CF0327D7
:1014200084FEB7173D00938707903307F7028327A1
:10143000C4FD98C32DA0032784FEB7177A009387B5
:1014400007203307F7028327C4FD98C309A8832721
:10145000C4FD37177A001307072098C30100B71798
:101460000240DC4393F7070F2326F4FE8327C4FED4
:1014700091832326F4FEB7070020138707008327F4
:10148000C4FEBA9783C7070093F7F70F2320F4FE33
:101490008327C4FD9843832704FE3357F70083272F
:1014A000C4FDD8C3B7170240DC4393F70770232667
:1014B000F4FE8327C4FEA1832326F4FEB707002091
:1014C000138707008327C4FEBA9783C7070093F7E3
:1014D000F70F2320F4FE8327C4FDD843832704FE9F
:1014E0003357F7008327C4FD98C7B7170240D84386
:1014F000916793870780F98F2326F4FE8327C4FE24
:10150000AD832326F4FEB707002013870700832747
:10151000C4FEBA9783C7070093F7F70F2320F4FEA2
:101520008327C4FDD843832704FE3357F70083275E
:10153000C4FDD8C7B7170240D843B167F98F232637
:10154000F4FE8327C4FEB9832326F4FEB7070020E8
:10155000138707078327C4FEBA9783C7070093F74B
:10156000F70F2320F4FE8327C4FDD847832704FE0A
:101570003357F7028327C4FD98CB010032544561ED
:101580008280011122CE00102326A4FE2324B4FE63
:10159000832784FE99CBB7170240944FB7170240B8
:1015A0000327C4FE558F98CF21A8B7170240944F48
:1015B0008327C4FE13C7F7FFB7170240758F98CF74
:1015C0000100724405618280011122CE00102326A1
:1015D000A4FE2324B4FE832784FE99CBB7170240D0
:1015E000D44FB71702400327C4FE558FD8CF21A888
:1015F000B7170240D44F8327C4FE13C7F7FFB717AE
:101600000240758FD8CF01007244056182807971E4
:1016100022D60018232EA4FC232CB4FC231704FE8E
:101620008327C4FD83D707002317F4FE0357E4FE86
:101630008D6793870704F98F2317F4FE832784FDB2
:1016400003D70700832784FD83D72700D98F1397FB
:1016500007014183832784FD83D74700D98F1397E0
:1016600007014183832784FD83D76700D98F1397B0
:1016700007014183832784FD83D78700D98F139780
:1016800007014183832784FD83D7A700D98F139750
:1016900007014183832784FD83D7C700D98F139720
:1016A00007014183832784FD83D7E700D98F1397F0
:1016B000070141838357E4FED98F2317F4FE832764
:1016C000C4FD0357E4FE2390E7008327C4FD83D7BE
:1016D000C701139707014183FD779387F77FF98F40
:1016E0001397070141838327C4FD239EE7008327C7
:1016F00084FD03D707018327C4FD2398E700010079
:10170000325445618280011122CE00102326A4FEAE
:101710002324B4FE832784FE8DC38327C4FE83D78E
:101720000700C207C18393E70704139707014183AA
:101730008327C4FE2390E70005A08327C4FE83D738
:101740000700C207C18393F7F7FB13970701418393
:101750008327C4FE2390E700010072440561828064
:10176000797122D60018232EA4FC232CB4FC231755
:1017700004FE8327C4FD83D707002317F4FE032745
:10178000C4FDB7370140938707C06308F7020327FA
:10179000C4FDB70700406302F7020327C4FDB70783
:1017A000004093870740630AF7000327C4FDB7177B
:1017B0000040938707806311F7028357E4FE93F795
:1017C000F7F82317F4FE832784FD03D727008357F8
:1017D000E4FED98F2317F4FE8357E4FE93F7F7CF87
:1017E0002317F4FE832784FD03D767008357E4FEA5
:1017F000D98F2317F4FE8327C4FD0357E4FE2390FB
:10180000E700832784FD03D747008327C4FD239681
:10181000E702832784FD03D707008327C4FD2394B1
:10182000E7020327C4FDB7370140938707C0631D54
:10183000F700832784FD83C787001397070141833F
:101840008327C4FD2398E7028327C4FD0547239A15
:10185000E7000100325445618280797122D6001878
:10186000232EA4FC232CB4FC231504FE231704FE12
:10187000231604FE8327C4FD83D70702C207C18352
:10188000F99B1397070141838327C4FD2390E70247
:101890008327C4FD83D707022317F4FE8327C4FDE3
:1018A00083D747002316F4FE8327C4FD83D787011F
:1018B0002315F4FE8357A4FE93F7F7F82315F4FEDF
:1018C0008357A4FEF19B2315F4FE832784FD03D7E1
:1018D00007008357A4FED98F2315F4FE8357E4FE37
:1018E000F59B2317F4FE832784FD03D787008357D6
:1018F000E4FED98F2317F4FE832784FD03D7270046
:101900008357E4FED98F2317F4FE0327C4FDB737AE
:101910000140938707C0631CF7068357E4FEDD9BF5
:101920002317F4FE832784FD03D7A7008357E4FE23
:10193000D98F2317F4FE8357E4FEED9B2317F4FEA3
:10194000832784FD03D747008357E4FED98F2317ED
:10195000F4FE8357C4FE93F7F7EF2316F4FE835784
:10196000C4FE93F7F7DF2316F4FE832784FD03D725
:10197000C7008357C4FED98F2316F4FE832784FD46
:1019800003D7E7008357C4FED98F2316F4FE8327BD
:10199000C4FD0357C4FE2392E7008327C4FD035709
:1019A000A4FE239CE700832784FD03D767008327D9
:1019B000C4FD239AE7028327C4FD0357E4FE239066
:1019C000E7020100325445618280797122D6001805
:1019D000232EA4FC232CB4FC231504FE231704FEA1
:1019E000231604FE8327C4FD83D70702C207C183E1
:1019F000BD9B1397070141838327C4FD2390E70212
:101A00008327C4FD83D707022317F4FE8327C4FD71
:101A100083D747002316F4FE8327C4FD83D78701AD
:101A20002315F4FE0357A4FEE577FD17F98F231560
:101A3000F4FE8357A4FE93F7F7CF2315F4FE832714
:101A400084FD83D70700A2071397070141838357BB
:101A5000A4FED98F2315F4FE8357E4FE93F7F7FD18
:101A60002317F4FE832784FD83D7870092071397FB
:101A7000070141838357E4FED98F2317F4FE8327A0
:101A800084FD83D72700920713970701418383576B
:101A9000E4FED98F2317F4FE0327C4FDB7370140B6
:101AA000938707C06310F70A8357E4FE93F7F7F7AD
:101AB0002317F4FE832784FD83D7A700920713978B
:101AC000070141838357E4FED98F2317F4FE835720
:101AD000E4FE93F7F7FB2317F4FE832784FD83D7F7
:101AE000470092071397070141838357E4FED98F7C
:101AF0002317F4FE8357C4FE93F7F7BF2316F4FEB3
:101B00000357C4FEFD779387F77FF98F2316F4FE02
:101B1000832784FD83D7C7008A0713970701418372
:101B20008357C4FED98F2316F4FE832784FD83D701
:101B3000E7008A071397070141838357C4FED98FB3
:101B40002316F4FE8327C4FD0357C4FE2392E70047
:101B50008327C4FD0357A4FE239CE700832784FD4D
:101B600003D767008327C4FD239CE7028327C4FDB6
:101B70000357E4FE2390E70201003254456182805E
:101B8000797122D60018232EA4FC232CB4FC231533
:101B900004FE231704FE231604FE8327C4FD83D707
:101BA0000702C207C18393F7F7EF13970701418339
:101BB0008327C4FD2390E7028327C4FD83D7070250
:101BC0002317F4FE8327C4FD83D747002316F4FEB2
:101BD0008327C4FD83D7C7012315F4FE8357A4FED2
:101BE00093F7F7F82315F4FE8357A4FEF19B231512
:101BF000F4FE832784FD03D707008357A4FED98F03
:101C00002315F4FE8357E4FE93F7F7DF2317F4FE62
:101C1000832784FD83D78700A20713970701418399
:101C20008357E4FED98F2317F4FE832784FD83D7DF
:101C30002700A2071397070141838357E4FED98F3A
:101C40002317F4FE0327C4FDB7370140938707C06D
:101C50006312F70A0357E4FEFD779387F77FF98F46
:101C60002317F4FE832784FD83D7A700A2071397C9
:101C7000070141838357E4FED98F2317F4FE83576E
:101C8000E4FE93F7F7BF2317F4FE832784FD83D781
:101C90004700A2071397070141838357E4FED98FBA
:101CA0002317F4FE0357C4FEFD77FD17F98F2316A3
:101CB000F4FE0357C4FEF977FD17F98F2316F4FEDF
:101CC000832784FD83D7C7009207139707014183B9
:101CD0008357C4FED98F2316F4FE832784FD83D750
:101CE000E70092071397070141838357C4FED98FFA
:101CF0002316F4FE8327C4FD0357C4FE2392E70096
:101D00008327C4FD0357A4FE239EE700832784FD99
:101D100003D767008327C4FD239EE7028327C4FD02
:101D20000357E4FE2390E7020100325445618280AC
:101D3000797122D60018232EA4FC232CB4FC231680
:101D400004FE231504FE231704FE8327C4FD83D756
:101D50000702139707014183FD77FD17F98F13974A
:101D6000070141838327C4FD2390E7028327C4FD35
:101D700083D707022315F4FE8327C4FD83D74700CA
:101D80002317F4FE8327C4FD83D7C7012316F4FE6F
:101D90000357C4FEE577FD17F98F2316F4FE83572A
:101DA000C4FE93F7F7CF2316F4FE832784FD83D771
:101DB0000700A2071397070141838357C4FED98FF9
:101DC0002316F4FE0357A4FEF977FD17F98F2315A8
:101DD000F4FE832784FD83D78700B207139707019A
:101DE00041838357A4FED98F2315F4FE832784FDF6
:101DF00083D72700B2071397070141838357A4FEB7
:101E0000D98F2315F4FE0327C4FDB737014093870C
:101E100007C06316F7020357E4FEF177FD17F98F49
:101E20002317F4FE832784FD83D7C7009A071397EF
:101E3000070141838357E4FED98F2317F4FE8327DC
:101E4000C4FD0357E4FE2392E7008327C4FD035734
:101E5000C4FE239EE700832784FD03D76700832702
:101E6000C4FD2390E7048327C4FD0357A4FE2390F9
:101E7000E7020100325445618280011122CE001038
:101E80002326A4FE8327C4FE7D572392E7008327E1
:101E9000C4FE239007008327C4FE239307008327F3
:101EA000C4FE239107008327C4FE2384070001009A
:101EB000724405618280011122CE00102326A4FE07
:101EC0002324B4FE832784FE8DC38327C4FE83D7D7
:101ED0000700C207C18393E71700139707014183E7
:101EE0008327C4FE2390E70039A88327C4FE83D745
:101EF0000700C207C183F99B13970701418383271A
:101F0000C4FE2390E7000100724405618280011144
:101F100022CE00102326A4FE2324B4FE832784FEB1
:101F200095C38327C4FE83D74704139707014183D2
:101F3000E177D98F1397070141838327C4FE23924A
:101F4000E70415A08327C4FE83D74704139707012E
:101F50004183A167FD17F98F1397070141838327F9
:101F6000C4FE2392E7040100724405618280797106
:101F700022D60018232EA4FCAE873687231DF4FC3E
:101F8000B287231CF4FCBA87231BF4FC231704FE3E
:101F9000231604FE231504FE8327C4FD83D7870080
:101FA0002317F4FE8327C4FD83D787012316F4FE8D
:101FB0008327C4FD83D707022315F4FE8357E4FE6D
:101FC000E19B2317F4FE0357E4FE8357A4FDD98F4A
:101FD0002317F4FE8357C4FE93F7C7CF2316F4FEEE
:101FE0008357C4FE93E717102316F4FE8357A4FE0D
:101FF00093F7D7FD2315F4FE835764FD92071397DB
:1020000007014183835784FDD98F139707014183CB
:102010008357A4FED98F2315F4FE8327C4FD0357ED
:10202000E4FE2394E7008327C4FD0357C4FE239CEA
:10203000E7008327C4FD0357A4FE2390E7020100B5
:10204000325445618280797122D60018232EA4FC77
:10205000AE87231DF4FC231704FE8327C4FD83D71A
:1020600087012317F4FE8357E4FEDD9B2317F4FE5C
:102070000357E4FE8357A4FDD98F2317F4FE83276B
:10208000C4FD0357E4FE239CE70001003254456180
:102090008280797122D60018232EA4FCAE87231DDE
:1020A000F4FC231704FE8327C4FD83D7870123177D
:1020B000F4FE0357E4FEFD779387F77FF98F23172C
:1020C000F4FE8357A4FDA2071397070141838357AA
:1020D000E4FED98F2317F4FE8327C4FD0357E4FEE3
:1020E000239CE7000100325445618280797122D639
:1020F0000018232EA4FCAE87231DF4FC231704FE36
:102100008327C4FD83D7C7012317F4FE8357E4FE5A
:10211000DD9B2317F4FE0357E4FE8357A4FDD98FFC
:102120002317F4FE8327C4FD0357E4FE239EE70034
:102130000100325445618280797122D60018232E25
:10214000A4FCAE87231DF4FC231704FE8327C4FDE3
:1021500083D7C7012317F4FE0357E4FEFD77938767
:10216000F77FF98F2317F4FE8357A4FDA207139777
:10217000070141838357E4FED98F2317F4FE832799
:10218000C4FD0357E4FE239EE7000100325445617D
:102190008280797122D60018232EA4FCAE87231DDD
:1021A000F4FC231704FE8327C4FD83D7870123177C
:1021B000F4FE8357E4FEED9B2317F4FE0357E4FE81
:1021C0008357A4FDD98F2317F4FE8327C4FD03573B
:1021D000E4FE239CE700010032544561828079715E
:1021E00022D60018232EA4FCAE87231DF4FC23174F
:1021F00004FE8327C4FD83D787012317F4FE83578A
:10220000E4FE93F7F7BF2317F4FE8357A4FDA2075C
:102210001397070141838357E4FED98F2317F4FEF8
:102220008327C4FD0357E4FE239CE70001003254DA
:1022300045618280797122D60018232EA4FCAE87D6
:10224000231DF4FC231704FE8327C4FD83D7C70195
:102250002317F4FE8357E4FEED9B2317F4FE035788
:10226000E4FE8357A4FDD98F2317F4FE8327C4FD12
:102270000357E4FE239EE70001003254456182804B
:10228000797122D60018232EA4FCAE87231DF4FCFE
:10229000231704FE8327C4FD83D7C7012317F4FE49
:1022A0008357E4FE93F7F7BF2317F4FE8357A4FD8B
:1022B000A2071397070141838357E4FED98F2317A1
:1022C000F4FE8327C4FD0357E4FE239EE7000100CC
:1022D000325445618280797122D60018232EA4FCE5
:1022E000AE87231DF4FC232604FE231504FE2314CD
:1022F00004FE8327C4FD83D7070113970701418399
:102300008357A4FDF98F2315F4FE8327C4FD83D7DB
:10231000C7001397070141838357A4FDF98F231446
:10232000F4FE8357A4FE81CB835784FE89C785477B
:102330002326F4FE19A0232604FE8327C4FE3E852F
:10234000325445618280011122CE00102326A4FE62
:10235000AE872315F4FE8357A4FE93C7F7FF1397A8
:10236000070141838327C4FE2398E70001007244DC
:10237000056182805D7186C6A2C48008232EA4FAFE
:10238000232CB4FA232604FE232404FE232204FE75
:10239000232004FE232E04FC8327C4FB232EF4FCFD
:1023A0008327C4FB83D70701C207C1832326F4FE1A
:1023B0000327C4FEB567FD17F98F2326F4FE832794
:1023C00084FB83D767003E878327C4FED98F2326EB
:1023D000F4FE8327C4FE1397070141838327C4FBC0
:1023E0002398E7008327C4FB83D7C700C207C183B4
:1023F0002326F4FE0327C4FEBD679387379FF98F1A
:102400002326F4FE832784FB03D74700832784FB1E
:1024100083D78700D98F139707014183832784FBD4
:1024200083D7A700D98FC207C1833E878327C4FE05
:10243000D98F2326F4FE8327C4FE13970701418317
:102440008327C4FB2396E7008327C4FB83D7470178
:10245000C207C1832326F4FE0327C4FEC167938706
:10246000F7CFF98F2326F4FE832784FB83D7C70099
:102470003E878327C4FED98F2326F4FE8327C4FE1C
:102480001397070141838327C4FB239AE70093072F
:1024900084FC3E85EFE05FED0327C4FDB7470140B4
:1024A000938707806317F700832744FD2324F4FEF6
:1024B00029A0832704FD2324F4FE8327C4FB83D7AC
:1024C000C700C207C183C207C18763D207020327BF
:1024D00084FEBA878607BA978E073E97832784FBC8
:1024E0009C438607B357F7022322F4FE05A0032777
:1024F00084FEBA878607BA978E073E97832784FBA8
:102500009C438A07B357F7022322F4FE032744FEB5
:1025100093074006B357F70292072326F4FE83275A
:10252000C4FE13D7470093074006B307F7020327FB
:1025300044FEB307F7402320F4FE8327C4FB83D770
:10254000C700C207C183C207C18763D207028327BE
:1025500004FE8E071387270393074006B357F7023D
:102560009D8B0327C4FED98F2326F4FE05A0832765
:1025700004FE92071387270393074006B357F70219
:10258000BD8B0327C4FED98F2326F4FE8327C4FE08
:102590001397070141838327C4FB2394E7000100BD
:1025A000B640264461618280011122CE00102326AC
:1025B000A4FE2324B4FE832784FE95C38327C4FE90
:1025C00083D7C7001397070141838967D98F139772
:1025D000070141838327C4FE2396E70015A08327C4
:1025E000C4FE83D7C700139707014183F977FD170E
:1025F000F98F1397070141838327C4FE2396E700D1
:102600000100724405618280797122D60018232E60
:10261000A4FCAE87232AC4FC231DF4FC232404FE5F
:10262000232204FE232004FE232604FE8327C4FD68
:102630002326F4FE8357A4FD93F7F70F958393F7B2
:10264000F70F2324F4FE8357A4FDFD8B2322F4FE11
:10265000832744FE0547B317F7002320F4FE032722
:1026600084FE85476318F7008327C4FEB10723263D
:10267000F4FE0DA0032784FE89476318F700832723
:10268000C4FEC1072326F4FE31A08327C4FED10770
:102690002326F4FE832744FD99CB8327C4FE94436D
:1026A0008327C4FE032704FE558F98C321A88327E0
:1026B000C4FE9443832704FE13C7F7FF8327C4FE99
:1026C000758F98C30100325445618280011122CE7A
:1026D00000102326A4FEAE872315F4FE8357A4FE24
:1026E00093F7F71F1397070141838327C4FE2392B3
:1026F000E7000100724405618280011122CE0010C2
:102700002326A4FE8327C4FE83D74700C207C183C4
:1027100093F7F71FC207C1833E857244056182802B
:10272000797122D60018232EA4FCAE87231DF4FC59
:10273000232604FE8327C4FD83D7070013970701D0
:1027400041838357A4FDF98FC207C18389C7854799
:102750002326F4FE19A0232604FE8327C4FE3E850B
:10276000325445618280797122D60018232EA4FC50
:10277000AE87231DF4FC232204FE232604FE23201F
:1027800004FE232404FE8357A4FD93F7F70F9583DB
:1027900093F7F70F2320F4FE8357A4FDFD8B232628
:1027A000F4FE8327C4FE0547B317F7002326F4FE83
:1027B000032704FE8547631FF7008327C4FD83D7E3
:1027C000C700C207C1833E878327C4FEF98F232633
:1027D000F4FE3DA8032704FE8947631FF700832703
:1027E000C4FD83D70701C207C1833E878327C4FE88
:1027F000F98F2326F4FE29A88327C4FD83D7470138
:10280000C207C1833E878327C4FEF98F2326F4FEC7
:102810008357A4FDA183C207C1832322F4FE83272B
:1028200044FE0547B317F7002322F4FE8327C4FDB7
:1028300083D70700C207C1833E87832744FEF98FF1
:102840002322F4FE8327C4FE81CB832744FE89C75D
:1028500085472324F4FE19A0232404FE832784FE45
:102860003E85325445618280797122D60018232E2C
:10287000A4FCAE87231DF4FC231704FE231604FEDC
:102880008357A4FDA1832317F4FE8357E4FE054775
:10289000B317F7002316F4FE8357C4FE93C7F7FF60
:1028A0001397070141838327C4FD2390E7000100AC
:1028B000325445618280011106CE22CC0010AA87D5
:1028C000A307F4FEA567938707459C473E87A1674A
:1028D0005CCBA567938707459C473E8791675CCB98
:1028E0009307F4FE85460146BE850145EF2040432F
:1028F000A567938707459C473E87A1671CCB0100CE
:10290000F240624405618280011106CE22CC0010A3
:10291000AA87A307F4FEA567938707459C473E87D0
:10292000A1675CCBA567938707459C473E87916766
:102930001CCB1307F4FE9307F4FE85463A86BE854A
:102940000145EF20E03DA567938707459C473E87FB
:10295000A1671CCB0100F24062440561828079715D
:1029600006D622D40018AA87231FF4FCA5679387F4
:1029700007459C473E87A1675CCB8357E4FDA18355
:10298000C207C18393F7F70F2306F4FE8357E4FDD4
:1029900093F7F70FA306F4FEA567938707459C47B7
:1029A0003E8791671CCB1307C4FE9307C4FE89467C
:1029B0003A86BE850145EF20A036A5679387074577
:1029C0009C473E87A1671CCB0100B2502254456151
:1029D0008280011106CE22CC00102326A4FE2324DF
:1029E000B4FE2322C4FE2320D4FE0327C4FE930793
:1029F000F00963FFE700A567938607C3A567138601
:102A000007D093057005A567138547C4EF40F071A3
:102A1000032784FE9307F00763FFE700A56793860B
:102A200087C7A567138607D093058005A56713851B
:102A300047C4EF40906F032744FE9307F00963FFFC
:102A4000E700A5679386C7C8A567138607D09305D7
:102A5000A005A567138547C4EF40306D032704FE2A
:102A60009307F00763FFE700A5679386C7C9A567CB
:102A7000138607D09305B005A567138547C4EF40BB
:102A8000D06A1305A002053D0145BD3D8327C4FE64
:102A900093F7F70F850793F7F70F3E85B535014597
:102AA000A535832744FE93F7F70F850793F7F70FB4
:102AB0003E85993D1305B002FD3B0145B1358327A5
:102AC00084FE93F7F70F890793F7F70F3E852D3DA7
:102AD00001451D3D832704FE93F7F70F890793F700
:102AE000F70F3E8515351305C002F1330100F240A2
:102AF000624405618280797106D622D40018AA87C3
:102B0000231FF4FC9306F0071306F00981450145E5
:102B1000C935A30704FE05A8230704FE11A883579F
:102B2000E4FD3E852D3D8347E4FE85072307F4FE43
:102B30000347E4FE9307F009E3F3E7FE8347F4FE5F
:102B40008507A307F4FE8307F4FEE3D707FC010023
:102B5000B250225445618280011106CE22CC4ACA6D
:102B60004EC852C656C45AC25EC0001001488147C2
:102B70001307F00493063002054681450145EF2016
:102B8000C00693060031054685451305F004EF00A5
:102B9000507A93060031014685451305D004EF00B5
:102BA000507993060031014685451305E004EF0096
:102BB0005078A567938707459C473E8789675CCB1C
:102BC00003A781838967938707F43357F702BA878E
:102BD0008A07BA9786073E8B814B5A85DE85EF20A0
:102BE0004020A567938707459C473E8789671CCB94
:102BF00003A781838967938707F43357F702BA875E
:102C00009207998F8E073E8A814A5285D685EF209A
:102C1000401D45454D3103A781838967938707F49C
:102C20003357F702BA879207998F8E073E898149F9
:102C30004A85CE85EF20E01A1305100BAD39054506
:102C4000E1311305C002C9311305D00275391305EE
:102C5000200B953105454D391305C002753113051B
:102C6000D0025D311305300BB931054571391305BB
:102C7000C00259391305D002413905457131130598
:102C8000C00259311305D00241311305400B2531E3
:102C90001D459D391305000C39391305200AAD3146
:102CA00009459D311305400885311305100C21316C
:102CB0001305500C91391305200CF53E2945A93117
:102CC000014599311305300CFD361305A0082D3947
:102CD0001305A00215391305400CF13E1305A00899
:102CE00025311305E00E0D311305500CE936394539
:102CF000213913056003C136130500063131010087
:102D00001305000E4D3E3D4501316945F53E3D45FB
:102D1000E53E6145D53E1305F002FD361305800200
:102D2000E53613050002CD3613052002F13E7D4540
:102D3000E13E6D45D13E13053002F93613057003AF
:102D4000E1360145D1361D45C1360945753E41453F
:102D5000653E1305100E85363D457D366D456D3655
:102D60003D455D365D454D3613053003713E130517
:102D7000C002593E13059002413E1305E002693638
:102D800013050003513613050003BD3E13059003E0
:102D9000A53E1305F0038D3E0145BD361D45AD36FC
:102DA0000D459D3641458D361305A002EFF0BFB0AD
:102DB0000145993E0945893E0145EFF0FFB41305F1
:102DC0002008EFF07FB41305B002EFF0DFAE01454D
:102DD000EFF09FB30D45EFF03FB30145EFF0DFB2E9
:102DE00013053008EFF05FB21305000FEFF0BFAC32
:102DF0000545EFF07FB11305600FEFF0DFAB014544
:102E0000EFF09FB01305A003EFF0FFAA1545EFF018
:102E1000BFAF13059002EFF01FAAC1671385F7FF3C
:102E2000D9390100F24062445249C249324AA24AA9
:102E3000124B824B05618280797106D622D400182C
:102E4000AA87AE863287231FF4FCB687231EF4FCC4
:102E5000BA87A30DF4FCA30704FE59A80355E4FDAB
:102E60000357C4FD8347F4FEBA97BE858357E4FD3C
:102E70009D073E860357C4FD8347F4FEBA97BE867E
:102E8000EFF03FB58307B4FD938607FE8347F4FE5A
:102E900025679206130707D13697BA9783C70700AD
:102EA000A306F4FE230704FE15A88347D4FE858BF2
:102EB00099C7C16713850780EFF07FAA31A0C1676A
:102EC0001385F7FFEFF0BFA98347D4FE8583A306E0
:102ED000F4FE8347E4FE85072307F4FE0347E4FE80
:102EE0009D47E3F4E7FC8347F4FE8507A307F4FE60
:102EF0000347F4FEBD47E3F3E7F60100B250225466
:102F000045618280797106D622D40018AA872E875F
:102F1000232CC4FC231FF4FCBA87231EF4FC2317C4
:102F200004FE91A08357E4FE8E07139707014183A7
:102F30008357E4FDBA9793960701C1828357C4FD76
:102F4000920793950701C1818357E4FE032784FD0F
:102F5000BA97838707003E863685F93D8357E4FE9E
:102F600085072317F4FE8357E4FE032784FDBA97F1
:102F700083870700C5FB0100B2502254456182805F
:102F8000797106D622D40018AA87AE863287231F0D
:102F9000F4FCB687231EF4FCBA87231DF4FC8317C8
:102FA000A4FD63D807028357C4FD92071397070156
:102FB00041838357E4FD1306D002BA853E85AD3DBB
:102FC0008357A4FDB307F040C207C183231DF4FC5F
:102FD00031A88357C4FD9207139707014183835794
:102FE000E4FD13060002BA853E85B9350317A4FD3A
:102FF000896793870771B347F702C207C18793F7C1
:10300000F70F2304F4FE0317A4FD9307803EB34794
:10301000F702139707014187A947B367F702C20771
:10302000C18793F7F70FA304F4FE0317A4FD9307DA
:103030004006B347F702139707014187A947B367D3
:10304000F702C207C18793F7F70F2305F4FE0317B2
:10305000A4FDA947B347F702139707014187A94782
:10306000B367F702C207C18793F7F70FA305F4FE12
:103070000317A4FDA947B367F702C207C18793F7F7
:10308000F70F2306F4FEA30704FEA9A88347F4FE66
:103090008507C207C1838E071397070141838357B2
:1030A000E4FDBA971397070141838357C4FD920744
:1030B00093960701C1828347F4FE130604FFB2977B
:1030C00083C787FF9387070393F7F70FE207E1872B
:1030D0003E86B6853A85EFF03FD68347F4FE8507F6
:1030E000A307F4FE0347F4FE9147E3F1E7FA01007A
:1030F000B2502254456182805D7186C6A2C48008A8
:103100002328C4FA232AD4FABA863E87AA87231F23
:10311000F4FAAE87231EF4FAB687A30DF4FABA8741
:10312000230DF4FA0347A4FB994763F5E700994799
:10313000230DF4FA0347B4FBA94763F5E700A94759
:10314000A30DF4FA01468146032504FB832544FBC5
:10315000EF207057AA8763D10702130784FC032668
:1031600004FB832644FBA567938507CB3A85612E34
:10317000AA87A307F4FE35A0930784FC13871700E2
:10318000032604FB832644FBA567938507CB3A857A
:103190009D2EAA87A307F4FE8347F4FE8507A307A5
:1031A000F4FE8347F4FEE51793F7F70F2306F4FECA
:1031B0000347C4FE8347B4FBB307F74093F7F70F09
:1031C000FD1793F7F70F2307F4FE0347C4FE834769
:1031D000A4FBBA9793F7F70F850793F7F70FA306AA
:1031E000F4FE25A88307D4FE130704FFBA9713073C
:1031F0000002238CE7FC8307D4FE93F7F70F8507C3
:1032000093F7F70FA306F4FE8307E4FE93F7F70F97
:10321000850793F7F70F2307F4FE8307E4FEE3C364
:1032200007FC01468146032504FB832544FBEF2070
:103230009049AA8763DC07008307E4FE130704FFB5
:10324000BA971307D002238CE7FC11A88307E4FE8A
:10325000130704FFBA9713070002238CE7FC8307C8
:10326000D4FE130704FFBA97238C07FC930684FC53
:103270000357C4FB8357E4FB3686BA853E85EFF0DF
:103280007FC80100B640264461618280411122C698
:103290000008A56793870748DC4383D74700139747
:1032A0000701418383C7B182BE861377F70F9387E7
:1032B0008182B6972380E70083C7B182850713F721
:1032C000F70FA385E18203C7B1828547631AF70030
:1032D00003C781829307500A6304F700A385018224
:1032E00003C7B1828D476317F700A38501820547A5
:1032F0002386E1820100324441018280411122C6CD
:103300000008B70702409387470409671307874BF4
:10331000D8C3B7070240938747049843B7070240D2
:10332000938747041367170098C301003244410193
:103330008280411122C600080547A386E182B707B3
:103340000240938747049443B7070240938747049A
:1033500041677917758F98C301003244410182801B
:10336000797122D60018232EA4FC232CB4FCB2873A
:103370003687A30BF4FCBA87230BF4FCA30304FEEB
:10338000230304FE834774FDA5CB8327C4FD2326B6
:10339000F4FE8327C4FE63D807008327C4FEB30767
:1033A000F0402326F4FE834764FD0327C4FEB36781
:1033B000F70293F7F70F9387070393F7F70F139726
:1033C00087016187832784FD2380E700834764FDAD
:1033D0000327C4FEB347F7022326F4FE834764FEA7
:1033E00085072303F4FE8327C4FEC9C3832784FD16
:1033F0008507232CF4FC45BF8327C4FD2324F4FE5A
:10340000834764FD032784FEB377F702A303F4FE2A
:10341000034774FEA54763F9E700834774FE93876B
:103420007703A303F4FE39A0834774FE9387070351
:10343000A303F4FE030774FE832784FD2380E700C3
:10344000834764FD032784FEB357F7022324F4FE69
:10345000834764FE85072303F4FE832784FE89CB1C
:10346000832784FD8507232CF4FC59BF010011A09C
:103470000100834764FE3E85325445618280797144
:1034800022D60018232EA4FC232CB4FC232604FEF1
:1034900085A0032784FD8327C4FEB307F740FD17EB
:1034A0000327C4FDBA9783C70700A305F4FE0327CB
:1034B000C4FD8327C4FE3E97832684FD8327C4FE74
:1034C000B387F640FD178326C4FDB69703070700B0
:1034D0002380E7000327C4FD8327C4FEBA97034770
:1034E000B4FE2380E7008327C4FE85072326F4FE6D
:1034F000832784FD85830327C4FEE36CF7F801006E
:10350000325445618280357186DEA2DC00012326BB
:10351000A4F82324B4F810C454C418C85CC8232CDD
:103520000401232E1401232604FE93070402A1178D
:10353000232AF4FA01AB832784F883C70700A30189
:10354000F4FE030734FE930750026314F74C8327FD
:1035500084F885072324F4F8832784F883870700F9
:103560009387B7FD130730056368F74C139727005F
:10357000A56793870730BA979C438287832744FBCC
:1035800013874700232AE4FA9C432301F4FE832790
:10359000C4F8034724FE2380E7008327C4F8850787
:1035A0002326F4F88327C4FE85072326F4FE71A1A1
:1035B000832744FB13874700232AE4FA9C43232EE6
:1035C000F4FC8327C4FD130704F9A9460546BA8510
:1035D0003E85EFF0FFD8AA87A305F4FE8327C4FD3C
:1035E00063D007028347B4FE130704FFBA9713079B
:1035F000D0022380E7FA8347B4FE8507A305F4FED3
:103600000347B4FE930704F9BA853E858D3D034711
:10361000B4FE930704F93A86BE850325C4F8EF404B
:10362000C0368347B4FE0327C4F8BA972326F4F8BC
:103630008347B4FE0327C4FEBA972326F4FEF5AEF3
:10364000832744FB9D07E19B13878700232AE4FA25
:1036500003A847009C432328F4FC232A04FD0325E8
:1036600004FD832544FDEF30C050AA873E879307B1
:1036700004F9A9460546BE853A85EFF07FCEAA87B4
:103680002305F4FE01468146032504FD832544FD00
:10369000EF207003AA8763D007028347A4FE1307B5
:1036A00004FFBA971307D0022380E7FA8347A4FEEA
:1036B00085072305F4FE0347A4FE930704F9BA85A2
:1036C0003E85EFF0DFDB0347A4FE930704F93A865B
:1036D000BE850325C4F8EF40402B8347A4FE032793
:1036E000C4F8BA972326F4F88347A4FE0327C4FE40
:1036F000BA972326F4FE032504FD832544FDEF300D
:103700004047AA873E85EF30404DAA872E883E86E7
:10371000C286032504FD832544FDEF20B051AA870E
:103720002E883E85C285A56703A687CB83A6C7CB17
:10373000EF20D004AA872E882328F4FC232A04FD36
:1037400001468146032504FD832544FDEF200071D9
:10375000AA878DC7032504FD832544FDEF30604112
:10376000AA873E87930704F9A9460546BE853A8590
:10377000EFF01FBFAA872305F4FE99A89307000363
:10378000A30AF4F8830754F9230AF4F8830744F9E9
:10379000A309F4F8830734F92309F4F8830724F91B
:1037A000A308F4F8830714F92308F4F899472305CC
:1037B000F4FE39A88347A4FE130704FFBA97130742
:1037C00000032380E7FA8347A4FE85072305F4FE60
:1037D0000347A4FE9547E3FFE7FC8347A4FE1307D6
:1037E00004FFBA971307E0022380E7FA8347A4FE99
:1037F00085072305F4FE0347A4FE930704F9BA8561
:103800003E85EFF0DFC70347A4FE930704F93A862D
:10381000BE850325C4F8EF4040178347A4FE032765
:10382000C4FEBA972326F4FE010001AC832744FBB3
:1038300013874700232AE4FA9C432326F4FC9307CA
:1038400004F9A9460146BE850325C4FCEFF05FB12B
:10385000AA87A305F4FC0347B4FC930704F9BA85CF
:103860003E85EFF0DFC10347B4FC930704F93A86C5
:10387000BE850325C4F8EF4040118347B4FC0327FD
:10388000C4F8BA972326F4F88347B4FC0327C4FE90
:10389000BA972326F4FE55A2832744FB13874700DB
:1038A000232AE4FA9C432322F4FC930704F9A1465B
:1038B0000146BE85032544FCEFF09FAAAA87A30119
:1038C000F4FC034734FC930704F9BA853E85EFF016
:1038D0001FBB034734FC930704F93A86BE850325D2
:1038E000C4F8EF40800A834734FC0327C4F8BA9732
:1038F0002326F4F8834734FC0327C4FEBA97232613
:10390000F4FE25AA832744FB13874700232AE4FA01
:103910009C43232EF4FA930704F9C1460146BE8561
:103920000325C4FBEFF0DFA3AA87A30DF4FA034736
:10393000B4FB930704F9BA853E85EFF05FB4034703
:10394000B4FB930704F93A86BE850325C4F8EF401B
:10395000C0038347B4FB0327C4F8BA972326F4F8BF
:103960008347B4FB0327C4FEBA972326F4FEF1A0D5
:10397000832744FB13874700232AE4FA9C4323222E
:10398000F4FE05A8832744FE038707008327C4F8B5
:103990002380E7008327C4F885072326F4F88327CC
:1039A000C4FE85072326F4FE832744FE85072322D1
:1039B000F4FE832744FE83870700E9F7BDA8930739
:1039C00004F9A1453E85EFF09FAB930704F921462A
:1039D000BE850325C4F8EF30507B8327C4F8A107C8
:1039E0002326F4F88327C4FEA1072326F4FEB1A002
:1039F0008327C4F8130750022380E7008327C4F805
:103A000085072326F4F88327C4FE85072326F4FEC2
:103A10002DA0832784F8038707008327C4F8238019
:103A2000E7008327C4F885072326F4F88327C4FE1C
:103A300085072326F4FE11A00100832784F885075B
:103A40002324F4F8832784F883870700E39507AEDF
:103A50008327C4FE3E85F65066540D618280411175
:103A600022C60008A56793870748DC4383D7470031
:103A700013970701418383C73183BE861377F70FFE
:103A800093870183B6972380E70083C73183850737
:103A900013F7F70FA389E18203C731838547631AC0
:103AA000F70003C701839307500A6304F700A38953
:103AB000018203C731838D476317F700A389018211
:103AC0000547238AE182010032444101828041118D
:103AD00022C60008B707024093874704056713070B
:103AE0000796D8C3B7070240938747049843B707A0
:103AF0000240938747041367170098C301003244BC
:103B000041018280411122C600080547A38AE18253
:103B1000B7070240938747049443B707024093874F
:103B2000470441677917758F98C3010032444101FA
:103B30008280797106D622D40018232EA4FC232C6F
:103B4000B4FCB2872328D4FCA30BF4FC8327C4FD68
:103B5000958393F7F70F9D8BA307F4FE8327C4FD8E
:103B600093F7F70FFD8B2307F4FE0327C4FD93079C
:103B70000008630DF7148327C4FD958391E78545FD
:103B80001145EFD01FA061A88327C4FD13D75700AC
:103B900085476317F70085452145EFD09F9E41A0DB
:103BA0008327C4FD13D7570089476317F70085455E
:103BB0004145EFD01F9DA5A08327C4FD13D7570013
:103BC0008D476318F700854513050002EFD07F9BF2
:103BD000B9A08327C4FD13D7570091476318F70096
:103BE000854513050004EFD0DF9915A88327C4FD90
:103BF00013D7570095476318F7008545130500084C
:103C0000EFD03F9829A88327C4FD13D757009947C1
:103C10006317F700854513050010EFD09F96834783
:103C2000E4FE0547B317F700C207C1832310F4FE73
:103C3000032784FD85476317F702832704FDC20726
:103C4000C183A183C207C18389E78D472322F4FE84
:103C500011A8832704FDC207C183A183C207C183C2
:103C60002322F4FE832704FDC207C18393F7F70FD5
:103C70002324F4FE0347F4FEA5670A07938707454C
:103C8000BA979C433E87930704FEBE853A85EFD0E2
:103C90008F94032784FD8547631BF7020347F4FED7
:103CA000A5670A0793870745BA979C43BE86834753
:103CB000E4FE0547B317F700C207C183034774FD4D
:103CC0003A86BE853685EFD0AFB311A00100B25061
:103CD000225445618280797122D60018232EA4FCDB
:103CE000AE87A30DF4FC8327C4FD958393F7F70FEC
:103CF0009D8BA307F4FE8327C4FD93F7F70FFD8B7D
:103D00002307F4FE0347B4FD85476312F702834798
:103D1000E4FE0547B316F7000347F4FEA5670A075C
:103D200093870745BA979C43368798CB05A083476E
:103D3000E4FE0547B316F7000347F4FEA5670A073C
:103D400093870745BA979C433687D8CB01003254F6
:103D500045618280797106D622D40018232EA4FCF6
:103D6000232CB4FC232AC4FC85450545EFD07F8174
:103D7000832644FD014681450325C4FDEFF07FDB2A
:103D80008327C4FD958313F7F70F8327C4FD93F7AB
:103D9000F70FFD8B93F7F70FBE853A85EFD08FBDF8
:103DA0008327C4FDFD8B0547B317F7002320F4FEDE
:103DB000232204FE832784FD2324F4FE8547232643
:103DC000F4FE930704FE3E85EFC09FE20100B2506F
:103DD000225445618280797106D622D40018232EA0
:103DE000A4FCAE873687A30DF4FCB287230DF4FC48
:103DF000BA87A30CF4FC8327C4FD93F7F70F2304C1
:103E0000F4FE8347B4FDA304F4FE8347A4FD230519
:103E1000F4FE834794FD2326F4FE930784FE3E853B
:103E2000EFD04FC8B7E700E09843FD777D8F83A7B9
:103E300041915D8F23AAE190B7E700E0D843B7072F
:103E40000010FD177D8F93874191DC435D8F938731
:103E50004191D8C39387419103C787008547631376
:103E6000F70031200100B250225445618280411197
:103E700022C60008B7E700E07D5723A0E718B7E7A0
:103E800000E07D5723A2E7180100324441018280FF
:103E9000411122C60008B7E700E003A7419123A023
:103EA000E710B7E700E013874191584323A2E710DA
:103EB0000100324441018280011106CE22CC001063
:103EC0009387419105472384E70083A7419181EBC4
:103ED00093874191DC4381E7A30704FE21A0854736
:103EE000A307F4FE69378347F4FE3E85F24062443F
:103EF00005618280011106CE22CC0010AA87A3079B
:103F0000F4FE8347F4FE91E79387419123840700F1
:103F100041370100F240624405618280011106CE02
:103F200022CC00102326A4FE0327C4FE9307002002
:103F30006307F7240327C4FE9307002063EAE70A18
:103F40000327C4FE930710106300F71C0327C4FE69
:103F50009307101063E2E7040327C4FE8947630D4B
:103F6000F7160327C4FE894763ECE7008327C4FEE6
:103F7000638407140327C4FE85476307F714E5AC81
:103F80000327C4FE8D476301F7160327C4FE93077A
:103F900000106303F716C5A40327C4FE930700119E
:103FA000630CF7180327C4FE9307001163EFE700C3
:103FB0000327C4FE930720106300F7160327C4FEEF
:103FC000930730106302F7167DA40327C4FE9307FE
:103FD00020116304F7180327C4FE930720116365BB
:103FE000F7160327C4FE930730116301F71861A485
:103FF0000327C4FE930730216300F7200327C4FE84
:104000009307302163EEE7040327C4FE93073020B3
:104010006300F71A0327C4FE9307302063EFE7001D
:104020000327C4FE930710206303F7160327C4FE7B
:10403000930720206305F7163DAC0327C4FE9307C2
:1040400010216309F7180327C4FE9307102163ECBE
:10405000E7180327C4FE930700216304F71621AC79
:104060000327C4FE930700306303F71C0327C4FE35
:104070009307003063EFE7000327C4FE9307002295
:104080006305F7180327C4FE930710226308F71887
:10409000DDA20327C4FE93072030630CF71A032721
:1040A000C4FE93072030636DF7180327C4FE9307FF
:1040B00030306309F71AC1A2930680310146854565
:1040C0002145EFF01FA745AA93068031014685459B
:1040D0002545EFF01FA645A2930680310146854590
:1040E0002945EFF01FA541AA930680310146854579
:1040F0002D45EFF01FA441A293068031014685456E
:104100000145EFF01FA385AA93068031014685453E
:104110000545EFF01FA285A2930680310146854533
:104120000945EFF01FA181AA93068031014685451C
:104130000D45EFF01FA081A2930680310146854511
:104140003D45EFF01F9F05AA930680310146854546
:1041500013053002EFF0FF9D39AA93068031014626
:1041600085451305A002EFF0DF9C31A29306803154
:10417000014685451305B002EFF0BF9BEDA89306FD
:104180008031014685451945EFF0BF9AEDA09306B1
:104190008031014685451D45EFF0BF99E9A893069A
:1041A00080310146854513050002EFF09F98E1A09C
:1041B000930680310146854513051002EFF07F9785
:1041C0005DA8930680310146854513056004EFF034
:1041D0005F9655A09306803101468545130570040E
:1041E000EFF03F9549A893068031014685451305B8
:1041F0008004EFF01F9441A093068031014685456D
:1042000013059004EFF0FF92BDA0930680310146A4
:10421000854513054002EFF0DF91B1A89306803188
:104220000146854513055002EFF0BF90A9A0930603
:1042300080310146854513056002EFF09F8F25A868
:10424000930680310146854513057002EFF07F8E9D
:104250001DA0930680310146854513058002EFF0CD
:104260005F8D11A8930680310146854513059002A4
:10427000EFF03F8C01000100F24062440561828052
:10428000397106DE22DC80002326A4FC2324B4FC42
:104290002322C4FC231704FE0325C4FCEFF01FC82F
:1042A0008327C4FCA18381EB85458567138507803F
:1042B000EFD02FADA1A08327C4FC13D7870085477B
:1042C0006317F70085450545EFD00FB005A8832794
:1042D000C4FC13D7870089476317F7008545094554
:1042E000EFD08FAE21A88327C4FC13D787008D475A
:1042F0006316F70085451145EFD00FAD854505459F
:10430000EFD02FA88327C4FC13D74700C147631AF7
:10431000F7008545B707160013850704EFC0DFD106
:10432000B9A88327C4FC13D74700C547631AF70011
:104330008545B707180013850730EFC0FFCF81A070
:104340008327C4FC13D7470093071002631AF700B2
:104350008545B7171A00138507C0EFC0FFCD05A02C
:104360008327C4FC13D74700930720026319F70083
:104370008545B7171A0013850780EFC0FFCBB71725
:104380000240DC43C98313F7F700B7177A0093871D
:1043900007203307F702B727F400938707403E97BB
:1043A00023ACE18203A78183832784FCB357F70200
:1043B000C1832317F4FE03A781838357E4FE850797
:1043C000BE86832784FCB387F602B357F702231611
:1043D000F4FE0357C4FE832744FC3307F7028967C2
:1043E00093870771B357F7022315F4FE8357C4FE72
:1043F000FD17C207C1832312F4FE8357E4FE231086
:10440000F4FE231304FE231104FE230404FE930789
:1044100000072318F4FC85472319F4FC231A04FC35
:104420008357A4FE231BF4FC8947231CF4FC894713
:10443000231DF4FC231E04FC231F04FC8327C4FC5F
:1044400013D78700A5670A0793870746BA979C4347
:104450003E87930704FEBE853A85EFD06FB0832771
:10446000C4FC8D8BB9EF8327C4FC13D78700A567E5
:104470000A0793870746BA979C433E87930704FD34
:10448000BE853A85EFD06FBD8327C4FC13D7870064
:10449000A5670A0793870746BA979C43A1453E85BF
:1044A000EFD07FBA8327C4FC13D78700A5670A071C
:1044B00093870746BA979C4391453E85EFD07FCDC1
:1044C00089A28327C4FC13F7370085476311F706D9
:1044D0008327C4FC13D78700A5670A07938707467D
:1044E000BA979C433E87930704FDBE853A85EFD07B
:1044F000CFCD8327C4FC13D78700A5670A0793870E
:104500000746BA979C43A1453E85EFD09FB88327C5
:10451000C4FC13D78700A5670A0793870746BA9795
:104520009C43930500403E85EFD07FCBD9A88327DD
:10453000C4FC13F7370089476310F7068327C4FCD0
:1045400013D78700A5670A0793870746BA979C4346
:104550003E87930704FDBE853A85EFD06FE283273F
:10456000C4FC13D78700A5670A0793870746BA9745
:104570009C43A1453E85EFD07FB78327C4FC13D76A
:104580008700A5670A0793870746BA979C4391451A
:104590003E85EFD03FCAB5A08327C4FC13F7370090
:1045A0008D476310F7068327C4FC13D78700A567E0
:1045B0000A0793870746BA979C433E87930704FDF3
:1045C000BE853A85EFD0CFF68327C4FC13D787008A
:1045D000A5670A0793870746BA979C43A1453E857E
:1045E000EFD09FB58327C4FC13D78700A5670A07C0
:1045F00093870746BA979C43930500403E85EFD0CA
:104600003FC88327C4FC13D78700A5670A07938791
:104610000746BA979C4385453E85EFD0DF898327BF
:10462000C4FC13D78700A5670A0793870746BA9784
:104630009C4385453E85EFD09F8D0100F25062542A
:1046400021618280797122D60018232EA4FC232CAC
:10465000B4FC8327C4FD13D78700A5670A07938797
:104660000746BA979C4383D7C7022317F4FE035724
:10467000E4FE832784FD3307F70289679387077178
:10468000B357F7022316F4FE8327C4FDA18385E305
:104690008327C4FD13F73700B75700109387D7B0AF
:1046A000BA978A073E878357C4FE1CC349A0832755
:1046B000C4FD13D7870085476310F7028327C4FD25
:1046C00013F73700B7070010B507BA978A073E8778
:1046D0008357C4FE1CC3A1A88327C4FD13D787003A
:1046E00089476311F7028327C4FD13F73700B70723
:1046F00000109387D710BA978A073E878357C4FE66
:104700001CC335A08327C4FD13D787008D476310D2
:10471000F7028327C4FD13F73700B707001093870C
:10472000D720BA978A073E878357C4FE1CC301006F
:10473000325445618280011106CE22CC001023261E
:10474000A4FE2324B4FE8327C4FE81EB91460146D8
:1047500081452145EFF0EFBD59A80327C4FE8947E5
:104760006319F7009146014681450145EFF06FBCA2
:10477000BDA80327C4FE91476319F700914601467F
:1047800081453D45EFF0EFBA9DA00327C4FE994750
:104790006319F7009146014681451945EFF06FB95D
:1047A000B9A00327C4FEA147631AF700914601464A
:1047B000814513056004EFF0CFB715A80327C4FEA9
:1047C000A947631AF7009146014681451305400247
:1047D000EFF02FB629A80327C4FEB1476319F700ED
:1047E00091460146814513056002EFF08FB403271F
:1047F00084FE85476319F7009146014681452545AA
:10480000EFF02FB361A8032784FE8D476319F700EB
:104810009146014681450545EFF0AFB141A0032720
:1048200084FE9547631AF7009146014681451305BA
:104830003002EFF00FB09DA0032784FE9D4763195F
:10484000F7009146014681451D45EFF08FAEB9A0B6
:10485000032784FEA547631AF70091460146814568
:1048600013057004EFF0EFAC15A8032784FEAD47E5
:10487000631AF70091460146814513055002EFF097
:104880004FAB29A8032784FEB5476319F70091466B
:104890000146814513057002EFF0AFA90100F24017
:1048A000624405618280797106D622D40018232ED5
:1048B000A4FC232CB4FC232AC4FC8327C4FD81EB75
:1048C0008545856713850780EFC0BFCB35A80327D3
:1048D000C4FD85476317F70085450545EFC0DFCE6A
:1048E00025A00327C4FD89476317F70085450945BF
:1048F000EFC09FCD11A80327C4FD8D476316F700B5
:1049000085451145EFC05FCC832544FD032584FD1B
:10491000EFF07FE285450545EFC0BFC6032784FD64
:104920009147631FF700032744FD9547631AF7007B
:104930008545B707180013850730EFC0EFEFA1A03A
:10494000032784FDA147631FF700032744FDA54704
:10495000631AF7008545B7171A00138507C0EFC023
:10496000AFED15A0032784FDA947631EF7000327B9
:1049700044FDAD476319F7008545B7171A00138545
:104980000780EFC06FEB930744FE3E85EFD0EFCE7C
:1049900085472312F4FEFD572314F4FE231504FE6D
:1049A000231304FE230604FEA5670327C4FD0A079C
:1049B00093870746BA979C433E87930744FEBE857C
:1049C0003A85EFC0FFD9A5670327C4FD0A0793877F
:1049D0000746BA979C438146014689453E85EFD0FC
:1049E0000FD9A5670327C4FD0A0793870746BA971F
:1049F0009C4385453E85EFD00FCC0100B250225438
:104A000045618280797122D60018232EA4FCA56707
:104A10000327C4FD0A0793870746BA979C4383D7A9
:104A20004702C207C1832317F4FE8317E4FE3E85C5
:104A3000325445618280011122CE00102326A4FE4B
:104A4000A5670327C4FE0A0793870746BA979C43C6
:104A5000239207020100724405618280011106CE93
:104A600022CC00102326A4FE2324B4FE2322C4FE5D
:104A70002320D4FE8327C4FE89EB930680310546AC
:104A800085451545EFF0EF8A99A80327C4FEC14775
:104A9000631BF700930680310546854513053002F8
:104AA000EFF02F892DA80327C4FE93070002631B94
:104AB000F70093068031054685451305D002EFF0D7
:104AC0004F8731A8A567938607CCA567138607474C
:104AD0009305D002A567138547CCEF201065032707
:104AE00084FE8547631AF7009306803105468545A5
:104AF0001D45EFF00F8499A8032784FEC547631B6B
:104B0000F700930680310546854513055002EFF006
:104B10004F822DA8032784FE93071002631BF70022
:104B200093068031054685451305F002EFF06F804E
:104B300031A8A567938607CCA56713860747930519
:104B40002003A567138547CCEF20305E032744FE82
:104B50008947631AF7009306803105468545194554
:104B6000EFE03FFDB5A0032744FEC947631BF700F4
:104B7000930680310546854513054002EFE07FFB33
:104B800081A8032744FE93072002631BF7009306C6
:104B90008031054685451305E002EFE09FF90DA839
:104BA000032744FE930730026317F7009307300290
:104BB0002322F4FE31A8A567938607CCA567138648
:104BC000074793058003A567138547CCEF20F05571
:104BD0009306003105468545032504FEEFE07FF589
:104BE0000100F2406244056182805D7186C6A2C404
:104BF00080082326A4FC2324B4FC2322C4FC232005
:104C0000D4FC232EE4FA232A04FBA30DF4FA832711
:104C1000C4FC81EB8545856713851700EFC07F963F
:104C200021A80327C4FC85476318F70085459167D1
:104C300013851700EFC05F998326C4FB032604FC8D
:104C4000832544FC032584FCEFF05FE1231E04FC74
:104C500093074010231FF4FC231004FE8347B4FB8A
:104C600005476383E70205476344F70089CB81A0CA
:104C700009476381E7020D476384E7020DA823110A
:104C800004FE231204FE25A0231104FE85472312EF
:104C9000F4FE31A889472311F4FE231204FE01A873
:104CA00089472311F4FE85472312F4FE0100930780
:104CB00000202313F4FE832744FBC207C1838E0721
:104CC000C207C1832314F4FE231504FE9D47231657
:104CD000F4FE0327C4FC0A079387C180BA979C435C
:104CE0003E879307C4FDBE853A85EFC05F920327D8
:104CF00084FCC1476316F70085450545EFC0CFB377
:104D00000327C4FC0A079387C180BA979C43854553
:104D10003E85EFC05F9F0100B640264461618280FE
:104D2000011122CE00102326A4FE2324B4FE232248
:104D3000C4FE2320D4FE59A801000327C4FE0A079D
:104D40009387C180BA979C4383D78700C207C183EA
:104D5000898BE5D7832784FE138717002324E4FE7D
:104D600083C607000327C4FE0A079387C180BA974A
:104D70009C433E8793970601C1832316F700832740
:104D800044FEA9C701000327C4FE0A079387C18018
:104D9000BA979C4383D78700C207C183858BE5D729
:104DA0000327C4FE0A079387C180BA979C4383D721
:104DB000C70093960701C182832744FE138717001B
:104DC0002322E4FE13F7F60F2380E700832704FE77
:104DD0001387F7FF2320E4FEA5F301007244056169
:104DE0008280011122CE00102324A4FE2326B4FECB
:104DF00037F700E02320070037F700E02302070021
:104E000037F700E0A302070037F700E023030700AD
:104E100037F700E0A303070037F700E0230407009B
:104E200037F700E0A304070037F700E02305070089
:104E300037F700E0A305070037F700E0854614C305
:104E4000010037F700E011071843BA87014803272C
:104E5000C4FEC286636DD7000327C4FEC286E31278
:104E6000D7FE032784FEBE866363D700D9BF010047
:104E7000724405618280011106CE22CC00102326E7
:104E8000A4FE2324B4FE8327C4FE85E7032784FE03
:104E900085476310F7029306803101468545254515
:104EA000EFE03FC99146014681452945EFE07FC8C3
:104EB00065A00327C4FE89476312F7029306803179
:104EC0000146854513056002EFE0BFC691460146E5
:104ED000814513057002EFE0DFC5BDA80327C4FEBE
:104EE000C1476310F70293068031014685450945A5
:104EF000EFE03FC49146014681450D45EFE07FC399
:104F0000A1A80327C4FE930700026312F7029306C9
:104F10008031014685451305A002EFE09FC191460F
:104F2000014681451305B002EFE0BFC035A003275D
:104F3000C4FE930720026311F702930680310146F5
:104F400085451305A004EFE0DFBE9146014681458B
:104F50001305B004EFE0FFBD0100F24062440561BB
:104F60008280797106D622D40018232EA4FC232C2B
:104F7000B4FC232AC4FC2328D4FC85450545EFC096
:104F80004FE0832504FD032544FDEFF0DFEE03270A
:104F900044FD8947631BF700032704FD8D47631613
:104FA000F70085451145EFC02F89032744FD93077E
:104FB0002002631FF700032704FD930730026319E3
:104FC000F7008545B707140013850701EFC0CF86AA
:104FD0008327C4FD91E785451165EFC08FDA35A0C1
:104FE0000327C4FD85476318F70085453705020090
:104FF000EFC08FDD19A80327C4FD89476317F700A9
:10500000854537050400EFC02FDC832784FD23206E
:10501000F4FE231204FE231304FE231404FE2316BD
:1050200004FEB1472315F4FEA5670327C4FD0A0754
:1050300093870748BA979C433E87930704FEBE8533
:105040003A85EFD02FB3A5670327C4FD0A079387DE
:105050000748BA979C4385453E85EFD0EFD40100C1
:10506000B250225445618280011106CE22CC00103C
:105070002326A4FEAE87A305F4FEA5670327C4FE7E
:105080000A0793870748BA979C43054693055052F1
:105090003E85EFD06FD78327C4FE9387570303471E
:1050A000B4FEBA86014681453E85EFE0DFD20100BD
:1050B000F240624405618280411106C622C40008A4
:1050C000B7170240DC43C98313F7F700B7177A001C
:1050D000938707203307F702B727F4009387074029
:1050E0003E9723ACE18285460146F1679385072010
:1050F0000145EFF01FE70100B240224441018280E8
:10510000797106D622D40018232EA4FC232CB4FCDB
:10511000232AC4FC232604FE99A00100A56783A7C7
:105120000748930500043E85EFD08FDFAA87FDD79F
:10513000A56783A70748BE86832784FD13871700CA
:10514000232CE4FC83870700C207C183BE85368514
:10515000EFD0CFD78327C4FE85072326F4FE03278D
:10516000C4FE832744FDE34AF7FA832744FD3E85C6
:10517000B250225445618280011122CE00102326B4
:1051800004FE232404FEB71702409443B7170240DD
:105190004167558F98C3B71702409843B70702007D
:1051A000F98F2324F4FE8327C4FE85072326F4FE0B
:1051B000832784FE99E70327C4FE93070050E31C6E
:1051C000F7FCB71702409843B7070200F98F89C769
:1051D00085472324F4FE19A0232404FE032784FE1C
:1051E00085476317F70CB72702409843B72702405B
:1051F0001367070198C3B72702409843B7270240B7
:10520000719B98C3B72702409843B72702401367A2
:10521000270098C337170240B71702405843D8C336
:1052200037170240B71702405843D8C33717024018
:10523000B71702405843D8C3B7170240D443B71733
:1052400002403707C1FF7D17758FD8C3B7170240DB
:10525000D443B717024037072500558FD8C3B71777
:1052600002409443B717024037070001558F98C397
:105270000100B71702409843B7070002F98FF5DB2A
:10528000B7170240D843B7170240719BD8C3B7176E
:105290000240D843B717024013672700D8C3010064
:1052A000B7170240DC4313F7C700A147E31AF7FE24
:1052B0000100724405618280411106C622C40008C3
:1052C000B71702409843B71702401367170098C3F7
:1052D000B7170240D443B71702403707FFF8758F5E
:1052E000D8C3B71702409443B71702403707F7FEF9
:1052F0007D17758F98C3B71702409443B7170240C4
:105300003707FCFF7D17758F98C3B7170240D4434A
:10531000B7170240370781FF7D17758FD8C3B717BE
:10532000024037079F0098C7EFF01FE50100B24029
:10533000224441018280411106C622C40008014670
:1053400091679385872613050030EFE07FF30146D0
:1053500091679385872613051030EFE07FF20146B1
:1053600091679385872613052030EFE07FF1014692
:1053700091679385872613053030EFE07FF0930621
:105380000031014685451305A004EFE08FFA93062E
:105390000031014685451305B004EFE08FF993060F
:1053A0000031054685451305C002EFE08FF89306EE
:1053B0000031054685452145EFE0AFF70100B240D9
:1053C000224441018280797106D622D40018232E0E
:1053D000A4FC232CB4FC032784FD89679387077101
:1053E00063D7E700896793870771232CF4FC0327B1
:1053F00084FDF9779387078F6357F700F9779387D1
:10540000078F232CF4FC832784FD63D907008327AF
:1054100084FDB307F0402326F4FE29A0832784FDF2
:105420002326F4FE0327C4FD8947630EF7040327F0
:10543000C4FD894763E8E7000327C4FD8547630E81
:10544000F700D9A00327C4FD8D476304F70603279F
:10545000C4FD91476305F70845A8832784FD635879
:10546000F00081451305A004EFE0FF8631A08545DB
:105470001305A004EFE03F868325C4FE130500302A
:10548000EFF04F9C49A0832784FD6358F0008145CD
:105490001305B004EFE03F8431A085451305B00447
:1054A000EFE07F838325C4FE13051030EFF08F9962
:1054B00099A8832784FD6358F00085451305C00231
:1054C000EFE07F8131A081451305C002EFE0BF808E
:1054D0008325C4FE13052030EFF0CF962DA083273F
:1054E00084FD6357F00085452145EFE0CFFE29A0FC
:1054F00081452145EFE02FFE8325C4FE13053030A2
:10550000EFF04F9401000100B250225445618280B7
:10551000011106CE22CC00102326A4FE2324B4FEC3
:105520002322C4FE2320D4FE8325C4FE0545EFF0CC
:105530009FE9832584FE0945EFF0FFE8832544FEBB
:105540000D45EFF05FE8832504FE1145EFF0BFE75E
:105550000100F240624405618280011122CE0010F8
:105560002326A4FE8327C4FE2567032707CF98C3FD
:105570008327C4FE2567032747CFD8C38327C4FEEC
:105580002567032787CF98C78327C4FE256703278E
:10559000C7CFD8C78327C4FE13070000D8CF8327FF
:1055A000C4FE98CB8327C4FED8CB8327C4FE98CFF4
:1055B0008327C4FE98D38327C4FE98D78327C4FECD
:1055C000D8D38327C4FE23A60702010072440561D5
:1055D0008280011106CE22CC26CA00102326A4FE0A
:1055E0002324B4FE8327C4FE84438327C4FEDC53F4
:1055F000BE85032584FEEF103056AA87BE8526851A
:10560000EF10902CAA873E878327C4FE98CB832770
:10561000C4FEDC43832584FE3E85EF10F02AAA8772
:105620003E878327C4FED8CB8327C4FE84478327C5
:10563000C4FEDC53BE853E85EF104061AA87BE855F
:10564000032584FEEF105051AA873E878327C4FEAE
:105650009C57BE853A85EF10605FAA87BE85268578
:10566000EF109026AA873E878327C4FE98CF832712
:10567000C4FED8538327C4FE98D78327C4FE0327CC
:1056800084FED8D38327C4FED84F8327C4FE9C4B07
:10569000BE853A85EF10805BAA873E878327C4FECC
:1056A000DC4BBE853A85EF10605AAA873E87832778
:1056B000C4FE9C4FBE853A85EF104059AA873E87AD
:1056C0008327C4FED8CF8327C4FED84F8327C4FEC8
:1056D000DC47BE853A85EF10100EAA876358F000AC
:1056E0008327C4FED8478327C4FED8CF8327C4FEB0
:1056F000D44F8327C4FED847B7070080B98FBE8533
:105700003685EF10B013AA8763C3070011A883275B
:10571000C4FED847B70700803D8F8327C4FED8CF8B
:105720000100F2406244D2440561828037081000D3
:1057300001117D183377B80026CA3378D80093D486
:10574000450113D34601131E37004EC61357D5012A
:105750000E089357D60193F4F47F1373F37F06CEAC
:1057600022CC4AC893D9F50193DEF6013367C7010D
:10577000131F350033E80701931F3600338E644052
:105780006380D9196356C0136304031CB7068000F5
:105790009307F07F3368D800638FF4369307800354
:1057A00063C0C735FD4763CDC74713050002330506
:1057B000C541B3D7CF01B316A8003399AF00DD8E32
:1057C00033392001B357C80133E926011D8F33094E
:1057D0002F41B3372F013306F7409317860063D468
:1057E0000724370780007D173374E600630C042C10
:1057F0002285EF20200C130785FF93070002998F65
:10580000B357F9003316E400D18F3319E90063412F
:10581000972A33059740130615007D47634DC73817
:1058200013070002118FB356C9003319E9003397EB
:10583000E700558F333920013369270133D6C7007C
:1058400081449377790081CF1377F90091476308FA
:10585000F70013074900333927014A963A8993170D
:10586000860063D6071C138514009307F07FCE854E
:105870006304F520B70780FFFD17F18F9398D701D8
:1058800013593900A607B3E82801B1831375F57FD2
:105890009396C7005205F2406244B182FE05C98E5C
:1058A000CD8ED2444249B2494685B6850561828093
:1058B000631E0E0A138314001373E37F631703221E
:1058C000B367E701B368F801639D041A6387074073
:1058D000638608443309FF41B307074133362F017C
:1058E0003386C7409317860063D6074C3389EF4150
:1058F000B307E84033B62F013386C740F68991B726
:105900006350C00F6300030CB70680009307F07F5D
:105910003368D800638AF43A9307800363CBC713D4
:10592000FD4763DFC73513090EFE93070002B35628
:105930002801630AFE00130900043309C941331921
:105940002801B3EF2F013339F0013369D90031A2B7
:10595000B367F801638A071C9307FEFF638C07385F
:105960009306F07F6309DE1A3E8E0DBDB3059340AA
:1059700063910422B367E701638707329387F5FFDA
:10598000638107449306F07F638CD520BE8593071F
:10599000800363CCB72AFD4763CFB73C930700026F
:1059A0008D8F3319F700B356BF00B317FF0033696B
:1059B000D900B337F0003357B7003369F900330823
:1059C000E84041ACB367F801638007349307FEFFFA
:1059D000638A07209306F07F6308DE2E3E8E2DBF7C
:1059E000631E0E149386140093F7E67F63910734C9
:1059F000B367E7016395042C6380073EB367F80142
:105A0000638E07303309FF01B3070701333FE90114
:105A10003386E7019317860063D70700B70780FF37
:105A2000FD177D8E854493777900E39F07E09317F8
:105A3000D60193583900B3E8F8009357360013079E
:105A4000F07F638DE404B207B18313F5F47FCE8554
:105A500081B53369F801333920017A99B337E90107
:105A60003386E70093178600E3DF07FA8504930780
:105A7000F07F6396F418CE851305F07F8147814847
:105A800001BDC1EB6384083A931636009317D80121
:105A90008D82B3E8D700F68993573800B3E7F80052
:105AA000F9DB81451305F07FB70708008148CDB3C6
:105AB000370680FF7D167D8E93777900998CE3956C
:105AC00007D8B5B74A85EF10F05E13078501FD478B
:105AD000E3D5E7D2130685FFB317C900014905BB1B
