:100000006F00B0291300000013000000130000006F
:100010001300000013000000130000001300000094
:100020001300000013000000130000001300000084
:08003000130000007300100032
:100038006FF09FFC000000006F00004E6F00C04E84
:1000480000000000000000000000000000000000A8
:100058000000000000000000000000000000000098
:100068006FF09FF9000000006FF01FF9000000001A
:100078006FF09FF86FF05FF86FF01FF86FF0DFF721
:100088006FF09FF76FF05FF76F0060686F004015C3
:100098006F00A0196F00C01A6F00801B6FF0DFF5AA
:1000A8006FF09FF56FF05FF56F0060426FF0DFF45F
:1000B8006FF09FF46FF05FF46F00801C0000000089
:1000C8000000000000000000000000006F00401960
:1000D8006F00001C6F00001F6F00C0216F00002719
:1000E8006F00C02F6F0000326F00C0346FF0DFF078
:1000F8006FF09FF06FF05FF06FF01FF06FF0DFEFC1
:100108006FF09FEF6F0000366F00C0366F00405BE6
:100118006F0000166FF05FEE6FF01FEE6FF0DFED0F
:1001280000000000000000000000000000000000C7
:080138000000000000000000BF
:100140003D432A876373C3029377F700BDEFADE5A4
:10015000937606FF3D8ABA960CC34CC30CC74CC7B6
:100160004107E36BD7FE11E28280B306C3408A06E3
:100170009702000096966780A6002307B700A306A3
:10018000B7002306B700A305B7002305B700A304F3
:10019000B7002304B700A303B7002303B700A302EB
:1001A000B7002302B700A301B7002301B700A300E3
:1001B000B7002300B700828093F5F50F9396850072
:1001C000D58D93960501D58D61B79396270097023B
:1001D000000096968682E78086FA9680C1171D8F6A
:1001E0003E96E374C3F8A5B7411122C6000809453D
:1001F000EF0090322A8785476318F702B70700207F
:1002000003A7470789476315F700EF20304011A87F
:10021000B707002003A7470785476314F700EF20BF
:10022000B0310945EF00B0340100324441017300A0
:100230002030411122C600081145EF005033010063
:100240003244410173002030411122C600080100F0
:100250003244410173002030411122C600080100E0
:100260003244410173002030411122C600080100D0
:100270003244410173002030411122C600080100C0
:100280003244410173002030411122C600080100B0
:100290003244410173002030411122C60008930509
:1002A0000008B7370140138507C0EF10507EAA87BA
:1002B00089CB93050008B7370140138507C0EF20AD
:1002C000000401003244410173002030411122C674
:1002D00000088545B7370140138507C0EF10307B14
:1002E000AA8781CB8545B7370140138507C0EF202A
:1002F000000101003244410173002030411122C647
:10030000000893050004B7370140138507C0EF10BC
:100310001078AA8789CB93050004B737014013856D
:1003200007C0EF10D07D93050002B7370140138559
:1003300007C0EF10D075AA8789CB93050002B737A5
:100340000140138507C0EF10907B0100324441014A
:1003500073002030411122C600088945B73701409B
:10036000138507C0EF10B072AA8781CB8945B737D4
:100370000140138507C0EF1090789145B7370140D1
:10038000138507C0EF10B070AA8781CB9145B737AE
:100390000140138507C0EF109076A145B7370140A3
:1003A000138507C0EF10B06EAA8781CBA145B73780
:1003B0000140138507C0EF109074C145B737014065
:1003C000138507C0EF10B06CAA8781CBC145B73742
:1003D0000140138507C0EF109072010032444101C3
:1003E00073002030411122C60008854537050040C2
:1003F000EF10F069AA8791C7854537050040EF10D7
:10040000107001003244410173002030411122C6B6
:1004100000088545B707004013850740EF10306797
:10042000AA8781CB8545B707004013850740EF10A9
:10043000106D01003244410173002030411122C689
:1004400000088545B717004013850780EF1030641A
:10045000AA8781CB8545B717004013850780EF1029
:10046000106A01003244410173002030411122C65C
:10047000000801003244410173002030411122C6BE
:10048000000893055052B747004013850740EF20FE
:100490000029AA8785CF93055052B747004013859E
:1004A0000740EF20E037B707002003A74707894739
:1004B0006315F700EF20900E11A8B707002003A7DF
:1004C000470785476314F700EF201000010032440E
:1004D000410173002030411122C600080965EF0078
:1004E00060632A8785476318F7020965EF00406853
:1004F000B707002003A7470789476315F700EF20D8
:10050000501411A8B707002003A7470785476314B5
:10051000F700EF20D0050100324441017300203084
:10052000411122C60008010032444101730020300D
:10053000411122C6000801A0011122CE0010AA8795
:10054000A307F4FE83C72183138717009376F70F61
:100550002389D1823E8793874185BA970347F4FE6A
:100560002380E70003C721838547631DF70003C786
:1005700041859307800D6307F700238901820947AE
:10058000238CE18003C72183B9476316F70205472F
:10059000238CE1809387418503C7D7009307E00E42
:1005A0006316F7000547238CE18021A00D47238CBB
:1005B000E18023890182010072440561828001117A
:1005C00022CE00102326A4FE8327C4FE850703C77E
:1005D00007009307000B6318F7028327C4FE8907FF
:1005E00083C70700A2071397070141878327C4FE2B
:1005F0008D0783C70700C207C187D98F13970701EB
:100600004187239DE1808327C4FE910703C707002C
:100610009307100B6318F7028327C4FE950783C75F
:100620000700A2071397070141878327C4FE990794
:1006300083C70700C207C187D98F13970701418776
:10064000239EE1808327C4FE9D0703C7070093070D
:10065000200B6318F7028327C4FEA10783C7070096
:10066000A2071397070141878327C4FEA50783C705
:100670000700C207C187D98F139707014187239FBE
:10068000E1808327C4FEA90703C707009307300B47
:100690006318F7028327C4FEAD0783C70700A207CC
:1006A0001397070141878327C4FEB10783C707005B
:1006B000C207C187D98F1397070141872392E1822F
:1006C0000100724405618280011122CE0010930561
:1006D0005052B757004013850780EF204004AA8787
:1006E00095C793055052B757004013850780EF20F8
:1006F0002013B757004013850780EF10907BAA871F
:10070000A307F4FE8347F4FE3E853D3501007244A5
:10071000056173002030011122CE26CC4ACA4EC892
:1007200000100545D52B2A8785476313F72A054511
:10073000EF00E063010083C7818113F7F70F85475E
:10074000E31BF7FE238C0180138541858D3D839744
:10075000C181C207C183B307F040C207C1831397A9
:1007600007014187239EE1800545EF30605DAA8740
:100770003E872390E1820945EF30805CAA87C2075B
:10078000C183B307F040C207C183139707014187B4
:100790002391E1820545EF30C05D0945EF30605D92
:1007A000130740062394E1829D6783A747AC232665
:1007B000F4FE0397E181894763C7E7000397E1816E
:1007C000F9576353F710839781823E85EF40B077E6
:1007D000AA848397E1813E85EF40F076AA8783253E
:1007E000C4FE3E85EF40900EAA87BE852685EF4069
:1007F0002046AA873E85EF40F06EAA87139707012F
:1008000041872395E182839781823E85EF40B073D3
:10081000AA848397E1813E85EF40F072AA87832501
:10082000C4FE3E85EF40900AAA87BE852685EF402C
:10083000F032AA873E85EF40F06AAA871397070136
:1008400041872396E182839781823E85EF40B06F96
:10085000AA848397E1813E85EF40F06EAA878325C5
:10086000C4FE3E85EF409006AA87BE852685EF40F0
:10087000203EAA873E85EF40F066AA8713970701BE
:1008800041872397E182839781823E85EF40B06B59
:10089000AA848397E1813E85EF40F06AAA87832589
:1008A000C4FE3E85EF409002AA87BE852685EF40B4
:1008B000F02AAA873E85EF40F062AA8713970701C6
:1008C00041872398E1820DA0039781822398E182DA
:1008D000039701832397E1820397E1822396E182C4
:1008E0000397C1822395E1828397A1813E878397F5
:1008F000C181BE85839701823E8683972182BE8611
:100900003A85EF40E02B8397A1823E878397A181B0
:10091000B307F7403E85EF401063AA87BE85138575
:100920004186EF40A0088397C1823E878397C181AB
:10093000B307F7403E85EF401061AA87BE85138557
:100940004189EF40A0068397E1823E878397018229
:10095000B307F7403E85EF40105FAA87BE85138539
:10096000418CEF40A004839701833E8783972182C7
:10097000B307F7403E85EF40105DAA87BE8513851B
:10098000418FEF40A00293874186DC4F3E85EF40C8
:100990007055AA8493874189DC4F3E85EF4090547F
:1009A0002A899387418CDC4F3E85EF40B053AA895A
:1009B0009387418FDC4F3E85EF40D052AA87BE8699
:1009C0004E86CA852685EF30507205472383E18223
:1009D00001007244E2445249C2490561730020306B
:1009E000411106C622C40008154691450545EF3061
:1009F000401F2D46A9450945EF30A01E0100B24019
:100A0000224441018280411106C622C40008EF2021
:100A1000607EEF301028EF10D07693061002130698
:100A20000002B7170700938507800945EF303007AC
:100A300085450945EF30F02013068004A1450145A6
:100A4000EF2020658546054685455945EF20606CB9
:100A500013854186EF30106E13854189EF30906D1C
:100A60001385418CEF30106D1385418FEF30906C02
:100A7000EF30104AB5370145EF20807BFD77938634
:100A80008744FD7713868744FD7793858744FD77F8
:100A900013858744EF307065D5B7970100209381A7
:100AA00061DD174100201301E155176500001305B2
:100AB000E52B97F5FF1F9385E5541386818163FA33
:100AC000C5008322050023A0550011059105E3EA26
:100AD000C5FE13858181938541936377B5002320FB
:100AE00005001105E36DB5FE9302800873A0023086
:100AF00097F2FFFF9382825493E212007390523078
:100B0000EF30303997020000938222F07390123454
:100B100073002030797122D60018232EA4FC2326DE
:100B200004FE232404FE0327C4FDB7070010F98F39
:100B300089CBB7070240938707409C432324F4FEE8
:100B400031A0B70702409C432324F4FE032784FE10
:100B50008327C4FDF98F89C785472326F4FE19A092
:100B6000232604FE8327C4FE3E85325445618280DD
:100B7000011122CE00102326A4FE0327C4FEB707CE
:100B80000010F98F89CBB7070240938707400327EE
:100B9000C4FED8C331A0B70702400327C4FED8C3A0
:100BA0000100724405618280797122D60018232EDB
:100BB000A4FC232604FEB7070140938707402326A1
:100BC000F4FE8327C4FDDC4763800712B7070140AA
:100BD0009387074094438327C4FD9C4313C7F7FFC3
:100BE000B707014093870740758F98C3B707014047
:100BF00093870740D4438327C4FD9C4313C7F7FF63
:100C0000B707014093870740758FD8C38327C4FD7A
:100C1000DC430327C4FEBA972326F4FE8327C4FED1
:100C200094438327C4FD98438327C4FE558F98C3FC
:100C3000B70701409387074094478327C4FD9C432F
:100C400013C7F7FFB707014093870740758F98C711
:100C5000B707014093870740D4478327C4FD9C43CF
:100C600013C7F7FFB707014093870740758FD8C7B1
:100C70008327C4FD9847C147631FF702B7070140A8
:100C80009387074094478327C4FD9843B7070140E3
:100C900093870740558F98C7B70701409387074050
:100CA000D4478327C4FD9843B70701409387074083
:100CB000558FD8C7B1A8B7070140938707402326AF
:100CC000F4FE8327C4FD9C470327C4FEBA9723265E
:100CD000F4FE8327C4FE94438327C4FD98438327EF
:100CE000C4FE558F98C32DA08327C4FDDC43032782
:100CF000C4FEBA972326F4FE8327C4FE94438327B9
:100D0000C4FD9C4313C7F7FF8327C4FE758F98C3A8
:100D10000100325445618280797122D60018232E59
:100D2000A4FC232604FE232404FEB7070140938776
:100D300007409C430327C4FDF98F2324F4FEB70723
:100D4000014093870740D84B8327C4FDF98F81CB9F
:100D5000832784FE89C785472326F4FE19A023260E
:100D600004FE8327C4FE3E85325445618280011112
:100D700022CE00102326A4FEB70701409387074028
:100D80000327C4FED8CB010072440561828039710B
:100D900022DE80002326A4FC2324B4FC232604FEA8
:100DA000232004FE232404FE232E04FC232204FE1D
:100DB000232C04FC832784FC9C47BD8B2326F4FE54
:100DC000832784FC9C47C18B89CB832784FCDC432D
:100DD0000327C4FED98F2326F4FE832784FC83D700
:100DE000070093F7F70FF1CF8327C4FC9C4323221E
:100DF000F4FE232404FE65A8832784FE0547B31769
:100E0000F700232EF4FC832784FC83D707003E875A
:100E10008327C4FDF98F2320F4FE032704FE8327D4
:100E2000C4FD6311F708832784FE8A07232EF4FC90
:100E30008327C4FD3D47B317F700232CF4FC832719
:100E400084FD93C7F7FF032744FEF98F2322F4FEA6
:100E50008327C4FD0327C4FEB317F700032744FE0E
:100E6000D98F2322F4FE832784FC984793078002BE
:100E7000631BF700832784FE05473317F70083279A
:100E8000C4FCD8CB05A0832784FC98479307800433
:100E9000631AF700832784FE05473317F70083277B
:100EA000C4FC98CB832784FE85072324F4FE032704
:100EB00084FE9D47E3F2E7F48327C4FC032744FE46
:100EC00098C3832784FC03D707009307F00F63F1CF
:100ED000E70E8327C4FCDC432322F4FE232404FE14
:100EE00075A8832784FEA1070547B317F700232EB3
:100EF000F4FC832784FC83D707003E878327C4FD47
:100F0000F98F2320F4FE032704FE8327C4FD631218
:100F1000F708832784FE8A07232EF4FC8327C4FD69
:100F20003D47B317F700232CF4FC832784FD93C7B8
:100F3000F7FF032744FEF98F2322F4FE8327C4FD25
:100F40000327C4FEB317F700032744FED98F2322DB
:100F5000F4FE832784FC984793078002631BF70005
:100F6000832784FEA10705473317F7008327C4FCB6
:100F7000D8CB832784FC984793078004631BF70032
:100F8000832784FEA10705473317F7008327C4FC96
:100F900098CB832784FE85072324F4FE032784FE51
:100FA0009D47E3F0E7F48327C4FC032744FED8C33E
:100FB0000100725421618280011122CE001023268B
:100FC000A4FEAE872322C4FE2315F4FE832744FE2D
:100FD00099C70357A4FE8327C4FE98CB31A00357BB
:100FE000A4FE8327C4FED8CB010072440561828031
:100FF000797122D60018232EA4FC232CB4FC2324C0
:1010000004FE232204FE232604FE232004FE83275D
:10101000C4FD63D80700B7070140DC4F2326F4FE68
:1010200031A0B7070140DC432326F4FE8327C4FD2B
:10103000C183BD8B2320F4FE0327C4FDC167FD17C8
:10104000F98F2324F4FE0327C4FDB70730007D8FFA
:10105000B70730006315F7020327C4FEB70700F196
:10106000FD17F98F2326F4FEB7070140D443B707D5
:101070000140370700F17D17758FD8C3ADA0032756
:10108000C4FDB7071000F98F8DCB832704FE0D47F1
:10109000B317F7002322F4FE832744FE93C7F7FF1C
:1010A0000327C4FEF98F2326F4FE0327C4FEB707E7
:1010B000000FD98F2326F4FE3DA08327C4FDD583DE
:1010C0009207032784FEB317F70093C7F7FF0327A0
:1010D000C4FEF98F2326F4FE0327C4FEB707000FD2
:1010E000D98F2326F4FE832784FD91CF8327C4FD67
:1010F000D5839207032784FEB317F7000327C4FEA6
:10110000D98F2326F4FE8327C4FD63D80700B707D1
:1011100001400327C4FED8CF31A0B7070140032701
:10112000C4FED8C30100325445618280797122D651
:101130000018AA872E87A30FF4FCBA87230FF4FCAC
:10114000232604FE8347E4FD8D8B8A073D47B317B2
:10115000F7002326F4FE370701408347E4FD898327
:1011600093F7F70F8A07BA9798478327C4FE93C768
:10117000F7FFB70601400346E4FD09821376F60F38
:101180007D8F93172600B69798C73707014083478E
:10119000E4FD898393F7F70F8A07BA979847834648
:1011A000F4FD8347E4FD8D8B8A07B397F600B706FD
:1011B00001400346E4FD09821376F60F5D8F931715
:1011C0002600B69798C7010032544561828001110C
:1011D00022CE00102326A4FE8327C4FEFD8B0547E4
:1011E000B316F70037E700E08327C4FE95839387A3
:1011F00007048A07BA9794C301007244056182808C
:10120000011122CE00102326A4FE8327C4FEFD8BED
:101210000547B316F70037E700E08327C4FE958340
:10122000938707068A07BA9794C301007244056141
:101230008280011122CE00102326A4FEAE87A305D2
:10124000F4FE37E700E08327C4FEBA970347B4FEF5
:101250002380E7400100724405618280011106CEBF
:1012600022CC00102326A4FEB7E700E0BC47898B00
:101270008DC38327C4FE83C707003E878327C4FE30
:1012800083C72700920793F7F70FBE853A85553736
:1012900095A0B7E700E0BC47898BA9EF8327C4FE80
:1012A00003C7170085476318F7028327C4FE83C767
:1012B00007003E878327C4FE83C727009207E20703
:1012C000E18793E707F8E207E18793F7F70FBE8519
:1012D0003A85853705A08327C4FE83C707003E876C
:1012E0008327C4FE83C72700920793F7F70FBE85B5
:1012F0003A8581378327C4FEDC4381CB8327C4FE34
:1013000083C707003E85E13539A08327C4FE83C724
:1013100007003E85F5350100F24062440561828098
:10132000797122D60018232EA4FC232604FE232440
:1013300004FE232204FE232004FEB7170240DC43F0
:10134000B18B2326F4FE0327C4FE91476302F70204
:101350000327C4FEA1476305F7028327C4FEC5E740
:101360008327C4FD37177A001307072098C365A0A9
:101370008327C4FD37177A001307072098C361A895
:10138000B7170240D843B7073C00F98F2324F4FE77
:10139000B7170240D843C167F98F2322F4FE832791
:1013A00084FEC98389072324F4FE832744FE89EF42
:1013B000032784FEB7173D00938707903307F70292
:1013C0008327C4FD98C381A8B7170240D843B70745
:1013D0000200F98F89CF032784FEB7173D0093875A
:1013E00007903307F7028327C4FD98C32DA0032776
:1013F00084FEB7177A00938707203307F702832705
:10140000C4FD98C309A88327C4FD37177A001307C2
:10141000072098C30100B7170240DC4393F7070F7A
:101420002326F4FE8327C4FE91832326F4FEB70708
:101430000020138707008327C4FEBA9783C70700DD
:1014400093F7F70F2320F4FE8327C4FD98438327E7
:1014500004FE3357F7008327C4FDD8C3B7170240F3
:10146000DC4393F707702326F4FE8327C4FEA18391
:101470002326F4FEB7070020138707008327C4FE46
:10148000BA9783C7070093F7F70F2320F4FE83274B
:10149000C4FDD843832704FE3357F7008327C4FDD8
:1014A00098C7B7170240D843916793870780F98F91
:1014B0002326F4FE8327C4FEAD832326F4FEB7075C
:1014C0000020138707008327C4FEBA9783C707004D
:1014D00093F7F70F2320F4FE8327C4FDD843832717
:1014E00004FE3357F7008327C4FDD8C7B71702405F
:1014F000D843B167F98F2326F4FE8327C4FEB9834E
:101500002326F4FEB7070020138707078327C4FEAE
:10151000BA9783C7070093F7F70F2320F4FE8327BA
:10152000C4FDD847832704FE3357F7028327C4FD41
:1015300098CB0100325445618280011122CE001007
:101540002326A4FE2324B4FE832784FE99CBB71759
:101550000240944FB71702400327C4FE558F98CF1F
:1015600021A8B7170240944F8327C4FE13C7F7FF83
:10157000B7170240758F98CF0100724405618280D1
:10158000011122CE00102326A4FE2324B4FE8327BB
:1015900084FE99CBB7170240D44FB71702400327F8
:1015A000C4FE558FD8CF21A8B7170240D44F832748
:1015B000C4FE13C7F7FFB7170240758FD8CF0100DD
:1015C000724405618280797122D60018232EA4FC12
:1015D000232CB4FC231704FE8327C4FD83D7070004
:1015E0002317F4FE0357E4FE8D6793870704F98FF2
:1015F0002317F4FE832784FD03D70700832784FD88
:1016000083D72700D98F139707014183832784FD50
:1016100083D74700D98F139707014183832784FD20
:1016200083D76700D98F139707014183832784FDF0
:1016300083D78700D98F139707014183832784FDC0
:1016400083D7A700D98F139707014183832784FD90
:1016500083D7C700D98F139707014183832784FD60
:1016600083D7E700D98F1397070141838357E4FE9F
:10167000D98F2317F4FE8327C4FD0357E4FE23907C
:10168000E7008327C4FD83D7C70113970701418370
:10169000FD779387F77FF98F13970701418383279E
:1016A000C4FD239EE700832784FD03D7070183271A
:1016B000C4FD2398E7000100325445618280011186
:1016C00022CE00102326A4FE2324B4FE832784FE0A
:1016D0008DC38327C4FE83D70700C207C18393E766
:1016E00007041397070141838327C4FE2390E70073
:1016F00005A08327C4FE83D70700C207C18393F7E1
:10170000F7FB1397070141838327C4FE2390E7006B
:101710000100724405618280797122D60018232E5F
:10172000A4FC232CB4FC231704FE8327C4FD83D719
:1017300007002317F4FE0327C4FDB7370140938742
:1017400007C06308F7020327C4FDB7070040630220
:10175000F7020327C4FDB707004093870740630AD9
:10176000F7000327C4FDB717004093870780631174
:10177000F7028357E4FE93F7F7F82317F4FE832765
:1017800084FD03D727008357E4FED98F2317F4FE87
:101790008357E4FE93F7F7CF2317F4FE832784FDE6
:1017A00003D767008357E4FED98F2317F4FE8327FE
:1017B000C4FD0357E4FE2390E700832784FD03D78D
:1017C00047008327C4FD2396E702832784FD03D7C0
:1017D00007008327C4FD2394E7020327C4FDB7371E
:1017E0000140938707C0631DF700832784FD83C7EB
:1017F00087001397070141838327C4FD2398E702DD
:101800008327C4FD0547239AE70001003254456150
:101810008280797122D60018232EA4FC232CB4FCDC
:10182000231504FE231704FE231604FE8327C4FD9C
:1018300083D70702C207C183F99B1397070141832E
:101840008327C4FD2390E7028327C4FD83D70702C3
:101850002317F4FE8327C4FD83D747002316F4FE25
:101860008327C4FD83D787012315F4FE8357A4FE85
:1018700093F7F7F82315F4FE8357A4FEF19B231585
:10188000F4FE832784FD03D707008357A4FED98F76
:101890002315F4FE8357E4FEF59B2317F4FE8327FC
:1018A00084FD03D787008357E4FED98F2317F4FE06
:1018B000832784FD03D727008357E4FED98F23179E
:1018C000F4FE0327C4FDB7370140938707C0631CAC
:1018D000F7068357E4FEDD9B2317F4FE832784FD80
:1018E00003D7A7008357E4FED98F2317F4FE83574D
:1018F000E4FEED9B2317F4FE832784FD03D7470006
:101900008357E4FED98F2317F4FE8357C4FE93F761
:10191000F7EF2316F4FE8357C4FE93F7F7DF231681
:10192000F4FE832784FD03D7C7008357C4FED98FF5
:101930002316F4FE832784FD03D7E7008357C4FEF4
:10194000D98F2316F4FE8327C4FD0357C4FE2392C8
:10195000E7008327C4FD0357A4FE239CE7008327E9
:1019600084FD03D767008327C4FD239AE7028327FA
:10197000C4FD0357E4FE2390E702010032544561A1
:101980008280797122D60018232EA4FC232CB4FC6B
:10199000231504FE231704FE231604FE8327C4FD2B
:1019A00083D70702C207C183BD9B139707014183F9
:1019B0008327C4FD2390E7028327C4FD83D7070252
:1019C0002317F4FE8327C4FD83D747002316F4FEB4
:1019D0008327C4FD83D787012315F4FE0357A4FE94
:1019E000E577FD17F98F2315F4FE8357A4FE93F7CF
:1019F000F7CF2315F4FE832784FD83D70700A207C2
:101A00001397070141838357A4FED98F2315F4FE52
:101A10008357E4FE93F7F7FD2317F4FE832784FD35
:101A200083D7870092071397070141838357E4FE0A
:101A3000D98F2317F4FE832784FD83D727009207CD
:101A40001397070141838357E4FED98F2317F4FED0
:101A50000327C4FDB7370140938707C06310F70A17
:101A60008357E4FE93F7F7F72317F4FE832784FDEB
:101A700083D7A70092071397070141838357E4FE9A
:101A8000D98F2317F4FE8357E4FE93F7F7FB231750
:101A9000F4FE832784FD83D747009207139707013D
:101AA00041838357E4FED98F2317F4FE8357C4FE86
:101AB00093F7F7BF2316F4FE0357C4FEFD77938711
:101AC000F77FF98F2316F4FE832784FD83D7C700A1
:101AD0008A071397070141838357C4FED98F2316C2
:101AE000F4FE832784FD83D7E7008A071397070155
:101AF00041838357C4FED98F2316F4FE8327C4FD88
:101B00000357C4FE2392E7008327C4FD0357A4FEB6
:101B1000239CE700832784FD03D767008327C4FD48
:101B2000239CE7028327C4FD0357E4FE2390E702CA
:101B30000100325445618280797122D60018232E2B
:101B4000A4FC232CB4FC231504FE231704FE231647
:101B500004FE8327C4FD83D70702C207C18393F71E
:101B6000F7EF1397070141838327C4FD2390E70212
:101B70008327C4FD83D707022317F4FE8327C4FD00
:101B800083D747002316F4FE8327C4FD83D7C701FC
:101B90002315F4FE8357A4FE93F7F7F82315F4FEFC
:101BA0008357A4FEF19B2315F4FE832784FD03D7FE
:101BB00007008357A4FED98F2315F4FE8357E4FE54
:101BC00093F7F7DF2317F4FE832784FD83D787007D
:101BD000A2071397070141838357E4FED98F231788
:101BE000F4FE832784FD83D72700A20713970701FC
:101BF00041838357E4FED98F2317F4FE0327C4FDE6
:101C0000B7370140938707C06312F70A0357E4FE12
:101C1000FD779387F77FF98F2317F4FE832784FDE1
:101C200083D7A700A2071397070141838357E4FED8
:101C3000D98F2317F4FE8357E4FE93F7F7BF2317DA
:101C4000F4FE832784FD83D74700A207139707017B
:101C500041838357E4FED98F2317F4FE0357C4FE54
:101C6000FD77FD17F98F2316F4FE0357C4FEF977AD
:101C7000FD17F98F2316F4FE832784FD83D7C70051
:101C800092071397070141838357C4FED98F231608
:101C9000F4FE832784FD83D7E7009207139707019B
:101CA00041838357C4FED98F2316F4FE8327C4FDD6
:101CB0000357C4FE2392E7008327C4FD0357A4FE05
:101CC000239EE700832784FD03D767008327C4FD95
:101CD000239EE7028327C4FD0357E4FE2390E70217
:101CE0000100325445618280797122D60018232E7A
:101CF000A4FC232CB4FC231604FE231504FE231796
:101D000004FE8327C4FD83D707021397070141838D
:101D1000FD77FD17F98F1397070141838327C4FDD2
:101D20002390E7028327C4FD83D707022315F4FE1F
:101D30008327C4FD83D747002317F4FE8327C4FD00
:101D400083D7C7012316F4FE0357C4FEE577FD17BA
:101D5000F98F2316F4FE8357C4FE93F7F7CF2316AB
:101D6000F4FE832784FD83D70700A207139707019A
:101D700041838357C4FED98F2316F4FE0357A4FE74
:101D8000F977FD17F98F2315F4FE832784FD83D798
:101D90008700B2071397070141838357A4FED98FA9
:101DA0002315F4FE832784FD83D72700B2071397FA
:101DB000070141838357A4FED98F2315F4FE03271F
:101DC000C4FDB7370140938707C06316F702035776
:101DD000E4FEF177FD17F98F2317F4FE832784FDC6
:101DE00083D7C7009A071397070141838357E4FEFF
:101DF000D98F2317F4FE8327C4FD0357E4FE2392F3
:101E0000E7008327C4FD0357C4FE239EE700832712
:101E100084FD03D767008327C4FD2390E70483274D
:101E2000C4FD0357A4FE2390E7020100325445612C
:101E30008280011122CE00102326A4FE8327C4FE37
:101E40007D572392E7008327C4FE23900700832752
:101E5000C4FE239307008327C4FE23910700832732
:101E6000C4FE2384070001007244056182800111D1
:101E700022CE00102326A4FE2324B4FE832784FE52
:101E80008DC38327C4FE83D70700C207C18393E7AE
:101E900017001397070141838327C4FE2390E700AF
:101EA00039A88327C4FE83D70700C207C183F99BE3
:101EB0001397070141838327C4FE2390E7000100A5
:101EC000724405618280011122CE00102326A4FEF7
:101ED0002324B4FE832784FE95C38327C4FE83D7BF
:101EE0004704139707014183E177D98F13970701BF
:101EF00041838327C4FE2392E70415A08327C4FEF1
:101F000083D74704139707014183A167FD17F98F12
:101F10001397070141838327C4FE2392E70401003E
:101F2000724405618280797122D60018232EA4FCA8
:101F3000AE873687231DF4FCB287231CF4FCBA87D6
:101F4000231BF4FC231704FE231604FE231504FEB2
:101F50008327C4FD83D787002317F4FE8327C4FD9E
:101F600083D787012316F4FE8327C4FD83D7070296
:101F70002315F4FE8357E4FEE19B2317F4FE035779
:101F8000E4FE8357A4FDD98F2317F4FE8357C4FEC4
:101F900093F7C7CF2316F4FE8357C4FE93E71710B9
:101FA0002316F4FE8357A4FE93F7D7FD2315F4FE02
:101FB000835764FD9207139707014183835784FD7C
:101FC000D98F1397070141838357A4FED98F231517
:101FD000F4FE8327C4FD0357E4FE2394E700832720
:101FE000C4FD0357C4FE239CE7008327C4FD0357A9
:101FF000A4FE2390E702010032544561828079718A
:1020000022D60018232EA4FCAE87231DF4FC231730
:1020100004FE8327C4FD83D787012317F4FE83576B
:10202000E4FEDD9B2317F4FE0357E4FE8357A4FD73
:10203000D98F2317F4FE8327C4FD0357E4FE239CA6
:10204000E7000100325445618280797122D6001880
:10205000232EA4FCAE87231DF4FC231704FE832744
:10206000C4FD83D787012317F4FE0357E4FEFD77F1
:102070009387F77FF98F2317F4FE8357A4FDA207F8
:102080001397070141838357E4FED98F2317F4FE8A
:102090008327C4FD0357E4FE239CE700010032546C
:1020A00045618280797122D60018232EA4FCAE8768
:1020B000231DF4FC231704FE8327C4FD83D7C70127
:1020C0002317F4FE8357E4FEDD9B2317F4FE03572A
:1020D000E4FE8357A4FDD98F2317F4FE8327C4FDA4
:1020E0000357E4FE239EE7000100325445618280DD
:1020F000797122D60018232EA4FCAE87231DF4FC90
:10210000231704FE8327C4FD83D7C7012317F4FEDA
:102110000357E4FEFD779387F77FF98F2317F4FECB
:102120008357A4FDA2071397070141838357E4FE59
:10213000D98F2317F4FE8327C4FD0357E4FE239EA3
:10214000E7000100325445618280797122D600187F
:10215000232EA4FCAE87231DF4FC231704FE832743
:10216000C4FD83D787012317F4FE8357E4FEED9B5C
:102170002317F4FE0357E4FE8357A4FDD98F2317DA
:10218000F4FE8327C4FD0357E4FE239CE70001000F
:10219000325445618280797122D60018232EA4FC26
:1021A000AE87231DF4FC231704FE8327C4FD83D7C9
:1021B00087012317F4FE8357E4FE93F7F7BF231735
:1021C000F4FE8357A4FDA2071397070141838357A9
:1021D000E4FED98F2317F4FE8327C4FD0357E4FEE2
:1021E000239CE7000100325445618280797122D638
:1021F0000018232EA4FCAE87231DF4FC231704FE35
:102200008327C4FD83D7C7012317F4FE8357E4FE59
:10221000ED9B2317F4FE0357E4FE8357A4FDD98FEB
:102220002317F4FE8327C4FD0357E4FE239EE70033
:102230000100325445618280797122D60018232E24
:10224000A4FCAE87231DF4FC231704FE8327C4FDE2
:1022500083D7C7012317F4FE8357E4FE93F7F7BF34
:102260002317F4FE8357A4FDA207139707014183A8
:102270008357E4FED98F2317F4FE8327C4FD035749
:10228000E4FE239EE70001003254456182807971AB
:1022900022D60018232EA4FCAE87231DF4FC23268F
:1022A00004FE231504FE231404FE8327C4FD83D7F4
:1022B00007011397070141838357A4FDF98F231565
:1022C000F4FE8327C4FD83D7C7001397070141831A
:1022D0008357A4FDF98F2314F4FE8357A4FE81CB0A
:1022E000835784FE89C785472326F4FE19A0232639
:1022F00004FE8327C4FE3E8532544561828001116D
:1023000022CE00102326A4FEAE872315F4FE8357A9
:10231000A4FE93C7F7FF1397070141838327C4FEE9
:102320002398E70001007244056182805D7186C6D2
:10233000A2C48008232EA4FA232CB4FA232604FE78
:10234000232404FE232204FE232004FE232E04FC67
:102350008327C4FB232EF4FC8327C4FB83D7070108
:10236000C207C1832326F4FE0327C4FEB567FD1709
:10237000F98F2326F4FE832784FB83D767003E87EB
:102380008327C4FED98F2326F4FE8327C4FE139728
:10239000070141838327C4FB2398E7008327C4FBFD
:1023A00083D7C700C207C1832326F4FE0327C4FED8
:1023B000BD679387379FF98F2326F4FE832784FB1D
:1023C00003D74700832784FB83D78700D98F1397D0
:1023D00007014183832784FB83D7A700D98FC207D6
:1023E000C1833E878327C4FED98F2326F4FE83272B
:1023F000C4FE1397070141838327C4FB2396E7009C
:102400008327C4FB83D74701C207C1832326F4FE79
:102410000327C4FEC1679387F7CFF98F2326F4FE05
:10242000832784FB83D7C7003E878327C4FED98FC9
:102430002326F4FE8327C4FE1397070141838327D5
:10244000C4FB239AE700930784FC3E85EFE05FED31
:102450000327C4FDB7470140938707806317F70040
:10246000832744FD2324F4FE29A0832704FD23248D
:10247000F4FE8327C4FB83D7C700C207C183C2070A
:10248000C18763D20702032784FEBA878607BA97FB
:102490008E073E97832784FB9C438607B357F7023A
:1024A0002322F4FE05A0032784FEBA878607BA9785
:1024B0008E073E97832784FB9C438A07B357F70216
:1024C0002322F4FE032744FE93074006B357F70286
:1024D00092072326F4FE8327C4FE13D747009307F1
:1024E0004006B307F702032744FEB307F740232053
:1024F000F4FE8327C4FB83D7C700C207C183C2078A
:10250000C18763D20702832704FE8E071387270340
:1025100093074006B357F7029D8B0327C4FED98F5C
:102520002326F4FE05A0832704FE920713872703C2
:1025300093074006B357F702BD8B0327C4FED98F1C
:102540002326F4FE8327C4FE1397070141838327C4
:10255000C4FB2394E7000100B640264461618280F9
:10256000011122CE00102326A4FE2324B4FE8327CB
:1025700084FE95C38327C4FE83D7C7001397070142
:1025800041838967D98F1397070141838327C4FE4D
:102590002396E70015A08327C4FE83D7C7001397AF
:1025A00007014183F977FD17F98F139707014183DD
:1025B0008327C4FE2396E7000100724405618280F0
:1025C000797122D60018232EA4FCAE87232AC4FCDE
:1025D000231DF4FC232404FE232204FE232004FEF6
:1025E000232604FE8327C4FD2326F4FE8357A4FD7F
:1025F00093F7F70F958393F7F70F2324F4FE835790
:10260000A4FDFD8B2322F4FE832744FE0547B31768
:10261000F7002320F4FE032784FE85476318F700A4
:102620008327C4FEB1072326F4FE0DA0032784FEF2
:1026300089476318F7008327C4FEC1072326F4FEE9
:1026400031A08327C4FED1072326F4FE832744FD4F
:1026500099CB8327C4FE94438327C4FE032704FE3B
:10266000558F98C321A88327C4FE9443832704FE73
:1026700013C7F7FF8327C4FE758F98C30100325438
:1026800045618280011122CE00102326A4FEAE8770
:102690002315F4FE8357A4FE93F7F71F1397070142
:1026A00041838327C4FE2392E70001007244056141
:1026B0008280011122CE00102326A4FE8327C4FEAF
:1026C00083D74700C207C18393F7F71FC207C183AF
:1026D0003E85724405618280797122D60018232ECE
:1026E000A4FCAE87231DF4FC232604FE8327C4FD2F
:1026F00083D707001397070141838357A4FDF98F00
:10270000C207C18389C785472326F4FE19A0232663
:1027100004FE8327C4FE3E85325445618280797170
:1027200022D60018232EA4FCAE87231DF4FC2322FE
:1027300004FE232604FE232004FE232404FE8357E4
:10274000A4FD93F7F70F958393F7F70F2320F4FE7B
:102750008357A4FDFD8B2326F4FE8327C4FE054783
:10276000B317F7002326F4FE032704FE8547631FF3
:10277000F7008327C4FD83D7C700C207C1833E8704
:102780008327C4FEF98F2326F4FE3DA8032704FE09
:102790008947631FF7008327C4FD83D70701C2075A
:1027A000C1833E878327C4FEF98F2326F4FE29A820
:1027B0008327C4FD83D74701C207C1833E87832790
:1027C000C4FEF98F2326F4FE8357A4FDA183C2071C
:1027D000C1832322F4FE832744FE0547B317F70085
:1027E0002322F4FE8327C4FD83D70700C207C183D9
:1027F0003E87832744FEF98F2322F4FE8327C4FEFD
:1028000081CB832744FE89C785472324F4FE19A082
:10281000232404FE832784FE3E8532544561828052
:10282000797122D60018232EA4FCAE87231DF4FC58
:10283000231704FE231604FE8357A4FDA183231748
:10284000F4FE8357E4FE0547B317F7002316F4FEA2
:102850008357C4FE93C7F7FF13970701418383276C
:10286000C4FD2390E70001003254456182800111CC
:1028700006CE22CC0010AA87A307F4FE9D6793879B
:10288000C7B09C473E87A1675CCB9D679387C7B065
:102890009C473E8791675CCB9307F4FE85460146D3
:1028A000BE850145EF10807B9D679387C7B09C472D
:1028B0003E87A1671CCB0100F24062440561828023
:1028C000011106CE22CC0010AA87A307F4FE9D6753
:1028D0009387C7B09C473E87A1675CCB9D67938772
:1028E000C7B09C473E8791671CCB9307F4FE854693
:1028F0000146BE850145EF1060769D679387C7B09E
:102900009C473E87A1671CCB0100F24062440561F1
:102910008280797106D622D40018AA87231FF4FC7E
:102920009D679387C7B09C473E87A1675CCB835761
:10293000E4FDA183C207C18393F7F70F2306F4FEDA
:102940008357E4FD93F7F70FA306F4FE9D67938783
:10295000C7B09C473E8791671CCB9307C4FE89464E
:102960000146BE850145EF10606F9D679387C7B034
:102970009C473E87A1671CCB0100B25022544561A1
:102980008280797106D622D44AD24ED052CE56CC0D
:102990005ACA5EC862C666C4001801488147130758
:1029A000F00493063002054681450145EF10A0571B
:1029B0009306003105468545130500085529930601
:1029C0000031014685451305E0045D219306003181
:1029D000014685451305D00461299D679387C7B0DB
:1029E0009C473E8789675CCB03A7418489679387AF
:1029F00007F43357F7029307800CB307F7023E8CB6
:102A0000814C6285E685EF1080719D679387C7B022
:102A10009C473E8789671CCB03A7418489679387BE
:102A200007F43357F70293074006B307F7023E8BCC
:102A3000814B5A85DE85EF10806E13056003053DDE
:102A400003A741848967938707F43357F7029307F5
:102A50004006B307F7023E8A814A5285D685EF10B9
:102A6000006C13050007A93D1305A00309351545A2
:102A7000813D1305200BE53B3145993531458935BD
:102A800001453D3D13053003253D130530030D3D44
:102A90001305700BE93B130550031D351305B00BEF
:102AA000F93313057003293D1305000CC9331305D1
:102AB000C00239351305200C5D3B05451135130562
:102AC000300C75334945ED3B1305400C4D33130570
:102AD0000002FD331305600C593B3D45D53313050A
:102AE000000D71331305400AE13B1305100AC93B81
:102AF0001305000EAD3B1305000DD9331145C93345
:102B000035457D3B45456D3B4D455D3B1305B0026D
:102B1000453B1305F0036D3313054005553313058D
:102B2000C004793B6145693B3545593B2D45493BDF
:102B30007D4579331305300261331305100E053BD3
:102B40001305000DB53B1145A53B3145953B45456A
:102B5000853B4D45B5331305C0029D331305F00386
:102B6000853313054004A93B13051005913B13055C
:102B7000F002B9337D45A9337D4599331305000231
:102B80008133130530022D3B13051002CD3145452D
:102B9000F93903A741848967938707F43357F7020C
:102BA000BA879207998F8E073E8981494A85CE85DB
:102BB000EF10E056130590025D39C1671385F7FFEA
:102BC00045200100B250225412598259724AE24AF9
:102BD000524BC24B324CA24C45618280011106CE51
:102BE00022CC0010AA8736872317F4FEAE8723165F
:102BF000F4FEB2872315F4FEBA872314F4FE1305FE
:102C0000A002EFF0DFC68357E4FE93878702C20776
:102C1000C1833E85FD398357A4FE93878702C2078F
:102C2000C1833E85FD311305B002EFF05FC48357C9
:102C3000C4FE93875703C207C1833E85D9398357A2
:102C400084FE93875703C207C1833E85D93113059C
:102C5000C002EFF0DFC10100F240624405618280F2
:102C6000797106D622D40018AA87231FF4FC930694
:102C700060081306F00E814501458D37231704FEC9
:102C80000DA8231604FE19A88357E4FD3E85EFF036
:102C90005FC88357C4FE85072316F4FE0357C4FE9E
:102CA00093076008E3F2E7FE8357E4FE85072317E6
:102CB000F4FE0357E4FE9307F00EE3F4E7FC010093
:102CC000B250225445618280411122C600089D679E
:102CD0009387C7B3DC4383D747001397070141832A
:102CE00083C77183BE861377F70F93874183B697A7
:102CF0002380E70083C77183850713F7F70FA38B42
:102D0000E18203C771838547631AF70003C74183D4
:102D10009307500A6304F700A38B018203C77183F2
:102D20008D476317F700A38B01820547238CE1824F
:102D30000100324441018280411122C60008B707D8
:102D400002409387470409671307874BD8C3B70727
:102D50000240938747049843B7070240938747048C
:102D60001367170098C3010032444101828041116A
:102D700022C600080547A38CE182B707024093876B
:102D800047049443B7070240938747044167791784
:102D9000758F98C30100324441018280411122C6DF
:102DA00000089D679387C7B3DC4383D74700139719
:102DB0000701418383C7F183BE861377F70F93879B
:102DC000C183B6972380E70083C7F183850713F794
:102DD000F70FA38FE18203C7F1838547631AF700DA
:102DE00003C7C1839307500A6304F700A38F0182CE
:102DF00003C7F1838D476317F700A38F018205474F
:102E00002380E1840100324441018280411122C6C5
:102E10000008B70702409387470405671307079622
:102E2000D8C3B7070240938747049843B7070240C7
:102E3000938747041367170098C301003244410188
:102E40008280411122C600080547A380E184B707AC
:102E50000240938747049443B7070240938747048F
:102E600041677917758F98C3010032444101828010
:102E7000797106D622D40018232EA4FC232CB4FC8E
:102E8000B2872328D4FCA30BF4FC8327C4FD9583CD
:102E900093F7F70F9D8BA307F4FE8327C4FD93F7E9
:102EA000F70FFD8B2307F4FE0327C4FD93070008EB
:102EB000630DF7148327C4FD958391E7854511457C
:102EC000EFE0AFE761A88327C4FD13D7570085471C
:102ED0006317F70085452145EFE02FE641A08327E2
:102EE000C4FD13D7570089476317F700854541454F
:102EF000EFE0AFE4A5A08327C4FD13D757008D47AB
:102F00006318F700854513050002EFE00FE3B9A051
:102F10008327C4FD13D7570091476318F7008545F1
:102F200013050004EFE06FE115A88327C4FD13D754
:102F3000570095476318F700854513050008EFE033
:102F4000CFDF29A88327C4FD13D7570099476317FC
:102F5000F700854513050010EFE02FDE8347E4FE00
:102F60000547B317F700C207C1832310F4FE0327F8
:102F700084FD85476317F702832704FDC207C183D9
:102F8000A183C207C18389E78D472322F4FE11A8DC
:102F9000832704FDC207C183A183C207C183232203
:102FA000F4FE832704FDC207C18393F7F70F2324A0
:102FB000F4FE0347F4FE9D670A079387C7B0BA97EC
:102FC0009C433E87930704FEBE853A85EFD03FDCE5
:102FD000032784FD8547631BF7020347F4FE9D67C3
:102FE0000A079387C7B0BA979C43BE868347E4FE1F
:102FF0000547B317F700C207C183034774FD3A863C
:10300000BE853685EFD05FFB11A00100B25022547F
:1030100045618280797122D60018232EA4FCAE87E8
:10302000A30DF4FC8327C4FD958393F7F70F9D8BC5
:10303000A307F4FE8327C4FD93F7F70FFD8B230747
:10304000F4FE0347B4FD85476312F7028347E4FEAD
:103050000547B316F7000347F4FE9D670A079387F9
:10306000C7B0BA979C43368798CB05A08347E4FE48
:103070000547B316F7000347F4FE9D670A079387D9
:10308000C7B0BA979C433687D8CB0100325445610C
:103090008280797106D622D40018232EA4FC232C1A
:1030A000B4FC232AC4FC85450545EFE00FC98326FF
:1030B00044FD014681450325C4FD5D3B8327C4FDD6
:1030C000958313F7F70F8327C4FD93F7F70FFD8B55
:1030D00093F7F70FBE853A85EFE04F858327C4FD50
:1030E000FD8B0547B317F7002320F4FE232204FECF
:1030F000832784FD2324F4FE85472326F4FE9307CB
:1031000004FE3E85EFD05FAA0100B2502254456113
:103110008280797106D622D40018232EA4FCAE87B3
:103120003687A30DF4FCB287230DF4FCBA87A30CF9
:10313000F4FC8327C4FD93F7F70F2304F4FE8347C1
:10314000B4FDA304F4FE8347A4FD2305F4FE8347E6
:1031500094FD2326F4FE930784FE3E85EFE00F9056
:10316000B7E700E09843FD777D8F83A741925D8F9D
:1031700023A2E192B7E700E0D843B7070010FD179C
:103180007D8F93874192DC435D8F93874192D8C3B3
:103190009387419203C7870085476313F700312067
:1031A0000100B250225445618280411122C60008BC
:1031B000B7E700E07D5723A0E718B7E700E07D57A9
:1031C00023A2E7180100324441018280411122C646
:1031D0000008B7E700E003A7419223A0E710B7E794
:1031E00000E013874192584323A2E71001003244C4
:1031F00041018280011106CE22CC001093874192BA
:1032000005472384E70083A7419281EB938741928E
:10321000DC4381E7A30704FE21A08547A307F4FE52
:1032200069378347F4FE3E85F2406244056182803F
:10323000011106CE22CC0010AA87A307F4FE834713
:10324000F4FE91E793874192238407004137010000
:10325000F240624405618280011106CE22CC00104A
:103260002326A4FE0327C4FE930700206307F72448
:103270000327C4FE9307002063EAE70A0327C4FE7E
:10328000930710106300F71C0327C4FE9307101068
:1032900063E2E7040327C4FE8947630DF71603279B
:1032A000C4FE894763ECE7008327C4FE63840714E8
:1032B0000327C4FE85476307F714E5AC0327C4FE64
:1032C0008D476301F7160327C4FE930700106303BD
:1032D000F716C5A40327C4FE93070011630CF71863
:1032E0000327C4FE9307001163EFE7000327C4FE22
:1032F000930720106300F7160327C4FE93073010CE
:103300006302F7167DA40327C4FE9307201163040C
:10331000F7180327C4FE930720116365F7160327E8
:10332000C4FE930730116301F71861A40327C4FE9C
:10333000930730216300F7200327C4FE9307302151
:1033400063EEE7040327C4FE930730206300F71AF7
:103350000327C4FE9307302063EFE7000327C4FE72
:10336000930710206303F7160327C4FE930720205A
:103370006305F7163DAC0327C4FE930710216309CC
:10338000F7180327C4FE9307102163ECE7180327FF
:10339000C4FE930700216304F71621AC0327C4FE83
:1033A000930700306303F71C0327C4FE9307003024
:1033B00063EFE7000327C4FE930700226305F718B5
:1033C0000327C4FE930710226308F718DDA2032722
:1033D000C4FE93072030630CF71A0327C4FE93073B
:1033E0002030636DF7180327C4FE9307303063095C
:1033F000F71AC1A293068031014685452145EFF0B9
:103400003FA745AA93068031014685452545EFF043
:103410003FA645A293068031014685452945EFF038
:103420003FA541AA93068031014685452D45EFF021
:103430003FA441A293068031014685450145EFF046
:103440003FA385AA93068031014685450545EFF0E7
:103450003FA285A293068031014685450945EFF0DC
:103460003FA181AA93068031014685450D45EFF0C5
:103470003FA081A293068031014685453D45EFF08E
:103480003F9F05AA9306803101468545130530020A
:10349000EFF01F9E39AA930680310146854513053A
:1034A000A002EFF0FF9C31A29306803101468545D2
:1034B0001305B002EFF0DF9BEDA8930680310146C3
:1034C00085451945EFF0DF9AEDA09306803101465E
:1034D00085451D45EFF0DF99E9A893068031014647
:1034E000854513050002EFF0BF98E1A093068031F7
:1034F0000146854513051002EFF09F975DA89306DE
:1035000080310146854513056004EFF07F9655A094
:10351000930680310146854513057004EFF05F95F1
:1035200049A8930680310146854513058004EFF0D4
:103530003F9441A0930680310146854513059004D0
:10354000EFF01F93BDA0930680310146854513051A
:103550004002EFF0FF91B1A8930680310146854506
:1035600013055002EFF0DF90A9A0930680310146C9
:10357000854513056002EFF0BF8F25A893068031C3
:103580000146854513057002EFF09F8E1DA093063E
:1035900080310146854513058002EFF07F8D11A82B
:1035A000930680310146854513059002EFF05F8C4C
:1035B00001000100F240624405618280397106DE3B
:1035C00022DC80002326A4FC2324B4FC2322C4FC98
:1035D000231704FE0325C4FCEFF01FC88327C4FC97
:1035E000A18381EB8545856713850780EFD0FFF4C4
:1035F000A1A08327C4FC13D7870085476317F70072
:1036000085450545EFD0DFF705A88327C4FC13D710
:10361000870089476317F70085450945EFD05FF6B6
:1036200021A88327C4FC13D787008D476316F700B2
:1036300085451145EFD0DFF485450545EFD0FFEF17
:103640008327C4FC13D74700C147631AF700854599
:10365000B707160013850704EFD09F99B9A88327F1
:10366000C4FC13D74700C547631AF7008545B70761
:10367000180013850730EFD0BF9781A08327C4FCC3
:1036800013D7470093071002631AF7008545B71751
:103690001A00138507C0EFD0BF9505A08327C4FC8F
:1036A00013D74700930720026319F7008545B71722
:1036B0001A0013850780EFD0BF93B7170240DC4391
:1036C000C98313F7F700B7177A00938707203307EA
:1036D000F702B727F400938707403E9723A2E184BF
:1036E00003A74184832784FCB357F702C1832317C0
:1036F000F4FE03A741848357E4FE8507BE86832733
:1037000084FCB387F602B357F7022316F4FE03577F
:10371000C4FE832744FC3307F70289679387077148
:10372000B357F7022315F4FE8357C4FEFD17C207F3
:10373000C1832312F4FE8357E4FE2310F4FE231307
:1037400004FE231104FE230404FE9307000723183C
:10375000F4FC85472319F4FC231A04FC8357A4FEC8
:10376000231BF4FC8947231CF4FC8947231DF4FC2C
:10377000231E04FC231F04FC8327C4FC13D78700EB
:103780009D670A079387C7B1BA979C433E87930703
:1037900004FEBE853A85EFD03FF88327C4FC8D8BAD
:1037A000B9EF8327C4FC13D787009D670A07938767
:1037B000C7B1BA979C433E87930704FDBE853A85FF
:1037C000EFE02F858327C4FC13D787009D670A0786
:1037D0009387C7B1BA979C43A1453E85EFE03F82EE
:1037E0008327C4FC13D787009D670A079387C7B157
:1037F000BA979C4391453E85EFE03F9589A2832788
:10380000C4FC13F7370085476311F7068327C4FC10
:1038100013D787009D670A079387C7B1BA979C4360
:103820003E87930704FDBE853A85EFE08F95832799
:10383000C4FC13D787009D670A079387C7B1BA975F
:103840009C43A1453E85EFE05F808327C4FC13D7EE
:1038500087009D670A079387C7B1BA979C43930572
:1038600000403E85EFE03F93D9A88327C4FC13F7BF
:10387000370089476310F7068327C4FC13D78700F6
:103880009D670A079387C7B1BA979C433E87930702
:1038900004FDBE853A85EFE02FAA8327C4FC13D729
:1038A00087009D670A079387C7B1BA979C43A145D4
:1038B0003E85EFE02FFF8327C4FC13D787009D6769
:1038C0000A079387C7B1BA979C4391453E85EFE0BD
:1038D000FF91B5A08327C4FC13F737008D47631011
:1038E000F7068327C4FC13D787009D670A079387D1
:1038F000C7B1BA979C433E87930704FDBE853A85BE
:10390000EFE08FBE8327C4FC13D787009D670A07AB
:103910009387C7B1BA979C43A1453E85EFE04FFD21
:103920008327C4FC13D787009D670A079387C7B115
:10393000BA979C43930500403E85EFE0FF8F8327B5
:10394000C4FC13D787009D670A079387C7B1BA974E
:103950009C4385453E85EFE08FD18327C4FC13D778
:1039600087009D670A079387C7B1BA979C4385452F
:103970003E85EFE04FD50100F25062542161828014
:10398000797122D60018232EA4FC232CB4FC8327A3
:10399000C4FD13D787009D670A079387C7B1BA97FD
:1039A0009C4383D7C7022317F4FE0357E4FE832703
:1039B00084FD3307F702896793870771B357F702CE
:1039C0002316F4FE8327C4FDA18385E38327C4FD6A
:1039D00013F73700B75700109387D7B0BA978A0705
:1039E0003E878357C4FE1CC349A08327C4FD13D759
:1039F000870085476310F7028327C4FD13F737005C
:103A0000B7070010B507BA978A073E878357C4FEE9
:103A10001CC3A1A88327C4FD13D78700894763115E
:103A2000F7028327C4FD13F73700B7070010938709
:103A3000D710BA978A073E878357C4FE1CC335A0A8
:103A40008327C4FD13D787008D476310F7028327B0
:103A5000C4FD13F73700B70700109387D720BA9734
:103A60008A073E878357C4FE1CC301003254456158
:103A70008280011106CE22CC00102326A4FE23242E
:103A8000B4FE8327C4FE81EB914601468145214562
:103A9000EFF00FBE59A80327C4FE89476319F7004A
:103AA0009146014681450145EFF08FBCBDA8032733
:103AB000C4FE91476319F7009146014681453D4593
:103AC000EFF00FBB9DA00327C4FE99476319F700D1
:103AD0009146014681451945EFF08FB9B9A00327FA
:103AE000C4FEA147631AF7009146014681451305BC
:103AF0006004EFF0EFB715A80327C4FEA947631AC7
:103B0000F70091460146814513054002EFF04FB69C
:103B100029A80327C4FEB1476319F700914601465F
:103B2000814513056002EFF0AFB4032784FE85479B
:103B30006319F7009146014681452545EFF04FB3E3
:103B400061A8032784FE8D476319F700914601465B
:103B500081450545EFF0CFB141A0032784FE95478D
:103B6000631AF70091460146814513053002EFF0D4
:103B70002FB09DA0032784FE9D476319F70091464F
:103B8000014681451D45EFF0AFAEB9A0032784FE85
:103B9000A547631AF7009146014681451305700455
:103BA000EFF00FAD15A8032784FEAD47631AF700A9
:103BB00091460146814513055002EFF06FAB29A8ED
:103BC000032784FEB5476319F700914601468145F6
:103BD00013057002EFF0CFA90100F24062440561C5
:103BE0008280797106D622D40018232EA4FC232CBF
:103BF000B4FC232AC4FC8327C4FD81EB854585677B
:103C000013850780EFD07F9335A80327C4FD854730
:103C10006317F70085450545EFD09F9625A003273C
:103C2000C4FD89476317F70085450945EFD05F95C7
:103C300011A80327C4FD8D476316F700854511457C
:103C4000EFD01F94832544FD032584FDEFF07FE230
:103C500085450545EFD07F8E032784FD9147631F7F
:103C6000F700032744FD9547631AF7008545B7071A
:103C7000180013850730EFD0AFB7A1A0032784FD4C
:103C8000A147631FF700032744FDA547631AF70008
:103C90008545B7171A00138507C0EFD06FB515A07B
:103CA000032784FDA947631EF700032744FDAD47A2
:103CB0006319F7008545B7171A0013850780EFD001
:103CC0002FB3930744FE3E85EFE0AF96854723125E
:103CD000F4FEFD572314F4FE231504FE231304FE03
:103CE000230604FE9D670327C4FD0A079387C7B117
:103CF000BA979C433E87930744FEBE853A85EFD032
:103D0000BFA19D670327C4FD0A079387C7B1BA9770
:103D10009C438146014689453E85EFE0CFA09D67E3
:103D20000327C4FD0A079387C7B1BA979C4385450B
:103D30003E85EFE0CF930100B2502254456182806E
:103D4000797122D60018232EA4FC9D670327C4FD99
:103D50000A079387C7B1BA979C4383D74702C20724
:103D6000C1832317F4FE8317E4FE3E853254456178
:103D70008280011122CE00102326A4FE9D67032716
:103D8000C4FE0A079387C7B1BA979C4323920702E0
:103D90000100724405618280011106CE22CC001020
:103DA0002326A4FE2324B4FE2322C4FE2320D4FE13
:103DB0008327C4FE89EB930680310546854515456A
:103DC000EFF00F8B99A80327C4FEC147631BF700D0
:103DD000930680310546854513053002EFF04F8983
:103DE0002DA80327C4FE93070002631BF700930668
:103DF0008031054685451305D002EFF06F8731A865
:103E00009D67938687AC9D671386C7B29305D002E2
:103E10009D671385C7ACEF10D026032784FE854726
:103E2000631AF70093068031054685451D45EFF07E
:103E30002F8499A8032784FEC547631BF7009306C8
:103E400080310546854513055002EFF06F822DA89D
:103E5000032784FE93071002631BF700930680314B
:103E6000054685451305F002EFF08F8031A89D6768
:103E7000938687AC9D671386C7B2930520039D6721
:103E80001385C7ACEF10F01F032744FE8947631A60
:103E9000F70093068031054685451945EFE05FFD43
:103EA000B5A0032744FEC947631BF7009306803182
:103EB0000546854513054002EFE09FFB81A80327D7
:103EC00044FE93072002631BF700930680310546EA
:103ED00085451305E002EFE0BFF90DA8032744FE76
:103EE000930730026317F700930730022322F4FE92
:103EF00031A89D67938687AC9D671386C7B29305EB
:103F000080039D671385C7ACEF10B017930600318F
:103F100005468545032504FEEFE09FF50100F240CC
:103F20006244056182805D7186C6A2C48008232632
:103F3000A4FC2324B4FC2322C4FC2320D4FC232E81
:103F4000E4FA232A04FBA30DF4FA8327C4FC81EBD3
:103F50008545856713851700EFD02FDE21A803273D
:103F6000C4FC85476318F7008545916713851700E2
:103F7000EFD00FE18326C4FB032604FC832544FC19
:103F8000032584FCEFF05FE1231E04FC930740103F
:103F9000231FF4FC231004FE8347B4FB054763830F
:103FA000E70205476344F70089CB81A00947638195
:103FB000E7020D476384E7020DA8231104FE2312D4
:103FC00004FE25A0231104FE85472312F4FE31A828
:103FD00089472311F4FE231204FE01A88947231107
:103FE000F4FE85472312F4FE0100930700202313FB
:103FF000F4FE832744FBC207C1838E07C207C18337
:104000002314F4FE231504FE9D472316F4FE032714
:10401000C4FC0A079387C180BA979C433E879307E5
:10402000C4FDBE853A85EFD00FDA032784FCC14773
:104030006316F70085450545EFC09FFB0327C4FCC9
:104040000A079387C180BA979C4385453E85EFD088
:104050000FE70100B640264461618280011122CE43
:1040600000102326A4FE2324B4FE2322C4FE232012
:10407000D4FE59A801000327C4FE0A079387C18014
:10408000BA979C4383D78700C207C183898BE5D742
:10409000832784FE138717002324E4FE83C60700CA
:1040A0000327C4FE0A079387C180BA979C433E87C3
:1040B00093970601C1832316F700832744FEA9C7FF
:1040C00001000327C4FE0A079387C180BA979C4367
:1040D00083D78700C207C183858BE5D70327C4FE3A
:1040E0000A079387C180BA979C4383D7C7009396EA
:1040F0000701C182832744FE138717002322E4FEB1
:1041000013F7F60F2380E700832704FE1387F7FFDA
:104110002320E4FEA5F301007244056182800111B1
:1041200022CE00102324A4FE2326B4FE37F700E09D
:104130002320070037F700E02302070037F700E0ED
:10414000A302070037F700E02303070037F700E07A
:10415000A303070037F700E02304070037F700E068
:10416000A304070037F700E02305070037F700E056
:10417000A305070037F700E0854614C3010037F7B1
:1041800000E011071843BA8701480327C4FEC2861E
:10419000636DD7000327C4FEC286E312D7FE032750
:1041A00084FEBE866363D700D9BF010072440561F7
:1041B0008280011106CE22CC00102326A4FE2324E7
:1041C000B4FE8327C4FE85E7032784FE854763107A
:1041D000F70293068031014685452545EFE05FC92A
:1041E0009146014681452945EFE09FC865A0032718
:1041F000C4FE89476312F702930680310146854564
:1042000013056002EFE0DFC69146014681451305C4
:104210007002EFE0FFC5BDA80327C4FEC1476310CD
:10422000F70293068031014685450945EFE05FC4FA
:104230009146014681450D45EFE09FC3A1A80327A4
:10424000C4FE930700026312F70293068031014611
:1042500085451305A002EFE0BFC1914601468145A7
:104260001305B002EFE0DFC035A00327C4FE9307BB
:1042700020026311F702930680310146854513053C
:10428000A004EFE0FFBE9146014681451305B0044E
:10429000EFE01FBE0100F240624405618280797147
:1042A00006D622D40018232EA4FC232CB4FC232AE7
:1042B000C4FC2328D4FC85450545EFD00FA88325F1
:1042C00004FD032544FDEFF0DFEE032744FD89479D
:1042D000631BF700032704FD8D476316F700854530
:1042E0001145EFC0FFD0032744FD93072002631F51
:1042F000F700032704FD930730026319F700854593
:10430000B707140013850701EFC09FCE8327C4FDB4
:1043100091E785451165EFD04FA235A00327C4FD75
:1043200085476318F700854537050200EFD04FA594
:1043300019A80327C4FD89476317F700854537058A
:104340000400EFD0EFA3832784FD2320F4FE231283
:1043500004FE231304FE231404FE231604FEB147B7
:104360002315F4FE9D670327C4FD0A079387C7B38F
:10437000BA979C433E87930704FEBE853A85EFD0EB
:10438000FFFA9D670327C4FD0A079387C7B3BA974F
:104390009C4385453E85EFE0AF9C0100B25022541E
:1043A00045618280011122CE00102326A4FEAE8733
:1043B000A305F4FE01009D670327C4FE0A07938747
:1043C000C7B3BA979C4383D70700C207C18393F74B
:1043D0000708F5D39D670327C4FE0A079387C7B371
:1043E000BA979C433E878347B4FEC207C18323121A
:1043F000F7000100724405618280011106CE22CCD3
:1044000000102326A4FE2324B4FE2322C4FE31A8D8
:10441000832784FE138717002324E4FE83C7070045
:10442000BE850325C4FEEFF0FFF7832744FE138704
:10443000F7FF2322E4FEE9FF0100F2406244056138
:104440008280011106CE22CC00102326A4FEAE8766
:10445000A305F4FE9D670327C4FE0A079387C7B32D
:10446000BA979C430546930550523E85EFE04F9521
:104470008327C4FE938757030347B4FEBA860146D9
:1044800081453E85EFE0FFC80100F24062440561CE
:104490008280411106C622C40008B7170240DC43DF
:1044A000C98313F7F700B7177A00938707203307FC
:1044B000F702B727F400938707403E9723A2E184D1
:1044C00085460146F167938507200145EFF03FDD02
:1044D0000100B240224441018280797106D622D483
:1044E0000018232EA4FC232CB4FC232AC4FC23266E
:1044F00004FE99A001009D6783A7C7B3930500043C
:104500003E85EFE06F9DAA87FDD79D6783A7C7B360
:10451000BE86832784FD13871700232CE4FC838742
:104520000700C207C183BE853685EFE0AF958327BC
:10453000C4FE85072326F4FE0327C4FE832744FD1B
:10454000E34AF7FA832744FD3E85B2502254456181
:104550008280011122CE0010232604FE232404FEB3
:10456000B71702409443B71702404167558F98C36D
:10457000B71702409843B7070200F98F2324F4FECF
:104580008327C4FE85072326F4FE832784FE99E74C
:104590000327C4FE93070050E31CF7FCB717024043
:1045A0009843B7070200F98F89C785472324F4FE93
:1045B00019A0232404FE032784FE85476317F70C04
:1045C000B72702409843B72702401367070198C3F3
:1045D000B72702409843B7270240719B98C3B7277B
:1045E00002409843B72702401367270098C3371744
:1045F0000240B71702405843D8C337170240B717D5
:1046000002405843D8C337170240B71702405843F7
:10461000D8C3B7170240D443B71702403707C1FFCA
:104620007D17758FD8C3B7170240D443B717024020
:1046300037072500558FD8C3B71702409443B717E3
:10464000024037070001558F98C30100B717024099
:104650009843B7070002F98FF5DBB7170240D8433C
:10466000B7170240719BD8C3B7170240D843B7179A
:10467000024013672700D8C30100B7170240DC438C
:1046800013F7C700A147E31AF7FE01007244056162
:104690008280411106C622C40008B7170240984321
:1046A000B71702401367170098C3B7170240D443E7
:1046B000B71702403707FFF8758FD8C3B717024006
:1046C0009443B71702403707F7FE7D17758F98C3DD
:1046D000B71702409443B71702403707FCFF7D1716
:1046E000758F98C3B7170240D443B71702403707F6
:1046F00081FF7D17758FD8C3B717024037079F001A
:1047000098C7EFF01FE50100B240224441018280CA
:10471000411106C622C40008014691679385872689
:1047200013050030EFE09FE90146916793858726E6
:1047300013051030EFE09FE80146916793858726C7
:1047400013052030EFE09FE70146916793858726A8
:1047500013053030EFE09FE69306003101468545B2
:104760001305A004EFE0CFF0930600310146854524
:104770001305B004EFE0CFEF930600310546854501
:104780001305C002EFE0CFEE9306003105468545E4
:104790002145EFE0EFED0100B2402244410182806B
:1047A000797106D622D40018232EA4FC232CB4FC45
:1047B000032784FD89679387077163D7E7008967BB
:1047C00093870771232CF4FC032784FDF9779387E3
:1047D000078F6357F700F9779387078F232CF4FC33
:1047E000832784FD63D90700832784FDB307F04046
:1047F0002326F4FE29A0832784FD2326F4FE032725
:10480000C4FD8947630EF7040327C4FD894763E8A5
:10481000E7000327C4FD8547630EF700D9A00327EF
:10482000C4FD8D476304F7060327C4FD9147630564
:10483000F70845A8832784FD6358F00081451305D8
:10484000A004EFE02FFD31A085451305A004EFE0A3
:104850006FFC8325C4FE13050030EFF06F9249A072
:10486000832784FD6358F00081451305B004EFE011
:104870006FFA31A085451305B004EFE0AFF9832549
:10488000C4FE13051030EFF0AF8F99A8832784FD85
:104890006358F00085451305C002EFE0AFF731A083
:1048A00081451305C002EFE0EFF68325C4FE130532
:1048B0002030EFF0EF8C2DA0832784FD6357F000AC
:1048C00085452145EFE00FF529A081452145EFE021
:1048D0006FF48325C4FE13053030EFF06F8A0100BA
:1048E0000100B250225445618280011106CE22CCD3
:1048F00000102326A4FE2324B4FE2322C4FE23207A
:10490000D4FE8325C4FE0545EFF09FE9832584FE90
:104910000945EFF0FFE8832544FE0D45EFF05FE821
:10492000832504FE1145EFF0BFE70100F240624429
:1049300005618280011122CE00102326A4FE832768
:10494000C4FE1D67032787AF98C38327C4FE1D6776
:104950000327C7AFD8C38327C4FE1D67032707B04B
:1049600098C78327C4FE1D67032747B0D8C783278E
:10497000C4FE13070000D8CF8327C4FE98CB83273B
:10498000C4FED8CB8327C4FE98CF8327C4FE98D318
:104990008327C4FE98D78327C4FED8D38327C4FEB9
:1049A00023A607020100724405618280011106CE30
:1049B00022CC26CA00102326A4FE2324B4FE83277B
:1049C000C4FE84438327C4FEDC53BE85032584FED6
:1049D000EF00D018AA87BE852685CD2DAA873E87F1
:1049E0008327C4FE98CB8327C4FEDC43832584FE43
:1049F0003E85E92DAA873E878327C4FED8CB83272F
:104A0000C4FE84478327C4FEDC53BE853E858924CB
:104A1000AA87BE85032584FEEF005014AA873E872F
:104A20008327C4FE9C57BE853A851D24AA87BE8570
:104A30002685692DAA873E878327C4FE98CF8327C2
:104A4000C4FED8538327C4FE98D78327C4FE032708
:104A500084FED8D38327C4FED84F8327C4FE9C4B43
:104A6000BE853A85F522AA873E878327C4FEDC4BA4
:104A7000BE853A85F12AAA873E878327C4FE9C4FCC
:104A8000BE853A85F122AA873E878327C4FED8CF08
:104A90008327C4FED84F9D6783A547B03A85312B45
:104AA000AA876358F0008327C4FE1D67032747B019
:104AB000D8CF8327C4FED84F9D6783A587B03A859A
:104AC0004123AA8763C3070039A08327C4FE1D675B
:104AD000032787B0D8CF0100F2406244D244056179
:104AE0008280797122D60018232EA4FC232CB4FCDA
:104AF000232AC4FCFD572315F4FE832744FD81E7D8
:104B0000231504FE69A0832744FDFD17232AF4FC26
:104B1000231704FEBDA08357E4FE0327C4FDBA9704
:104B200083C707001397070141838357A4FEB98FFA
:104B30002315F4FE231604FE1DA88357A4FE858BBF
:104B400089CF8357A4FE8583139707014183E977B3
:104B50008507B98F2315F4FE31A08357A4FE858302
:104B60002315F4FE8357C4FE85072316F4FE03576E
:104B7000C4FE9D47E3F3E7FC8357E4FE8507231754
:104B8000F4FE8357E4FE032744FDE376F7F88357EA
:104B9000A4FEA183139707014183832784FD850722
:104BA0001377F70F2380E7008357A4FE13F7F70F5F
:104BB000832784FD2380E700010032544561828011
:104BC000797106D622D40018232EA4FC232CB4FC21
:104BD000232AC4FC2328D4FC8327C4FD93F7F70FB2
:104BE0002304F4FEA30404FE832784FD93F7F70F48
:104BF0002305F4FEA30504FE832744FD93F7F70F76
:104C00002306F4FEA30604FE832704FD93F7F70FA3
:104C10002307F4FEA30704FE130744FE930784FE54
:104C20002146BA853E85EFF0DFEB930784FE2146EF
:104C3000BE850145EFF06FFC930744FE0946BE8533
:104C40000145EFF08FFB0100B25022544561828094
:104C50004111370780007D1713D8750126C2935480
:104C600075013373A70093F4F40FB376B7004AC00D
:104C70001378F80F1359F50106C622C4FD819A87EF
:104C800026854A86131E3300939E3600B38804415E
:104C9000630AB90E6350100D630408149307F00FF4
:104CA000638BF414B7070004B3EEFE00ED4763C155
:104CB000172993070002B3871741B397FE00B3D8B3
:104CC0001E01B337F000B3E7F800B307FE401397B7
:104CD0005700635E0718370400047D147D8C22851D
:104CE000EF00D0326D15B317A4006348951A058DF7
:104CF0001304150013070002018F3397E7003337C1
:104D0000E000B3D78700D98F814413F7770019C724
:104D100013F7F70091466303D700910713975700E5
:104D2000635B071485041307F00F4A866383E41658
:104D30009A07A58313F5F40FB2402244A6079314F3
:104D4000750113D59700458D7E0692440249518D19
:104D5000410182806399080A138714001377E70FD3
:104D60006317071463900422630D0E1EE3860EFC86
:104D7000B307DE411397570063500722B387CE4134
:104D80002E8961B7635C100B630E08089307F00F60
:104D90006383F406B7070004B3EEFE00ED4763C972
:104DA000171F93070002B3871741B397FE00B3D8CC
:104DB0001E01B337F000B3E7F800F29713975700DE
:104DC0006357070A85041307F00F6384E40CB706E2
:104DD000007E13D71700FD16858B758FD98F35B7D9
:104DE000638D0E08FD18B307DE41E38208EE9307DA
:104DF000F00FE39DF4EA630D030801461305F00F7D
:104E0000B707400015BF33079840EDE863020E1462
:104E10007D17630807189307F00F6319F80E2E89A2
:104E20003683D1BF638B0E04FD18B307DE01E38721
:104E300008F89307F00FE393F4F675BF639508083D
:104E4000850413F7E40F6313071263170510630F4C
:104E50000E14E3830EEEB307DE011397570081446F
:104E600063570700370700FC7D17F98F854413F758
:104E70007700E31F07E813D337009307F00FE38CA5
:104E8000F4F693179300A58313F5F40F4A866DB5D6
:104E90004A861305F00F814745B5370700FC7D179B
:104EA000F98F13F77700898CE31407E6E9B7330429
:104EB000DE419317540063C3070CE31204E201467A
:104EC0000145814795BD33079840ADC49307F00F66
:104ED000E308F8F4B7070004336EFE00ED4763CC37
:104EE000E70C93070002998FB317FE003357EE00CB
:104EF000B337F000D98FF697C284C9B59307F00F86
:104F0000E30FF8F0B7070004336EFE00ED4763C30C
:104F1000E70893060002998EB316DE00B357EE0041
:104F20003337D000D98FB387FE40C2842E8945B372
:104F3000854761BB630E0E067D17B307DE01C28491
:104F4000E30E07E69307F00FE31AF8F8368365B52A
:104F50003683C2842E8915B7E3040EECE38D0EE888
:104F600069BD638D0E022E86B687F9B39307F00FE5
:104F7000E381F4F2B307DE018583D5BD3384CE41EE
:104F80002E89B1BBE31C0EFCE3890EE62E8949BDD8
:104F9000854725B5854741BFE39B07EC014681471F
:104FA00061BBB387CE41C2842E8915B3B68769B37E
:104FB0003683C284D9B585473DBF93567501B7077F
:104FC0008000FD1713D6750193F6F60F1308F00F46
:104FD000B3F8A7001357F501ED8F1376F60FFD8197
:104FE00063810603630C06018DE211E2B1C3638E97
:104FF00008026305B70405451DE78280F5D779559A
:105000008280E39E08FE6309D60211E2EDD7E31425
:10501000B7FEE342D6FE63C7C600E3EE17FD0145C7
:10502000E3FDF8FC01E77D558280F5DD05458280D2
:105030000145E39208FC8280F9DBD1B78146E1BFEC
:1050400093567501B7078000FD1713D6750193F6C7
:10505000F60F1308F00FB3F8A7001357F501ED8F03
:105060001376F60FFD81638706036309060185EA5F
:1050700011EA89EB0145639B080082800945F5FF31
:10508000E5DA31A8638C08026300B704054575D7DB
:105090007D5582800945639808026304D60211E2B7
:1050A000F5D7E315B7FEE343D6FE63C7C600E3EFCB
:1050B00017FD0145E3F3F8FC19E3D9BFF1D9054524
:1050C0008280E5D3828082808146C5B7797122D4FF
:1050D000135475014ECE52CC9319950006D626D2A4
:1050E0004AD056CA5AC81374F40F93D99900135A68
:1050F000F50169C49307F00F6308F40E9397390024
:1051000037070004B3E9E700130414F88144014BA6
:1051100013D77501939A95001377F70F93DA9A00D6
:1051200013D9F50145CF9307F00F630CF7028E0AF0
:10513000130717F8B7070004B3EAFA003A940146D8
:1051400033452A01BD47AA869305140063E09710F2
:10515000172700001307C79F8A04BA949C40BA9788
:1051600082871304F40F63960A0C93E42400094623
:10517000C1BF01451307F00FB7074000B2502254DA
:10518000A6075E07A5837E05D98F92540259F2497E
:10519000624AD24A424B5D8D45618280CA86D68979
:1051A000328B8947630FFB088D47E304FBFC85477F
:1051B00036856310FB1A01478147C9B7639D09040F
:1051C00013D77501939A95001377F70F9144014413
:1051D000054B93DA9A0013D9F50131F7639D0A0064
:1051E00093E414000546A9BF63920902A144130485
:1051F000F00F094B31BF5685112D9307B5FF098C70
:10520000B39AFA001304A4F801461DBFB144130475
:10521000F00F0D4BF5BD4E852EC6CD2B9307B5FF78
:105220001304A0F8B399F900098C8144014BB245ED
:10523000C5B593E434000D4621B78947D286E315FE
:10524000FBF636851307F00F81470DBF41639306C8
:10525000F3FF13D6090193D80A01B3F7D900B3FAC3
:10526000DA0033885703B389F80213570801B30AE9
:105270005603D6994E9733061603637357011A9651
:10528000C167FD17B376F7003378F800C206C296FF
:105290009399660093570701B3393001E982B297B9
:1052A0009A07B3E6D900B3E9D7009397490063D9C9
:1052B000070013D7190093F71900B369F7002E847C
:1052C0001307F4076350E00493F7790099C793F745
:1052D000F90091466383D70091099397490063D9F8
:1052E0000700B70700F8FD17B3F9F9001307040822
:1052F0009307E00F63CBE70493976900A5831377C7
:10530000F70FADBD8547B386E74011C76D4601472E
:105310008147E345D6E61307E4093397E9003337BD
:10532000E000B3D7D900D98F13F7770019C713F767
:10533000F70091466303D700910713975700634C1A
:1053400007009A07A583014715BD1307F00F814792
:1053500035B52E84B5B7054781470DB537078000B1
:1053600041117D179356750113D87501B377A700C6
:1053700093F6F60F935EF5013376B70026C24AC066
:105380001378F80F06C622C41303F00F3E8E368939
:10539000F684139F3700FD8113153600B38806414C
:1053A0006302681093C51500638CBE106354100D22
:1053B000631008106304051EFD18B307AF40638631
:1053C00008029307F00F6388F616ED4763C71729A5
:1053D00013070002330717413317E500B3571501D0
:1053E0003337E000D98FB307FF401397570063515D
:1053F000071A370400047D147D8C228501296D1560
:10540000B317A400634E251B330525411304150073
:1054100013070002018F3397E7003337E000B3D75B
:105420008700D98F014913F7770019C713F7F700E1
:1054300091466303D700910713975700635E0714E3
:10544000930619001307F00F93FE14006386E61607
:105450009A07A58393F6F60FA607B240224413D508
:105460009700DE069397FE01558D924402495D8DAB
:10547000410182806392080A138716001377E70FB1
:10548000631B07146394062263020F2071D5B307D0
:10549000AF401397570063550722B307E541014911
:1054A000AE8451B7E30005F0638ABE0AE35410FDF1
:1054B0009307F00F6381F608B70700045D8D31B7DD
:1054C000635E1009630108089307F00F6385F60611
:1054D000B70700045D8DED4763C0171F1307000277
:1054E000330717413317E500B35715013337E00091
:1054F000D98FFA9713975700635C070805091307BC
:10550000F00F630BE90AB706007E13D71700FD16EC
:10551000858B758FD98F01BF3307D84063950610EF
:10552000630D0F147D176303071A9307F00F6314BD
:10553000F810AE84328E630F0E06814E9306F00F84
:10554000B707400011BF39C9FD18B307AF00E383A7
:1055500008FA9307F00FE390F6F8F1BF6399080893
:10556000138916001377E90F63160712639B061061
:1055700063030F16E30205EEB307AF00139757005E
:10558000014963570700370700FC7D17F98F05496C
:1055900013F77700E31C07E813DE37009307F00FDB
:1055A000E30BF9F893179E00A5839376F90F93FE0A
:1055B00014005DB593FE14009306F00F814769BD9A
:1055C000370700FC7D17F98F13F777003309A940DF
:1055D000E31E07E4D1B73304AF409317540063C30D
:1055E000070CE31C04E0814E81468147B5B53307C3
:1055F000D840B5C69307F00FE30EF8F2B7070004E2
:10560000336FFF00ED4763CDE70C93070002998FDE
:10561000B317FF003357EF00B337F0005D8FB307C8
:10562000A7004289C1BD9307F00FE304F8F0B70764
:105630000004336FFF00ED4763C2E70893070002E1
:10564000998FB317FF003357EF00B337F000D98FAE
:10565000B307F5404289AE8449BB854769B3630E01
:105660000F067D17B307AF004289E30507E89307EC
:10567000F00FE319F8F8328E7DBD328E4289AE8488
:1056800031BFE3090FEAE30805EA45BD0DCDAE8E53
:10569000B287D9B39307F00FE300F9F2B307AF0075
:1056A0008583FDB53304E541AE8481BBE31D0FFC6A
:1056B000E30505E8AE84BDBD854725BD854749BFE7
:1056C0000149E39707EC814E814779B3B307E54180
:1056D0004289AE8419BBB28741B3328E42897DBD07
:1056E000054735BF37068000135775019307F6FF4E
:1056F0001377F70F9305E007B3F6A7009357F5016B
:1057000063FCE5009305D00963FAE50037050080E6
:105710001345F5FF3E95828001458280930550092F
:10572000D18E63CDE500130660093307E64033D719
:10573000E6003305E040F5F33A8582801307A7F6CB
:105740003397E600FDB7411106C622C426C20DCD2F
:105750009357F54133C4A7001D8CAA8422857D2070
:105760009307E0093387A74093076009FD8063CC66
:10577000E702A1469377F70F63D5A60061153314AE
:10578000A4002604258021A08144814701442604E9
:1057900013559400B2402244DE07FE045D8D458D12
:1057A0009244410182809307900963DDE7009307EB
:1057B000B5019546B317F400898E3354D400B3373E
:1057C000F0005D8C954763D6A7009307B5FF3314AF
:1057D000F400B70600FCFD16937774003376D4000E
:1057E00085C39377F4009145638CB7001106931736
:1057F000560063D707009307F009758E3387A740DB
:105800001314660025809377F70F51B7C167637E45
:10581000F5029307F00F1307000263ECA700971738
:1058200000009387E736AA9703C507003305A74012
:10583000828021819717000093878735AA9703C537
:10584000070061473305A7408280B7070001636EF8
:10585000F50061819717000093878733AA9703C5E6
:10586000070021473305A740828041819717000038
:1058700093870732AA9703C5070041473305A7401E
:105880008280938781809C434111328806C6AA8812
:105890002E87C8473686971700009387673F6317A0
:1058A0000800971700009387673F3E88C6869715C4
:1058B00000009385E53E1920EF00300B397132D49A
:1058C00036D63EDA3AD842DC46DE938781802E8691
:1058D000AA858843341006CE36C69528F240216149
:1058E00082801C46FD171CC663D90700184E63C58D
:1058F000E700A9476393F5005DA51C422E85138739
:10590000170018C22380B7008280011122CC26CA5A
:105910004AC84EC652C406CE2A89AE893284B30420
:10592000D6007D5A63149400014511A883450400F4
:105930004E864A85EFF0FFFA0504E31545FFF24075
:105940006244D2444249B249224A0561828035719B
:1059500022CD26CB4AC94EC706CF52C556C35AC11F
:10596000DEDEE2DCE6DAAA89AE843289368409C555
:105970001C4D99E3EF001026971700009387073B13
:10598000639DF40C83A4490083D7C400A18BE5CBAD
:105990009C48F5C793070002A304F1029307000394
:1059A00002D22305F10222C6930B5002971A00007F
:1059B000938A0A32054C294B4A848347040099C3D1
:1059C0006391770FB30C2441638E0C00E6864A8600
:1059D000A6854E85EFF07FF3FD576308F51E9256BE
:1059E000E69636D2834704006381071EFD571309EC
:1059F000140002C802CE3ECA02CCA309010482D41C
:105A00008345090015465685EF00B043130419007D
:105A1000C24751E913F7070109C713070002A30999
:105A2000E10413F7870009C71307B002A309E104D3
:105A3000834609001307A002638FE606F2474A84F3
:105A4000814625460347040093051400130707FD0C
:105A50006378E60AADCA3ECEBDA0971700009387D3
:105A6000E72E6395F40083A4890039BF97170000DF
:105A70009387C729E39AF4F083A4C90031B7A685B8
:105A80004E85F12B01D97D55FA406A44DA444A49E2
:105A9000BA492A4A9A4A0A4BF65B665CD65C0D61A3
:105AA0008280050419BF330555413315AC00C98FF9
:105AB0003EC82289B1B7324793064700184336C61D
:105AC000634907023ACE034704009307E002631FCD
:105AD000F704034714009307A002631BF702B247C1
