:100000006F00B03313000000130000001300000065
:100010001300000013000000130000001300000094
:100020001300000013000000130000001300000084
:08003000130000007300100032
:100038006FF09FFC000000006F00004E6F00C04E84
:1000480000000000000000000000000000000000A8
:100058000000000000000000000000000000000098
:100068006FF09FF9000000006FF01FF9000000001A
:100078006FF09FF86FF05FF86FF01FF86FF0DFF721
:100088006FF09FF76FF05FF76F0060686F004015C3
:100098006F00A0196F00C01A6F00801B6FF0DFF5AA
:1000A8006FF09FF56FF05FF56F0060426FF0DFF45F
:1000B8006FF09FF46FF05FF46F00801C0000000089
:1000C8000000000000000000000000006F00401960
:1000D8006F00001C6F00001F6F00C0216F00002719
:1000E8006F00C02F6F0000326F00C0346FF0DFF078
:1000F8006FF09FF06FF05FF06FF01FF06FF0DFEFC1
:100108006FF09FEF6F0000366F00C0366F00405BE6
:100118006F0000166FF05FEE6FF01FEE6FF0DFED0F
:1001280000000000000000000000000000000000C7
:080138000000000000000000BF
:100140003D432A876373C3029377F700BDEFADE5A4
:10015000937606FF3D8ABA960CC34CC30CC74CC7B6
:100160004107E36BD7FE11E28280B306C3408A06E3
:100170009702000096966780A6002307B700A306A3
:10018000B7002306B700A305B7002305B700A304F3
:10019000B7002304B700A303B7002303B700A302EB
:1001A000B7002302B700A301B7002301B700A300E3
:1001B000B7002300B700828093F5F50F9396850072
:1001C000D58D93960501D58D61B79396270097023B
:1001D000000096968682E78086FA9680C1171D8F6A
:1001E0003E96E374C3F8A5B7411122C6000809453D
:1001F000EF00903C2A8785476318F702B707002075
:1002000003A7470789476315F700EF30300111A8AE
:10021000B707002003A7470785476314F700EF30AF
:1002200000030945EF00B03E010032444101730074
:100230002030411122C600081145EF00503D010059
:100240003244410173002030411122C600080100F0
:100250003244410173002030411122C600080100E0
:100260003244410173002030411122C600080100D0
:100270003244410173002030411122C600080100C0
:100280003244410173002030411122C600080100B0
:100290003244410173002030411122C60008930509
:1002A0000008B7370140138507C0EF204008AA8730
:1002B00089CB93050008B7370140138507C0EF20AD
:1002C000000E01003244410173002030411122C66A
:1002D00000088545B7370140138507C0EF2020058A
:1002E000AA8781CB8545B7370140138507C0EF202A
:1002F000000B01003244410173002030411122C63D
:10030000000893050004B7370140138507C0EF20AC
:100310000002AA8789CB93050004B73701401385F3
:1003200007C0EF20C00793050002B73701401385CF
:1003300007C0EF10D07FAA8789CB93050002B7379B
:100340000140138507C0EF208005010032444101C0
:1003500073002030411122C600088945B73701409B
:10036000138507C0EF10B07CAA8781CB8945B737CA
:100370000140138507C0EF2080029145B737014047
:10038000138507C0EF10B07AAA8781CB9145B737A4
:100390000140138507C0EF208000A145B737014019
:1003A000138507C0EF10B078AA8781CBA145B73776
:1003B0000140138507C0EF10907EC145B73701405B
:1003C000138507C0EF10B076AA8781CBC145B73738
:1003D0000140138507C0EF10907C010032444101B9
:1003E00073002030411122C60008854537050040C2
:1003F000EF10F073AA8791C7854537050040EF10CD
:10040000107A01003244410173002030411122C6AC
:1004100000088545B707004013850740EF1030718D
:10042000AA8781CB8545B707004013850740EF10A9
:10043000107701003244410173002030411122C67F
:1004400000088545B717004013850780EF10306E10
:10045000AA8781CB8545B717004013850780EF1029
:10046000107401003244410173002030411122C652
:10047000000801003244410173002030411122C6BE
:10048000000893055052B747004013850740EF20FE
:100490000033AA8785CF93055052B7470040138594
:1004A0000740EF20E041B707002003A7470789472F
:1004B0006315F700EF30804F11A8B707002003A79E
:1004C000470785476314F700EF207051010032445D
:1004D000410173002030411122C600080965EF0078
:1004E000606D2A8785476318F7020965EF0040723F
:1004F000B707002003A7470789476315F700EF30C8
:10050000405511A8B707002003A747078547631484
:10051000F700EF20305701003244410173002030D2
:10052000411122C60008010032444101730020300D
:10053000411122C6000801A0011122CE0010AA8795
:10054000A307F4FE83C72183138717009376F70F61
:100550002389D1823E8793874185BA970347F4FE6A
:100560002380E70003C721838547631DF70003C786
:1005700041859307800D6307F700238901820947AE
:10058000238CE18003C72183B9476316F70205472F
:10059000238CE1809387418503C7D7009307E00E42
:1005A0006316F7000547238CE18021A00D47238CBB
:1005B000E18023890182010072440561828001117A
:1005C00022CE00102326A4FE8327C4FE850703C77E
:1005D00007009307000B6318F7028327C4FE8907FF
:1005E00083C70700A2071397070141878327C4FE2B
:1005F0008D0783C70700C207C187D98F13970701EB
:100600004187239DE1808327C4FE910703C707002C
:100610009307100B6318F7028327C4FE950783C75F
:100620000700A2071397070141878327C4FE990794
:1006300083C70700C207C187D98F13970701418776
:10064000239EE1808327C4FE9D0703C7070093070D
:10065000200B6318F7028327C4FEA10783C7070096
:10066000A2071397070141878327C4FEA50783C705
:100670000700C207C187D98F139707014187239FBE
:10068000E1808327C4FEA90703C707009307300B47
:100690006318F7028327C4FEAD0783C70700A207CC
:1006A0001397070141878327C4FEB10783C707005B
:1006B000C207C187D98F1397070141872392E1822F
:1006C0000100724405618280011122CE0010930561
:1006D0005052B757004013850780EF20400EAA877D
:1006E00095C793055052B757004013850780EF20F8
:1006F000201DB757004013850780EF208005AA878B
:10070000A307F4FE8347F4FE3E853D3501007244A5
:10071000056173002030011122CE26CC4ACA4EC892
:1007200000100545EF0040692A8785476313F72AC3
:100730000545EF00C06D010083C7818113F7F70FF6
:100740008547E31BF7FE238C018013854185853D9A
:100750008397C181C207C183B307F040C207C18339
:10076000139707014187239EE1800545EF40601EF6
:10077000AA873E872390E1820945EF40801DAA8722
:10078000C207C183B307F040C207C18313970701B3
:1007900041872391E1820545EF40C01E0945EF40A6
:1007A000601E130740062394E182A16783A7476375
:1007B0002326F4FE0397E181894763C7E700039787
:1007C000E181F9576353F710839781823E85EF608B
:1007D0005018AA848397E1813E85EF609017AA871D
:1007E0008325C4FE3E85EF60202FAA87BE8526851F
:1007F000EF50D066AA873E85EF60900FAA871397C7
:10080000070141872395E182839781823E85EF60CE
:100810005014AA848397E1813E85EF609013AA87E4
:100820008325C4FE3E85EF60202BAA87BE852685E2
:10083000EF608053AA873E85EF60900BAA871397DD
:10084000070141872396E182839781823E85EF608D
:100850005010AA848397E1813E85EF60900FAA87AC
:100860008325C4FE3E85EF602027AA87BE852685A6
:10087000EF50D05EAA873E85EF609007AA87139756
:10088000070141872397E182839781823E85EF604C
:10089000500CAA848397E1813E85EF60900BAA8774
:1008A0008325C4FE3E85EF602023AA87BE8526856A
:1008B000EF60804BAA873E85EF609003AA8713976D
:1008C000070141872398E1820DA003978182239835
:1008D000E182039701832397E1820397E1822396C4
:1008E000E1820397C1822395E1828397A1813E87AC
:1008F0008397C181BE85839701823E86839721823B
:10090000BE863A85EF40906D8397A1823E8783979C
:10091000A181B307F7403E85EF60B003AA87BE858B
:1009200013854186EF4010498397C1823E878397A4
:10093000C181B307F7403E85EF60B001AA87BE854D
:1009400013854189EF4010478397E1823E87839763
:100950000182B307F7403E85EF60A07FAA87BE857E
:100960001385418CEF401045839701833E87839721
:100970002182B307F7403E85EF60A07DAA87BE8540
:100980001385418FEF40104393874186DC4F3E85AE
:10099000EF600076AA8493874189DC4F3E85EF6043
:1009A00020752A899387418CDC4F3E85EF60407427
:1009B000AA899387418FDC4F3E85EF606073AA87D9
:1009C000BE864E86CA852685EF4050330547238371
:1009D000E18201007244E2445249C2490561730058
:1009E0002030411106C622C4000815469145054530
:1009F000EF3050602D46A9450945EF30B05F01004A
:100A0000B240224441018280411106C622C400083E
:100A1000EF30603FEF400069EF20A0009306100226
:100A200013060002B7170700938507800945EF40BA
:100A3000204885450945EF40E06113068004A14543
:100A40000145EF3000268546054685455945EF307E
:100A5000602D13854186EF40102F13854189EF40AB
:100A6000902E1385418CEF40102E1385418FEF405F
:100A7000902DEF40100BB5370145EF30803C83C718
:100A80006182F5DF8397A1813E8681450145EF2094
:100A900060448397C1813E86814513050005EF20A0
:100AA0006043839701823E8685450145EF20804261
:100AB000839721823E86854513050005EF208041FE
:100AC00093874186DC4F3E85EF6000752A86AE86AF
:100AD0008947114789450145EF2020579387418970
:100AE000DC4F3E85EF6040732A86AE86894711470A
:100AF000894513050005EF2040559387418CDC4F55
:100B00003E85EF6060712A86AE86894711478D4524
:100B10000145EF20805393874189DC4F3E85EF608C
:100B2000A06F2A86AE86894711478D4513050005BB
:100B3000EF20A0512383018299B797010020938170
:100B400061D3174100201301E14B17850000130505
:100B5000655597F5FF1F9385E54A1386818163FAF2
:100B6000C5008322050023A0550011059105E3EA85
:100B7000C5FE13858181938541936377B50023205A
:100B800005001105E36DB5FE9302800873A00230E5
:100B900097F2FFFF9382824A93E2120073905230E1
:100BA000EF40407097020000938242E67390123447
:100BB00073002030797122D60018232EA4FC23263E
:100BC00004FE232404FE0327C4FDB7070010F98F99
:100BD00089CBB7070240938707409C432324F4FE48
:100BE00031A0B70702409C432324F4FE032784FE70
:100BF0008327C4FDF98F89C785472326F4FE19A0F2
:100C0000232604FE8327C4FE3E853254456182803C
:100C1000011122CE00102326A4FE0327C4FEB7072D
:100C20000010F98F89CBB70702409387074003274D
:100C3000C4FED8C331A0B70702400327C4FED8C3FF
:100C40000100724405618280797122D60018232E3A
:100C5000A4FC232604FEB707014093870740232600
:100C6000F4FE8327C4FDDC4763800712B707014009
:100C70009387074094438327C4FD9C4313C7F7FF22
:100C8000B707014093870740758F98C3B7070140A6
:100C900093870740D4438327C4FD9C4313C7F7FFC2
:100CA000B707014093870740758FD8C38327C4FDDA
:100CB000DC430327C4FEBA972326F4FE8327C4FE31
:100CC00094438327C4FD98438327C4FE558F98C35C
:100CD000B70701409387074094478327C4FD9C438F
:100CE00013C7F7FFB707014093870740758F98C771
:100CF000B707014093870740D4478327C4FD9C432F
:100D000013C7F7FFB707014093870740758FD8C710
:100D10008327C4FD9847C147631FF702B707014007
:100D20009387074094478327C4FD9843B707014042
:100D300093870740558F98C7B707014093870740AF
:100D4000D4478327C4FD9843B707014093870740E2
:100D5000558FD8C7B1A8B70701409387074023260E
:100D6000F4FE8327C4FD9C470327C4FEBA972326BD
:100D7000F4FE8327C4FE94438327C4FD984383274E
:100D8000C4FE558F98C32DA08327C4FDDC430327E1
:100D9000C4FEBA972326F4FE8327C4FE9443832718
:100DA000C4FD9C4313C7F7FF8327C4FE758F98C308
:100DB0000100325445618280797122D60018232EB9
:100DC000A4FC232604FE232404FEB70701409387D6
:100DD00007409C430327C4FDF98F2324F4FEB70783
:100DE000014093870740D84B8327C4FDF98F81CBFF
:100DF000832784FE89C785472326F4FE19A023266E
:100E000004FE8327C4FE3E85325445618280011171
:100E100022CE00102326A4FEB70701409387074087
:100E20000327C4FED8CB010072440561828039716A
:100E300022DE80002326A4FC2324B4FC232604FE07
:100E4000232004FE232404FE232E04FC232204FE7C
:100E5000232C04FC832784FC9C47BD8B2326F4FEB3
:100E6000832784FC9C47C18B89CB832784FCDC438C
:100E70000327C4FED98F2326F4FE832784FC83D75F
:100E8000070093F7F70FF1CF8327C4FC9C4323227D
:100E9000F4FE232404FE65A8832784FE0547B317C8
:100EA000F700232EF4FC832784FC83D707003E87BA
:100EB0008327C4FDF98F2320F4FE032704FE832734
:100EC000C4FD6311F708832784FE8A07232EF4FCF0
:100ED0008327C4FD3D47B317F700232CF4FC832779
:100EE00084FD93C7F7FF032744FEF98F2322F4FE06
:100EF0008327C4FD0327C4FEB317F700032744FE6E
:100F0000D98F2322F4FE832784FC9847930780021D
:100F1000631BF700832784FE05473317F7008327F9
:100F2000C4FCD8CB05A0832784FC98479307800492
:100F3000631AF700832784FE05473317F7008327DA
:100F4000C4FC98CB832784FE85072324F4FE032763
:100F500084FE9D47E3F2E7F48327C4FC032744FEA5
:100F600098C3832784FC03D707009307F00F63F12E
:100F7000E70E8327C4FCDC432322F4FE232404FE73
:100F800075A8832784FEA1070547B317F700232E12
:100F9000F4FC832784FC83D707003E878327C4FDA6
:100FA000F98F2320F4FE032704FE8327C4FD631278
:100FB000F708832784FE8A07232EF4FC8327C4FDC9
:100FC0003D47B317F700232CF4FC832784FD93C718
:100FD000F7FF032744FEF98F2322F4FE8327C4FD85
:100FE0000327C4FEB317F700032744FED98F23223B
:100FF000F4FE832784FC984793078002631BF70065
:10100000832784FEA10705473317F7008327C4FC15
:10101000D8CB832784FC984793078004631BF70091
:10102000832784FEA10705473317F7008327C4FCF5
:1010300098CB832784FE85072324F4FE032784FEB0
:101040009D47E3F0E7F48327C4FC032744FED8C39D
:101050000100725421618280011122CE00102326EA
:10106000A4FEAE872322C4FE2315F4FE832744FE8C
:1010700099C70357A4FE8327C4FE98CB31A003571A
:10108000A4FE8327C4FED8CB010072440561828090
:10109000797122D60018232EA4FC232CB4FC23241F
:1010A00004FE232204FE232604FE232004FE8327BD
:1010B000C4FD63D80700B7070140DC4F2326F4FEC8
:1010C00031A0B7070140DC432326F4FE8327C4FD8B
:1010D000C183BD8B2320F4FE0327C4FDC167FD1728
:1010E000F98F2324F4FE0327C4FDB70730007D8F5A
:1010F000B70730006315F7020327C4FEB70700F1F6
:10110000FD17F98F2326F4FEB7070140D443B70734
:101110000140370700F17D17758FD8C3ADA00327B5
:10112000C4FDB7071000F98F8DCB832704FE0D4750
:10113000B317F7002322F4FE832744FE93C7F7FF7B
:101140000327C4FEF98F2326F4FE0327C4FEB70746
:10115000000FD98F2326F4FE3DA08327C4FDD5833D
:101160009207032784FEB317F70093C7F7FF0327FF
:10117000C4FEF98F2326F4FE0327C4FEB707000F31
:10118000D98F2326F4FE832784FD91CF8327C4FDC6
:10119000D5839207032784FEB317F7000327C4FE05
:1011A000D98F2326F4FE8327C4FD63D80700B70731
:1011B00001400327C4FED8CF31A0B7070140032761
:1011C000C4FED8C30100325445618280797122D6B1
:1011D0000018AA872E87A30FF4FCBA87230FF4FC0C
:1011E000232604FE8347E4FD8D8B8A073D47B31712
:1011F000F7002326F4FE370701408347E4FD898387
:1012000093F7F70F8A07BA9798478327C4FE93C7C7
:10121000F7FFB70601400346E4FD09821376F60F97
:101220007D8F93172600B69798C7370701408347ED
:10123000E4FD898393F7F70F8A07BA9798478346A7
:10124000F4FD8347E4FD8D8B8A07B397F600B7065C
:1012500001400346E4FD09821376F60F5D8F931774
:101260002600B69798C7010032544561828001116B
:1012700022CE00102326A4FE8327C4FEFD8B054743
:10128000B316F70037E700E08327C4FE9583938702
:1012900007048A07BA9794C30100724405618280EB
:1012A000011122CE00102326A4FE8327C4FEFD8B4D
:1012B0000547B316F70037E700E08327C4FE9583A0
:1012C000938707068A07BA9794C3010072440561A1
:1012D0008280011122CE00102326A4FEAE87A30532
:1012E000F4FE37E700E08327C4FEBA970347B4FE55
:1012F0002380E7400100724405618280011106CE1F
:1013000022CC00102326A4FEB7E700E0BC47898B5F
:101310008DC38327C4FE83C707003E878327C4FE8F
:1013200083C72700920793F7F70FBE853A85553795
:1013300095A0B7E700E0BC47898BA9EF8327C4FEDF
:1013400003C7170085476318F7028327C4FE83C7C6
:1013500007003E878327C4FE83C727009207E20762
:10136000E18793E707F8E207E18793F7F70FBE8578
:101370003A85853705A08327C4FE83C707003E87CB
:101380008327C4FE83C72700920793F7F70FBE8514
:101390003A8581378327C4FEDC4381CB8327C4FE93
:1013A00083C707003E85E13539A08327C4FE83C784
:1013B00007003E85F5350100F240624405618280F8
:1013C000797122D60018232EA4FC232604FE2324A0
:1013D00004FE232204FE232004FEB7170240DC4350
:1013E000B18B2326F4FE0327C4FE91476302F70264
:1013F0000327C4FEA1476305F7028327C4FEC5E7A0
:101400008327C4FD37177A001307072098C365A008
:101410008327C4FD37177A001307072098C361A8F4
:10142000B7170240D843B7073C00F98F2324F4FED6
:10143000B7170240D843C167F98F2322F4FE8327F0
:1014400084FEC98389072324F4FE832744FE89EFA1
:10145000032784FEB7173D00938707903307F702F1
:101460008327C4FD98C381A8B7170240D843B707A4
:101470000200F98F89CF032784FEB7173D009387B9
:1014800007903307F7028327C4FD98C32DA00327D5
:1014900084FEB7177A00938707203307F702832764
:1014A000C4FD98C309A88327C4FD37177A00130722
:1014B000072098C30100B7170240DC4393F7070FDA
:1014C0002326F4FE8327C4FE91832326F4FEB70768
:1014D0000020138707008327C4FEBA9783C707003D
:1014E00093F7F70F2320F4FE8327C4FD9843832747
:1014F00004FE3357F7008327C4FDD8C3B717024053
:10150000DC4393F707702326F4FE8327C4FEA183F0
:101510002326F4FEB7070020138707008327C4FEA5
:10152000BA9783C7070093F7F70F2320F4FE8327AA
:10153000C4FDD843832704FE3357F7008327C4FD37
:1015400098C7B7170240D843916793870780F98FF0
:101550002326F4FE8327C4FEAD832326F4FEB707BB
:101560000020138707008327C4FEBA9783C70700AC
:1015700093F7F70F2320F4FE8327C4FDD843832776
:1015800004FE3357F7008327C4FDD8C7B7170240BE
:10159000D843B167F98F2326F4FE8327C4FEB983AD
:1015A0002326F4FEB7070020138707078327C4FE0E
:1015B000BA9783C7070093F7F70F2320F4FE83271A
:1015C000C4FDD847832704FE3357F7028327C4FDA1
:1015D00098CB0100325445618280011122CE001067
:1015E0002326A4FE2324B4FE832784FE99CBB717B9
:1015F0000240944FB71702400327C4FE558F98CF7F
:1016000021A8B7170240944F8327C4FE13C7F7FFE2
:10161000B7170240758F98CF010072440561828030
:10162000011122CE00102326A4FE2324B4FE83271A
:1016300084FE99CBB7170240D44FB7170240032757
:10164000C4FE558FD8CF21A8B7170240D44F8327A7
:10165000C4FE13C7F7FFB7170240758FD8CF01003C
:10166000724405618280797122D60018232EA4FC71
:10167000232CB4FC231704FE8327C4FD83D7070063
:101680002317F4FE0357E4FE8D6793870704F98F51
:101690002317F4FE832784FD03D70700832784FDE7
:1016A00083D72700D98F139707014183832784FDB0
:1016B00083D74700D98F139707014183832784FD80
:1016C00083D76700D98F139707014183832784FD50
:1016D00083D78700D98F139707014183832784FD20
:1016E00083D7A700D98F139707014183832784FDF0
:1016F00083D7C700D98F139707014183832784FDC0
:1017000083D7E700D98F1397070141838357E4FEFE
:10171000D98F2317F4FE8327C4FD0357E4FE2390DB
:10172000E7008327C4FD83D7C701139707014183CF
:10173000FD779387F77FF98F1397070141838327FD
:10174000C4FD239EE700832784FD03D70701832779
:10175000C4FD2398E70001003254456182800111E5
:1017600022CE00102326A4FE2324B4FE832784FE69
:101770008DC38327C4FE83D70700C207C18393E7C5
:1017800007041397070141838327C4FE2390E700D2
:1017900005A08327C4FE83D70700C207C18393F740
:1017A000F7FB1397070141838327C4FE2390E700CB
:1017B0000100724405618280797122D60018232EBF
:1017C000A4FC232CB4FC231704FE8327C4FD83D779
:1017D00007002317F4FE0327C4FDB73701409387A2
:1017E00007C06308F7020327C4FDB7070040630280
:1017F000F7020327C4FDB707004093870740630A39
:10180000F7000327C4FDB7170040938707806311D3
:10181000F7028357E4FE93F7F7F82317F4FE8327C4
:1018200084FD03D727008357E4FED98F2317F4FEE6
:101830008357E4FE93F7F7CF2317F4FE832784FD45
:1018400003D767008357E4FED98F2317F4FE83275D
:10185000C4FD0357E4FE2390E700832784FD03D7EC
:1018600047008327C4FD2396E702832784FD03D71F
:1018700007008327C4FD2394E7020327C4FDB7377D
:101880000140938707C0631DF700832784FD83C74A
:1018900087001397070141838327C4FD2398E7023C
:1018A0008327C4FD0547239AE700010032544561B0
:1018B0008280797122D60018232EA4FC232CB4FC3C
:1018C000231504FE231704FE231604FE8327C4FDFC
:1018D00083D70702C207C183F99B1397070141838E
:1018E0008327C4FD2390E7028327C4FD83D7070223
:1018F0002317F4FE8327C4FD83D747002316F4FE85
:101900008327C4FD83D787012315F4FE8357A4FEE4
:1019100093F7F7F82315F4FE8357A4FEF19B2315E4
:10192000F4FE832784FD03D707008357A4FED98FD5
:101930002315F4FE8357E4FEF59B2317F4FE83275B
:1019400084FD03D787008357E4FED98F2317F4FE65
:10195000832784FD03D727008357E4FED98F2317FD
:10196000F4FE0327C4FDB7370140938707C0631C0B
:10197000F7068357E4FEDD9B2317F4FE832784FDDF
:1019800003D7A7008357E4FED98F2317F4FE8357AC
:10199000E4FEED9B2317F4FE832784FD03D7470065
:1019A0008357E4FED98F2317F4FE8357C4FE93F7C1
:1019B000F7EF2316F4FE8357C4FE93F7F7DF2316E1
:1019C000F4FE832784FD03D7C7008357C4FED98F55
:1019D0002316F4FE832784FD03D7E7008357C4FE54
:1019E000D98F2316F4FE8327C4FD0357C4FE239228
:1019F000E7008327C4FD0357A4FE239CE700832749
:101A000084FD03D767008327C4FD239AE702832759
:101A1000C4FD0357E4FE2390E70201003254456100
:101A20008280797122D60018232EA4FC232CB4FCCA
:101A3000231504FE231704FE231604FE8327C4FD8A
:101A400083D70702C207C183BD9B13970701418358
:101A50008327C4FD2390E7028327C4FD83D70702B1
:101A60002317F4FE8327C4FD83D747002316F4FE13
:101A70008327C4FD83D787012315F4FE0357A4FEF3
:101A8000E577FD17F98F2315F4FE8357A4FE93F72E
:101A9000F7CF2315F4FE832784FD83D70700A20721
:101AA0001397070141838357A4FED98F2315F4FEB2
:101AB0008357E4FE93F7F7FD2317F4FE832784FD95
:101AC00083D7870092071397070141838357E4FE6A
:101AD000D98F2317F4FE832784FD83D7270092072D
:101AE0001397070141838357E4FED98F2317F4FE30
:101AF0000327C4FDB7370140938707C06310F70A77
:101B00008357E4FE93F7F7F72317F4FE832784FD4A
:101B100083D7A70092071397070141838357E4FEF9
:101B2000D98F2317F4FE8357E4FE93F7F7FB2317AF
:101B3000F4FE832784FD83D747009207139707019C
:101B400041838357E4FED98F2317F4FE8357C4FEE5
:101B500093F7F7BF2316F4FE0357C4FEFD77938770
:101B6000F77FF98F2316F4FE832784FD83D7C70000
:101B70008A071397070141838357C4FED98F231621
:101B8000F4FE832784FD83D7E7008A0713970701B4
:101B900041838357C4FED98F2316F4FE8327C4FDE7
:101BA0000357C4FE2392E7008327C4FD0357A4FE16
:101BB000239CE700832784FD03D767008327C4FDA8
:101BC000239CE7028327C4FD0357E4FE2390E7022A
:101BD0000100325445618280797122D60018232E8B
:101BE000A4FC232CB4FC231504FE231704FE2316A7
:101BF00004FE8327C4FD83D70702C207C18393F77E
:101C0000F7EF1397070141838327C4FD2390E70271
:101C10008327C4FD83D707022317F4FE8327C4FD5F
:101C200083D747002316F4FE8327C4FD83D7C7015B
:101C30002315F4FE8357A4FE93F7F7F82315F4FE5B
:101C40008357A4FEF19B2315F4FE832784FD03D75D
:101C500007008357A4FED98F2315F4FE8357E4FEB3
:101C600093F7F7DF2317F4FE832784FD83D78700DC
:101C7000A2071397070141838357E4FED98F2317E7
:101C8000F4FE832784FD83D72700A207139707015B
:101C900041838357E4FED98F2317F4FE0327C4FD45
:101CA000B7370140938707C06312F70A0357E4FE72
:101CB000FD779387F77FF98F2317F4FE832784FD41
:101CC00083D7A700A2071397070141838357E4FE38
:101CD000D98F2317F4FE8357E4FE93F7F7BF23173A
:101CE000F4FE832784FD83D74700A20713970701DB
:101CF00041838357E4FED98F2317F4FE0357C4FEB4
:101D0000FD77FD17F98F2316F4FE0357C4FEF9770C
:101D1000FD17F98F2316F4FE832784FD83D7C700B0
:101D200092071397070141838357C4FED98F231667
:101D3000F4FE832784FD83D7E700920713970701FA
:101D400041838357C4FED98F2316F4FE8327C4FD35
:101D50000357C4FE2392E7008327C4FD0357A4FE64
:101D6000239EE700832784FD03D767008327C4FDF4
:101D7000239EE7028327C4FD0357E4FE2390E70276
:101D80000100325445618280797122D60018232ED9
:101D9000A4FC232CB4FC231604FE231504FE2317F5
:101DA00004FE8327C4FD83D70702139707014183ED
:101DB000FD77FD17F98F1397070141838327C4FD32
:101DC0002390E7028327C4FD83D707022315F4FE7F
:101DD0008327C4FD83D747002317F4FE8327C4FD60
:101DE00083D7C7012316F4FE0357C4FEE577FD171A
:101DF000F98F2316F4FE8357C4FE93F7F7CF23160B
:101E0000F4FE832784FD83D70700A20713970701F9
:101E100041838357C4FED98F2316F4FE0357A4FED3
:101E2000F977FD17F98F2315F4FE832784FD83D7F7
:101E30008700B2071397070141838357A4FED98F08
:101E40002315F4FE832784FD83D72700B207139759
:101E5000070141838357A4FED98F2315F4FE03277E
:101E6000C4FDB7370140938707C06316F7020357D5
:101E7000E4FEF177FD17F98F2317F4FE832784FD25
:101E800083D7C7009A071397070141838357E4FE5E
:101E9000D98F2317F4FE8327C4FD0357E4FE239252
:101EA000E7008327C4FD0357C4FE239EE700832772
:101EB00084FD03D767008327C4FD2390E7048327AD
:101EC000C4FD0357A4FE2390E7020100325445618C
:101ED0008280011122CE00102326A4FE8327C4FE97
:101EE0007D572392E7008327C4FE239007008327B2
:101EF000C4FE239307008327C4FE23910700832792
:101F0000C4FE238407000100724405618280011130
:101F100022CE00102326A4FE2324B4FE832784FEB1
:101F20008DC38327C4FE83D70700C207C18393E70D
:101F300017001397070141838327C4FE2390E7000E
:101F400039A88327C4FE83D70700C207C183F99B42
:101F50001397070141838327C4FE2390E700010004
:101F6000724405618280011122CE00102326A4FE56
:101F70002324B4FE832784FE95C38327C4FE83D71E
:101F80004704139707014183E177D98F139707011E
:101F900041838327C4FE2392E70415A08327C4FE50
:101FA00083D74704139707014183A167FD17F98F72
:101FB0001397070141838327C4FE2392E70401009E
:101FC000724405618280797122D60018232EA4FC08
:101FD000AE873687231DF4FCB287231CF4FCBA8736
:101FE000231BF4FC231704FE231604FE231504FE12
:101FF0008327C4FD83D787002317F4FE8327C4FDFE
:1020000083D787012316F4FE8327C4FD83D70702F5
:102010002315F4FE8357E4FEE19B2317F4FE0357D8
:10202000E4FE8357A4FDD98F2317F4FE8357C4FE23
:1020300093F7C7CF2316F4FE8357C4FE93E7171018
:102040002316F4FE8357A4FE93F7D7FD2315F4FE61
:10205000835764FD9207139707014183835784FDDB
:10206000D98F1397070141838357A4FED98F231576
:10207000F4FE8327C4FD0357E4FE2394E70083277F
:10208000C4FD0357C4FE239CE7008327C4FD035708
:10209000A4FE2390E70201003254456182807971E9
:1020A00022D60018232EA4FCAE87231DF4FC231790
:1020B00004FE8327C4FD83D787012317F4FE8357CB
:1020C000E4FEDD9B2317F4FE0357E4FE8357A4FDD3
:1020D000D98F2317F4FE8327C4FD0357E4FE239C06
:1020E000E7000100325445618280797122D60018E0
:1020F000232EA4FCAE87231DF4FC231704FE8327A4
:10210000C4FD83D787012317F4FE0357E4FEFD7750
:102110009387F77FF98F2317F4FE8357A4FDA20757
:102120001397070141838357E4FED98F2317F4FEE9
:102130008327C4FD0357E4FE239CE70001003254CB
:1021400045618280797122D60018232EA4FCAE87C7
:10215000231DF4FC231704FE8327C4FD83D7C70186
:102160002317F4FE8357E4FEDD9B2317F4FE035789
:10217000E4FE8357A4FDD98F2317F4FE8327C4FD03
:102180000357E4FE239EE70001003254456182803C
:10219000797122D60018232EA4FCAE87231DF4FCEF
:1021A000231704FE8327C4FD83D7C7012317F4FE3A
:1021B0000357E4FEFD779387F77FF98F2317F4FE2B
:1021C0008357A4FDA2071397070141838357E4FEB9
:1021D000D98F2317F4FE8327C4FD0357E4FE239E03
:1021E000E7000100325445618280797122D60018DF
:1021F000232EA4FCAE87231DF4FC231704FE8327A3
:10220000C4FD83D787012317F4FE8357E4FEED9BBB
:102210002317F4FE0357E4FE8357A4FDD98F231739
:10222000F4FE8327C4FD0357E4FE239CE70001006E
:10223000325445618280797122D60018232EA4FC85
:10224000AE87231DF4FC231704FE8327C4FD83D728
:1022500087012317F4FE8357E4FE93F7F7BF231794
:10226000F4FE8357A4FDA207139707014183835708
:10227000E4FED98F2317F4FE8327C4FD0357E4FE41
:10228000239CE7000100325445618280797122D697
:102290000018232EA4FCAE87231DF4FC231704FE94
:1022A0008327C4FD83D7C7012317F4FE8357E4FEB9
:1022B000ED9B2317F4FE0357E4FE8357A4FDD98F4B
:1022C0002317F4FE8327C4FD0357E4FE239EE70093
:1022D0000100325445618280797122D60018232E84
:1022E000A4FCAE87231DF4FC231704FE8327C4FD42
:1022F00083D7C7012317F4FE8357E4FE93F7F7BF94
:102300002317F4FE8357A4FDA20713970701418307
:102310008357E4FED98F2317F4FE8327C4FD0357A8
:10232000E4FE239EE700010032544561828079710A
:1023300022D60018232EA4FCAE87231DF4FC2326EE
:1023400004FE231504FE231404FE8327C4FD83D753
:1023500007011397070141838357A4FDF98F2315C4
:10236000F4FE8327C4FD83D7C70013970701418379
:102370008357A4FDF98F2314F4FE8357A4FE81CB69
:10238000835784FE89C785472326F4FE19A0232698
:1023900004FE8327C4FE3E853254456182800111CC
:1023A00022CE00102326A4FEAE872315F4FE835709
:1023B000A4FE93C7F7FF1397070141838327C4FE49
:1023C0002398E70001007244056182805D7186C632
:1023D000A2C48008232EA4FA232CB4FA232604FED8
:1023E000232404FE232204FE232004FE232E04FCC7
:1023F0008327C4FB232EF4FC8327C4FB83D7070168
:10240000C207C1832326F4FE0327C4FEB567FD1768
:10241000F98F2326F4FE832784FB83D767003E874A
:102420008327C4FED98F2326F4FE8327C4FE139787
:10243000070141838327C4FB2398E7008327C4FB5C
:1024400083D7C700C207C1832326F4FE0327C4FE37
:10245000BD679387379FF98F2326F4FE832784FB7C
:1024600003D74700832784FB83D78700D98F13972F
:1024700007014183832784FB83D7A700D98FC20735
:10248000C1833E878327C4FED98F2326F4FE83278A
:10249000C4FE1397070141838327C4FB2396E700FB
:1024A0008327C4FB83D74701C207C1832326F4FED9
:1024B0000327C4FEC1679387F7CFF98F2326F4FE65
:1024C000832784FB83D7C7003E878327C4FED98F29
:1024D0002326F4FE8327C4FE139707014183832735
:1024E000C4FB239AE700930784FC3E85EFE05FED91
:1024F0000327C4FDB7470140938707806317F700A0
:10250000832744FD2324F4FE29A0832704FD2324EC
:10251000F4FE8327C4FB83D7C700C207C183C20769
:10252000C18763D20702032784FEBA878607BA975A
:102530008E073E97832784FB9C438607B357F70299
:102540002322F4FE05A0032784FEBA878607BA97E4
:102550008E073E97832784FB9C438A07B357F70275
:102560002322F4FE032744FE93074006B357F702E5
:1025700092072326F4FE8327C4FE13D74700930750
:102580004006B307F702032744FEB307F7402320B2
:10259000F4FE8327C4FB83D7C700C207C183C207E9
:1025A000C18763D20702832704FE8E0713872703A0
:1025B00093074006B357F7029D8B0327C4FED98FBC
:1025C0002326F4FE05A0832704FE92071387270322
:1025D00093074006B357F702BD8B0327C4FED98F7C
:1025E0002326F4FE8327C4FE139707014183832724
:1025F000C4FB2394E7000100B64026446161828059
:10260000011122CE00102326A4FE2324B4FE83272A
:1026100084FE95C38327C4FE83D7C70013970701A1
:1026200041838967D98F1397070141838327C4FEAC
:102630002396E70015A08327C4FE83D7C70013970E
:1026400007014183F977FD17F98F1397070141833C
:102650008327C4FE2396E70001007244056182804F
:10266000797122D60018232EA4FCAE87232AC4FC3D
:10267000231DF4FC232404FE232204FE232004FE55
:10268000232604FE8327C4FD2326F4FE8357A4FDDE
:1026900093F7F70F958393F7F70F2324F4FE8357EF
:1026A000A4FDFD8B2322F4FE832744FE0547B317C8
:1026B000F7002320F4FE032784FE85476318F70004
:1026C0008327C4FEB1072326F4FE0DA0032784FE52
:1026D00089476318F7008327C4FEC1072326F4FE49
:1026E00031A08327C4FED1072326F4FE832744FDAF
:1026F00099CB8327C4FE94438327C4FE032704FE9B
:10270000558F98C321A88327C4FE9443832704FED2
:1027100013C7F7FF8327C4FE758F98C30100325497
:1027200045618280011122CE00102326A4FEAE87CF
:102730002315F4FE8357A4FE93F7F71F13970701A1
:1027400041838327C4FE2392E700010072440561A0
:102750008280011122CE00102326A4FE8327C4FE0E
:1027600083D74700C207C18393F7F71FC207C1830E
:102770003E85724405618280797122D60018232E2D
:10278000A4FCAE87231DF4FC232604FE8327C4FD8E
:1027900083D707001397070141838357A4FDF98F5F
:1027A000C207C18389C785472326F4FE19A02326C3
:1027B00004FE8327C4FE3E853254456182807971D0
:1027C00022D60018232EA4FCAE87231DF4FC23225E
:1027D00004FE232604FE232004FE232404FE835744
:1027E000A4FD93F7F70F958393F7F70F2320F4FEDB
:1027F0008357A4FDFD8B2326F4FE8327C4FE0547E3
:10280000B317F7002326F4FE032704FE8547631F52
:10281000F7008327C4FD83D7C700C207C1833E8763
:102820008327C4FEF98F2326F4FE3DA8032704FE68
:102830008947631FF7008327C4FD83D70701C207B9
:10284000C1833E878327C4FEF98F2326F4FE29A87F
:102850008327C4FD83D74701C207C1833E878327EF
:10286000C4FEF98F2326F4FE8357A4FDA183C2077B
:10287000C1832322F4FE832744FE0547B317F700E4
:102880002322F4FE8327C4FD83D70700C207C18338
:102890003E87832744FEF98F2322F4FE8327C4FE5C
:1028A00081CB832744FE89C785472324F4FE19A0E2
:1028B000232404FE832784FE3E85325445618280B2
:1028C000797122D60018232EA4FCAE87231DF4FCB8
:1028D000231704FE231604FE8357A4FDA1832317A8
:1028E000F4FE8357E4FE0547B317F7002316F4FE02
:1028F0008357C4FE93C7F7FF1397070141838327CC
:10290000C4FD2390E700010032544561828001112B
:1029100006CE22CC0010AA87A307F4FEA5679387F2
:1029200047E09C473E87A1675CCBA567938747E05C
:102930009C473E8791675CCB9307F4FE8546014632
:10294000BE850145EF20A032A567938747E09C47ED
:102950003E87A1671CCB0100F24062440561828082
:10296000011106CE22CC0010AA87A307F4FEA567AA
:10297000938747E09C473E87A1675CCBA567938719
:1029800047E09C473E8791671CCB9307F4FE854642
:102990000146BE850145EF20802DA567938747E05E
:1029A0009C473E87A1671CCB0100F2406244056151
:1029B0008280797106D622D40018AA87231FF4FCDE
:1029C000A567938747E09C473E87A1675CCB835709
:1029D000E4FDA183C207C18393F7F70F2306F4FE3A
:1029E0008357E4FD93F7F70FA306F4FEA5679387DB
:1029F00047E09C473E8791671CCB9307C4FE8946FE
:102A00000146BE850145EF208026A567938747E0F4
:102A10009C473E87A1671CCB0100B2502254456100
:102A20008280797106D622D44AD24ED052CE56CC6C
:102A30005ACA5EC862C666C40018014881471307B7
:102A4000F00493063002054681450145EF20C00E93
:102A5000930600310546854513050008EF10400236
:102A600093060031014685451305E004EF1040014F
:102A700093060031014685451305D004EF10400050
:102A8000A567938747E09C473E8789675CCB03A790
:102A900041848967938707F43357F7029307800CC3
:102AA000B307F7023E8C814C6285E685EF20402813
:102AB000A567938747E09C473E8789671CCB03A7A0
:102AC00041848967938707F43357F70293074006D9
:102AD000B307F7023E8B814B5A85DE85EF204025F8
:102AE000130560032D3503A741848967938707F495
:102AF0003357F70293074006B307F7023E8A814A2D
:102B00005285D685EF20C02213050007913D13059D
:102B1000A003F53B1545A9351305200BCD3B3145E9
:102B200081353145353D0145253D130530030D3DCA
:102B30001305300335351305700BD13B13055003D6
:102B400005351305B00BE13313057003113D130573
:102B5000000C753B1305C00221351305200C453BC5
:102B60000545FD3B1305300C5D334945D53B130549
:102B7000400C713B13050002E5331305600C413B2B
:102B80003D45F93B1305000D59331305400AC93B78
:102B90001305100AF1331305000E953B1305000DC4
:102BA000C1331145753B3545653B4545553B4D4565
:102BB000453B1305B0026D331305F0035533130580
:102BC0004005793B1305C004613B6145513B3545E8
:102BD000413B2D4571337D45613313053002493347
:102BE0001305100E2D331305000D9D3B11458D3B34
:102BF0003145BD334545AD334D459D331305C002C9
:102C000085331305F003A93B13054004913B1305DD
:102C10001005B9331305F002A1337D4591337D458D
:102C20008133130500022D3B13053002153B1305BC
:102C30001002F1394545E13903A74184896793873B
:102C400007F43357F702BA879207998F8E073E89A8
:102C500081494A85CE85EF20A00D130590024539A4
:102C6000C1671385F7FF55200100B2502254125955
:102C70008259724AE24A524BC24B324CA24C4561D5
:102C80008280011106CE22CC0010AA873687231736
:102C9000F4FEAE872316F4FEB2872315F4FEBA873E
:102CA0002314F4FE1305A002EFF07FC68357E4FE61
:102CB00093878702C207C1833E85E5398357A4FE07
:102CC00093878702C207C1833E85E5311305B002B1
:102CD000EFF0FFC38357C4FE93875703C207C18336
:102CE0003E85EFF01FCD835784FE93875703C207BD
:102CF000C1833E85EFF0FFCB1305C002EFF03FC16B
:102D00000100F240624405618280797106D622D4C6
:102D10000018AA87231FF4FC930660081306F00E20
:102D200081450145B93F231704FE0DA8231604FE73
:102D300019A88357E4FD3E85EFF0BFC78357C4FE53
:102D400085072316F4FE0357C4FE93076008E3F2D9
:102D5000E7FE8357E4FE85072317F4FE0357E4FEDE
:102D60009307F00EE3F4E7FC0100B25022544561F2
:102D70008280797106D622D40018AA87AE8632875F
:102D8000231FF4FCB687231EF4FCBA87A30DF4FCC2
:102D9000A30704FE45A88347F4FE13970701418368
:102DA0008357C4FDBA9793950701C1818357E4FD0A
:102DB0009D071396070141828347F4FE139707018D
:102DC00041838357C4FDBA97139707014183835703
:102DD000E4FDBA863E8575358307B4FD938607FE0C
:102DE0008347F4FE216792061307476C3697BA971C
:102DF00083C70700A306F4FE230704FE15A8834734
:102E0000D4FE858B99C7C16713850780EFF07FBA21
:102E100031A0C1671385F7FFEFF0BFB98347D4FE38
:102E20008583A306F4FE8347E4FE85072307F4FEAB
:102E30000347E4FE9D47E3F4E7FC8347F4FE850780
:102E4000A307F4FE0347F4FEBD47E3F6E7F40100F1
:102E5000B250225445618280797106D622D400187E
:102E6000AA872E87232CC4FC231FF4FCBA87231EB9
:102E7000F4FC231704FE91A08357E4FE8E071397FA
:102E8000070141838357E4FDBA9793960701C182F6
:102E90008357C4FD920793950701C1818357E4FED0
:102EA000032784FDBA97838707003E863685D13590
:102EB0008357E4FE85072317F4FE8357E4FE0327B8
:102EC00084FDBA9783870700C5FB0100B2502254E6
:102ED00045618280797106D622D40018AA87AE8611
:102EE0003287231FF4FCB687231EF4FCBA87231D08
:102EF000F4FC8317A4FD63D807028357C4FD92072F
:102F00001397070141838357E4FD1306D002BA8566
:102F10003E8585358357A4FDB307F040C207C183C2
:102F2000231DF4FC31A88357C4FD920713970701B2
:102F300041838357E4FD13060002BA853E85153DA3
:102F40000317A4FD896793870771B347F702C20788
:102F5000C18793F7F70F2304F4FE0317A4FD93072B
:102F6000803EB347F702139707014187A947B3672C
:102F7000F702C207C18793F7F70FA304F4FE031704
:102F8000A4FD93074006B347F70213970701418753
:102F9000A947B367F702C207C18793F7F70F230565
:102FA000F4FE0317A4FDA947B347F70213970701DF
:102FB0004187A947B367F702C207C18793F7F70FA5
:102FC000A305F4FE0317A4FDA947B367F702C207E0
:102FD000C18793F7F70F2306F4FEA30704FEA1A809
:102FE0008347F4FE8507C207C1838E071397070145
:102FF00041838357E4FDBA971397070141838357B1
:10300000C4FD920793960701C1828347F4FE13061D
:1030100004FFB29783C787FF9387070393F7F70FE0
:10302000E207E1873E86B6853A85A1338347F4FE01
:103030008507A307F4FE0347F4FE9147E3F2E7FA9E
:103040000100B2502254456182805D7186C6A2C4DF
:1030500080082328C4FA232AD4FABA863E87AA878E
:10306000231FF4FAAE87231EF4FAB687A30DF4FAF1
:10307000BA87230DF4FA0347A4FB994763F5E700E9
:103080009947230DF4FA0347B4FBA94763F5E7001A
:10309000A947A30DF4FA01468146032504FB8325C5
:1030A00044FBEF205003AA8763D10702130784FC77
:1030B000032604FB832644FBA1679385C7633A85F7
:1030C000612EAA87A307F4FE35A0930784FC13871B
:1030D0001700032604FB832644FBA1679385C7637F
:1030E0003A859D2EAA87A307F4FE8347F4FE850741
:1030F000A307F4FE8347F4FEE51793F7F70F2306C3
:10310000F4FE0347C4FE8347B4FBB307F74093F7CD
:10311000F70FFD1793F7F70F2307F4FE0347C4FEDD
:103120008347A4FBBA9793F7F70F850793F7F70F39
:10313000A306F4FE25A88307D4FE130704FFBA975D
:1031400013070002238CE7FC8307D4FE93F7F70FE5
:10315000850793F7F70FA306F4FE8307E4FE93F7C2
:10316000F70F850793F7F70F2307F4FE8307E4FEB5
:10317000E3C307FC01468146032504FB832544FB8A
:10318000EF206075AA8763DC07008307E4FE13075E
:1031900004FFBA971307D002238CE7FC11A883071A
:1031A000E4FE130704FFBA9713070002238CE7FC21
:1031B0008307D4FE130704FFBA97238C07FC9306FA
:1031C00084FC0357C4FB8357E4FB3686BA853E85EF
:1031D000EFF09FC80100B640264461618280411132
:1031E00022C60008A567938747E3DC4383D74700DF
:1031F00013970701418383C77183BE861377F70F47
:1032000093874183B6972380E70083C7718385073F
:1032100013F7F70FA38BE18203C771838547631A06
:10322000F70003C741839307500A6304F700A38B99
:10323000018203C771838D476317F700A38B018257
:103240000547238CE1820100324441018280411113
:1032500022C60008B707024093874704096713078F
:10326000874BD8C3B7070240938747049843B707F3
:103270000240938747041367170098C30100324444
:1032800041018280411122C600080547A38CE182DA
:10329000B7070240938747049443B70702409387D8
:1032A000470441677917758F98C301003244410183
:1032B0008280797122D60018232EA4FC232CB4FC22
:1032C000B2873687A30BF4FCBA87230BF4FCA30365
:1032D00004FE230304FE834774FDA5CB8327C4FDAE
:1032E0002326F4FE8327C4FE63D807008327C4FE89
:1032F000B307F0402326F4FE834764FD0327C4FE92
:10330000B367F70293F7F70F9387070393F7F70F66
:10331000139787016187832784FD2380E700834714
:1033200064FD0327C4FEB347F7022326F4FE834758
:1033300064FE85072303F4FE8327C4FEC9C38327E5
:1033400084FD8507232CF4FC45BF8327C4FD23247B
:10335000F4FE834764FD032784FEB377F702A303DB
:10336000F4FE034774FEA54763F9E700834774FE44
:1033700093877703A303F4FE39A0834774FE9387F2
:103380000703A303F4FE030774FE832784FD238051
:10339000E700834764FD032784FEB357F702232425
:1033A000F4FE834764FE85072303F4FE832784FE2F
:1033B00089CB832784FD8507232CF4FC59BF0100AA
:1033C00011A00100834764FE3E853254456182802E
:1033D000797122D60018232EA4FC232CB4FC2326BA
:1033E00004FE85A0032784FD8327C4FEB307F740AE
:1033F000FD170327C4FDBA9783C70700A305F4FE92
:103400000327C4FD8327C4FE3E97832684FD8327BC
:10341000C4FEB387F640FD178326C4FDB6970307A5
:1034200007002380E7000327C4FD8327C4FEBA9763
:103430000347B4FE2380E7008327C4FE85072326C5
:10344000F4FE832784FD85830327C4FEE36CF7F82D
:103450000100325445618280357186DEA2DC0001B4
:103460002326A4F82324B4F810C454C418C85CC894
:10347000232C0401232E1401232604FE93070402A7
:10348000A117232AF4FA31A3832784F883C70700FE
:10349000A301F4FE030734FE930750026312F74CB6
:1034A000832784F885072324F4F8832784F8838707
:1034B00007009387B7FD130730056366F74C139732
:1034C0002700A567938747CBBA979C4382878327BA
:1034D00044FB13874700232AE4FA9C432301F4FEAC
:1034E0008327C4F8034724FE2380E7008327C4F81A
:1034F00085072326F4F88327C4FE85072326F4FED8
:1035000061A1832744FB13874700232AE4FA9C43E5
:10351000232EF4FC8327C4FD130704F9A9460546AE
:10352000BA853E857933AA87A305F4FE8327C4FDB7
:1035300063D007028347B4FE130704FFBA9713074B
:10354000D0022380E7FA8347B4FE8507A305F4FE83
:103550000347B4FE930704F9BA853E85953D0347BA
:10356000B4FE930704F93A86BE850325C4F8EF300C
:10357000D0628347B4FE0327C4F8BA972326F4F831
:103580008347B4FE0327C4FEBA972326F4FEEDAEAC
:10359000832744FB9D07E19B13878700232AE4FAD6
:1035A00003A847009C432328F4FC232A04FD032599
:1035B00004FD832544FDEF20D07CAA873E87930736
:1035C00004F9A9460546BE853A85EFF09FCEAA8745
:1035D0002305F4FE01468146032504FD832544FDB1
:1035E000EF20602FAA8763D007028347A4FE13074A
:1035F00004FFBA971307D0022380E7FA8347A4FE9B
:1036000085072305F4FE0347A4FE930704F9BA8552
:103610003E857D3B0347A4FE930704F93A86BE85A9
:103620000325C4F8EF3070578347A4FE0327C4F87E
:10363000BA972326F4F88347A4FE0327C4FEBA975B
:103640002326F4FE032504FD832544FDEF2070733B
:10365000AA873E85EF207079AA872E883E86C2868B
:10366000032504FD832544FDEF20C07DAA872E8815
:103670003E85C285A16703A6076883A64768EF2039
:10368000E030AA872E882328F4FC232A04FD014673
:103690008146032504FD832544FDEF20201DAA87D4
:1036A0008DC7032504FD832544FDEF20906DAA8777
:1036B0003E87930704F9A9460546BE853A85EFF093
:1036C0005FBFAA872305F4FE99A893070003A30A06
:1036D000F4F8830754F9230AF4F8830744F9A3099B
:1036E000F4F8830734F92309F4F8830724F9A308CD
:1036F000F4F8830714F92308F4F899472305F4FE36
:1037000039A88347A4FE130704FFBA9713070003E1
:103710002380E7FA8347A4FE85072305F4FE0347C9
:10372000A4FE9547E3FFE7FC8347A4FE130704FFCD
:10373000BA971307E0022380E7FA8347A4FE8507C0
:103740002305F4FE0347A4FE930704F9BA853E85DA
:10375000EFF01FC80347A4FE930704F93A86BE851D
:103760000325C4F8EF3070438347A4FE0327C4FE4B
:10377000BA972326F4FE010001AC832744FB13878C
:103780004700232AE4FA9C432326F4FC930704F918
:10379000A9460146BE850325C4FCEFF09FB1AA8768
:1037A000A305F4FC0347B4FC930704F9BA853E85EE
:1037B000EFF01FC20347B4FC930704F93A86BE85B5
:1037C0000325C4F8EF30703D8347B4FC0327C4F8E9
:1037D000BA972326F4F88347B4FC0327C4FEBA97AC
:1037E0002326F4FE55A2832744FB13874700232A90
:1037F000E4FA9C432322F4FC930704F9A146014612
:10380000BE85032544FCEFF0DFAAAA87A301F4FCE0
:10381000034734FC930704F9BA853E85EFF05FBB9C
:10382000034734FC930704F93A86BE850325C4F8A0
:10383000EF30B036834734FC0327C4F8BA97232609
:10384000F4F8834734FC0327C4FEBA972326F4FE1A
:1038500025AA832744FB13874700232AE4FA9C43C5
:10386000232EF4FA930704F9C1460146BE850325C9
:10387000C4FBEFF01FA4AA87A30DF4FA0347B4FB1F
:10388000930704F9BA853E85EFF09FB40347B4FB74
:10389000930704F93A86BE850325C4F8EF30F02F6C
:1038A0008347B4FB0327C4F8BA972326F4F8834769
:1038B000B4FB0327C4FEBA972326F4FEF1A08327A6
:1038C00044FB13874700232AE4FA9C432322F4FE97
:1038D00005A8832744FE038707008327C4F82380B5
:1038E000E7008327C4F885072326F4F88327C4FE5E
:1038F00085072326F4FE832744FE85072322F4FE52
:10390000832744FE83870700E9F7BDA8930704F9DE
:10391000A1453E85EFF0DFAB930704F92146BE8554
:103920000325C4F8EF3070278327C4F8A1072326A6
:10393000F4F88327C4FEA1072326F4FEB1A0832751
:10394000C4F8130750022380E7008327C4F88507D3
:103950002326F4F88327C4FE85072326F4FE2DA032
:10396000832784F8038707008327C4F82380E700B0
:103970008327C4F885072326F4F88327C4FE850728
:103980002326F4FE11A00100832784F88507232451
:10399000F4F8832784F883870700E39707AE83272B
:1039A000C4FE3E85F65066540D618280411122C6E8
:1039B0000008A567938747E3DC4383D74700139745
:1039C0000701418383C7F183BE861377F70F93877F
:1039D000C183B6972380E70083C7F183850713F778
:1039E000F70FA38FE18203C7F1838547631AF700BE
:1039F00003C7C1839307500A6304F700A38F0182B2
:103A000003C7F1838D476317F700A38F0182054732
:103A10002380E1840100324441018280411122C6A9
:103A20000008B70702409387470405671307079606
:103A3000D8C3B7070240938747049843B7070240AB
:103A4000938747041367170098C30100324441016C
:103A50008280411122C600080547A380E184B70790
:103A60000240938747049443B70702409387470473
:103A700041677917758F98C30100324441018280F4
:103A8000797106D622D40018232EA4FC232CB4FC72
:103A9000B2872328D4FCA30BF4FC8327C4FD9583B1
:103AA00093F7F70F9D8BA307F4FE8327C4FD93F7CD
:103AB000F70FFD8B2307F4FE0327C4FD93070008CF
:103AC000630DF7148327C4FD958391E78545114560
:103AD000EFD0BFB061A88327C4FD13D75700854737
:103AE0006317F70085452145EFD03FAF41A08327FD
:103AF000C4FD13D7570089476317F7008545414533
:103B0000EFD0BFADA5A08327C4FD13D757008D47C5
:103B10006318F700854513050002EFD01FACB9A06C
:103B20008327C4FD13D7570091476318F7008545D5
:103B300013050004EFD07FAA15A88327C4FD13D76F
:103B4000570095476318F700854513050008EFD027
:103B5000DFA829A88327C4FD13D757009947631707
:103B6000F700854513050010EFD03FA78347E4FE1B
:103B70000547B317F700C207C1832310F4FE0327DC
:103B800084FD85476317F702832704FDC207C183BD
:103B9000A183C207C18389E78D472322F4FE11A8C0
:103BA000832704FDC207C183A183C207C1832322E7
:103BB000F4FE832704FDC207C18393F7F70F232484
:103BC000F4FE0347F4FEA5670A07938747E0BA9718
:103BD0009C433E87930704FEBE853A85EFD02FA510
:103BE000032784FD8547631BF7020347F4FEA5679F
:103BF0000A07938747E0BA979C43BE868347E4FE53
:103C00000547B317F700C207C183034774FD3A861F
:103C1000BE853685EFD04FC411A00100B2502254AA
:103C200045618280797122D60018232EA4FCAE87CC
:103C3000A30DF4FC8327C4FD958393F7F70F9D8BA9
:103C4000A307F4FE8327C4FD93F7F70FFD8B23072B
:103C5000F4FE0347B4FD85476312F7028347E4FE91
:103C60000547B316F7000347F4FEA5670A079387D5
:103C700047E0BA979C43368798CB05A08347E4FE7C
:103C80000547B316F7000347F4FEA5670A079387B5
:103C900047E0BA979C433687D8CB01003254456140
:103CA0008280797106D622D40018232EA4FC232CFE
:103CB000B4FC232AC4FC85450545EFD01F9283261A
:103CC00044FD014681450325C4FDEFF07FDB8327DA
:103CD000C4FD958313F7F70F8327C4FD93F7F70F00
:103CE000FD8B93F7F70FBE853A85EFD02FCE832754
:103CF000C4FDFD8B0547B317F7002320F4FE2322F4
:103D000004FE832784FD2324F4FE85472326F4FE46
:103D1000930704FE3E85EFC03FF30100B2502254EA
:103D200045618280797106D622D40018232EA4FC26
:103D3000AE873687A30DF4FCB287230DF4FCBA8757
:103D4000A30CF4FC8327C4FD93F7F70F2304F4FEC0
:103D50008347B4FDA304F4FE8347A4FD2305F4FECA
:103D6000834794FD2326F4FE930784FE3E85EFD01F
:103D7000EFD8B7E700E09843FD777D8F83A74192A6
:103D80005D8F23A2E192B7E700E0D843B7070010A8
:103D9000FD177D8F93874192DC435D8F938741921E
:103DA000D8C39387419203C7870085476313F70001
:103DB00031200100B250225445618280411122C657
:103DC0000008B7E700E07D5723A0E718B7E700E059
:103DD0007D5723A2E718010032444101828041113E
:103DE00022C60008B7E700E003A7419223A0E7102E
:103DF000B7E700E013874192584323A2E710010080
:103E0000324441018280011106CE22CC00109387FA
:103E1000419205472384E70083A7419281EB938772
:103E20004192DC4381E7A30704FE21A08547A30755
:103E3000F4FE69378347F4FE3E85F2406244056133
:103E40008280011106CE22CC0010AA87A307F4FEBF
:103E50008347F4FE91E7938741922384070041371B
:103E60000100F240624405618280011106CE22CC3D
:103E700000102326A4FE0327C4FE93070020630737
:103E8000F7240327C4FE9307002063EAE70A032709
:103E9000C4FE930710106300F71C0327C4FE9307AA
:103EA000101063E2E7040327C4FE8947630DF71689
:103EB0000327C4FE894763ECE7008327C4FE6384BD
:103EC00007140327C4FE85476307F714E5AC0327EF
:103ED000C4FE8D476301F7160327C4FE9307001045
:103EE0006303F716C5A40327C4FE93070011630CF0
:103EF000F7180327C4FE9307001163EFE7000327B9
:103F0000C4FE930720106300F7160327C4FE93072F
:103F100030106302F7167DA40327C4FE9307201117
:103F20006304F7180327C4FE930720116365F7168F
:103F30000327C4FE930730116301F71861A4032718
:103F4000C4FE930730216300F7200327C4FE9307C4
:103F5000302163EEE7040327C4FE9307302063009B
:103F6000F71A0327C4FE9307302063EFE700032707
:103F7000C4FE930710206303F7160327C4FE9307BC
:103F800020206305F7163DAC0327C4FE93071021DC
:103F90006309F7180327C4FE9307102163ECE718A1
:103FA0000327C4FE930700216304F71621AC0327FF
:103FB000C4FE930700306303F71C0327C4FE930776
:103FC000003063EFE7000327C4FE93070022630578
:103FD000F7180327C4FE930710226308F718DDA221
:103FE0000327C4FE93072030630CF71A0327C4FE8F
:103FF00093072030636DF7180327C4FE9307303012
:104000006309F71AC1A2930680310146854521450F
:10401000EFF01FA745AA9306803101468545254547
:10402000EFF01FA645A2930680310146854529453C
:10403000EFF01FA541AA93068031014685452D4525
:10404000EFF01FA441A2930680310146854501454A
:10405000EFF01FA385AA93068031014685450545EB
:10406000EFF01FA285A293068031014685450945E0
:10407000EFF01FA181AA93068031014685450D45C9
:10408000EFF01FA081A293068031014685453D4592
:10409000EFF01F9F05AA9306803101468545130561
:1040A0003002EFF0FF9D39AA930680310146854525
:1040B0001305A002EFF0DF9C31A293068031014688
:1040C00085451305B002EFF0BF9BEDA89306803144
:1040D000014685451945EFF0BF9AEDA09306803162
:1040E000014685451D45EFF0BF99E9A8930680314B
:1040F0000146854513050002EFF09F98E1A0930665
:1041000080310146854513051002EFF07F975DA8C9
:10411000930680310146854513056004EFF05F96F4
:1041200055A0930680310146854513057004EFF0D4
:104130003F9549A8930680310146854513058004C3
:10414000EFF01F9441A09306803101468545130589
:104150009004EFF0FF92BDA09306803101468545A3
:1041600013054002EFF0DF91B1A8930680310146BC
:10417000854513055002EFF0BF90A9A0930680314A
:104180000146854513056002EFF09F8F25A8930631
:1041900080310146854513057002EFF07F8E1DA02A
:1041A000930680310146854513058002EFF05F8D4F
:1041B00011A8930680310146854513059002EFF062
:1041C0003F8C01000100F240624405618280397138
:1041D00006DE22DC80002326A4FC2324B4FC232258
:1041E000C4FC231704FE0325C4FCEFF01FC883277B
:1041F000C4FCA18381EB8545856713850780EFD0DB
:10420000CFBDA1A08327C4FC13D7870085476317C0
:10421000F70085450545EFD0AFC005A88327C4FC4E
:1042200013D7870089476317F70085450945EFD005
:104230002FBF21A88327C4FC13D787008D4763169F
:10424000F70085451145EFD0AFBD85450545EFD059
:10425000CFB88327C4FC13D74700C147631AF700C0
:104260008545B707160013850704EFC07FE2B9A89C
:104270008327C4FC13D74700C547631AF700854559
:10428000B707180013850730EFC09FE081A0832790
:10429000C4FC13D7470093071002631AF700854543
:1042A000B7171A00138507C0EFC09FDE05A083274C
:1042B000C4FC13D74700930720026319F700854514
:1042C000B7171A0013850780EFC09FDCB7170240AD
:1042D000DC43C98313F7F700B7177A0093870720E9
:1042E0003307F702B727F400938707403E9723A2CE
:1042F000E18403A74184832784FCB357F702C18379
:104300002317F4FE03A741848357E4FE8507BE8686
:10431000832784FCB387F602B357F7022316F4FE13
:104320000357C4FE832744FC3307F702896793874A
:104330000771B357F7022315F4FE8357C4FEFD1728
:10434000C207C1832312F4FE8357E4FE2310F4FE58
:10435000231304FE231104FE230404FE9307000725
:104360002318F4FC85472319F4FC231A04FC835713
:10437000A4FE231BF4FC8947231CF4FC8947231D5E
:10438000F4FC231E04FC231F04FC8327C4FC13D766
:104390008700A5670A07938747E1BA979C433E8742
:1043A000930704FEBE853A85EFD00FC18327C4FC76
:1043B0008D8BB9EF8327C4FC13D78700A5670A0745
:1043C000938747E1BA979C433E87930704FDBE85D8
:1043D0003A85EFD00FCE8327C4FC13D78700A5679B
:1043E0000A07938747E1BA979C43A1453E85EFD0E2
:1043F0001FCB8327C4FC13D78700A5670A079387C1
:1044000047E1BA979C4391453E85EFD01FDE89A2D4
:104410008327C4FC13F7370085476311F70683270A
:10442000C4FC13D78700A5670A07938747E1BA97AB
:104430009C433E87930704FDBE853A85EFD06FDE2F
:104440008327C4FC13D78700A5670A07938747E132
:10445000BA979C43A1453E85EFD03FC98327C4FC52
:1044600013D78700A5670A07938747E1BA979C434C
:10447000930500403E85EFD01FDCD9A88327C4FCFC
:1044800013F7370089476310F7068327C4FC13D757
:104490008700A5670A07938747E1BA979C433E8741
:1044A000930704FDBE853A85EFD00FF38327C4FC44
:1044B00013D78700A5670A07938747E1BA979C43FC
:1044C000A1453E85EFD01FC88327C4FC13D78700C2
:1044D000A5670A07938747E1BA979C4391453E85B4
:1044E000EFD0DFDAB5A08327C4FC13F737008D4780
:1044F0006310F7068327C4FC13D78700A5670A0754
:10450000938747E1BA979C433E87930704FDBE8596
:104510003A85EFD07F878327C4FC13D78700A56730
:104520000A07938747E1BA979C43A1453E85EFD0A0
:104530003FC68327C4FC13D78700A5670A07938764
:1045400047E1BA979C43930500403E85EFD0DFD802
:104550008327C4FC13D78700A5670A07938747E121
:10456000BA979C4385453E85EFD07F9A8327C4FC4C
:1045700013D78700A5670A07938747E1BA979C433B
:1045800085453E85EFD03F9E0100F2506254216187
:104590008280797122D60018232EA4FC232CB4FC2F
:1045A0008327C4FD13D78700A5670A07938747E1D0
:1045B000BA979C4383D7C7022317F4FE0357E4FE40
:1045C000832784FD3307F702896793870771B35701
:1045D000F7022316F4FE8327C4FDA18385E3832716
:1045E000C4FD13F73700B75700109387D7B0BA97B9
:1045F0008A073E878357C4FE1CC349A08327C4FD96
:1046000013D7870085476310F7028327C4FD13F78C
:104610003700B7070010B507BA978A073E87835758
:10462000C4FE1CC3A1A88327C4FD13D787008947F4
:104630006311F7028327C4FD13F73700B707001093
:104640009387D710BA978A073E878357C4FE1CC347
:1046500035A08327C4FD13D787008D476310F70269
:104660008327C4FD13F73700B70700109387D720BF
:10467000BA978A073E878357C4FE1CC30100325491
:1046800045618280011106CE22CC00102326A4FEB3
:104690002324B4FE8327C4FE81EB91460146814565
:1046A0002145EFF0EFBD59A80327C4FE89476319E0
:1046B000F7009146014681450145EFF06FBCBDA86A
:1046C0000327C4FE91476319F700914601468145CF
:1046D0003D45EFF0EFBA9DA00327C4FE994763194B
:1046E000F7009146014681451945EFF06FB9B9A031
:1046F0000327C4FEA147631AF7009146014681458E
:1047000013056004EFF0CFB715A80327C4FEA9472F
:10471000631AF70091460146814513054002EFF008
:104720002FB629A80327C4FEB1476319F7009146A5
:104730000146814513056002EFF08FB4032784FE24
:1047400085476319F7009146014681452545EFF0FD
:104750002FB361A8032784FE8D476319F7009146A4
:10476000014681450545EFF0AFB141A0032784FE26
:104770009547631AF70091460146814513053002BB
:10478000EFF00FB09DA0032784FE9D476319F7004B
:104790009146014681451D45EFF08FAEB9A0032734
:1047A00084FEA547631AF70091460146814513052B
:1047B0007004EFF0EFAC15A8032784FEAD47631A31
:1047C000F70091460146814513055002EFF04FABCB
:1047D00029A8032784FEB5476319F70091460146CF
:1047E000814513057002EFF0AFA90100F240624469
:1047F00005618280797106D622D40018232EA4FC8C
:10480000232CB4FC232AC4FC8327C4FD81EB8545FB
:10481000856713850780EFC05FDC35A80327C4FDDB
:1048200085476317F70085450545EFC07FDF25A065
:104830000327C4FD89476317F70085450945EFC085
:104840003FDE11A80327C4FD8D476316F700854599
:104850001145EFC0FFDC832544FD032584FDEFF007
:104860007FE285450545EFC05FD7032784FD91476B
:10487000631FF700032744FD9547631AF70085453A
:10488000B707180013850730EFC09F80A1A003274A
:1048900084FDA147631FF700032744FDA547631A62
:1048A000F7008545B7171A00138507C0EFC04FFE04
:1048B00015A0032784FDA947631EF700032744FDC5
:1048C000AD476319F7008545B7171A0013850780B0
:1048D000EFC00FFC930744FE3E85EFD08FDF854786
:1048E0002312F4FEFD572314F4FE231504FE2313B4
:1048F00004FE230604FEA5670327C4FD0A07938769
:1049000047E1BA979C433E87930744FEBE853A85AC
:10491000EFC09FEAA5670327C4FD0A07938747E115
:10492000BA979C438146014689453E85EFD0AFE961
:10493000A5670327C4FD0A07938747E1BA979C43FD
:1049400085453E85EFD0AFDC0100B2502254456171
:104950008280797122D60018232EA4FCA567032734
:10496000C4FD0A07938747E1BA979C4383D7470260
:10497000C207C1832317F4FE8317E4FE3E85325439
:1049800045618280011122CE00102326A4FEA56776
:104990000327C4FE0A07938747E1BA979C432392F3
:1049A00007020100724405618280011106CE22CC0B
:1049B00000102326A4FE2324B4FE2322C4FE2320B9
:1049C000D4FE8327C4FE89EB9306803105468545D6
:1049D0001545EFF0EF8A99A80327C4FEC147631B72
:1049E000F700930680310546854513053002EFF048
:1049F0002F892DA80327C4FE93070002631BF7002D
:104A000093068031054685451305D002EFF04F87A8
:104A100031A8A16793868768A567138647E2930547
:104A2000D002A1671385C768EF203011032784FEE9
:104A30008547631AF70093068031054685451D4575
:104A4000EFF00F8499A8032784FEC547631BF70086
:104A5000930680310546854513055002EFF04F82DD
:104A60002DA8032784FE93071002631BF70093060B
:104A70008031054685451305F002EFF06F8031A8BF
:104A8000A16793868768A567138647E2930520038D
:104A9000A1671385C768EF20500A032744FE8947A2
:104AA000631AF70093068031054685451945EFE006
:104AB0003FFDB5A0032744FEC947631BF7009306DB
:104AC00080310546854513054002EFE07FFB81A854
:104AD000032744FE93072002631BF70093068031EF
:104AE000054685451305E002EFE09FF90DA8032771
:104AF00044FE930730026317F70093073002232226
:104B0000F4FE31A8A16793868768A567138647E2FC
:104B100093058003A1671385C768EF2010029306F1
:104B2000003105468545032504FEEFE07FF50100D1
:104B3000F2406244056182805D7186C6A2C480082D
:104B40002326A4FC2324B4FC2322C4FC2320D4FC6D
:104B5000232EE4FA232A04FBA30DF4FA8327C4FCD2
:104B600081EB8545856713851700EFC01FA721A836
:104B70000327C4FC85476318F700854591671385B3
:104B80001700EFC0FFA98326C4FB032604FC83257E
:104B900044FC032584FCEFF05FE1231E04FC930733
:104BA0004010231FF4FC231004FE8347B4FB054789
:104BB0006383E70205476344F70089CB81A0094777
:104BC0006381E7020D476384E7020DA8231104FE09
:104BD000231204FE25A0231104FE85472312F4FEB0
:104BE00031A889472311F4FE231204FE01A8894746
:104BF0002311F4FE85472312F4FE010093070020E1
:104C00002313F4FE832744FBC207C1838E07C20728
:104C1000C1832314F4FE231504FE9D472316F4FEDE
:104C20000327C4FC0A079387C180BA979C433E8739
:104C30009307C4FDBE853A85EFC0FFA2032784FC1D
:104C4000C1476316F70085450545EFC06FC40327CC
:104C5000C4FC0A079387C180BA979C4385453E856B
:104C6000EFC0FFAF0100B6402644616182800111B0
:104C700022CE00102326A4FE2324B4FE2322C4FE49
:104C80002320D4FE59A801000327C4FE0A079387F6
:104C9000C180BA979C4383D78700C207C183898BA1
:104CA000E5D7832784FE138717002324E4FE83C6F9
:104CB00007000327C4FE0A079387C180BA979C4365
:104CC0003E8793970601C1832316F700832744FE8E
:104CD000A9C701000327C4FE0A079387C180BA97BA
:104CE0009C4383D78700C207C183858BE5D7032701
:104CF000C4FE0A079387C180BA979C4383D7C70035
:104D000093960701C182832744FE1387170023224D
:104D1000E4FE13F7F60F2380E700832704FE1387D2
:104D2000F7FF2320E4FEA5F30100724405618280B1
:104D3000011122CE00102324A4FE2326B4FE37F74F
:104D400000E02320070037F700E02302070037F7D1
:104D500000E0A302070037F700E02303070037F75E
:104D600000E0A303070037F700E02304070037F74C
:104D700000E0A304070037F700E02305070037F73A
:104D800000E0A305070037F700E0854614C30100E3
:104D900037F700E011071843BA8701480327C4FE1C
:104DA000C286636DD7000327C4FEC286E312D7FE16
:104DB000032784FEBE866363D700D9BF0100724417
:104DC00005618280011106CE22CC00102326A4FEAC
:104DD0002324B4FE8327C4FE85E7032784FE85478A
:104DE0006310F70293068031014685452545EFE0C3
:104DF0003FC99146014681452945EFE07FC865A03E
:104E00000327C4FE89476312F702930680310146E7
:104E1000854513056002EFE0BFC691460146814516
:104E200013057002EFE0DFC5BDA80327C4FEC1472C
:104E30006310F70293068031014685450945EFE08E
:104E40003FC49146014681450D45EFE07FC3A1A8CF
:104E50000327C4FE930700026312F7029306803112
:104E6000014685451305A002EFE09FC1914601462A
:104E700081451305B002EFE0BFC035A00327C4FE93
:104E8000930720026311F70293068031014685459E
:104E90001305A004EFE0DFBE9146014681451305EE
:104EA000B004EFE0FFBD0100F24062440561828082
:104EB000797106D622D40018232EA4FC232CB4FC2E
:104EC000232AC4FC2328D4FC85450545EFC0EFF018
:104ED000832504FD032544FDEFF0DFEE032744FDA9
:104EE0008947631BF700032704FD8D476316F7000E
:104EF00085451145EFC0CF99032744FD9307200254
:104F0000631FF700032704FD930730026319F700BE
:104F10008545B707140013850701EFC06F978327F6
:104F2000C4FD91E785451165EFC02FEB35A0032740
:104F3000C4FD85476318F700854537050200EFC0BB
:104F40002FEE19A80327C4FD89476317F70085458D
:104F500037050400EFC0CFEC832784FD2320F4FE47
:104F6000231204FE231304FE231404FE231604FE5E
:104F7000B1472315F4FEA5670327C4FD0A079387ED
:104F800047E3BA979C433E87930704FEBE853A8564
:104F9000EFD0CFC3A5670327C4FD0A07938747E374
:104FA000BA979C4385453E85EFD08FE50100B2500E
:104FB000225445618280011122CE00102326A4FED6
:104FC000AE87A305F4FE0100A5670327C4FE0A0708
:104FD000938747E3BA979C4383D70700C207C183EF
:104FE00093F70708F5D3A5670327C4FE0A0793873D
:104FF00047E3BA979C433E878347B4FEC207C18309
:105000002312F7000100724405618280011106CE6F
:1050100022CC00102326A4FE2324B4FE2322C4FEA7
:1050200031A8832784FE138717002324E4FE83C757
:105030000700BE850325C4FEEFF0FFF7832744FE7B
:105040001387F7FF2322E4FEE9FF0100F2406244E8
:1050500005618280011106CE22CC00102326A4FE19
:10506000AE87A305F4FEA5670327C4FE0A0793874E
:1050700047E3BA979C430546930550523E85EFD0CF
:105080002FDE8327C4FE938757030347B4FEBA86F7
:10509000014681453E85EFE0FFC80100F2406244D1
:1050A00005618280411106C622C40008B71702407C
:1050B000DC43C98313F7F700B7177A0093870720FB
:1050C0003307F702B727F400938707403E9723A2E0
:1050D000E18485460146F167938507200145EFF09D
:1050E0003FDD0100B240224441018280797106D641
:1050F00022D40018232EA4FC232CB4FC232AC4FCA5
:10510000232604FE99A00100A56783A747E3930522
:1051100000043E85EFD04FE6AA87FDD7A56783A799
:1051200047E3BE86832784FD13871700232CE4FC06
:1051300083870700C207C183BE853685EFD08FDE27
:105140008327C4FE85072326F4FE0327C4FE832796
:1051500044FDE34AF7FA832744FD3E85B2502254CA
:1051600045618280011122CE0010232604FE2324F3
:1051700004FEB71702409443B71702404167558FAA
:1051800098C3B71702409843B7070200F98F23244A
:10519000F4FE8327C4FE85072326F4FE832784FEBE
:1051A00099E70327C4FE93070050E31CF7FCB717E9
:1051B00002409843B7070200F98F89C78547232427
:1051C000F4FE19A0232404FE032784FE85476317F9
:1051D000F70CB72702409843B7270240136707012F
:1051E00098C3B72702409843B7270240719B98C3E2
:1051F000B72702409843B72702401367270098C398
:1052000037170240B71702405843D8C33717024038
:10521000B71702405843D8C337170240B7170240A8
:105220005843D8C3B7170240D443B71702403707D3
:10523000C1FF7D17758FD8C3B7170240D443B71786
:10524000024037072500558FD8C3B7170240944353
:10525000B717024037070001558F98C30100B717F1
:1052600002409843B7070002F98FF5DBB7170240F9
:10527000D843B7170240719BD8C3B7170240D84331
:10528000B717024013672700D8C30100B7170240C1
:10529000DC4313F7C700A147E31AF7FE010072448D
:1052A00005618280411106C622C40008B71702407A
:1052B0009843B71702401367170098C3B717024007
:1052C000D443B71702403707FFF8758FD8C3B71715
:1052D00002409443B71702403707F7FE7D17758FDA
:1052E00098C3B71702409443B71702403707FCFF33
:1052F0007D17758F98C3B7170240D443B717024084
:10530000370781FF7D17758FD8C3B717024037075E
:105310009F0098C7EFF01FE50100B2402244410111
:105320008280411106C622C4000801469167938518
:10533000872613050030EFE09FE9014691679385CA
:10534000872613051030EFE09FE8014691679385AB
:10535000872613052030EFE09FE70146916793858C
:10536000872613053030EFE09FE6930600310146B3
:1053700085451305A004EFE0AFF093060031014628
:1053800085451305B004EFE0AFEF93060031054605
:1053900085451305C002EFE0AFEE930600310546E8
:1053A00085452145EFE0CFED0100B24022444101A7
:1053B0008280797106D622D40018232EA4FC232CD7
:1053C000B4FC032784FD89679387077163D7E700DF
:1053D000896793870771232CF4FC032784FDF977F1
:1053E0009387078F6357F700F9779387078F232CED
:1053F000F4FC832784FD63D90700832784FDB3076A
:10540000F0402326F4FE29A0832784FD2326F4FE02
:105410000327C4FD8947630EF7040327C4FD8947AA
:1054200063E8E7000327C4FD8547630EF700D9A0B2
:105430000327C4FD8D476304F7060327C4FD914786
:105440006305F70845A8832784FD6358F00081456C
:105450001305A004EFE00FFD31A085451305A0045E
:10546000EFE04FFC8325C4FE13050030EFF06F9290
:1054700049A0832784FD6358F00081451305B004DB
:10548000EFE04FFA31A085451305B004EFE08FF946
:105490008325C4FE13051030EFF0AF8F99A8832742
:1054A00084FD6358F00085451305C002EFE08FF7D7
:1054B00031A081451305C002EFE0CFF68325C4FE7D
:1054C00013052030EFF0EF8C2DA0832784FD635768
:1054D000F00085452145EFE0EFF429A08145214505
:1054E000EFE04FF48325C4FE13053030EFF06F8AF0
:1054F00001000100B250225445618280011106CEA4
:1055000022CC00102326A4FE2324B4FE2322C4FEB2
:105510002320D4FE8325C4FE0545EFF09FE98325B3
:1055200084FE0945EFF0FFE8832544FE0D45EFF0CA
:105530005FE8832504FE1145EFF0BFE70100F2406C
:10554000624405618280011122CE00102326A4FE50
:105550008327C4FE21670327876B98C38327C4FE74
:1055600093060000D4C38327C4FE94C78327C4FED8
:1055700021670327C76BD8C78327C4FE3687D8CFD8
:105580008327C4FE98CB8327C4FED8CB8327C4FED1
:1055900098CF8327C4FE98D38327C4FE98D7832748
:1055A000C4FED8D38327C4FE23A607020100724499
:1055B00005618280011106CE22CC26CA0010232666
:1055C000A4FE2324B4FE8327C4FE84438327C4FEA1
:1055D000DC53BE85032584FEEF100079AA87BE85C3
:1055E0002685EF10604FAA873E878327C4FE98CB9D
:1055F0008327C4FEDC43832584FE3E85EF10C04D27
:10560000AA873E878327C4FED8CB8327C4FE84475E
:105610008327C4FEDC53BE853E85EF102004AA8795
:10562000BE85032584FEEF102074AA873E8783275A
:10563000C4FE9C57BE853A85EF104002AA87BE85FE
:105640002685EF106049AA873E878327C4FE98CF3E
:105650008327C4FED8538327C4FE98D78327C4FE6C
:10566000032784FED8D38327C4FED84F8327C4FEE4
:105670009C4BBE853A85EF00707EAA873E878327C4
:10568000C4FEDC4BBE853A85EF00507DAA873E877D
:105690008327C4FE9C4FBE853A85EF00307CAA87E5
:1056A0003E878327C4FED8CF8327C4FED84FA16787
:1056B00083A5C76B3A85EF100031AA876358F000C5
:1056C0008327C4FE21670327C76BD8CF8327C4FE77
:1056D000D84FA16783A5076C3A85EF102037AA87BA
:1056E00063C3070039A08327C4FE21670327076C23
:1056F000D8CF0100F2406244D244056182807971C2
:1057000022D60018232EA4FC232CB4FC232AC4FC8C
:10571000FD572315F4FE832744FD81E7231504FE7E
:1057200069A0832744FDFD17232AF4FC231704FEF8
:10573000BDA08357E4FE0327C4FDBA9783C70700C3
:105740001397070141838357A4FEB98F2315F4FEF5
:10575000231604FE1DA88357A4FE858B89CF83578B
:10576000A4FE8583139707014183E9778507B98FE5
:105770002315F4FE31A08357A4FE85832315F4FE80
:105780008357C4FE85072316F4FE0357C4FE9D47C6
:10579000E3F3E7FC8357E4FE85072317F4FE835702
:1057A000E4FE032744FDE376F7F88357A4FEA183C4
:1057B000139707014183832784FD85071377F70F2C
:1057C0002380E7008357A4FE13F7F70F832784FD98
:1057D0002380E7000100325445618280797106D64A
:1057E00022D40018232EA4FC232CB4FC232AC4FCAE
:1057F0002328D4FC8327C4FD93F7F70F2304F4FE7A
:10580000A30404FE832784FD93F7F70F2305F4FE1A
:10581000A30504FE832744FD93F7F70F2306F4FE48
:10582000A30604FE832704FD93F7F70F2307F4FE76
:10583000A30704FE130744FE930784FE2146BA859E
:105840003E85EFF0DFEB930784FE2146BE850145E0
:10585000EFF0CFFB930744FE0946BE850145EFF00C
:10586000EFFA0100B25022544561828013D74501FE
:10587000B7071000FD1713D846011377F77F930879
:10588000F07F33FEB700AA8EF58FFD81328F13783B
:10589000F87FFD82630B170105436306180163144B
:1058A0000701630DFE001A858280B368AE000543D0
:1058B000E39B08FEE319E8FED18FF5F70543E39477
:1058C000EEFF0143E381D5FE054371FF3365AE0072
:1058D0003333A000C9BF13D74501B7071000FD1728
:1058E00013D846011377F77F9308F07F33FEB70094
:1058F000AA8EF58FFD81328F1378F87FFD82630EBB
:105900001703630D180129E3B368AE00631F080095
:105910005D8E01EE0143638C080421A8B3E8C70043
:105920000943639608046DD305A063840804638566
:10593000D50205438DCD7D531DA8B368AE00094344
:1059400063970802630AE802631408005D8E75D24B
:10595000E391D5FEE34FE8FC63490701E3EBC7FDA4
:10596000630FFE0001436374FE00F1D505431A8501
:105970008280EDFE7D53E5BF5D8E79DACDBFE36AAF
:10598000DFFB0143E3F5EEFFF5F175B739714AD856
:1059900013D945014ED652D456D29399C50006DE8E
:1059A00022DC26DA5AD05ECE1379F97F2A8A93D97F
:1059B000C90093DAF501630D090E9307F07F6306C2
:1059C000F9181354D5018E09B369340137048000E6
:1059D00033E4890093143500130919C08149814BC0
:1059E00013D74601139AC6001377F77FB285135A6F
:1059F000CA0013DBF601630B07109307F07F630304
:105A0000F7049357D6010E0A33EA4701130717C06C
:105A1000B7078000B367FA00931536003A998148BA
:105A200033C76A01BD463A851308190063E8361783
:105A300017360000130646418A09B29983A6090069
:105A4000B2968286B367CA001309F97F6399071279
:105A500093E9290081458948E1B701479307F07F21
:105A60003704080081443204D20731807E075D8C00
:105A7000598CA285F250625426854259D254B259AB
:105A8000225A925A025BF24B216182805A853E84EF
:105A9000AE84C68B8947638DFB0E8D47E38FFBFA7F
:105AA00085472A87639EFB3881470144814465BF4F
:105AB00033E4A90061C036C632C4638C092A4E851E
:105AC000EF1050002246B246AA87130755FF7544CF
:105AD000938487FF198CB399990033548A003364F7
