:100000006F00904313000000130000001300000075
:100010001300000013000000130000001300000094
:100020001300000013000000130000001300000084
:08003000130000007300100032
:100038006FF09FFC000000006F00803C6F00803C68
:1000480000000000000000000000000000000000A8
:100058000000000000000000000000000000000098
:100068006FF09FF9000000006FF01FF9000000001A
:100078006FF09FF86FF05FF86FF01FF86FF0DFF721
:100088006FF09FF76FF05FF76F0080156F008015B6
:100098006F0020186F0080186F0080186FF0DFF570
:1000A8006FF09FF56FF05FF56F0000326FF0DFF4CF
:1000B8006FF09FF46FF05FF46F00401700000000CE
:1000C8000000000000000000000000006F00801524
:1000D8006F0000166F0060186F00801A6F00C01E56
:1000E8006F00C0256F0020276F00403B6FF0DFF0E6
:1000F8006FF09FF06FF05FF06FF01FF06FF0DFEFC1
:100108006FF09FEF6F0080276F0080276F00802BB4
:100118006F0080116FF05FEE6FF01FEE6FF0DFED94
:1001280000000000000000000000000000000000C7
:080138000000000000000000BF
:100140003D432A876373C3029377F700BDEFADE5A4
:10015000937606FF3D8ABA960CC34CC30CC74CC7B6
:100160004107E36BD7FE11E28280B306C3408A06E3
:100170009702000096966780A6002307B700A306A3
:10018000B7002306B700A305B7002305B700A304F3
:10019000B7002304B700A303B7002303B700A302EB
:1001A000B7002302B700A301B7002301B700A300E3
:1001B000B7002300B700828093F5F50F9396850072
:1001C000D58D93960501D58D61B79396270097023B
:1001D000000096968682E78086FA9680C1171D8F6A
:1001E0003E96E374C3F8A5B7730020300945EF00CD
:1001F000504C8547631CF50083A7418109476399EB
:10020000E700EF10D0730945EF00904C73002030E9
:10021000E39BA7FEEF10906AFDB71145EF00504B2E
:1002200073002030730020307300203073002030C2
:100230007300203073002030411122C63734014052
:1002400093050008130504C0EF10201919C5930584
:100250000008130504C0EF10001A32444101730076
:100260002030411122C6373401408545130504C0B2
:10027000EF10A01611C58545130504C0EF10A01797
:100280003244410173002030411122C6373401400D
:1002900093050004130504C0EF10201419C593053D
:1002A0000004130504C0EF10001537340140930516
:1002B0000002130504C0EF10401219C59305000297
:1002C000130504C0EF1020133244410173002030A5
:1002D000411122C6373401408945130504C0EF108F
:1002E000C00F11C58945130504C0EF10C010373485
:1002F00001409145130504C0EF10200E11C5914532
:10030000130504C0EF10200F37340140A145130539
:1003100004C0EF10800C11C5A145130504C0EF10F7
:10032000800D37340140C145130504C0EF10E00AC9
:1003300011C5C145130504C0EF10E00B3244410163
:1003400073002030854537050040EF10000911C5C6
:10035000854537050040EF10000A73002030411139
:1003600022C637040040854513050440EF10E0061F
:1003700011C5854513050440EF10E00732444101E3
:100380007300203073002030411122C637440040F2
:100390009305505213050440EF10C01A11CD930578
:1003A000505213050440EF10201E83A741810947D6
:1003B0006398E700EF10B0533244410173002030DE
:1003C0000547E39BE7FEEF103025FDB773002030B3
:1003D0004111096522C6EF0090238547631DF50092
:1003E0002A840965EF00B02483A7418109476398F7
:1003F000E700EF1030563244410173002030E39C97
:1004000087FEEF10504EC5BF7300203001A0411190
:10041000054506C6EF20003D2397A1840945EF203E
:10042000603C2398A1840545EF20203DB24009455A
:1004300041016F20803C6D779387C18A1307870D38
:100440002390E70003D7E184931687002183558F1B
:100450002391E700130710FB2382E7000397018530
:10046000935687402383E700130720FBA383E7000D
:1004700003D72185A382D700931687002183558F48
:100480002394E700130730FB2385E7000397E180FF
:10049000935687402386E7003957A385D700A38664
:1004A000E7008280011122CE3714004085451305F4
:1004B000048026CC4ACA4EC852C6EF0010726303AD
:1004C0000510130504808545EF00F072A16783A92C
:1004D00007BF03898189854723A8F900094A631A60
:1004E0004911EF10F00E0395C18593848184EF507C
:1004F0000062B777000003A6875583A6C755EF4073
:10050000301BEF50D03B8C4023AAA184EF502067D2
:100510008387C18788C02A8A639E070A0395A180C2
:10052000EF50902DAA855285EF50F01B63490500CE
:10053000130710022397E1808D47238CF1880387EE
:10054000918985476319F7188387A181639D0712F5
:10055000EF1010080395C18513898184EF50205B4B
:10056000B777000003A6875583A6C755EF40501400
:10057000EF50F0348325090023AAA184EF502060B6
:10058000B70700202A8A2320A900039527183305DE
:10059000A040EF507026AA855285EF50301D634C65
:1005A000A012130710022397E180A38C01888535E0
:1005B000593539469385C18A0945EF20C06585477D
:1005C00023AAF9007244E2445249C249324A056101
:1005D00073002030E39527F70395C1803305A040D1
:1005E000EF509021AA855285EF505018E352A0F4A5
:1005F000B9B71547631EE906EF10807D0395C185E5
:1006000093848184EF50A050B777000003A68755EC
:1006100083A6C755EF40D009EF50702A8C4023AA1B
:10062000A184EF50C0558387C18788C02A8985E798
:10063000039541803305A040EF50101CAA854A85E0
:10064000EF50D012E34DA0EE130710022397E18084
:10065000238C0188EDB5E39447EF03958180EF503B
:10066000B019AA854A85EF501008E35F05FCC1BDAB
:100670009387E1800396070093061002E311D6ECFE
:100680002390E7006DBD0947639CE704EF104074B9
:100690000395C18513898184EF506047B7770000C7
:1006A00003A6875583A6C755EF409000EF50302131
:1006B0008325090023AAA184EF50604C2A8A2320B5
:1006C000A90003956180EF503013AA855285EF5041
:1006D0009001E35805EC83879189E38A07EC21A810
:1006E0009387E18083960700130710026395E60065
:1006F00015472390E70083878189E38A07EA938778
:10070000E180839607001307A005E392E6EA154708
:100710002390E70069BD5D7186C6A2C4A6C2CAC0A7
:100720004EDE52DC56DA5AD85ED662D466D26ECE2F
:100730006AD0EF109059EF206054EF10205D9306BF
:100740000031014685450145EF10F03AB715070025
:100750009306100213060002938505800945EF20D9
:10076000403E95450D45EF10D0591546914505453C
:10077000EF1050792D46A9450945EF10B078EF00EC
:10078000707EEF10F00B930580070545EF10C07FDA
:10079000EF30B0748947238DF180238EF186AD4709
:1007A0002392F18411472391E1849307900301453B
:1007B0002397F180239E0182239D01822384018857
:1007C00023960184EF1010539387A1833EC2938731
:1007D000C1843EC4938741843EC6B7070020014AC6
:1007E00062C0138BC1831389E180938DC723EF30DF
:1007F0005072238FA1820947B70600206305E502E6
:100800008D476302F51685476317F5061387018444
:100810008357070015468507C207C187B3E7C7029C
:100820002310F70089A88397018499E71387061896
:10083000835707008507EDB705476398E70083D71F
:10084000E1818507239FF1803DA06398A70083D7AE
:10085000418285072392F18239A80D476398E7000A
:1008600083D7C1818507239EF18031A0114763940E
:10087000E700238D018003C4E18585471374F40FDD
:10088000E317F4F60387818989466305D73A9547CC
:100890006302F73A13057006EF20805603878188BC
:1008A000138C81839547631407128387A18189463E
:1008B000639D070E0397E189F94763C0E702B727F5
:1008C0000020039727769307F00463C8E700854765
:1008D0002384F188C1472310F90003170C008547D2
:1008E0006317F7000387A18919C3238D0188EF20BF
:1008F0001057838681882399A1849387218581EA73
:1009000003966184324703170700634EC7000386CE
:10091000818985451307B6FF1377F70F63F5E50067
:1009200009476314E60023900700039407001306A9
:10093000000A33074441130707056362E602038692
:10094000A18985451307E6FF1377F70F63E6E51CDA
:100950000387B1810946631BC710635C04102390B1
:100960004701528439A28397018499E713870618B7
:1009700083570700FD176DB505466396C70083D7FB
:10098000E181FD17C1B56396E70083D74182FD176A
:10099000D1B56396A70083D7C181FD17E9B511468C
:1009A000E39BC7EC238DE180F9B5E398D7F2039779
:1009B000E189F947E3C3E7F2B73700200397A7823D
:1009C000B707002083970718E3C3E7F039B7E316AA
:1009D00087F08316090041476394E6002310F9006D
:1009E000EF30D0482310AC0085476313F5029247DF
:1009F0008397070091EF83570B0085072310FB00B7
:100A000082478387C187A9EB02478947238EF186F6
:100A1000924703170B002390A70089476316F7003E
:100A2000224785472310F700A247839707008DEBE5
:100A3000E31505EA8387818999E7EF20D04D1305F7
:100A40007006EF2030718387A189E39807E81305CA
:100A50007006EF30D02651B58247238E01864DBFF8
:100A60000547E39CE7E6EF30504185BD19E3E348D5
:100A700080EE03160C0005476314E6002390070080
:100A80008395E189130700036351B70203878189C6
:100A90000946630CC70015466309C70005476396FE
:100AA000E6001307A0052310E90037070020896638
:100AB0001307C7239386864BBA969308C00B3A88D0
:100AC00001450346080005050508133686067D1610
:100AD000A30FC8FEE31715FF1307C70BE391E6FE4C
:100AE000039761889306F00F630FD700B306A70240
:100AF00001471305A00B3386E6006E96230006001F
:100B00000507E31AA7FE372700201307077013060F
:100B100010031308C00B0DA81147E31CE6F403876C
:100B2000B18131D70946E316C7F405BDB306060304
:100B3000031547067D16EE9636952300050003152E
:100B4000C712AA96238006007917E351B6FE130652
:100B500020039305C00B6E85EF1040010386918939
:100B600091450145EF00D0740386818991451305B5
:100B70000005EF00F07393872185039607009D45DC
:100B80000145EF00F0720396E1899D4513050005CC
:100B9000EF00107283D701841147636AF7021D6763
:100BA0008A0713070754BA979C4382873776000059
:100BB0001306065695450145EF00106BB707002058
:100BC00003960718954513050005EF00706E238FF7
:100BD0000184228A29B937760000130646569545C6
:100BE0000145EF0070680396E181E9BF37760000A8
:100BF0001306865695450145EF001067039641821E
:100C0000D1B7377600001306C65695450145EF006B
:100C1000B0650396C1817DB737760000130606578D
:100C200095450145EF0050640386A18193050005B9
:100C3000014561BF528461BF97010020938181D437
:100C4000174100201301013C177500001305C52F43
:100C500097F5FF1F9385053B1386818363FAC500D3
:100C60008322050023A0550011059105E3EAC5FE86
:100C70001385818397250020938545E96377B50027
:100C8000232005001105E36DB5FE9302800873A0D3
:100C9000023097F2FFFF9382623A93E21200739060
:100CA0005230EF20C00597020000938202A7739094
:100CB0001234730020301C4141677917F98F1CC131
:100CC000232005002322050023240500B707024046
:100CD00023260500138787006317E500D8431367B1
:100CE000F700D8C382801387C7016316E500D84395
:100CF0001367070FFDB7138707036318E500D84391
:100D00008566938606F0558FE9BF13874704631500
:100D1000E500D843BD66C5BF138787056316E500A8
:100D2000D843B7060F00C5B71387C7066316E5009B
:100D3000D843B706F000C1BF138707086316E50064
:100D4000D843B706000FC1B7138787406319E50082
:100D500003A747401367F70023A2E7408280138769
:100D6000C7416317E50003A747401367070FEDB7B7
:100D700093870743631BF500B707024003A747406B
:100D80008566938606F0558FC1BFB707024013876B
:100D900047446316E50003A74740BD66EDB71387D8
:100DA0008745E31DE5FA03A74740B7060F00E1BFFB
:100DB0001C4161773D0794517D8F9C45D58F9449A7
:100DC000D58FD449D58F944DD58FD44DD58FD4514F
:100DD000D58F9455D58FD98F1CC1DC455CC19C4102
:100DE0001CC5DC415CC582801C4189C593E71700A6
:100DF0001CC1828041677917F98FDDBF1C4101C694
:100E0000DD8D0CC1828093C5F5FFFD8DDDBF93178D
:100E1000350063DA0700B707024083A707407D8DDE
:100E20003335A0008280B70702409C43CDBF9317A3
:100E3000350063D70700B707024023A2A74082808E
:100E4000B7070240C8C382805841032805004C45BB
:100E500037060140930706403E979346F8FFB1C519
:100E600083250640F58D2320B640D043F18ED4C3B0
:100E70001443B3E6060114C3184190479346F7FFA5
:100E8000758E90C7D047F18ED4C7144541466399FB
:100E9000C6009447D98E94C7D447558FD8C782804F
:100EA000B6979443558F98C382801C43F58F1CC31B
:100EB0008280B70701401387074083A70740584B3C
:100EC000698F09C77D8D3335A000828001458280FE
:100ED000B707014023AAA74082809C4513F707016A
:100EE00013F8F70001C7D8413368E80083D505003F
:100EF00013F7F50F39C318418146854E3D4F930FC7
:100F0000800293028004214E3396DE00B3F8C500C0
:100F1000631116039398260033131F011343F3FF45
:100F20003377E300B318180133E7E800639FF70550
:100F300050C98506E39AC6FD18C11307F00F637503
:100F4000B70454412146854E3D4F930F80029302D2
:100F50008004414EB398CE0033F715016392E80246
:100F60001317260001173313EF001343F3FFB37673
:100F7000D3003317E800D98E639DF701232A1501AA
:100F80000506E319C6FD54C18280E39457FA10C9DF
:100F90004DB7E39757FE23281501DDB719C20CC9D9
:100FA00082804CC98280B707014063550504D44F45
:100FB000B7073000131705013376F5004183631D31
:100FC000F602370600F17D1637080140B3F7C60078
:100FD00083264800758E2322C80099C59356550173
:100FE00092063317D700D98F37070140635E050299
:100FF0005CCF8280D4436DBF9317B50063D00702E6
:101000009357050113F6F7008D47B397C70093C7B1
:10101000F7FFF58FB706000FD58FC1B7935755016E
:101020009207B317F700E5B75CC3828013F7C50FCB
:1010300093F73500B7050140BA9594458A073D47B7
:101040003317F7001347F7FF758F98C59845331589
:10105000F500598D88C5828037E700E03C4783461C
:101060000500898B85CB834725003697920793F738
:10107000F70F2300F740054793D756003317D700E3
:10108000544195CA938707048A07B7E600E0B697EC
:1010900098C382803C47898BF9FF834725008345AD
:1010A00015000546369792076394C50093E707F845
:1010B00093F7F70F7DBF93870706F9B737170240FD
:1010C0005C439146B18B6385D700A1466386D70602
:1010D000B7177A00938707201CC1371602405C427D
:1010E00037070020130707009183BD8BBA9783C68B
:1010F00007001C41B3D7D7005CC15442A1829D8A2E
:10110000BA9683C60600B3D6D70014C55442AD8242
:101110009D8A369703470700B3D7E7005CC558425E
:101120003983937637001387018136970347070089
:10113000B3D7E7021CC982805C435443C983BD8B8B
:101140001396F60089076349060037173D00130719
:101150000790B387E70249B758439316E700E3C601
:1011600006FE37177A0013070720E5B799C537172A
:1011700002405C4B5D8D48CB8280B7170240D84B54
:101180001345F5FF798DC8CB828099C5371702408A
:101190001C4F5D8D08CF8280B7170240984F1345D2
:1011A000F5FF798D88CF828099C5371702405C4F53
:1011B0005D8D48CF8280B7170240D84F1345F5FFA9
:1011C000798DC8CF8280035705008D679387070408
:1011D00083D625007D8F83D70500D58F83D6450024
:1011E000D58F83D66500D58F83D68500D58F83D6DE
:1011F000A500D58F83D6C500D58F83D6E500D58FC2
:10120000D98F2310F5000357C501FD779387F77F2A
:10121000F98F231EF50083D705012318F50082807E
:101220008357050091C593E707042310F5008280DA
:10123000C207C18393F7F7FBC207C183FDB783578A
:10124000050037370140130707C0C207C183630099
:10125000E50237070040630CE50013070740630809
:10126000E50037170040130707806317E50003D731
:10127000250093F7F7F8D98F03D7650093F7F7CFD9
:10128000C207C183D98F2310F50083D745002316E9
:10129000F50283D705002314F502B7370140938781
:1012A00007C06316F50083C785002318F50285473C
:1012B000231AF5008280FD572312F5002310050044
:1012C00023130500231105002304050082808357A2
:1012D000050091C593E717002310F5008280C2072F
:1012E000C183F99BC207C183C5BF8357C50009C627
:1012F000DD8D2316B500828093C5F5FFFD8DD5BF2A
:10130000EDB783578500A2064D8E93F7F70FD18E68
:10131000D58FC207C1832314F5008280411122C4F6
:1013200006C62A84F93F83578400B240C207C183AE
:1013300093F787F893E777072314F40022444101D9
:10134000828083578500C207C18393F7F7F8DD8D4C
:101350002314B50082800358850003578501835705
:101360000502420813580801C2074207C1839206CA
:101370004183137888FF93F7D7FD558EB365B80086
:101380001377C7CFD18F2314B50013671710C20787
:10139000C183231CE5002310F5028280835785005A
:1013A000C207C183E19BC207C1832314F5008357A1
:1013B0008500DD8D2314B500828083578500C20728
:1013C000C18393F7F7F7C207C1832314F50083574E
:1013D0008500DD8D2314B5008280835705010355F8
:1013E000C500ED8F4205418189C76D8D3335A00061
:1013F00082800145828093C5F5FFC205C181231813
:10140000B500828083560501F577FD17F58F83D6E9
:101410006500397122DC06DED58F03D7C50023189D
:10142000F5008356C500FD779387379FF58F83D6E8
:1014300045002A842EC6D58F83D68500D58F83D6C6
:10144000A500D58F2316F50083574501C207C18338
:1014500093F7F7CFD98F231AF50068088531B7477E
:10146000014093870780B245631EF404A257835658
:10147000C4006547B387E702C206C186984163D5B9
:10148000060406070356C4004206B3D7E702130753
:1014900040064186B3D6E702B3F7E70292066357E8
:1014A00006028E0793872703B3D7E70213F7770067
:1014B000B367D700C207C1832314F400F25062540B
:1014C00021618280925765B70A076DBF92079387A3
:1014D0002703B3D7E702BD8BD58FE9BF81C98357F7
:1014E000C5000967D98F2316F50082800357C50010
:1014F000F977FD17F98FC5BF13F7F50F85471583EA
:10150000B395B7006319F7009307C500984301CE60
:10151000D98D8CC38280894693074501E318D7FE95
:1015200093070501E5B793C5F5FFF98DDDB793F591
:10153000F51F2312B5008280035505006D8D3335EC
:10154000A000828013F7F50F85461583B397B60088
:101550006313D7020357C500F98F035705000145F0
:101560004207418381CB0545A181B315B5006D8F3D
:101570003335E000828089466315D70003570501A3
:10158000E1BF03574501C9BFA1818547B397B700A4
:1015900093C7F7FFC207C1832310F50082800111B2
:1015A000A16722CC03A487BF26CA06CEA16444C883
:1015B0009167A307A1005CC89305F1008546014629
:1015C0000145EF106045F24004C86244D244056111
:1015D00082800111A16722CC03A487BF26CA06CE50
:1015E000A16444C81306F1009167A307A1001CC8B9
:1015F0008546B2850145EF102042F24004C862449E
:10160000D244056182800111A16722CC03A487BF67
:1016100026CA06CEA16493178500218144C85D8D3A
:10162000700091672316A1001CC88946B285014548
:10163000EF10803EF24004C86244D24405618280CB
:10164000011106CE22CC1307F0096371A702B77609
:1016500000001D669386465813064657930570058D
:101660003775000013058559EF4070439307F00765
:1016700063FCB700B77600001D669386C65C130650
:10168000465793058005E9BF637CC700B776000025
:101690001D669386065E130646579305A005C9B7D7
:1016A00063FCD700B77600001D669386065F1306BD
:1016B00046579305B0056DB72A841305A00236C6B8
:1016C0002EC232C4E93D01452937130514001375B4
:1016D000F50F01370145F53D224605061375F60F56
:1016E000CD3D1305B002653D0145E53592458905BF
:1016F00013F5F50FF93D0145E93DB246890613F5AD
:10170000F60FC13D6244F2401305C002056141BDC0
:1017100001114AC89306F0072A891306F00981458A
:10172000014522CC26CA4EC606CE8144113F014453
:101730009309000A05044A851374F40FE935E31B85
:1017400034FF850493F4F40F93978401E18763D900
:101750000700F2406244D2444249B24905618280A6
:101760000144C9BF011101481307F00481479306E2
:10177000300205468145014506CE22CC26CA4AC81C
:101780004EC6EF10601B93060031054685451305D4
:10179000F004EF00503693060031014685451305ED
:1017A000D004EF00503593060031014685451305FE
:1017B000E004EF005034A16783A987BF83A7418766
:1017C0000969130409F4B3D78702294523AA29011B
:1017D00081453385A702EF10C02703A5418723A8C1
:1017E00029011309800733558502814533052503F7
:1017F000EF1020264545653303A5418781453355C4
:10180000850233052503EF10C0241305100B413B5F
:101810000545C1331305C0026D3B1305D002553B8E
:101820001305200BAD3B05456D331305C002553341
:101830001305D002793B1305300B95330545513B19
:101840001305C00279331305D002613305455133C6
:101850001305C002BD3B1305D002A53B1305400B89
:101860003D3B1D45BD331305000C153B1305200AF8
:101870008D330945B93B13054008A13B1305100CF6
:10188000393B1305500CB1331305200C093B294596
:10189000893301453D3B1305300C11331305A00876
:1018A0000D3B1305A00235331305400CCD3913054C
:1018B000A00805331305E00E293B1305500CC53174
:1018C0003945013B13056003D9391305000611336F
:1018D0001305000EE9313D45ED396945DD393D45DA
:1018E000CD396145FD311305F002E5311305800264
:1018F000CD3113050002F13913052002D9397D4598
:10190000C9396D45F93113053002E1311305700312
:10191000C93101457D391D456D3909455D3941455F
:101920004D391305100EA5393D4565316D455531CD
:101930003D4545315D45713913053003593913056E
:10194000C00241391305900269311305E00251319B
:1019500013050003BD3913050003A53913059003D2
:101960008D391305F003B5310145A5311D4595317C
:101970000D4585314145B1391305A0020D310145B1
:1019800089390945B9310145A9311305200891313B
:101990001305B002293101452D390D451D39014589
:1019A0000D391305300835311305000FCD3E0545BF
:1019B0000D311305600FE536014521391305A003EC
:1019C000F93E1545393113059002D13E6244F2408B
:1019D000D2444249B24941657D15056115BB797113
:1019E0009D6756CA62C4AA8A120693870760130CC1
:1019F0007500416522D44AD052CC5AC85EC666C230
:101A000006D626D24ECEAE8B3304F6000149930C97
:101A1000F5FF130A0580414BB3862B016286B6851C
:101A20005685EFF0FFC1834904E0A14493F7190004
:101A3000528591E36685FD1493F4F40FEFF0BFBC7B
:101A400093D91900E5F405090504E31769FDB250BF
:101A5000225492540259F249624AD24A424BB24B42
:101A6000224C924C456182800111920526CA9394C2
:101A7000050122CC4AC84EC606CEAA893289C18049
:101A80000144B30789000386070001EAF24062447B
:101A9000D2444249B24905618280131534004E9503
:101AA00042050504A68541814204153F4180D1BF0E
:101AB0007971920522D426D24AD006D6139905010F
:101AC0004ECEAA84328413590901635C060833049C
:101AD00080401306D002CA854204113741848967C9
:101AE00093870771B347F4021307803E930981007F
:101AF0003347E4022304F100A9473367F702A30444
:101B0000E100130740063347E4023367F702230579
:101B1000E1003347F4023364F4023367F70223062B
:101B2000810013848400938404034204C20441802E
:101B3000C180A305E10003C6090022852104130624
:101B40000603620642046186CA854180493D8509D3
:101B5000E39384FEB250225492540259F2494561F3
:101B6000828013060002CA859D3D95BF797122D4FB
:101B70004AD05AC806D626D24ECE52CC56CA5EC6D7
:101B800062C49307000A2A8B2E891304000A63E3B8
:101B9000B7002E844204930700084180B28463F4A6
:101BA000C70093040008C204C1809386F4FF1306A3
:101BB000F4FF81450145EFF0BFA8014A814963E484
:101BC0009904B250225492540259F249624AD24ABC
:101BD000424BB24B224C45618280B3D78B02850ABF
:101BE000CA9BE29783C7070013D537008983131771
:101BF000B5009607D98F5D8DEFF0FFA0E3EF8AFC6B
:101C000085094A9A6DBF814B814A330C4B01FDB760
:101C10000111A16726CA83A407BF22CC056406CEA2
:101C2000130404807000C0C82306A100A306B100FD
:101C30008946B2850545EF00305EF24080C86244B7
:101C4000D244056182800111A16726CA83A407BF1F
:101C500022CC05644AC806CE13040480C0C883C7DA
:101C600005007000136505F82E892306A10089463A
:101C7000B2850545A306F100EF00105A8347D10055
:101C8000F2402300F90080C86244D2444249056111
:101C900082804111A16726C283A407BF22C40564C4
:101CA00006C613040480C0C82A86AE86AA850545E8
:101CB000EF009056B24080C8224492444101828095
:101CC000797122D4096426D24AD04ECE06D6A30713
:101CD0000100130404F41549C9449305F1001305E8
:101CE0005007953703A54187814533558502330554
:101CF0002503EF0010568347F100E39097FEB250A2
:101D0000225492540259F24945618280797126D257
:101D100083A7418722D40964130404F4B3D787024C
:101D20002945814506D64AD04ECEA3070100A949D0
:101D3000130910043385A702EF00B0510948814709
:101D40002D47930620021306100293050002054555
:101D5000EF00903EB537930500081305B0064D3DE2
:101D600003A541878145335585020605EF00704E76
:101D70009305F1001305B006F93503A541878145A8
:101D80003355850233053503EF00B04C8347F1002E
:101D9000E39027FF85451305B0069D3D814513055A
:101DA000C006BD3585456945A5359D4565458D35DB
:101DB000E1456D45B13DC1457145993D8D4575453F
:101DC000813DB250225492540259F24945618280B9
:101DD0000111930730FC28009D4506CE2304F10035
:101DE0004D3D834791000347A100F240A207D98FE0
:101DF000239CF1848347B1000347C100A207D98F18
:101E0000239DF1848347D1000347E100A207D98FC6
:101E1000239EF18405618280A16783A7C7C91387C8
:101E2000318683D547008347070093860186338632
:101E3000F600850793F7F70F2300B6002300F7009D
:101E40000546639BC70083C606009307500A638C50
:101E5000F6002300070082808D466396D70023009A
:101E600007002382C1868280797126D222D44AD08B
:101E70004ECE52CC56CA5AC89387418606D60969B7
:101E8000AA8A238007002E84938945029384418681
:101E9000130B50FA130909F48357040011466C0020
:101EA000A306F1008357240056852306610113978A
:101EB0008700A183D98F2317F100EF00D05503A528
:101EC000418781451104335525030605EF0070381D
:101ED000E39489FC83C7040093F7F70FE5DF93874A
:101EE000018603C7170083C72700238004009306D9
:101EF000F00F6310D700E39EE7FEB25022549254D5
:101F00000259F249624AD24A424B45618280797154
:101F100026D24AD07D7922D44ECE52CC56CA06D68D
:101F20002A8A2E84938905021309591A93840186FB
:101F30008357040011466C0013978700A183D98F43
:101F40005285231621012317F100EF00D04C13878F
:101F500041868347070093F7F70FF5DB83C714002B
:101F60002300070003C72400A2071104D98F231FF1
:101F7000F4FEE39F89FAB250225492540259F24976
:101F8000624AD24A45618280FD7701119387570AE0
:101F90002316F10093978500A181DD8D2317B100F1
:101FA00011466C0006CEEF00104713874186834729
:101FB000070093F7F70FF5DB9387018623000700EF
:101FC00003C7170003C52700F2402207598D05619A
:101FD0008280411113068004B145054506C62129BA
:101FE000B2408546014685455D45410185A9B1451B
:101FF0000145B1A4411122C426C206C613047004CF
:102000009304000422859146014681457D14E52410
:10201000E31A94FE03A601878966B71501403705C8
:1020200002409386864BA105130545043D2A2244B0
:10203000B24092448546014681457945410139A91E
:10204000054723AAE1808965B707002041119387DE
:10205000C723C546414693850558054506C623A8AE
:10206000F18622C426C2EF00D02D85450545EF003C
:10207000903D01454121B70400201384418693859A
:102080000401054523000400EFF07FE8B7050020B8
:1020900093850503054523000400EFF0FFDC9385DD
:1020A0000401054523000400EFF07FE63929993744
:1020B0003D3F2244B2409244410121BF83C7E185A4
:1020C00093F7F70F85E3B7070240F843C166F916A7
:1020D000758FF8C309671307874BB8C7F8431367B1
:1020E0001700F8C382800547238FE1848280A167AF
:1020F00083A7C7C91387C18683D5470083470700D5
:10210000938681863386F600850793F7F70F2300C1
:10211000B6002300F7000546639BC70083C6060090
:102120009307500A638CF6002300070082808D46D7
:102130006396D70023000700A385C18682800567C8
:10214000B707024013070796B8C7F843136717008D
:10215000F8C382800547A382E186B7060240FC42AD
:1021600041677917F98FFCC282805D71B707024021
:10217000A2C4A6C2CAC04EDE86C6138787002A84C0
:10218000AE893289B684630AE5021387C701630604
:10219000E502138707036302E50213874704630E12
:1021A000E50013878705630AE5001387C706630602
:1021B000E50013870708631BE50485450545EFE047
:1021C000FFFA2285EFE03FAF930700083ECC4C00BA
:1021D0008D6722853ED44EC24AC426C802C602CAB2
:1021E00002CE02D002D202D6EFE09FBC2285054685
:1021F0008945EFE0BFC022858545EFE0FFBEB640D0
:10220000264496440649F2596161828013878740CB
:102210006304E5021387C7416300E5029387074320
:10222000630CF500B7070240138747446306E500D7
:1022300093878745E317F5F88545094549B70111A7
:1022400022CC26CA2A84AE840545854506CEEFE019
:10225000DFF335EC0565854513050580EFE0FFF2FA
:1022600091460146268581457920C167FD173EC408
:10227000A167938787C40A043E9400404C0002C2C1
:10228000228523060100EFE09FFB8146216622851F
:102290008145EFF0AF88228593050007EFF06F8A44
:1022A00022859145EFF08F8F228593050008EFF08E
:1022B000CF9022858545EFF08F8122850546916577
:1022C000EFF00F84F2406244D2440561828085477A
:1022D0006317F40085450545EFE01FED51B78947C9
:1022E0006315F40085450945C5BF8D47E31AF4F62B
:1022F00085451145D5B713070008630CE50C7971C6
:1023000022D426D24AD04ECE52CC9357550006D670
:1023100013FA77001374F501B684B2892E89B5E3F8
:1023200085451145EFE07FE68547339487004204F9
:102330004180231281006319F90093970401C1833E
:10234000A18391E38D473EC4A1670A0A938707BF23
:10235000D29793F4F40F26C684434C002685EFE011
:10236000DFB785476317F9004E86A2852685EFE023
:10237000FFC2B250225492540259F249624A456156
:10238000828005476395E7008545214561BF094780
:102390006395E7008545414571B70D476396E700B2
:1023A000854513050002BDBF11476396E7008545CB
:1023B0001305000485BF15476396E700854513059F
:1023C00000088DB71947E391E7F68545130500101E
:1023D00091BF8280135735009376C7012167130799
:1023E00007BF36971C43984785473395A700798DDB
:1023F0003335A0008280797122D44AD02A842E8974
:102400000545854506D626D232C6EFE01FD8B2462E
:10241000014622858145EFF01FEE9374F4011355B8
:102420005400A6851375F50FEFE05FC08547B394A0
:102430009700080826C84ACC02CA3ECEEFE0DFA0CB
:10244000B25022549254025945618280B7E700E0AD
:102450007D5723A0E71823A2E718828001112304E7
:10246000A10028002305C10036C606CEA304B10092
:10247000EFE09FBE37E600E01842B7270020FD7668
:10248000F98E03A7476F558F23AAE76E58429387AB
:10249000476FD44312071183558FD8C303C78700F2
:1024A00085476313F7005D37F24005618280B727E7
:1024B000002083A6476F37E700E09387476F23200C
:1024C000D710DC432322F710828001113727002028
:1024D00006CE9307476F85462384D7000325476FB1
:1024E000DC435D8D3335A0002AC68D37F24032457E
:1024F0000561828011E5B7270020238E076E45BF56
:102500008280011122CC26CA06CE2A84AE841DE523
:102510000565854513050580EFE03FC7A1E0B78657
:102520000000216637850000938686C1130606C029
:10253000930520031305C5C1EF3070568547631618
:10254000F5008545EFE05FC6D1BF8947E30BF5FE97
:102550008D47E315F5FC85451145EDB783A7418708
:102560001307007D8604B3D7E7022167130787C4EA
:10257000FD14231291004C002315010023130100C8
:1025800023060100FD172314F10093172400BA97C6
:1025900084432685EFE0BFCA854526850546EFE0E2
:1025A000DFD485452685EFE01FE50DE08546094629
:1025B000854513059002EFF07FEA26858545EFE01B
:1025C0001FD1F2406244D24405618280854763187E
:1025D000F4008546094685451305C002E9BF8947D1
:1025E0006318F4008546094685451305D002E1B716
:1025F0008D47E314F4FC8546094685451305E00242
:102600005DBF411122C406C62E841DE191460146DC
:1026100081452145EFF03FCE8547631DF406914685
:102620000146814525452244B24041016FF0BFCCAF
:1026300009476317E5009146014681450145D9BF29
:1026400011476317E5009146014681453D45D9B7DD
:1026500019476316E50091460146814565BF21474C
:102660006318E500914601468145130560045DB796
:1026700029476318E500914601468145130540024C
:1026800051BF3147E31AE5F89146014681451305EC
:10269000600249B78D476317F400914601468145B2
:1026A000054551B795476318F400914601468145A9
:1026B000130530028DBF9D476317F4009146014614
:1026C00081451D458DB7A5476318F4009146014625
:1026D00081451305700481BFAD476318F40091462E
:1026E00001468145130550023DBFB5476318F4000C
:1026F0009146014681451305700235B7B240224428
:1027000041018280011122CC26CA4AC806CE2A8401
:102710002E89B28441E10565854513050580EFE00A
:10272000DFA6A6854A85EFF0DFED85450545EFE09C
:10273000DFA591476310F90895476399F4003705C1
:102740001800854513050530EFE0FF854800EFE0F0
:102750009FB685473EC2C167FD173EC4A1679387F8
:1027600087C40A043E9400404C00230601002285E1
:10277000EFE0FFAC2285814601468945EFE0BFBD11
:1027800022858545EFE0BFB4F2406244D24442491D
:102790000561828085476316F5008545EFE0DFA07F
:1027A00049B78947E30BF5FE8D47E31CF5F68545F0
:1027B0001145EDB7A147631BF900A547E398F4F86D
:1027C00037151A008545130505C0BDBFA947E31F8E
:1027D000F9F6AD47E39CF4F637151A008545130565
:1027E00005809DB7A1670A05938787C4AA979C4374
:1027F00003D54702420541858280A1670A05938778
:1028000087C4AA979C43239207028280411122C465
:1028100026C24AC006C6AE843284368921E99306B0
:102820008031054685451545EFF0FFAC854763933C
:10283000F40893068031054685451D45EFF0BFAB92
:1028400089476318F40A9306803105468545194582
:10285000EFF07FAA2244B24092444A85024993068F
:1028600000310546854541016FF0FFA8C147631956
:10287000F5009306803105468545130530026DB796
:10288000930700026319F5009306803105468545DC
:102890001305D00251BFB78600002166938686C615
:1028A000130686C59305D002378500001305C5C6FB
:1028B000EF30F01EC5476399F4009306803105465A
:1028C0008545130550029DBF930710026399F400DC
:1028D00093068031054685451305F00285B7B78616
:1028E00000002166938686C6130686C593052003DD
:1028F00065BFC9476319F4009306803105468545D5
:1029000013054002B1B7930720026319F400930640
:102910008031054685451305E0021DBF930730024F
:10292000E30AF4F2B78600002166938686C6130692
:1029300086C5930580038DBF397122DC26DA4AD81B
:102940004ED652D456D25AD006DEAA84AE89328AE6
:10295000B68A3A8B3E84428949E505658545050579
:10296000EFE0BF82DA865686D2854E85EFF01FEA09
:10297000B70704013EC62318010085476301F40828
:1029800035C809476302E4088D466302D4088A0407
:102990001385C1822695004193070020231BF10077
:1029A0000E099D476C002285231EF100231C210186
:1029B000231D0100EFE03F81C1476396F900854583
:1029C0000545EFE04FDE22858545EFE07F85F2503B
:1029D0006254D2544259B259225A925A025B21612E
:1029E00082808547E310F5F8116585450505EFE020
:1029F000AFFB8DBF23190100231A010049BF231922
:102A00000100231A810061B723198100F5B723194A
:102A1000E100231AF100A5BF0A059387C182AE9693
:102A2000AA976393B600828098430355870009896B
:102A30006DDD850503C5F5FF2316A7007DD203557F
:102A4000870005896DDD0357C7000506A30FE6FE65
:102A5000C9BFB7F700E023A0070023820700A382C5
:102A6000070023830700A383070023840700A384B0
:102A70000700238507000547A385070098C337F79C
:102A800000E05C43FDFDE37EF5FE8280411106C659
:102A900015E185476394F50A930680310146254583
:102AA000EFF07F859146014681452945B2404101BD
:102AB0006FF07F8489476310F502930680310146E9
:102AC000854513056002EFF01F839146014681455D
:102AD00013057002E1BFC147631EF5009306803104
:102AE000014685450945EFF01F8191460146814524
:102AF0000D456DBF930700026310F5029306803108
:102B0000014685451305A002EFF0EFFE9146014610
:102B100081451305B00259BF930720026310F502E7
:102B200093068031014685451305A004EFF0AFFC04
:102B30009146014681451305B0048DBFB240410165
:102B40008280797122D44ECE2A84AE89054585458E
:102B500006D626D24AD0B6843289EFE00FE3A685A6
:102B60004A85EFF0BFF28947631AF9048D476396EF
:102B7000F40085451145EFE00FC331EC8545116543
:102B8000EFE0AFE0B7070C003EC4A167938787C9A9
:102B90000A043E9400408A854EC0228502C2231654
:102BA0000100EFE03F8622858545EFE03F93B2507C
:102BB000225492540259F2494561828093072002BF
:102BC000E31DF9FA93073002E399F4FA370514008C
:102BD000854541054DB785476318F40085453705A0
:102BE0000200EFE06FDC79BF8947E31DF4F885450B
:102BF00037050400FDB7A1670A05938787C9AA971F
:102C000098438357070093F70708E5DFC205C181A2
:102C10002312B7008280411122C426C24AC006C6D0
:102C20002A892E84B384C50063189400B2402244DC
:102C3000924402494101828005048345F4FF4A859C
:102C4000EFF07FFBD5B7A16713172500938787C9DE
:102C50000111BA9722CC2A8488432EC605469305D3
:102C6000505206CEEFE05F89130554036244B2462A
:102C7000F2400146814505616FF04FFEB7170240F3
:102C8000DC4337177A0013070720C983BD8BB3874E
:102C9000E7023727F40013070740F1658546014630
:102CA000938505200145BA9723AAF1866FF07FE945
:102CB0000111A1674AC803A987C922CC26CA4EC6FA
:102CC00006CEAE89B2840144634A9400F240624465
:102CD00026854249D244B2490561828093050004A9
:102CE0004A85EFE07F857DD9B3878900838507001A
:102CF0004A850504C205C181EFE07F83F1B7B717AC
:102D000002409843B706FFF841111367170098C3B4
:102D1000D84337060200758FD8C39843B706F7FE2D
:102D2000FD16758F98C39843B706FCFFFD16758F87
:102D300098C3D843B70681FFFD16758FD8C33707F0
:102D40009F0098C702C402C69843C166558F98C3B6
:102D5000B7160240130700509C42F18F3EC6A247AF
:102D600085073EC4B24781E7A247E397E7FEB7175E
:102D700002409C431397E7006352070885473EC60D
:102D800032478547631AF706B72702409843B706CC
:102D9000C1FFFD161367070198C39843719B98C341
:102DA00098431367270098C3B7170240D843D8C386
:102DB000D843D8C3D843D8C3D843758FD8C3D843D2
:102DC000B7062500558FD8C39843B7060001558F25
:102DD00098C3984393166700E3DD06FED843B71601
:102DE0000240719BD8C3D84313672700D8C321473B
:102DF000DC42B18BE39EE7FE4101828002C649B707
:102E000093071003239FF1881D718387A189A2CEA8
:102E10001384218922C61384C18823980188239FA3
:102E200001861387C7FF22C8938501891384A1886F
:102E30009386E187A6CCCACACEC8D2C6D6C4DAC2A7
:102E4000DEC062DE66DC6ADA6ED8239901882396DA
:102E50000188239501881377F70F054E22CA2ECCDF
:102E600036CE1386E1896369EE1C8386B18195C2F3
:102E700089451307A0056384B600130780029145B6
:102E8000639EB71A8945930780FD639BB60081470F
:102E900001A811476387E71A13078002930760FAB6
:102EA00093066004370F002037330020239BD1881E
:102EB000839341899387E7058142130E6004930E43
:102EC0001003014493061003938861899385418917
:102ED0009304C00B130FCF23130383921309F00243
:102EE0001307E705338896027A983E98034808004E
:102EF00063740501FD16FDF613980601939F1700F4
:102F00009A9F1358084123900F01938F97FB636E8C
:102F1000F901931F1E009A9F839F0F0063D70F0133
:102F2000139E0701135E0E41854263D8D601939329
:102F3000070193D30341C28E054485076355F710FB
:102F400009C4239075002310D601638402002390E6
:102F5000C80183170600839F05003EC0039F81813F
:102F60008396A187138EA187338BEF4172D2373EB0
:102F7000002093072BFE130E0EAAFA9F3EC272D4B6
:102F80009387EF01373E0020039681873EC4138963
:102F90008187B72700203737002037230020130E02
:102FA000CE824AD093870770130707891303836380
:102FB000814B8142014C8143814C8148014A8145CA
:102FC0000144814A01488144930E10030549930945
:102FD000A00B72D6024E63D5CE1D81C482572390BA
:102FE000C70063850A00D2472390070101C49257A6
:102FF0002390D70063050A00E2472390B70063855A
:103000000C00F2472390170163050C00C247239080
:10301000770063850B00B247239057007644E6445F
:103020005649C649364AA64A164B864B725CE25C44
:10303000525DC25D2561828013078002930780FD87
:1030400085B50147A1BD9306100369BD631C0E0041
:1030500005084208A308270313580841854A8544F8
:1030600001460DA0330EEE41634E0E00B30DC301B9
:1030700083CD0D00E3FCADFC13160E014186A308C1
:10308000070285447E8E63CEC901B30DC30183CD93
:103090000D0063F9AD1093160E01C186A30A07084F
:1030A0000544330ED600135E1E40225D2393C70DE8
:1030B000338EC640420E939D1E00EA9D135E0E4164
:1030C0002391C7062395D7122390CD01254D63493F
:1030D000CD07B25C138E18008608E698420E239046
:1030E000D801F948135E0E4163DF68019248B30CC2
:1030F000130183CC0C0063F5AC0C139608014186D8
:10310000A308070285449308C00963CFF801A248C9
:10311000B30C130183CC0C0063F5AC0C939608013F
:10312000C186A30A07080544B308D60093D81840FF
:103130002393170D2391C7062395D712F288854C48
:10314000130E10036388CE0503DE270683DD4706D2
:10315000130DC002590E330EBE41420E135E0E0116
:103160006377CD018503C20393D30341054C03DE8E
:10317000A71283DDC712130DC002590E330EBE41D4
:10318000420E135E0E016377CD018502C20293D217
:103190000241854BFD1EF9177D17130343F41DBD36
:1031A0005A8ED9B5631C3E018505C205A30A2709BD
:1031B000C185054A05449306A00BE5B57A9EE1B5A5
:1031C000639C080005084208A30827031358084118
:1031D000854A8544014605BFB388E841E3D908F034
:1031E0001DB7639C38018505C205A30A2709C1855F
:1031F000054A05449306A00B05BFFA98E3DA19F1D6
:1032000025B76309B5069377F50F63F4A50093F727
:10321000F50F8396E189014763CFD7041307200395
:103220003306E602B728002093860870014393888E
:1032300008702A8EAE8E130FA00BA94F9142330750
:10324000F60085073308F600060706083697C2968B
:103250000347070083C6060093F7F70FB306D7406E
:10326000E206E1861377FE0F6374B50013F7FE0FD5
:1032700063E5E70005473A8582803307F6000607D5
:1032800046978507031807003307F6000607469799
:10329000034707003307E8406207618763040800BB
:1032A0006313E801050363C96F00158F090763E520
:1032B000E20093F7F70F7DB7014775BF61E6B1E212
:1032C000372700209317150013070770BA97654634
:1032D0006348B5001307F00F2392E188014582800F
:1032E0003E87839607000317270089073387E64048
:1032F0006355E6002392A18851A00505420541854A
:10330000C1BF8547E398F6FCF515C205C185B7270F
:1033100000201397150093870770BA9715430D4641
:1033200091481398050113580841E35505FBFD1515
:103330006358B504039707006354E304839627009A
:10334000B306D740635ED60283964700B306D740E4
:103350006358D60283966700B306D7406352D602FD
:103360008396E7FF158F090763ECE8000397C7FF13
:10337000998E890663E6D8002392018905458280EB
:10338000F91745B78DEA3727002093171500130763
:103390000770BA971D56E35FB5F23E878396870C98
:1033A0000317A70C89073387E640E345C7F40505F3
:1033B00042054185CDB78547E39EF6F0F515C20578
:1033C000C185B72700201397150093870770BA9718
:1033D0001303700B75569148139805011358084153
:1033E000E35A05EFFD156354B5040397870C63009A
:1033F00067048396A70CB306D74063DAC6028396A8
:10340000C70CB306D74063D4C6028396E70CB30655
:10341000D74063DEC6008396670C158F090763E803
:10342000E8000397470C998E8906E3F7D8F4F9175B
:1034300065B7F915C205B7270020C185090593872F
:10344000077011EA7946634BB5041307F00F239117
:10345000E188014582801306D009E358B5FE138741
:10346000450606073E97031707006345E602938665
:1034700025068606BE9683960600B306D740634BA4
:10348000D000938665068606BE9683960600158F45
:1034900063400704FD15C205C185C1B71397150028
:1034A0003E97031707006359E6029386E5FF8606F9
:1034B000BE9683960600B306D74063CF0600938678
:1034C00025008606BE9683960600158F6356E0009B
:1034D0002391B18805458280FD15C205C185A5B738
:1034E00069E6B1E6372700200D05130707703D4652
:1034F0006348B5001307F00F2390E18801458280EF
:1035000093971500BA97839607009387D5FF860790
:10351000BA9783970700B387F6406356F600239067
:10352000B18805458280FD15C205C185D1B78547A3
:10353000E392F6FCF115C205B7270020C1851105FD
:1035400093870770E358B5FA1387450693862506D7
:10355000060786063E97BE96031707008396060069
:10356000B306D74063DF0602938605068606BE963D
:1035700083960600B306D74063D506029386650698
:103580008606BE9683960600B306D74063DB060028
:10359000938685068606BE9683960600158FE340C1
:1035A00007F8FD15C205C18571BF8DEE37270020D4
:1035B0000D05130707703156E35EB5F29387450694
:1035C0008607BA9783960700938715068607BA97EA
:1035D00083970700B387F640E3C3C7F4FD15C20520
:1035E000C185D9BF8547E397F6F0F115C205B72726
:1035F0000020C185110593870770E35DB5EE9386C2
:10360000E5FF1397150086063E97BE960317070041
:1036100083960600B306D740635FD0029386C5FF4A
:103620008606BE9683960600B306D7406355D00241
:10363000938625008606BE9683960600B306D7407D
:10364000635BD000938645008606BE96839606008F
:10365000158FE346E0ECFD15C205C18579BF37271C
:103660000020930607700396A61283972606130779
:103670000770B29785872393F60C0396E1898386BA
:10368000A1898D476399F600839741889306F00FCF
:103690006383D7003E868386918989476394F600C9
:1036A000039661888388818985476385F8009147FF
:1036B0006394F8000396018237030020370E002040
:1036C000894513080003814601450D4F1303430547
:1036D000130E8E0B6357C8003345D5024205418552
:1036E0008280831E871283170706F6978587231229
:1036F000F70CB30EBE00938727FA6384E801B30E7C
:10370000B300839E0E007D187917B387D703F69612
:1037100089053E95C1B7411122C483C7A18906C658
:1037200026C24AC01947636EF70621678A07130746
:1037300087CABA979C431384A189828783D7C1889B
:1037400085441389C188F517C207C18363E1F40674
:103750008397218963C7F4040946BD451305100307
:10376000EFF03FAA631F950203D5E189D1471317F4
:10377000050141876353F7005145420581460146E3
:10378000930510034185EFF0BFD585476311F5021E
:1037900003970188E54763DCE7002300A400A38DBD
:1037A0000180B24022449244024941018280831741
:1037B00009008544E3C7F4FE83D72189F517C207C2
:1037C000C183E3E0F4FE0146BD4513051003EFF0AD
:1037D0005FA3E31895FC03D5E189D14713170501D1
:1037E00041876353F70051454205814609469305D9
:1037F00010034185EFF0DFCE8547E314F5FA039718
:103800000188E547E3DFE7F809472300A400A38D1B
:10381000E18041BF0386B18103D5E189B547131724
:10382000050141876353F7003545420581469305FD
:1038300010034185EFF0DFCA894725F52300F40026
:103840008DB70386B18103D5E18999471317050127
:1038500041876353F70019454205814693051003DC
:103860004185EFF0BFA58547E31DF5F283974188B9
:103870002D47E358F7F20D472300E4002391F1822E
:103880000DB70386B18103D5E1899147131705016F
:1038900041876353F70011454205814693051003A4
:1038A0004185EFF0BFA119C9839741881307F00F35
:1038B000E389E7EE13078002E355F7EE9147BDBFBA
:1038C0000386B1810395E189854693051003EFF0E6
:1038D0003FC18547E317F5EC95478DB78397E1899D
:1038E0003147E340F7EC0386B18119473E8563D346
:1038F000E700194542058546930510034185EFF021
:10390000FF9B8547E31FF5E899470DBF9384B1817D
:10391000038604000395E189854693051003EFF0C3
:10392000FF99E31005E88387040085E30946E54530
:1039300013051003EFF0FF8C8547E314F5E67D5780
:10394000230004002391E182A9BD09470146E380D9
:10395000E7FE81BD83C7A1891547FD1793F7F70FD0
:10396000E36CF70C21678A07130747CCBA979C438F
:10397000397106DE22DC26DA4AD84ED652D456D227
:103980005AD05ECE62CC66CA6AC86EC6828783870A
:10399000B1816391070E83940188372400201304BA
:1039A0000470139A04018604A294039504008D47C1
:1039B0002397F188EF20A015B787000003A687CFD3
:1039C00083A6C7CF135A0A018D49EF00705BEF2021
:1039D000800D9307DAFFC207C18786073E94B78739
:1039E000000003AB07D083AB47D0420541850147B8
:1039F0001389E18893970901C183B306FA40C2068F
:103A0000C1866344D00219C323103901F2506254B5
:103A1000D2544259B259225A925A025BF24B624C2A
:103A2000D24C424DB24D2161828083160400E3DC0A
:103A3000A6FC2310A4000395040093891700C20973
:103A4000EF20E00C93D909412A8C4E85AE8CEF20F3
:103A5000000C5A86DE86EF10A0452A86AE86628567
:103A6000E685EF00F051EF2000044205418579140E
:103A7000054749B70947E39BE7F803940188B72452
:103A8000002093840470131A0401130444060604EE
:103A90002694031504008D472397F188EF20200713
:103AA000B787000003A687CF83A6C7CF135A0A01A2
:103AB0008D49EF10700BEF10107F9307DAFFC207EC
:103AC000C1878607BE94B787000003AB07D083ABDE
:103AD00047D04205418501471389E1889397090141
:103AE000C183B306FA40C206C186E35ED0F0F91482
:103AF0008396A40CE359D5F02395A40C0315040078
:103B000093891700C209EF20800093D909412A8CBC
:103B10004E85AE8CEF10B07F5A86DE86EF104039AE
:103B20002A86AE866285E685EF101004EF10B07726
:103B30004205418505475DB71384B1810395E1894D
:103B40000306040093051003EFF0BF8E8547E31FC3
:103B5000F5EA83070400DDEB03942188372A00206F
:103B600013090A70931714003E992397A18803152F
:103B70000900B78A00000504EF10707903A68AD007
:103B800083A6CAD042044184EF10007EEF10B071CA
:103B900003AB8AD083ABCAD04205418581478544B7
:103BA0009389E188130A0A70130C10031317040198
:103BB00041876357EC00E38B07E423909900B9B584
:103BC00093171400D2972A87635305000147239067
:103BD000E700031509008504C204EF105073C18487
:103BE0002A8D2685AE8DEF1090725A86DE86EF10F4
:103BF000202C2A86AE866A85EE85EF10E076EF10DF
:103C0000906A42054185050485474DB70947E39F02
:103C1000E7DE03942188372A002013090A709307EE
:103C2000440686073E992397A18803150900B78AA1
:103C300000000504EF10B06D03A68AD083A6CAD099
:103C400042044184EF00D033EF10F06503AB8AD01B
:103C500083ABCAD042054185814785449389E18879
:103C6000130A0A70130C1003930CA00B1317040112
:103C70004187E342ECF493171400D2972A8763D468
:103C8000AC001307A00B2394E70C0315090085046F
:103C9000C204EF10D067C1842A8D2685AE8DEF1047
:103CA00010675A86DE86EF10A0202A86AE866A85C7
:103CB000EE85EF00F02CEF10105F42054185050402
:103CC00085476DB78387B1816398071A039C418844
:103CD00037290020930C097093191C00B3873C010D
:103CE00003950700378B0000131D0C01EF103062A5
:103CF00003260BD183264BD1135D0D0113041D0048
:103D00002A8AAE8A4204EF00B027EF10D0594184CE
:103D1000832B4BD1032B0BD1420593171400418504
:103D2000BE9C854D9384E188130909701307100325
:103D3000B307BD01C207C187634BF70083978C0CA3
:103D4000850DC20D93DD0D01890C634FF506378B90
:103D5000000003268BD18326CBD185472390F40026
:103D60005285D685EF104060EF10F053832BCBD1F6
:103D7000032B8BD1420541850147854C130D100360
:103D800093170401C1876357FD0619C3239094015B
:103D9000330484411147E35B87C637870000039AE9
:103DA0000400032B87D0832BC7D03E84930A1003D3
:103DB0008147CA9913170401418763DCEA06E38748
:103DC00007C42390440199B12393AC0C13950D01C2
:103DD0004185EF10D0535A86DE86EF10600D528673
:103DE000D686EF00F019EF10104C420541851307FD
:103DF00010033DBF93161400CA9683960600E3D6BF
:103E0000A6F8850CC20C93DC0C416685EF1030508F
:103E10005A86DE86EF10C0092A86AE865285D68580
:103E2000EF108054EF1030484205418505040547E6
:103E300081BF93171400CA972390A7000395090028
:103E4000050A420AEF10B04C135A0A412A8C5285D7
:103E5000AE8CEF10D04B5A86DE86EF1060052A86B6
:103E6000AE866285E685EF102050EF10D043420504
:103E70004185050485473DBF0947E399E7B8039CA1
:103E8000418837290020930C097093094C069397B9
:103E90001900E69703950700378B0000131D0C01EE
:103EA000EF10F04603260BD183264BD1135D0D0195
:103EB00013041D002A8AAE8A4204EF10E04AEF1074
:103EC000903E4184832B4BD1032B0BD1420593179A
:103ED00014004185BE9C854D9384E18813090970C7
:103EE00013071003B307BD01C207C187634AF70078
:103EF00083970C00850DC20D93DD0D0163CEA70ADB
:103F0000378B000003268BD18326CBD185472390A6
:103F1000F4005285D685EF00B006EF10D038832B21
:103F2000CBD1032B8BD1420541850147854C130D25
:103F3000100393170401C1876359FD0A19C3239025
:103F40009401330484417557E342E4AC37870000A1
:103F5000039A0400032B87D0832BC7D086093E84A5
:103F6000930A10038147CA99131704014187E3C8D4
:103F7000EAE493171400CA972394A70C0395090049
:103F8000050A420AEF10B038135A0A412A8C5285AA
:103F9000AE8CEF10D0375A86DE86EF0070712A861D
:103FA000AE866285E685EF00A07DEF10D02F42053A
:103FB0004185050485474DBF2390AC0013950D0145
:103FC0004185EF10D0345A86DE86EF00706E2A8667
:103FD000AE865285D685EF102039EF10D02C4205E1
:103FE0004185890C13071003F5BD93161400CA967A
:103FF0008396860CE354D5F4850CC20C93DC0C41FB
:104000006685EF10D0305A86DE86EF00706A5286E1
:10401000D686EF00E076EF101029420541850504B1
:10402000054701BF1384B1819384E189030604002D
:1040300003950400854693051003EFF06FCA85478A
:10404000E316F59C83960188830504001386E188B6
:10405000B72700202310A600039804009387077059
:10406000139716009388F6FFA9E593864606860601
:104070003E9701436D5EB6971385150093160501B3
:10408000B385B840C1866347B800E30103982310A5
:10409000D600ADBAB306C50383950700AE96831567
:1040A000E7FF63D4D5002313D70CAA8579170543FE
:1040B000E1B7BA978145014715433E8E9306170035
:1040C000139506013387E84041856348E800E38F94
:1040D00005922310A6006FF07F9333876602831545
:1040E0000E002E978395670C6354B700239FE7FE5D
:1040F0003687F9178545D9B7039441888387B181FD
:10410000C9EF9307F00FE303F49005472397E18885
:104110001389E188B7870000B729002003AA07D2D6
:1041200083AA47D293890970131B14008544014761
:10413000130D10034E9B939B04018504C2040504D8
:1041400093DB0B41C18063588D00E301078C231082
:1041500079016FF0BF8B03150B00EF10501B2A8CF9
:104160005E85AE8CEF10B01A5286D686EF005054A2
:104170002A86AE866285E685EF10001FEF10B0122A
:104180004205418593171400CE972A876353050093
:1041900001472390E700054779BF9307F00FE30736
:1041A000F48605472397E1889389E188B787000063
:1041B000372B00201309440603AA07D283AA47D24B
:1041C000130B0B70060985440147130D10035A9910
:1041D000930DB00B939B04018504C204050493DB8B
:1041E0000B41C18063588D00E3020782239079015F
:1041F0006FF0DF8103150900EF1070112A8C5E85C6
:10420000AE8CEF10D0105286D686EF00704A2A8608
:10421000AE866285E685AD23EF10F0084205418544
:1042200093171400DA972A8763D4AD001307B00BF5
:104230002394E70C054779BF8280930710032390EE
:10424000F1828398E18941113737002022C626C4C4
:104250004AC28D089307E00213860182130707AA5A
:1042600063DCF8049386D7FF138EF7FF63D8D80872
:10427000139817003A9803130800138817000608CC
:104280003A9803180800634B68061388370006083D
:104290003A98031808006353030713181E003A984E
:1042A00003180800634C68048606BA9683960600D5
:1042B0006356D3042310F60003170600130FC00B38
:1042C000B72600209307F7FFC207C187338FE703A4
:1042D00093121700130747069386067006073703E5
:1042E00000207D54FD5FB943B6923388E600130386
:1042F000C323854E63C8F300FD579DA893170E0195
:10430000C187B9BF03D7020083140800814609079B
:10431000420741873306E7011A96814863409702B6
:10432000639ED805639D1605B1C1639AD504638861
:104330000F0431E4FD17C207C1871DA8034E060014
:104340006377AE000349F6FF637325018548637AFE
:10435000C501034EF6FF6376AE00B3E6D800C20691
:10436000C18605074207418705064DBF63990F00C7
:104370003244A24412493E8541018280C686FD171F
:10438000C2077E84C187130F4FF4B68FA5B74111C2
:1043900022C42E84854506C6EFF03FEA239EA188FD
:1043A000631C040E03D7618993066002FD5713074F
:1043B00057FB4207418363E5E60239476352A70290
:1043C0000395E18937270020B736002011059307B0
:1043D000100313070770938606896348F500FD579D
:1043E000B24022443E85410182801386C7FF138874
:1043F000F7FF635FC50893951700BA95839805008A
:1044000093151800BA958395050063D31509931584
:104410001600BA958395050063DC1507938547065A
:104420008605BA9583980500938537068605BA9563
:104430008395050063DEB804938507068605BA9563
:104440008395050063D6B804B385F60083C80500DC
:104450006390080483C5450685EDB385060183C8CE
:1044600005006397080283C545069DE19385E7FF34
:10447000B69583C80500639D080083C5450689E994
:10448000B69783C7D7FF89E736968347460695C711
:1044900093170801C18791B70547FD57E312E4F46C
:1044A00003D7618993066002130757FB42074183D4
:1044B000E3E8E6F23947E355A7F2854715B741111E
:1044C00022C483C7818906C61547636DF706216735
:1044D0008A071307C7CDBA979C43138481898287C3
:1044E0000397C188894763CFE7040397218963CB8A
:1044F000E7048145EFF0BFE9FD576305F504854703
:104500002300F40081A08545EFF03FD3239EA188CE
:104510009307000263C7A7000397E189E54763D3C8
:10452000E7021307000023A4E18489472300F40075
:104530008387C1879387C7022397F18021A01547FE
:104540002397E180B2402244410182800397C188D1
:104550008947E3C9E7FE03972189E3C5E7FE85455F
:10456000EFF0FFE2FD57E30FF5FC914751BF8545A2
:10457000EFF0BFCC239EA1889307D00263C8A700A9
:104580000397E18993073002E3DEE7FA130700009F
:1045900023A4E184954759BF2DE90397E189B72703
:1045A00000209387077093161700B697B736002040
:1045B000130500033D48938606AAA94893150701F1
:1045C000C1856358B5001307F00F2393E1880145B7
:1045D00082800396070003932700330666406353E7
:1045E000C8020393870C0396A70C634D660013164D
:1045F000170036960316060063D6C8002393B188C9
:10460000054582800507890755BF8947E31DF5FAEF
:104610000397E189B7270020938707709316170047
:10462000B697B7360020130500034558938606AAAF
:10463000A94893150701C185E347B5F80396870C90
:104640000393A70C33066640635F060103930700DC
:10465000039627006349C300131617003696031606
:104660000600E3CDC8F805078907E1B70395E187A0
:1046700013255500134515008280411126C29384ED
:1046800091898387040006C622C489CB05476382CB
:10469000E704B24022449244410182801384A18104
:1046A00003050400EFF05FEF8547E314F5FE039781
:1046B000618893074002E3DEE7FC1307000023A4B0
:1046C000E184830704002380A400AD072397F180D1
:1046D000C9B715472397E1806DBF4111930680024A
:1046E000054681451305200206C6EFD0DFC09306BC
:1046F00080020546814513058004EFD0DFBFB2403C
:1047000093068002054681451305900441016FD050
:104710009FBE41111305200206C6EFD0BFCB31E189
:1047200083A741870965130505F4B3D7A7021305CD
:10473000800C81453385A702EFE0AFB1130520025D
:10474000EFD05FC985470DC913058004EFD09FC81E
:1047500089471DC113059004EFD0DFC709ED8D47D0
:1047600021A813058004EFD0FFC65DD9130590047E
:10477000EFD05FC655D58147B2403E85410182806A
:104780003708100001117D183377B80026CA337836
:10479000D80093D4450113D34601131E37004EC6EB
:1047A0001357D5010E089357D60193F4F47F137372
:1047B000F37F06CE22CC4AC893D9F50193DEF601E9
:1047C0003367C701131F350033E80701931F360015
:1047D000338E64406380D9196356C0136304031C8D
:1047E000B70680009307F07F3368D800638FF436F4
:1047F0009307800363C0C735FD4763CDC7471305E3
:1048000000023305C541B3D7CF01B316A8003399D1
:10481000AF00DD8E33392001B357C80133E92601DB
:104820001D8F33092F41B3372F013306F7409317FC
:10483000860063D40724370780007D173374E600B1
:10484000630C042C2285EF10301E130785FF93079D
:104850000002998FB357F9003316E400D18F331952
:10486000E9006341972A33059740130615007D47F9
:10487000634DC73813070002118FB356C9003319AF
:10488000E9003397E700558F333920013369270159
:1048900033D6C70081449377790081CF1377F9002D
:1048A00091476308F70013074900333927014A96F7
:1048B0003A899317860063D6071C13851400930763
:1048C000F07FCE856304F520B70780FFFD17F18FD9
:1048D0009398D70113593900A607B3E82801B1838B
:1048E0001375F57F9396C7005205F2406244B1827A
:1048F000FE05C98ECD8ED2444249B2494685B68561
:1049000005618280631E0E0A138314001373E37F14
:1049100063170322B367E701B368F801639D041AC4
:1049200063870740638608443309FF41B3070741A3
:1049300033362F013386C7409317860063D6074C62
:104940003389EF41B307E84033B62F013386C740C0
:10495000F68991B76350C00F6300030CB70680005F
:104960009307F07F3368D800638AF43A9307800393
:1049700063CBC713FD4763DFC73513090EFE9307EB
:104980000002B3562801630AFE001309000433092C
:10499000C94133192801B3EF2F013339F0013369CD
:1049A000D90031A2B367F801638A071C9307FEFFA1
:1049B000638C07389306F07F6309DE1A3E8E0DBDC7
:1049C000B305934063910422B367E701638707321D
:1049D0009387F5FF638107449306F07F638CD520AE
:1049E000BE859307800363CCB72AFD4763CFB73CEE
:1049F000930700028D8F3319F700B356BF00B3172A
:104A0000FF003369D900B337F0003357B70033697B
:104A1000F9003308E84041ACB367F801638007341C
:104A20009307FEFF638A07209306F07F6308DE2E5C
:104A30003E8E2DBF631E0E149386140093F7E67FFF
:104A400063910734B367E7016395042C6380073EE5
:104A5000B367F801638E07303309FF01B30707011D
:104A6000333FE9013386E7019317860063D70700D8
:104A7000B70780FFFD177D8E854493777900E39F0C
:104A800007E09317D60193583900B3E8F80093571D
:104A900036001307F07F638DE404B207B18313F58A
:104AA000F47FCE8581B53369F801333920017A99D5
:104AB000B337E9013386E70093178600E3DF07FA8F
:104AC00085049307F07F6396F418CE851305F07F75
:104AD0008147814801BDC1EB6384083A93163600D3
:104AE0009317D8018D82B3E8D700F6899357380021
:104AF000B3E7F800F9DB81451305F07FB70708003D
:104B00008148CDB3370680FF7D167D8E937779007F
:104B1000998CE39507D8B5B74A85EF10E070130775
:104B20008501FD47E3D5E7D2130685FFB317C9001A
:104B3000014905BB3369F80133392001DDB133097F
:104B4000FF413306074133342F0133048640931766
:104B5000840063CD0724B3688900E39308CE8147BE
:104B6000814981441DBFE39808F80E059317D701CA
:104B70000D81B3E8A700935737009DBF0E0593172B
:104B8000D7010D81B3E8A700F2849357370011B71E
:104B90003305934063820412B70680009307F07FC9
:104BA000558F630DF32E9307800363CBA720FD473A
:104BB00063C3A72A93070002898F3319F700B356FE
:104BC000AF00B317FF003369D900B337F000335794
:104BD000A7003369F9003A987E99B337F901338613
:104BE00007019A84D1BDB70680009307F07F558FE7
:104BF000E319F3DE931736008D839318D801B3E8D9
:104C00001701F68993573800E5B5130715FE93068B
:104C1000000233D7E700630AD60093060004338608
:104C2000C6403396C7003369C90033392001336960
:104C3000E9000146814491B53309FF01B30707013B
:104C40003336E9013E96931786008544E3D707E2A1
:104C50008944B70780FFFD17F18F135719001379A7
:104C60001900336927019398F70133E9280113D616
:104C7000170015B113090EFE93070002B356280161
:104C8000630AFE00130900043309C94133192801DE
:104C9000B3EF2F013339F0013369D90059B63369C5
:104CA000E7013339200133892F41B3B72F01330690
:104CB000F8409A84F689A5BEB367E70163820718B6
:104CC0009307F5FF6384071C9306F07F6304D512F6
:104CD0003E85D1BD93070002B387C741B316F800E4
:104CE0003399FF0033D6CF01D18E33392001B3572A
:104CF000C80133E926013E975DBB931736008D83CB
:104D00009318D801B3E81701AE8493573800F68999
:104D100049B3EDC33369F801E31F09DC0E059317AE
:104D2000D7010D81B368F50093573700D1B3638184
:104D3000080E931636009317D8018D82B3E8D7007A
:104D4000F6899357380091BB3309FF41B3070741F8
:104D5000333F2F013386E7418544D1BC0E059317BD
:104D6000D7010D81B368F500F2849357370015B36E
:104D70000E059317D7010D81B3E8A70093573700AD
:104D800029BB9307F07FE382F6D43309FF01333662
:104D9000E901B3070701B2979398F7011359190076
:104DA00033E9280113D61700B684C1B93389EF411E
:104DB0003307E84033B62F013304C740F68949B4BE
:104DC0003369E7013339200101BD938705FE93065E
:104DD0000002B357F700638AD50093060004B38539
:104DE000B6403317B700336FEF003339E001336952
:104DF000F90055BD931736008D839318D801B3E899
:104E0000170193573800EDB1B368C900E39708C69E
:104E10008147814959B13389EF41B307E84033B63F
:104E20002F013386C740F689854411B493163600A6
:104E30009317D8018D82B3E8D70093573800B1B9E2
:104E4000931636009317D8018D82B3E8D700AA8451
:104E5000935738003DB9930705FE93060002B357F8
:104E6000F700630AD500930600043385A640331784
:104E7000A700336FEF003339E0013369F900A9BBB4
:104E800081451305F07FB7070800A9BC3309FF016E
:104E9000B30707013336F9013E9675B39316360012
:104EA0009317D8018D82B3E8D7009357380089B1A2
:104EB00039714AD813D945014ED652D456D2939956
:104EC000C50006DE22DC26DA5AD05ECE1379F97FE1
:104ED0002A8A93D9C90093DAF501630D090E930765
:104EE000F07F6306F9181354D5018E09B3693401B4
:104EF0003704800033E4890093143500130919C086
:104F00008149814B13D74601139AC6001377F77F67
:104F1000B285135ACA0013DBF601630B071093071F
:104F2000F07F6303F7049357D6010E0A33EA470173
:104F3000130717C0B7078000B367FA009315360050
:104F40003A99814833C76A01BD463A85130819006A
:104F500063E8361717360000130646DD8A09B29952
:104F600083A60900B2968286B367CA001309F97F47
:104F70006399071293E9290081458948E1B7014700
:104F80009307F07F3704080081443204D207318050
:104F90007E075D8C598CA285F25062542685425959
:104FA000D254B259225A925A025BF24B216182804A
:104FB0005A853E84AE84C68B8947638DFB0E8D4730
:104FC000E38FFBFA85472A87639EFB3881470144BC
:104FD000814465BF33E4A90061C036C632C4638C26
:104FE000092A4E85EF1040242246B246AA871307AD
:104FF00055FF7544938487FF198CB39999003354F6
:105000008A0033643401B3149A0013D7460113099C
:10501000D0C0139AC6001377F77F3309F94081494E
:10502000814BB285135ACA0013DBF601E31907EE70
:10503000B367CA00B1C7630F0A22528532C4EF10AA
:10504000A01E22462A87930655FFF547930587FF42
:10505000958F331ABA00B357F600B3E74701B3157B
:10506000B6003309E9401309D9C08148E1BD33E4F2
:10507000A90001ECA14981441309F07F894B59B57E
:1050800093E919008145854875BD4E84AA84B149CC
:105090001309F07F8D4BBDB5914981440149854B82
:1050A00095B593E93900D2878D4869BD8947568502
:1050B000E397FBF02A879307F07F01448144F1B521
:1050C000C16E1386FEFF93D6040113DE0501F18C39
:1050D000F18D338695023383B6029358060133056A
:1050E0009E021A95AA98B382C60363F36800F692EB
:1050F000C16F1383FFFF33F5670093D30701B3F745
:105100006800C207337366003E933306950293D856
:105110000801B387A602135F0601B3849302BE940D
:10512000FA94B38E760263F3F400FE9E416A93070D
:10513000FAFF935F0401B376F400B3F9F4007D8EB7
:10514000C1803384D502C209338FD401B299CE987D
:10515000B307DE02935E0401B385BF02AE97BE9E25
:10516000330EFE0363F3BE00529EC1679385F7FFC3
:1051700033F6BE006D8C4206229693DE0E01B30517
:10518000D502769E3385AF0213D40501B386D302D0
:10519000AA96A296B38FF30363F3A600BE9F416560
:1051A0007D15B3F7A600C2076D8DAA97B385580089
:1051B000B3B93501FA97B2953384370133B6C500D8
:1051C000B30EC4013385CE0033343401B3B7E701E5
:1051D000C18F33BECE0113D406013336C5003E94D1
:1051E0003366CE009394950032947E94B3E46400C9
:1051F000260493567501B3349000DD819317950012
:10520000CD8C558CDD8C9317740063DB070093D72E
:10521000140085889316F401DD8CD58C05804289B5
:105220009307F93F6359F00893F6740081CE93F623
:10523000F40011466388C60093864400B3B4960018
:105240002694B6849316740063D80600B70700FF4F
:10525000FD177D8C930709409306E07F63CFF60E20
:1052600093D634009314D4012604D58C318093F75F
:10527000F77F21BB328532C4EF00107B93065501C6
:10528000F147130705022246E3D1D7DC6115B317B6
:10529000A6008145F9B3EF00307913075501F145B8
:1052A000930705022246B246E3D5E5D461153314CF
:1052B000AA00814499BB85469D8EB1E71309E94157
:1052C000B3972401B3D4D40033192401B337F000C9
:1052D000B3649900DD8C93F77400B356D40081CF8A
:1052E00093F7F40011466388C70093874400B3B472
:1052F0009700A696BE849397860063D807048547D7
:105300000144814459B113068003E341D6CC7D4664
:10531000E356D6FA0556B307F64093050002335616
:10532000F4006387B6001309E943B3172401DD8C49
:10533000B3349000D18C93F67400014499CA93F76A
:10534000F40011468146E392C7FA13949600318027
:10535000F6068D80D58C81470DB99307F07F014407
:10536000814425B142896DBD370710007D170111B9
:105370003373B70093D84601758F935ED60122CC64
:1053800026CA0E0393D445019357D5010E0706CEC6
:105390004AC84EC693F8F87F130EF07F33E7EE004D
:1053A00093F4F47F13D4F50133E36700131F350042
:1053B000FD82931E36006380C81993C61600B3851C
:1053C00014416305D4126351B018638B081AB707F0
:1053D00080005D8F6381C4599307800363C4B73431
:1053E000FD4763C5B748930700028D8FB3D9BE0050
:1053F0003318F700B39EFE00336838013357B70007
:10540000B339D001336838013303E340B3090F41A6
:10541000B3373F013306F3409317860063D3072465
:10542000370980007D1933792601630F092C4A85DD
:10543000EF00905F130785FF93070002998FB3D7A2
:10544000F9003316E900D18FB399E9006344972A34
:10545000058F13061700FD4663C5C63A1307000201
:10546000118FB3D6C9003398E9003397E700558F01
:1054700033380001B369070133D6C700814493F77D
:10548000790081CF93F6F90091476388F6009386FF
:10549000490033B836014296B6899317860063D621
:1054A000071C138714009307F07F05886306F72015
:1054B000B70780FFFD17F18F1398D70193D93900F3
:1054C000A60733683801B1831377F77F9396C70037
:1054D0005207B1827E04D98EC18EF2406244D2441A
:1054E0004249B2494285B685056182806356B00A59
:1054F000638A0812B70780005D8F6387C42D930706
:10550000800363C7B718FD4763D2B73C138805FE15
:1055100093070002B3590701638AF500930700045B
:10552000B385B7403317B700B3EEEE003338D00180
:105530003368380195A2B367D7019385148099E346
:1055400093C61600630AD404D1E19387140093F73D
:10555000E77F6399071EB367E3013368D70163925E
:1055600004166382073C631608421318350093162D
:10557000D3011358380033E806019357330019A2BA
:10558000B367D7016385071A9387F5FF638B073AE3
:10559000638CC523BE8589B56399051C9386140069
:1055A00093F7E67FC1EFB367E30163900436638D41
:1055B0000744B367D701639407460E051318D30158
:1055C0000D813368A800935733006DA8B3859840C8
:1055D00063970420B367E301638D07309387F5FF7A
:1055E000638907401305F07F6383A520BE85930779
:1055F000800363C2B72AFD4763C8B73C9307000224
:105600008D8F3318F3003356BF00B317FF00336894
:10561000C800B339F0003353B3003368380133079F
:105620006740B5ACB367D701638307109387F5FF75
:10563000638F071E6380C52FBE85D1B59307F07FAA
:10564000638BF606FA9E33B6EE01B307E300B2971A
:105650001398F70193DE1E00B369D80113D6170023
:10566000B68493F77900E39F07E09317D60113D828
:1056700039003368F800A685935736001307F07F8A
:105680006380E506B207B18313F7F57F05883DBD5A
:105690003367D7013338E000B309E801B3B7E90154
:1056A0003386670093178600E3DD07FA85049307C6
:1056B000F07F639CF41805881307F07F8147014849
:1056C00031B5639107106301083C13183600931736
:1056D000D701135838003368F800368493573700E1
:1056E000B367F800E9DB01441307F07FB707080050
:1056F0000148E9BB370680FF7D167D8E93F7790060
:10570000998CE39107D895B74E85EF00F0311307D8
:105710008501FD47E3D2E7D2130685FFB397C900A1
:1057200081492DB33368D70133380001C5B113184F
:1057300035009317D301135838003368F800935796
:1057400033002DBFB309DF413309E34033363F0156
:105750003309C9409317890063CA072033E8290138
:10576000E31508CC8147014431BFB385984063817C
:105770000414B70680009307F07F3363D30063817E
:10578000F8209307800363CCB722FD4763C9B72C89
:10579000930700028D8F3318F300B356BF00B31781
:1057A000FF003368D800B339F0003353B3003368D7
:1057B00038011A97B309D801B3B7D9013386E70086
:1057C000C684CDB5E31108F2131835009317D30141
:1057D000135838003368F8009357330011B7370572
:1057E00080009307F07F3363A300E392F8E00E0696
:1057F0001318D7010D823368C800935737003684D9
:10580000C5B505179306000233D7E700630AD60033
:10581000930600043386C6403396C700B3E9C90037
:1058200033383001B369E800014681441DBDB30936
:10583000DF01B307E30033BFE9013386E7019317C4
:1058400086008544E3DF07E08944B70780FFFD1742
:10585000F18F13D7190013F81900336807019399D2
:10586000F701B3E9090113D6170011B9138805FE32
:1058700093070002B3590701638AF50093070004F8
:10588000B385B7403317B700B3EEEE003338D0011D
:1058900033683801A5BE3363E30133386000B38950
:1058A0000E41B3B73E013306F740C6843684ADB629
:1058B000B367E301638707189387F5FF638C071CC1
:1058C0009306F07F638ED50ABE8565BD93070002FF
:1058D0008D8FB3D9BE003318F700B39EFE00336836
:1058E00038013357B700B339D001336838013A93E0
:1058F00065B3131836009317D7011358380033E8EF
:10590000070136849357370095BBBDCB3367D7016A
:10591000E31B07DC0E051318D3010D813368A800C3
:105920009357330075BBE30F08E213183600931743
:10593000D701135838003368F8003684935737007E
:1059400091B3B309DF41B307E340333F3F013386EF
:10595000E7418544D1B4131835009316D301135889
:10596000380033E80601935733009DBBB389EE41FD
:105970003306674033B93E0133092641368475B496
:105980000E061318D7010D823368C80093573700ED
:1059900081BBB309DF41B307E34033363F013386B0
:1059A000C7409317860063D7070AB389EE41B30750
:1059B0006740B3BE3E013386D7413684C9B43363F2
:1059C000E30133386000FDB3138805FE930700023E
:1059D000B3590301638AF50093070004B385B74008
:1059E0003313B300336F6F003338E001336838018D
:1059F0007DB5B389EE41B3076740B3BE3E01338640
:105A0000D7413684854409BC131836009317D70153
:105A1000135838003368F80093573700A5B1B3091D
:105A2000DF01B307E30033BFE9013386E7019317D2
:105A30008600E3D807C2B70780FFFD177D8E854437
:105A40000DB10E061318D7010D823368C8009357A5
:105A500037002DB133E8C900E30608D019B1138827
:105A600005FE93070002B3590301638AF50093070B
:105A70000004B385B7403313B300336F6F0033387E
:105A8000E001336838013DB301441307F07FB707E5
:105A900008002DBCB309DF01B307E300B3BED90191
:105AA0003386D70169BB93D74501B706100013872A
:105AB000F6FF93F7F77F1306E03F6D8FFD81635C80
:105AC000F6001306D041635AF600370500801345EF
:105AD000F5FF2E95828001458280130630431D8E8E
