:100000006F00B00813000000130000001300000090
:100010001300000013000000130000001300000094
:100020001300000013000000130000001300000084
:08003000130000007300100032
:100038006FF09FFC000000006F00004D6F00C04D86
:1000480000000000000000000000000000000000A8
:100058000000000000000000000000000000000098
:100068006FF09FF9000000006FF01FF9000000001A
:100078006FF09FF86FF05FF86FF01FF86FF0DFF721
:100088006FF09FF76FF05FF76F0080156F004016F5
:100098006F00A01A6F00C01B6F00801C6FF0DFF5A7
:1000A8006FF09FF56FF05FF56F0060416FF0DFF460
:1000B8006FF09FF46FF05FF46F00801D0000000088
:1000C8000000000000000000000000006F00401A5F
:1000D8006F00001D6F0000206F00C0226F00002815
:1000E8006F00C0306F0000336F0080526FF0DFF098
:1000F8006FF09FF06FF05FF06FF01FF06FF0DFEFC1
:100108006FF09FEF6F0000346F00C0346F00203A2B
:100118006F0000176FF05FEE6FF01FEE6FF0DFED0E
:1001280000000000000000000000000000000000C7
:080138000000000000000000BF
:100140003D432A876373C3029377F700BDEFADE5A4
:10015000937606FF3D8ABA960CC34CC30CC74CC7B6
:100160004107E36BD7FE11E28280B306C3408A06E3
:100170009702000096966780A6002307B700A306A3
:10018000B7002306B700A305B7002305B700A304F3
:10019000B7002304B700A303B7002303B700A302EB
:1001A000B7002302B700A301B7002301B700A300E3
:1001B000B7002300B700828093F5F50F9396850072
:1001C000D58D93960501D58D61B79396270097023B
:1001D000000096968682E78086FA9680C1171D8F6A
:1001E0003E96E374C3F8A5B7411122C6000801008A
:1001F0003244410173002030411122C600080945F4
:10020000EF00D0442A8785476318F702B70700201C
:1002100003A7C71189476315F700EF20506711A89E
:10022000B707002003A7C71185476314F700EF2025
:10023000D0580945EF00F0460100324441017300F7
:100240002030411122C600081145EF009045010001
:100250003244410173002030411122C600080100E0
:100260003244410173002030411122C600080100D0
:100270003244410173002030411122C600080100C0
:100280003244410173002030411122C600080100B0
:100290003244410173002030411122C600080100A0
:1002A0003244410173002030411122C600089305F9
:1002B0000008B7370140138507C0EF101032AA8736
:1002C00089CB93050008B7370140138507C0EF10AD
:1002D000D03701003244410173002030411122C661
:1002E00000088545B7370140138507C0EF10F02E91
:1002F000AA8781CB8545B7370140138507C0EF102A
:10030000D03401003244410173002030411122C633
:10031000000893050004B7370140138507C0EF10AC
:10032000D02BAA8789CB93050004B73701401385EA
:1003300007C0EF10903193050002B73701401385D5
:1003400007C0EF109029AA8789CB93050002B73721
:100350000140138507C0EF10502F010032444101C6
:1003600073002030411122C600088945B73701408B
:10037000138507C0EF107026AA8781CB8945B73750
:100380000140138507C0EF10502C9145B73701404D
:10039000138507C0EF107024AA8781CB9145B7372A
:1003A0000140138507C0EF10502AA145B73701401F
:1003B000138507C0EF107022AA8781CBA145B737FC
:1003C0000140138507C0EF105028C145B7370140E1
:1003D000138507C0EF107020AA8781CBC145B737BE
:1003E0000140138507C0EF1050260100324441013F
:1003F00073002030411122C60008854537050040B2
:10040000EF10B01DAA8791C7854537050040EF1052
:10041000D02301003244410173002030411122C633
:1004200000088545B707004013850740EF10F01A14
:10043000AA8781CB8545B707004013850740EF1099
:10044000D02001003244410173002030411122C606
:10045000000801003244410173002030411122C6DE
:10046000000893055052B747004013850740EF102E
:10047000705DAA8785CF93055052B747004013851A
:100480000740EF10506CB707002003A7C71189473A
:100490006315F700EF20B03811A8B707002003A7B5
:1004A000C71185476314F700EF20A07B0100324499
:1004B000410173002030411122C60008010032447E
:1004C000410173002030411122C600080965EF0088
:1004D000A0772A8785476318F7020965EF00807CBB
:1004E000B707002003A7C71189476315F700EF205E
:1004F000703D11A8B707002003A7C71185476314F3
:10050000F700EF20F02E010032444101730020304B
:10051000411122C60008010032444101730020301D
:10052000411122C6000801A0411106C622C40008DC
:100530000545EF300065AA873E872390E182094593
:10054000EF302064AA873E872391E1820545EF3092
:1005500060660945EF3000660100B2402244410167
:100560008280411122C60008130780FD238CE1849C
:1005700093878185130700FBA380E700839701829F
:10058000A187C207C18713F7F70F9387818523815E
:10059000E7008397018213F7F70F93878185A38183
:1005A000E70093878185130710FB2382E700839779
:1005B0002182A187C207C18713F7F70F938781852F
:1005C000A382E7008397218213F7F70F9387818532
:1005D0002383E70093878185130720FBA383E7002C
:1005E00083974182A187C207C18713F7F70F9387CB
:1005F00081852384E7008397418213F7F70F938760
:100600008185A384E7009387818539572385E70097
:100610000100324441018280411122C60008854513
:10062000B717004013850780EF10207BAA8785CF7E
:100630008545B717004013850780EF1010019967B3
:1006400083A7471A3E8785471CCBF93D193F2D46A6
:10065000938581850945EF30503E996783A7471AF6
:100660003E8785475CCB0100324441017300203056
:10067000130101B2232E114C232C814C1304014E83
:1006800079731A91EF304003EF309044EF10D0614E
:10069000EF20B00A93060031014685450145EF2061
:1006A000904F9306100213060002B71707009385B8
:1006B00007800945EF30D02295450D45EF30000702
:1006C000154691450545EF3000362D46A9450945AB
:1006D000EF3060350145EF30A002A30F04FCA30604
:1006E00004FE03C7D1828547E31DF7FE13054006CC
:1006F000EF30F065EF40C00EAA873E872392E1827B
:100700008347D4FE89EB83D741822317F4FE8547C4
:10071000A306F4FE35A8839741823E878317E4FE43
:100720001D8F9307200363CCE700839741823E87A8
:100730008317E4FE1D8F9307E0FC6357F700035710
:10074000E4FE2392E18229A083D741822317F4FE9D
:10075000232404FE51A8232204FEA5A8B7070020E5
:10076000832684FE1307C00B3387E6029387C717DF
:100770003E97832744FEBA9703C7070093074006B6
:1007800063F4E702F977130704FF3E97832684FE9C
:100790009307C00BB387F6023E97832744FEBA97B0
:1007A0007D57238AE7B20DA0F977130704FF3E9720
:1007B000832684FE9307C00BB387F6023E978327F8
:1007C00044FEBA97238A07B2832744FE8507232273
:1007D000F4FE032744FE9307B00BE3D1E7F8832729
:1007E00084FE85072324F4FE032784FE9307100369
:1007F000E3D3E7F6930710032320F4FE89A0B7277D
:100800000020032704FE13072703060793870764C6
:10081000BA97839707003E86F977130704FF3E9740
:10082000832604FE9307C00BB387F602BA97B297EC
:10083000238A07B2832704FEFD172320F4FE839743
:1008400021843E87832704FEE3DBE7FAF977938769
:1008500047B3130704FFBA97130620039305C00B91
:100860003E85EF20002B839741823E8695450145CA
:10087000EF20C0128347E4FD3E8695451305000531
:10088000EF20E004A3860182A9BD97010020938197
:10089000E108174100201301E176176500001305F8
:1008A000E5A397F5FF1F9385E5751386018263FA2B
:1008B000C5008322050023A0550011059105E3EA38
:1008C000C5FE13850182972500209385A5EA6377ED
:1008D000B500232005001105E36DB5FE93028008E5
:1008E00073A0023097F2FFFF9382427593E21200E9
:1008F00073905230EF30D03D97020000938282D740
:100900007390123473002030011122CE0010232680
:10091000A4FE8327C4FE9843C167F9177D8F832700
:10092000C4FE98C38327C4FE23A007008327C4FE08
:1009300023A207008327C4FE23A407008327C4FE45
:1009400023A607000327C4FEB7070240A107631BC5
:10095000F700B7070240D843B70702401367F70014
:10096000D8C375A20327C4FEB7070240F107631B73
:10097000F700B7070240D843B70702401367070FD5
:10098000D8C371A20327C4FEB707024093870703A9
:10099000631DF700B7070240D443B707024005675D
:1009A000130707F0558FD8C39DA20327C4FEB707CE
:1009B000024093874704631BF700B7070240D44304
:1009C000B70702403D67558FD8C391A20327C4FEE5
:1009D000B707024093878705631CF700B7070240FB
:1009E000D443B707024037070F00558FD8C305A27D
:1009F0000327C4FEB70702409387C706631CF700AE
:100A0000B7070240D443B70702403707F000558FBD
:100A1000D8C3F5A80327C4FEB70702409387070889
:100A2000631CF700B7070240D443B70702403707FB
:100A3000000F558FD8C3E1A80327C4FEB7070240B3
:100A400093878740631FF700B707024093870740EB
:100A5000D843B7070240938707401367F700D8C30E
:100A60007DA00327C4FEB70702409387C741631FD9
:100A7000F700B707024093870740D843B707024003
:100A8000938707401367070FD8C351A00327C4FEFD
:100A9000B7070240938707436311F702B707024085
:100AA00093870740D443B707024093870740056701
:100AB000130707F0558FD8C399A80327C4FEB707BB
:100AC000024093874744631FF700B70702409387AC
:100AD0000740D443B7070240938707403D67558FCF
:100AE000D8C335A00327C4FEB707024093878745C4
:100AF000631FF700B707024093870740D443B70747
:100B000002409387074037070F00558FD8C3010075
:100B1000724405618280797122D60018232EA4FCCC
:100B2000232CB4FC232604FE8327C4FD9C432326E8
:100B3000F4FE0327C4FEE177BD07F98F2326F4FEF8
:100B4000832784FD9847832784FD9C535D8F8327EB
:100B500084FD9C4B5D8F832784FDDC4B5D8F832759
:100B600084FD9C4F5D8F832784FDDC4F5D8F832741
:100B700084FDDC535D8F832784FD9C57D98F032729
:100B8000C4FED98F2326F4FE8327C4FD0327C4FEA9
:100B900098C3832784FDD8478327C4FDD8C3832700
:100BA00084FD98438327C4FD98C7832784FDD843D9
:100BB0008327C4FDD8C701003254456182800111EA
:100BC00022CE00102326A4FE2324B4FE832784FE15
:100BD00091CB8327C4FE9C4313E717008327C4FEF1
:100BE00098C311A88327C4FE9843C167F9177D8F66
:100BF0008327C4FE98C301007244056182800111FD
:100C000022CE00102326A4FE2324B4FE2322C4FEF9
:100C1000832744FE99CB8327C4FE9843832784FE11
:100C20005D8F8327C4FE98C321A88327C4FE984301
:100C3000832784FE93C7F7FF7D8F8327C4FE98C365
:100C40000100724405618280797122D60018232E3A
:100C5000A4FC232604FE232404FE0327C4FDB707B7
:100C60000010F98F89CBB7070240938707409C4358
:100C70002324F4FE31A0B70702409C432324F4FE52
:100C8000032784FE8327C4FDF98F89C78547232660
:100C9000F4FE19A0232604FE8327C4FE3E853254A9
:100CA00045618280011122CE00102326A4FE032775
:100CB000C4FEB7070010F98F89CBB70702409387AE
:100CC00007400327C4FED8C331A0B707024003275B
:100CD000C4FED8C30100724405618280797122D6B6
:100CE0000018232EA4FC232604FEB7070140938797
:100CF00007402326F4FE8327C4FDDC4763800712E8
:100D0000B70701409387074094438327C4FD9C4362
:100D100013C7F7FFB707014093870740758F98C344
:100D2000B707014093870740D4438327C4FD9C4302
:100D300013C7F7FFB707014093870740758FD8C3E4
:100D40008327C4FDDC430327C4FEBA972326F4FEA1
:100D50008327C4FE94438327C4FD98438327C4FE9E
:100D6000558F98C3B707014093870740944783275F
:100D7000C4FD9C4313C7F7FFB707014093870740A3
:100D8000758F98C7B707014093870740D4478327DB
:100D9000C4FD9C4313C7F7FFB70701409387074083
:100DA000758FD8C78327C4FD9847C147631FF702D3
:100DB000B70701409387074094478327C4FD9843B2
:100DC000B707014093870740558F98C7B707014081
:100DD00093870740D4478327C4FD9843B707014052
:100DE00093870740558FD8C7B1A8B70701409387AD
:100DF00007402326F4FE8327C4FD9C470327C4FE37
:100E0000BA972326F4FE8327C4FE94438327C4FDA8
:100E100098438327C4FE558F98C32DA08327C4FD14
:100E2000DC430327C4FEBA972326F4FE8327C4FEBF
:100E300094438327C4FD9C4313C7F7FF8327C4FE55
:100E4000758F98C30100325445618280797122D632
:100E50000018232EA4FC232604FE232404FEB70737
:100E60000140938707409C430327C4FDF98F232447
:100E7000F4FEB707014093870740D84B8327C4FD92
:100E8000F98F81CB832784FE89C785472326F4FE0B
:100E900019A0232604FE8327C4FE3E8532544561F3
:100EA0008280011122CE00102326A4FEB707014044
:100EB000938707400327C4FED8CB01007244056125
:100EC0008280397122DE80002326A4FC2324B4FC16
:100ED000232604FE232004FE232404FE232E04FCE8
:100EE000232204FE232C04FC832784FC9C47BD8B17
:100EF0002326F4FE832784FC9C47C18B89CB832760
:100F000084FCDC430327C4FED98F2326F4FE832709
:100F100084FC83D7070093F7F70FF1CF8327C4FC36
:100F20009C432322F4FE232404FE65A8832784FE29
:100F30000547B317F700232EF4FC832784FC83D7DF
:100F400007003E878327C4FDF98F2320F4FE032783
:100F500004FE8327C4FD6311F708832784FE8A07F4
:100F6000232EF4FC8327C4FD3D47B317F700232C41
:100F7000F4FC832784FD93C7F7FF032744FEF98F12
:100F80002322F4FE8327C4FD0327C4FEB317F70012
:100F9000032744FED98F2322F4FE832784FC98473D
:100FA00093078002631BF700832784FE05473317EE
:100FB000F7008327C4FCD8CB05A0832784FC98477F
:100FC00093078004631AF700832784FE05473317CD
:100FD000F7008327C4FC98CB832784FE850723244E
:100FE000F4FE032784FE9D47E3F2E7F48327C4FC65
:100FF000032744FE98C3832784FC03D70700930785
:10100000F00F63F1E70E8327C4FCDC432322F4FED8
:10101000232404FE75A8832784FEA1070547B31780
:10102000F700232EF4FC832784FC83D707003E8738
:101030008327C4FDF98F2320F4FE032704FE8327B2
:10104000C4FD6312F708832784FE8A07232EF4FC6D
:101050008327C4FD3D47B317F700232CF4FC8327F7
:1010600084FD93C7F7FF032744FEF98F2322F4FE84
:101070008327C4FD0327C4FEB317F700032744FEEC
:10108000D98F2322F4FE832784FC9847930780029C
:10109000631BF700832784FEA10705473317F7007A
:1010A0008327C4FCD8CB832784FC9847930780040C
:1010B000631BF700832784FEA10705473317F7005A
:1010C0008327C4FC98CB832784FE85072324F4FE62
:1010D000032784FE9D47E3F0E7F48327C4FC03273E
:1010E00044FED8C30100725421618280011122CED6
:1010F00000102326A4FEAE872322C4FE2315F4FE8F
:10110000832744FE99C70357A4FE8327C4FE98CBC8
:1011100031A00357A4FE8327C4FED8CB010072443C
:1011200005618280797122D60018232EA4FC232C1D
:10113000B4FC232404FE232204FE232604FE2320E1
:1011400004FE8327C4FD63D80700B7070140DC4FC6
:101150002326F4FE31A0B7070140DC432326F4FE2A
:101160008327C4FDC183BD8B2320F4FE0327C4FD68
:10117000C167FD17F98F2324F4FE0327C4FDB707C9
:1011800030007D8FB70730006315F7020327C4FED8
:10119000B70700F1FD17F98F2326F4FEB7070140CA
:1011A000D443B7070140370700F17D17758FD8C3C7
:1011B000ADA00327C4FDB7071000F98F8DCB83279F
:1011C00004FE0D47B317F7002322F4FE832744FEE5
:1011D00093C7F7FF0327C4FEF98F2326F4FE0327E6
:1011E000C4FEB707000FD98F2326F4FE3DA0832746
:1011F000C4FDD5839207032784FEB317F70093C776
:10120000F7FF0327C4FEF98F2326F4FE0327C4FE4D
:10121000B707000FD98F2326F4FE832784FD91CFD3
:101220008327C4FDD5839207032784FEB317F700F5
:101230000327C4FED98F2326F4FE8327C4FD63D879
:101240000700B70701400327C4FED8CF31A0B70776
:1012500001400327C4FED8C3010032544561828097
:10126000797122D60018AA872E87A30FF4FCBA87BB
:10127000230FF4FC232604FE8347E4FD8D8B8A07AD
:101280003D47B317F7002326F4FE37070140834795
:10129000E4FD898393F7F70F8A07BA979847832766
:1012A000C4FE93C7F7FFB70601400346E4FD098279
:1012B0001376F60F7D8F93172600B69798C73707DA
:1012C00001408347E4FD898393F7F70F8A07BA97B4
:1012D00098478346F4FD8347E4FD8D8B8A07B397D7
:1012E000F600B70601400346E4FD09821376F60FC7
:1012F0005D8F93172600B69798C701003254456159
:101300008280011122CE00102326A4FE8327C4FE72
:10131000FD8B0547B316F70037E700E08327C4FECF
:101320009583938707048A07BA9794C30100724490
:1013300005618280011122CE00102326A4FE83279E
:10134000C4FEFD8B0547B316F70037E700E083279F
:10135000C4FE9583938707068A07BA9794C3010052
:10136000724405618280011122CE00102326A4FE62
:10137000AE87A305F4FE37E700E08327C4FEBA97E3
:101380000347B4FE2380E740010072440561828078
:10139000011106CE22CC00102326A4FEB7E700E000
:1013A000BC47898B8DC38327C4FE83C707003E8754
:1013B0008327C4FE83C72700920793F7F70FBE85E4
:1013C0003A85553795A0B7E700E0BC47898BA9EF70
:1013D0008327C4FE03C7170085476318F7028327D6
:1013E000C4FE83C707003E878327C4FE83C7270048
:1013F0009207E207E18793E707F8E207E18793F7AF
:10140000F70FBE853A85853705A08327C4FE83C7BD
:1014100007003E878327C4FE83C72700920793F700
:10142000F70FBE853A8581378327C4FEDC4381CB25
:101430008327C4FE83C707003E85E13539A0832793
:10144000C4FE83C707003E85F5350100F2406244C3
:1014500005618280797122D60018232EA4FC2326F0
:1014600004FE232404FE232204FE232004FEB717D7
:101470000240DC43B18B2326F4FE0327C4FE9147D0
:101480006302F7020327C4FEA1476305F70283271F
:10149000C4FEC5E78327C4FD37177A00130707206A
:1014A00098C365A08327C4FD37177A001307072068
:1014B00098C361A8B7170240D843B7073C00F98F1B
:1014C0002324F4FEB7170240D843C167F98F2322C3
:1014D000F4FE832784FEC98389072324F4FE83272F
:1014E00044FE89EF032784FEB7173D0093870790DA
:1014F0003307F7028327C4FD98C381A8B7170240BA
:10150000D843B7070200F98F89CF032784FEB717A6
:101510003D00938707903307F7028327C4FD98C3E4
:101520002DA0032784FEB7177A009387072033077F
:10153000F7028327C4FD98C309A88327C4FD371782
:101540007A001307072098C30100B7170240DC4355
:1015500093F7070F2326F4FE8327C4FE91832326E7
:10156000F4FEB7070020138707008327C4FEBA974D
:1015700083C7070093F7F70F2320F4FE8327C4FDEA
:101580009843832704FE3357F7008327C4FDD8C34D
:10159000B7170240DC4393F707702326F4FE832736
:1015A000C4FEA1832326F4FEB7070020138707009B
:1015B0008327C4FEBA9783C7070093F7F70F23204A
:1015C000F4FE8327C4FDD843832704FE3357F70076
:1015D0008327C4FD98C7B7170240D8439167938704
:1015E0000780F98F2326F4FE8327C4FEAD832326CC
:1015F000F4FEB7070020138707008327C4FEBA97BD
:1016000083C7070093F7F70F2320F4FE8327C4FD59
:10161000D843832704FE3357F7008327C4FDD8C778
:10162000B7170240D843B167F98F2326F4FE83270A
:10163000C4FEB9832326F4FEB70700201387871161
:101640008327C4FEBA9783C7070093F7F70F2320B9
:10165000F4FE8327C4FDD847832704FE3357F702DF
:101660008327C4FD98CB010032544561828001116B
:1016700022CE00102326A4FE2324B4FE832784FE5A
:1016800099CBB7170240D44BB71702400327C4FECB
:10169000558FD8CB21A8B7170240D44B8327C4FE5F
:1016A00013C7F7FFB7170240758FD8CB01007244FC
:1016B00005618280011122CE00102326A4FE23247E
:1016C000B4FE832784FE99CBB7170240944FB71717
:1016D00002400327C4FE558F98CF21A8B7170240B8
:1016E000944F8327C4FE13C7F7FFB7170240758FC7
:1016F00098CF0100724405618280011122CE001052
:101700002326A4FE2324B4FE832784FE99CBB71797
:101710000240D44FB71702400327C4FE558FD8CFDD
:1017200021A8B7170240D44F8327C4FE13C7F7FF81
:10173000B7170240758FD8CF0100724405618280CF
:10174000797122D60018232EA4FC232CB4FC231775
:1017500004FE8327C4FD83D707002317F4FE035735
:10176000E4FE8D6793870704F98F2317F4FE832720
:1017700084FD03D70700832784FD83D72700D98FF3
:10178000139707014183832784FD83D74700D98FAF
:10179000139707014183832784FD83D76700D98F7F
:1017A000139707014183832784FD83D78700D98F4F
:1017B000139707014183832784FD83D7A700D98F1F
:1017C000139707014183832784FD83D7C700D98FEF
:1017D000139707014183832784FD83D7E700D98FBF
:1017E0001397070141838357E4FED98F2317F4FE33
:1017F0008327C4FD0357E4FE2390E7008327C4FD3D
:1018000083D7C701139707014183FD779387F77F3C
:10181000F98F1397070141838327C4FD239EE700B7
:10182000832784FD03D707018327C4FD2398E7009E
:101830000100325445618280011122CE001023261E
:10184000A4FE2324B4FE832784FE8DC38327C4FE15
:1018500083D70700C207C18393E7070413970701E3
:1018600041838327C4FE2390E70005A08327C4FE9D
:1018700083D70700C207C18393F7F7FB13970701CC
:1018800041838327C4FE2390E70001007244056171
:101890008280797122D60018232EA4FC232CB4FC5C
:1018A000231704FE8327C4FD83D707002317F4FE04
:1018B0000327C4FDB7370140938707C06308F702C9
:1018C0000327C4FDB70700406302F7020327C4FDE6
:1018D000B707004093870740630AF7000327C4FD5A
:1018E000B7170040938707806311F7028357E4FE20
:1018F00093F7F7F82317F4FE832784FD03D7270017
:101900008357E4FED98F2317F4FE8357E4FE93F741
:10191000F7CF2317F4FE832784FD03D7670083578F
:10192000E4FED98F2317F4FE8327C4FD0357E4FE9A
:101930002390E700832784FD03D747008327C4FD56
:101940002396E702832784FD03D707008327C4FD7E
:101950002394E7020327C4FDB7370140938707C0EC
:10196000631DF700832784FD83C787001397070152
:1019700041838327C4FD2398E7028327C4FD0547DD
:10198000239AE7000100325445618280011122CE82
:1019900000102326A4FE8327C4FE7D572392E70070
:1019A0008327C4FE239007008327C4FE23930700E8
:1019B0008327C4FE239107008327C4FE23840700E6
:1019C0000100724405618280011122CE001023269D
:1019D000A4FE2324B4FE832784FE8DC38327C4FE84
:1019E00083D70700C207C18393E717001397070146
:1019F00041838327C4FE2390E70039A88327C4FED0
:101A000083D70700C207C183F99B1397070141835E
:101A10008327C4FE2390E7000100724405618280A1
:101A2000011122CE00102326A4FEAE872322C4FE7D
:101A30002315F4FE832744FE9DC38327C4FE83D76A
:101A4000C7001397070141838357A4FED98F1397CB
:101A5000070141838327C4FE2396E70035A083272F
:101A6000C4FE83D7C7001397070141838357A4FEA1
:101A700093C7F7FFC207C183F98F1397070141830B
:101A80008327C4FE2396E70001007244056182802B
:101A9000011122CE00102326A4FEAE872322C4FE0D
:101AA0002315F4FE832744FE9DC38327C4FE83D7FA
:101AB000C7001397070141838357A4FED98F13975B
:101AC000070141838327C4FE2396E70035A08327BF
:101AD000C4FE83D7C7001397070141838357A4FE31
:101AE00093C7F7FFC207C183F98F1397070141839B
:101AF0008327C4FE2396E7000100724405618280BB
:101B0000797106D622D40018232EA4FCAE8736871E
:101B1000231DF4FCB287231CF4FCBA87231BF4FCBE
:101B2000231704FE835664FD035784FD8357A4FDE9
:101B30003A86BE850325C4FD89288327C4FD83D743
:101B400087002317F4FE8357E4FEE19B2317F4FE7E
:101B50008357E4FE93E777002317F4FE8357E4FEF0
:101B600093F7F7F82317F4FE8357E4FE93E707078C
:101B70002317F4FE8327C4FD0357E4FE2394E700F4
:101B80000100B250225445618280797122D600183A
:101B9000232EA4FCAE873687231DF4FCB287231CBA
:101BA000F4FCBA87231BF4FC231704FE8327C4FD2F
:101BB00083D787002317F4FE8357E4FE93F7F70FCC
:101BC0002317F4FE835764FDA2071397070141838F
:101BD000835784FDD98F1397070141838357A4FD51
:101BE000D98F1397070141838357E4FED98F2317B9
:101BF000F4FE8327C4FD0357E4FE2394E7000100AD
:101C0000325445618280797122D60018232EA4FCBB
:101C1000AE87231DF4FC231704FE8327C4FD83D75E
:101C200087002317F4FE8357E4FE93F7F7F8231792
:101C3000F4FE0357E4FE8357A4FDD98F2317F4FE67
:101C40008327C4FD0357E4FE2394E70001003254C8
:101C500045618280797122D60018232EA4FCAE87BC
:101C60003687231DF4FCB287231CF4FCBA87231BA0
:101C7000F4FC231704FE231604FE231504FE832719
:101C8000C4FD83D787002317F4FE8327C4FD83D7C1
:101C900087012316F4FE8327C4FD83D7070223158B
:101CA000F4FE8357E4FEE19B2317F4FE0357E4FEA2
:101CB0008357A4FDD98F2317F4FE8357C4FE93F7EF
:101CC000C7CF2316F4FE8357C4FE93E717102316DD
:101CD000F4FE8357A4FE93F7D7FD2315F4FE835734
:101CE00064FD9207139707014183835784FDD98FC1
:101CF0001397070141838357A4FED98F2315F4FE60
:101D00008327C4FD0357E4FE2394E7008327C4FD23
:101D10000357C4FE239CE7008327C4FD0357A4FE9A
:101D20002390E7020100325445618280011122CEE6
:101D300000102326A4FEAE872315F4FE8327C4FEDD
:101D400083D78700C207C183E19B139707014183B3
:101D50008327C4FE2394E7008327C4FE83D787002C
:101D60001397070141838357A4FED98F1397070167
:101D700041838327C4FE2394E70001007244056178
:101D80008280011122CE00102326A4FEAE872315E7
:101D9000F4FE8327C4FE83D78700C207C18393F76D
:101DA000F7F71397070141838327C4FE2394E700C5
:101DB0008327C4FE83D78700139707014183835786
:101DC000A4FED98F1397070141838327C4FE239470
:101DD000E7000100724405618280797122D6001803
:101DE000232EA4FCAE87231DF4FC232604FE23151A
:101DF00004FE231404FE8327C4FD83D70701139731
:101E0000070141838357A4FDF98F2315F4FE83272F
:101E1000C4FD83D7C7001397070141838357A4FDEF
:101E2000F98F2314F4FE8357A4FE81CB835784FEDD
:101E300089C785472326F4FE19A0232604FE83279D
:101E4000C4FE3E85325445618280011122CE0010CD
:101E50002326A4FEAE872315F4FE8357A4FE93C762
:101E6000F7FF1397070141838327C4FE2398E700F8
:101E700001007244056182805D7186C6A2C480083B
:101E8000232EA4FA232CB4FA232604FE232404FED2
:101E9000232204FE232004FE232E04FC8327C4FBFC
:101EA000232EF4FC8327C4FB83D70701C207C18319
:101EB0002326F4FE0327C4FEB567FD17F98F2326FA
:101EC000F4FE832784FB83D767003E878327C4FE05
:101ED000D98F2326F4FE8327C4FE1397070141837D
:101EE0008327C4FB2398E7008327C4FB83D7C7005D
:101EF000C207C1832326F4FE0327C4FEBD67938770
:101F0000379FF98F2326F4FE832784FB03D74700EE
:101F1000832784FB83D78700D98F139707014183D9
:101F2000832784FB83D7A700D98FC207C1833E874D
:101F30008327C4FED98F2326F4FE8327C4FE13977C
:101F4000070141838327C4FB2396E7008327C4FB53
:101F500083D74701C207C1832326F4FE0327C4FEAB
:101F6000C1679387F7CFF98F2326F4FE832784FB7D
:101F700083D7C7003E878327C4FED98F2326F4FE6C
:101F80008327C4FE1397070141838327C4FB239A49
:101F9000E700930784FC3E85EFF0CFCB0327C4FD19
:101FA000B7470140938707806317F700832744FDF5
:101FB0002324F4FE29A0832704FD2324F4FE832791
:101FC000C4FB83D7C700C207C183C207C18763D2DE
:101FD0000702032784FEBA878607BA978E073E97C3
:101FE000832784FB9C438607B357F7022322F4FE22
:101FF00005A0032784FEBA878607BA978E073E9707
:10200000832784FB9C438A07B357F7022322F4FEFD
:10201000032744FE93074006B357F702920723268F
:10202000F4FE8327C4FE13D7470093074006B30787
:10203000F702032744FEB307F7402320F4FE83276B
:10204000C4FB83D7C700C207C183C207C18763D25D
:102050000702832704FE8E07138727039307400692
:10206000B357F7029D8B0327C4FED98F2326F4FEB6
:1020700005A0832704FE92071387270393074006D2
:10208000B357F702BD8B0327C4FED98F2326F4FE76
:102090008327C4FE1397070141838327C4FB23943E
:1020A000E7000100B640264461618280011122CE22
:1020B00000102326A4FE2324B4FE832784FE95C3A8
:1020C0008327C4FE83D7C70013970701418389671D
:1020D000D98F1397070141838327C4FE2396E70016
:1020E00015A08327C4FE83D7C70013970701418338
:1020F000F977FD17F98F1397070141838327C4FEF2
:102100002396E7000100724405618280797122D62E
:102110000018232EA4FCAE87232AC4FC231DF4FC44
:10212000232404FE232204FE232004FE232604FE8F
:102130008327C4FD2326F4FE8357A4FD93F7F70FEE
:10214000958393F7F70F2324F4FE8357A4FDFD8BAB
:102150002322F4FE832744FE0547B317F70023200C
:10216000F4FE032784FE85476318F7008327C4FE27
:10217000B1072326F4FE0DA0032784FE89476318C8
:10218000F7008327C4FEC1072326F4FE31A083276E
:10219000C4FED1072326F4FE832744FD99CB832771
:1021A000C4FE94438327C4FE032704FE558F98C3BF
:1021B00021A88327C4FE9443832704FE13C7F7FF97
:1021C0008327C4FE758F98C3010032544561828015
:1021D000011122CE00102326A4FEAE872315F4FEA3
:1021E0008357A4FE93F7F71F1397070141838327B3
:1021F000C4FE2392E7000100724405618280797178
:1022000022D60018232EA4FCAE87231DF4FC23261F
:1022100004FE8327C4FD83D707001397070141837A
:102220008357A4FDF98FC207C18389C78547232639
:10223000F4FE19A0232604FE8327C4FE3E853254F3
:1022400045618280797122D60018232EA4FCAE87C6
:10225000231DF4FC232204FE232604FE232004FE77
:10226000232404FE8357A4FD93F7F70F958393F778
:10227000F70F2320F4FE8357A4FDFD8B2326F4FEE5
:102280008327C4FE0547B317F7002326F4FE032770
:1022900004FE8547631FF7008327C4FD83D7C7006B
:1022A000C207C1833E878327C4FEF98F2326F4FE2D
:1022B0003DA8032704FE8947631FF7008327C4FD59
:1022C00083D70701C207C1833E878327C4FEF98FE6
:1022D0002326F4FE29A88327C4FD83D74701C2071C
:1022E000C1833E878327C4FEF98F2326F4FE8357DC
:1022F000A4FDA183C207C1832322F4FE832744FEE9
:102300000547B317F7002322F4FE8327C4FD83D7C4
:102310000700C207C1833E87832744FEF98F23222B
:10232000F4FE8327C4FE81CB832744FE89C78547FB
:102330002324F4FE19A0232404FE832784FE3E8573
:10234000325445618280797122D60018232EA4FC74
:10235000AE87231DF4FC231704FE231604FE8357C7
:10236000A4FDA1832317F4FE8357E4FE0547B317AA
:10237000F7002316F4FE8357C4FE93C7F7FF1397A5
:10238000070141838327C4FD2390E70001003254F5
:1023900045618280011106CE22CC0010AA87A307D6
:1023A000F4FE99679387471A9C473E87A1675CCBE9
:1023B00099679387471A9C473E8791675CCB930741
:1023C000F4FE85460146BE850145EF10502D996704
:1023D0009387471A9C473E87A1671CCB0100F240B8
:1023E000624405618280011106CE22CC0010AA87CA
:1023F000A307F4FE99679387471A9C473E87A16716
:102400005CCB99679387471A9C473E8791671CCBA3
:102410009307F4FE85460146BE850145EF1030283E
:1024200099679387471A9C473E87A1671CCB010099
:10243000F240624405618280797106D622D4001888
:10244000AA87231FF4FC99679387471A9C473E8706
:10245000A1675CCB8357E4FDA183C207C18393F7D7
:10246000F70F2306F4FE8357E4FD93F7F70FA30657
:10247000F4FE99679387471A9C473E8791671CCB68
:102480009307C4FE89460146BE850145EF10302101
:1024900099679387471A9C473E87A1671CCB010029
:1024A000B250225445618280797106D622D44AD234
:1024B0004ED052CE56CC5ACA5EC862C666C4001808
:1024C000014881471307F004930630020546814511
:1024D0000145EF1070099306003105468545130547
:1024E0000008EF00506B9306003101468545130547
:1024F000E004EF00506A930600310146854513055C
:10250000D004EF00506999679387471A9C473E872C
:1025100089675CCB03A781838967938707F4335767
:10252000F7029307800CB307F7023E8C814C62855B
:10253000E685EF10F02299679387471A9C473E87FC
:1025400089671CCB03A781838967938707F4335777
:10255000F70293074006B307F7023E8B814B5A857B
:10256000DE85EF10F01F130560032D3503A781836F
:102570008967938707F43357F70293074006B30739
:10258000F7023E8A814A5285D685EF10701D1305E9
:102590000007913D1305A003F53B1545A93513052B
:1025A000200BCD3B314581353145353D0145253D3C
:1025B000130530030D3D1305300335351305700B3E
:1025C000D13B1305500305351305B00BE13313055B
:1025D0007003113D1305000C753B1305C002213536
:1025E0001305200C453B0545FD3B1305300C5D33C1
:1025F0004945D53B1305400C713B13050002E533FB
:102600001305600C413B3D45F93B1305000D593363
:102610001305400AC93B1305100AF1331305000ED8
:10262000953B1305000DC1331145753B3545653BA1
:102630004545553B4D45453B1305B0026D331305EC
:10264000F003553313054005793B1305C004613B86
:102650006145513B3545413B2D4571337D456133E6
:102660001305300249331305100E2D331305000DE9
:102670009D3B11458D3B3145BD334545AD334D4502
:102680009D331305C00285331305F003A93B1305E1
:102690004004913B13051005B9331305F002A13333
:1026A0007D4591337D458133130500022D3B130594
:1026B0003002153B13051002F1394545E13903A7F6
:1026C00081838967938707F43357F702BA879207A4
:1026D000998F8E073E8981494A85CE85EF10500833
:1026E000130590024539C1671385F7FF692801007A
:1026F000B250225412598259724AE24A524BC24B8A
:10270000324CA24C45618280011106CE22CC0010D1
:10271000AA8736872317F4FEAE872316F4FEB28706
:102720002315F4FEBA872314F4FE1305A0029D318D
:102730008357E4FE93878702C207C1833E85ED3944
:102740008357A4FE93878702C207C1833E85ED317C
:102750001305B00281318357C4FE93875703C20724
:10276000C1833E85D139835784FE93875703C207BF
:10277000C1833E85D1311305C00229390100F240E1
:10278000624405618280797106D622D40018AA8736
:10279000231FF4FC930660081306F00E81450145E3
:1027A000A537231704FE05A8231604FE11A8835796
:1027B000E4FD3E8551318357C4FE85072316F4FEA0
:1027C0000357C4FE93076008E3F3E7FE8357E4FE74
:1027D00085072317F4FE0357E4FE9307F00EE3F595
:1027E000E7FC0100B250225445618280797106D61F
:1027F00022D40018AA87AE863287231FF4FCB6873E
:10280000231EF4FCBA87A30DF4FCA30704FE75A0F5
:102810008347F4FE1397070141838357C4FDBA979A
:1028200093950701C1818357E4FD9D071396070126
:1028300041828347F4FE1397070141838357C4FD08
:10284000BA971397070141838357E4FDBA863E8503
:10285000653D8307B4FD938607FE8347F4FE196741
:102860009206130747BB3697BA9783C70700A3069C
:10287000F4FE230704FE05A88347D4FE858B91C789
:10288000C167138507804D3E29A0C1671385F7FFF7
:1028900065368347D4FE8583A306F4FE8347E4FEB2
:1028A00085072307F4FE0347E4FE9D47E3F6E7FCB4
:1028B0008347F4FE8507A307F4FE0347F4FEBD47F4
:1028C000E3F8E7F40100B250225445618280797147
:1028D00006D622D40018AA87AE863287231FF4FCBE
:1028E000B687231EF4FCBA87A30DF4FC0347B4FD9E
:1028F00093074006B357F70293F7F70F2306F4FE4A
:102900000347B4FDA947B357F70213F7F70FA947D9
:10291000B377F70293F7F70FA306F4FE0347B4FD6E
:10292000A947B377F70293F7F70F2307F4FEA3073E
:1029300004FE99A88347F4FEC207C1838E0713974C
:10294000070141838357E4FDBA9713970701418339
:102950008357C4FD920793960701C1828347F4FE13
:10296000130604FFB29783C7C7FF9387070393F744
:10297000F70FE207E1873E86B6853A85853D8347B6
:10298000F4FE8507A307F4FE0347F4FE8947E3F34B
:10299000E7FA0100B250225445618280797106D66F
:1029A00022D40018AA87AE863287231FF4FCB6878C
:1029B000231EF4FCBA87231DF4FC8317A4FD63D8FF
:1029C00007028357C4FD920713970701418383577A
:1029D000E4FD1306D002BA853E85093D8357A4FD68
:1029E000B307F040C207C183231DF4FC31A883570D
:1029F000C4FD92071397070141838357E4FD130633
:102A00000002BA853E85DD330317A4FD89679387ED
:102A10000771B347F702C207C18793F7F70F230483
:102A2000F4FE0317A4FD9307803EB347F702139704
:102A300007014187A947B367F702C207C18793F728
:102A4000F70FA304F4FE0317A4FD93074006B34752
:102A5000F702139707014187A947B367F702C20737
:102A6000C18793F7F70F2305F4FE0317A4FDA947C9
:102A7000B347F702139707014187A947B367F702E6
:102A8000C207C18793F7F70FA305F4FE0317A4FD50
:102A9000A947B367F702C207C18793F7F70F230669
:102AA000F4FEA30704FEA1A88347F4FE8507C2072E
:102AB000C1838E071397070141838357E4FDBA97BB
:102AC0001397070141838357C4FD9207939607012B
:102AD000C1828347F4FE130604FFB29783C787FFC2
:102AE0009387070393F7F70FE207E1873E86B685E2
:102AF0003A85ED398347F4FE8507A307F4FE0347C3
:102B0000F4FE9147E3F2E7FA0100B2502254456126
:102B10008280797106D622D40018232EA4FCAE87B9
:102B20003287231DF4FCBA87231CF4FC231304FE14
:102B3000231204FE231104FE231004FE8357A4FD78
:102B400093960701C1821307000F6374D7009307A0
:102B5000000F2311F4FE835784FD93960701C18271
:102B6000130770086374D700930770082310F4FEEE
:102B7000835724FEFD17139707014183835704FEF3
:102B8000FD17C207C183BE863A8681450145EFF035
:102B9000BFB7232404FE5DA8232604FE69A80357BB
:102BA000A4FD832784FE3307F7028356A4FD832701
:102BB000C4FEB386F602835724FEB3D7F602BA9753
:102BC0000327C4FDBA9783C707002312F4FE835777
:102BD00044FE8D83C207C183AE072313F4FE8357DF
:102BE00044FE8983C207C1839607C207C18793F752
:102BF000077E139707014187831764FED98FC207A9
:102C0000C1872313F4FE835744FE8D83C207C1831B
:102C1000FD8B139707014183835764FED98F2313DC
:102C2000F4FE835764FE3E85EFF01F818327C4FEC8
:102C300085072326F4FE835724FE0327C4FEE360A2
:102C4000F7F6832784FE85072324F4FE835704FECA
:102C5000032784FEE362F7F40100B2502254456179
:102C60008280411122C6000899679387C71EDC4302
:102C700083D7470013970701418383C7B182BE867C
:102C80001377F70F93878182B6972380E70083C776
:102C9000B182850713F7F70FA385E18203C7B182DD
:102CA0008547631AF70003C781829307500A6304BC
:102CB000F700A385018203C7B1828D476317F70030
:102CC000A385018205472386E18201003244410148
:102CD0008280797106D622D44AD24ED00018232E93
:102CE000A4FC232CB4FC23860182231704FE69A0D4
:102CF000930750FA2304F4FE8357E4FE8A07032760
:102D000084FDBA978397070093F7F70FA304F4FEA7
:102D10008357E4FE8A07032784FDBA978397270029
:102D20002316F4FE8357C4FEA183C207C18393F721
:102D3000F70F2305F4FE8357C4FE93F7F70FA3059F
:102D4000F4FE930784FE1146BE850325C4FDEF10F3
:102D5000C04E03A781838967938707F4B357F702AF
:102D600086073E8981494A85CE85EF10601F8357CB
:102D7000E4FE85072317F4FE0357E4FEA147E3F9B9
:102D8000E7F6010083C7C18293F7F70FE5DF2386DB
:102D9000018201009387818203C717009307F00F18
:102DA000E31AF7FE9387818203C727009307F00F8A
:102DB000E312F7FE0100B2502254125982594561C4
:102DC0008280797106D622D40018232EA4FC232CED
:102DD000B4FC231704FE45A0930750FA2304F4FE25
:102DE000C557A304F4FE8357E4FE8A07032784FD36
:102DF000BA97839707002316F4FE8357C4FEA18376
:102E0000C207C18393F7F70F2305F4FE8357C4FE6F
:102E100093F7F70FA305F4FE930784FE1146BE85D2
:102E20000325C4FDEF106041010083C7C18293F701
:102E3000F70FE5DF238601829387818283C717001E
:102E4000A20793960701C1869387818283C72700D3
:102E50001397070141878357E4FE8A07032684FD01
:102E6000B297558F420741872391E7008357E4FECD
:102E700085072317F4FE0357E4FE9D47E3FEE7F4BE
:102E80000100B250225445618280411106C622C41D
:102E9000000813068004B1450545452585460146D1
:102EA00085455D45EF0060710100B240224441015B
:102EB0008280411106C622C40008B1450145792629
:102EC0000100B240224441018280011106CE22CC91
:102ED0000010930700042307F4FE9D47A307F4FEA8
:102EE00005A00347F4FE8347E4FEBA9791460146E6
:102EF00081453E854D218347F4FEFD17A307F4FE6F
:102F00008347F4FEF9FF83A7C1833E8789679386D1
:102F1000874B3A86B717014093858700B707024071
:102F200013854704F9228546014681457945712577
:102F30000100F240624405618280411106C622C44C
:102F40000008B7070020054723AEE7103707002029
:102F50001307C71723AEE182C546414689679385AB
:102F600007580545EF10C01785450545EF1040315E
:102F70000145EF00E07823860182B70700209385A2
:102F8000470305453D3D23860182B7070020938511
:102F9000070105453D3B23860182B7070020938545
:102FA00047030545393DEF00207105371937F13DDD
:102FB0000100B240224441018280411122C6000832
:102FC000B70702409387470409671307874BD8C3A5
:102FD000B7070240938747049843B7070240938797
:102FE00047041367170098C30100324441018280EF
:102FF000411122C600080547A386E182B7070240B7
:10300000938747049443B707024093874704416777
:103010007917758F98C301003244410182804111B4
:1030200022C6000899679387C71EDC4383D74700F1
:1030300013970701418383C73183BE861377F70F48
:1030400093870183B6972380E70083C73183850781
:1030500013F7F70FA389E18203C731838547631A0A
:10306000F70003C701839307500A6304F700A3899D
:10307000018203C731838D476317F700A38901825B
:103080000547238AE18201003244410182804111D7
:1030900022C60008B7070240938747040567130755
:1030A0000796D8C3B7070240938747049843B707EA
:1030B0000240938747041367170098C30100324406
:1030C00041018280411122C600080547A38AE1829E
:1030D000B7070240938747049443B707024093879A
:1030E000470441677917758F98C301003244410145
:1030F00082805D7186C6A2C48008232EA4FA232C88
:10310000B4FA232AC4FA2328D4FA0327C4FBB70746
:103110000240A1076301F7060327C4FBB70702407B
:10312000F107630AF7040327C4FBB707024093873C
:1031300007036302F7040327C4FBB7070240938722
:103140004704630AF7020327C4FBB70702409387CB
:1031500087056302F7020327C4FBB7070240938782
:10316000C706630AF7000327C4FBB707024093872B
:1031700007086317F70085450545EFE04FCFA9A87D
:103180000327C4FBB7070240938787406302F70415
:103190000327C4FBB70702409387C741630AF702BE
:1031A0000327C4FBB7070240938707436302F70274
:1031B0000327C4FBB707024093874744630AF7001D
:1031C0000327C4FBB7070240938787456316F700C0
:1031D00085450945EFE0AFC90325C4FBEFD0CFF229
:1031E000832784FB2322F4FC832744FB2324F4FC61
:1031F000232604FC832704FB2328F4FC232A04FC55
:1032000093070008232CF4FC232E04FC232004FE47
:10321000232204FE8D672324F4FE232604FE930755
:1032200044FCBE850325C4FBEFD0FF8E05468945CF
:103230000325C4FBEFD0BF9C85450325C4FBEFD01D
:103240001F980100B640264461618280797106D6DC
:1032500022D40018232EA4FC232CB4FC854505455C
:10326000EFE04FC58327C4FD81EB85458567138556
:103270000780EFE02FC435A80327C4FD85476317F7
:10328000F70085450545EFE04FC725A00327C4FD9E
:1032900089476317F70085450945EFE00FC611A878
:1032A0000327C4FD8D476316F70085451145EFE000
:1032B000CFC4914601468145032584FDE928FD5789
:1032C0002314F4FE231204FE231504FE231304FE2C
:1032D000230604FE99670327C4FD0A079387C71CCA
:1032E000BA979C433E87930744FEBE853A85EFE03C
:1032F0004FDA99670327C4FD0A079387C71CBA975B
:103300009C438146216681453E85EFE06FFF9967CA
:103310000327C4FD0A079387C71CBA979C439305EC
:1033200000073E85EFE03F8E99670327C4FD0A073B
:103330009387C71CBA979C4391453E85EFE01F9F3A
:1033400099670327C4FD0A079387C71CBA979C4354
:10335000930500083E85EFE0DFA299670327C4FDCF
:103360000A079387C71CBA979C4385453E85EFE0C3
:10337000AFE599670327C4FD0A079387C71CBA976F
:103380009C43054691653E85EFE08FF00100B25009
:10339000225445618280797106D622D40018232EEA
:1033A000A4FC232CB4FCB2872328D4FCA30BF4FC8C
:1033B0008327C4FD958393F7F70F9D8BA307F4FE36
:1033C0008327C4FD93F7F70FFD8B2307F4FE032734
:1033D000C4FD93070008630DF7148327C4FD95838C
:1033E00091E785451145EFE0EFAC61A88327C4FD67
:1033F00013D7570085476317F70085452145EFE050
:103400006FAB41A08327C4FD13D7570089476317CB
:10341000F70085454145EFE0EFA9A5A08327C4FD4E
:1034200013D757008D476318F70085451305000231
:10343000EFE04FA8B9A08327C4FD13D757009147E9
:103440006318F700854513050004EFE0AFA615A843
:103450008327C4FD13D7570095476318F7008545A8
:1034600013050008EFE00FA529A88327C4FD13D793
:10347000570099476317F700854513050010EFE0E3
:103480006FA38347E4FE0547B317F700C207C18364
:103490002310F4FE032784FD85476317F702832773
:1034A00004FDC207C183A183C207C18389E78D4799
:1034B0002322F4FE11A8832704FDC207C183A18340
:1034C000C207C1832322F4FE832704FDC207C18300
:1034D00093F7F70F2324F4FE0347F4FE99670A07D6
:1034E0009387471ABA979C433E87930704FEBE858D
:1034F0003A85EFD01F9D032784FD8547631BF702A4
:103500000347F4FE99670A079387471ABA979C43C3
:10351000BE868347E4FE0547B317F700C207C183A1
:10352000034774FD3A86BE853685EFD03FBC11A0B7
:103530000100B250225445618280797106D622D4AE
:103540000018232EA4FC232CB4FC232AC4FC85459C
:103550000545EFE02F96832644FD0146814503256E
:10356000C4FD153D8327C4FD958313F7F70F83270B
:10357000C4FD93F7F70FFD8B93F7F70FBE853A85E0
:10358000EFD01FCE8327C4FDFD8B0547B317F7008F
:103590002320F4FE232204FE832784FD2324F4FE4B
:1035A00085472326F4FE930704FE3E85EFD00FF3F4
:1035B0000100B250225445618280797106D622D42E
:1035C0000018232EA4FCAE873687A30DF4FCB28727
:1035D000230DF4FCBA87A30CF4FC8327C4FD93F7F6
:1035E000F70F2304F4FE8347B4FDA304F4FE8347DE
:1035F000A4FD2305F4FE834794FD2326F4FE9307E0
:1036000084FE3E85EFD0DFD8B7E700E09843FD7732
:103610007D8FB727002083A747635D8FB7270020E2
:1036200023AAE762B7E700E0D843B7070010FD1709
:103630007D8FB727002093874763DC435D8FB727D3
:10364000002093874763D8C3B72700209387476339
:1036500003C7870085476313F70031200100B2508C
:10366000225445618280411122C60008B7E700E07C
:103670007D5723A0E718B7E700E07D5723A2E7189E
:103680000100324441018280411122C60008B7E79F
:1036900000E0372700200327476323A0E710B7E7A0
:1036A00000E03727002013074763584323A2E710A1
:1036B0000100324441018280011106CE22CC00106B
:1036C000B72700209387476305472384E700B72780
:1036D000002083A7476391EBB727002093874763B8
:1036E000DC4381E7A30704FE21A08547A307F4FE7E
:1036F0009D3F8347F4FE3E85F2406244056182802F
:10370000011106CE22CC0010AA87A307F4FE83473E
:10371000F4FE81EBB72700209387476323840700DB
:10372000A5370100F240624405618280797106D6B6
:1037300022D40018232EA4FCAE87231DF4FC83277B
:10374000C4FD81EB8545856713850780EFD09FF623
:1037500035A80327C4FD85476317F7008545054550
:10376000EFD0BFF925A00327C4FD89476317F700F1
:1037700085450945EFD07FF811A80327C4FD8D4783
:103780006316F70085451145EFD03FF78357A4FD39
:1037900091EF9967938607B599671386471B930541
:1037A00020039967138547B5EF10601003A7818345
:1037B0009307007DB357F702C207C183FD17C20705
:1037C000C1832314F4FE8357A4FD8607C207C18377
:1037D000FD17C207C1832312F4FE231504FE231331
:1037E00004FE230604FE99670327C4FD0A07938796
:1037F000C71CBA979C433E87930744FEBE853A8513
:10380000EFE02F8999670327C4FD0A079387C71C38
:10381000BA979C43054685453E85EFE06FA09967C2
:103820000327C4FD0A079387C71CBA979C438545A5
:103830003E85EFE08FE18327C4FD81EB8546094695
:10384000854513059002953BB1A00327C4FD85472C
:103850006319F7008546094685451305C002B13B4B
:1038600015A80327C4FD8947631AF7008546094652
:1038700085451305D002EFF05FD429A80327C4FDC6
:103880008D476319F7008546094685451305E00213
:10389000EFF0BFD299670327C4FD0A079387C71CBF
:1038A000BA979C4385453E85EFE00F920100B250E8
:1038B000225445618280011106CE22CC00102326BD
:1038C000A4FE2324B4FE8327C4FE81EB9146014667
:1038D00081452145EFF03FAC59A80327C4FE894735
:1038E0006319F7009146014681450145EFF0BFAAF3
:1038F000BDA80327C4FE91476319F700914601460E
:1039000081453D45EFF03FA99DA00327C4FE99479F
:103910006319F7009146014681451945EFF0BFA7AD
:10392000B9A00327C4FEA147631AF70091460146D8
:10393000814513056004EFF01FA615A80327C4FEF8
:10394000A947631AF70091460146814513054002D5
:10395000EFF07FA429A80327C4FEB1476319F7003D
:1039600091460146814513056002EFF0DFA203276F
:1039700084FE85476319F700914601468145254538
:10398000EFF07FA161A8032784FE8D476319F7003C
:103990009146014681450545EFF0FF9F41A0032771
:1039A00084FE9547631AF700914601468145130549
:1039B0003002EFF05F9E9DA0032784FE9D476319B0
:1039C000F7009146014681451D45EFF0DF9CB9A007
:1039D000032784FEA547631AF700914601468145F7
:1039E00013057004EFF03F9B15A8032784FEAD4735
:1039F000631AF70091460146814513055002EFF026
:103A00009F9929A8032784FEB5476319F7009146BB
:103A10000146814513057002EFF0FF970100F24067
:103A2000624405618280797106D622D40018232E63
:103A3000A4FC232CB4FC232AC4FC8327C4FD81EB03
:103A40008545856713850780EFD0DFC635A8032736
:103A5000C4FD85476317F70085450545EFD0FFC9CD
:103A600025A00327C4FD89476317F700854509454D
:103A7000EFD0BFC811A80327C4FD8D476316F70018
:103A800085451145EFD07FC7832544FD032584FD7F
:103A90001D3585450545EFD0FFC1032784FD9147BE
:103AA000631FF700032744FD9547631AF700854518
:103AB000B707180013850730EFD0CFE6A1A0032782
:103AC00084FDA147631FF700032744FDA547631A40
:103AD000F7008545B7171A00138507C0EFD08FE4AC
:103AE00015A0032784FDA947631EF700032744FDA3
:103AF000AD476319F7008545B7171A00138507808E
:103B0000EFD04FE2930744FE3E85EFD03FE8854774
:103B10002312F4FEFD572314F4FE231504FE231391
:103B200004FE230604FE99670327C4FD0A07938752
:103B3000C71CBA979C433E87930744FEBE853A85CF
:103B4000EFD03FD599670327C4FD0A079387C71CA9
:103B5000BA979C438146014689453E85EFE08F8FA9
:103B600099670327C4FD0A079387C71CBA979C432C
:103B700085453E85EFD05FE50100B2502254456196
:103B80008280797122D60018232EA4FC996703271E
:103B9000C4FD0A079387C71CBA979C4383D7470283
:103BA000C207C1832317F4FE8317E4FE3E85325417
:103BB00045618280011122CE00102326A4FE996760
:103BC0000327C4FE0A079387C71CBA979C43239216
:103BD00007020100724405618280011106CE22CCE9
:103BE00000102326A4FE2324B4FE2322C4FE232097
:103BF000D4FE8327C4FE89EB9306803105468545B4
:103C00001545EFF04FF999A80327C4FEC147631B80
:103C1000F700930680310546854513053002EFF025
:103C20008FF72DA80327C4FE93070002631BF7003C
:103C300093068031054685451305D002EFF0AFF5B8
:103C400031A89967938647B899671386C71D93056E
:103C5000D0029967138587B8EF007045032784FE6B
:103C60008547631AF70093068031054685451D4553
:103C7000EFF06FF299A8032784FEC547631BF70096
:103C8000930680310546854513055002EFF0AFF0ED
:103C90002DA8032784FE93071002631BF7009306E9
:103CA0008031054685451305F002EFF0CFEE31A8CF
:103CB0009967938647B899671386C71D93052003B4
:103CC0009967138587B8EF00903E032744FE894724
:103CD000631AF70093068031054685451945EFF0D4
:103CE0008FEBB5A0032744FEC947631BF70093067B
:103CF00080310546854513054002EFF0CFE981A8E4
:103D0000032744FE93072002631BF70093068031CC
:103D1000054685451305E002EFF0EFE70DA8032700
:103D200044FE930730026317F70093073002232203
:103D3000F4FE31A89967938647B899671386C71D23
:103D4000930580039967138587B8EF005036930673
:103D5000003105468545032504FEEFF0CFE3010061
:103D6000F2406244056182805D7186C6A2C480080B
:103D70002326A4FC2324B4FC2322C4FC2320D4FC4B
:103D8000232EE4FA232A04FBA30DF4FA8327C4FCB0
:103D900081EB8545856713851700EFD0BF9121A87A
:103DA0000327C4FC85476318F70085459167138591
:103DB0001700EFD09F948326C4FB032604FC8325C1
:103DC00044FC032584FCEFF05FE1231E04FC930711
:103DD0004010231FF4FC231004FE8347B4FB054767
:103DE0006383E70205476344F70089CB81A0094755
:103DF0006381E7020D476384E7020DA8231104FEE7
:103E0000231204FE25A0231104FE85472312F4FE8D
:103E100031A889472311F4FE231204FE01A8894723
:103E20002311F4FE85472312F4FE010093070020BE
:103E30002313F4FE832744FBC207C1838E07C20706
:103E4000C1832314F4FE231504FE9D472316F4FEBC
:103E50000327C4FC0A0793874181BA979C433E8796
:103E60009307C4FDBE853A85EFD09F8D032784FC60
:103E7000C1476316F70085450545EFD0AFAA032774
:103E8000C4FC0A0793874181BA979C4385453E85C8
:103E9000EFD09F9A0100B6402644616182800111F3
:103EA00022CE00102326A4FE2324B4FE2322C4FE27
:103EB0002320D4FE59A801000327C4FE0A079387D4
:103EC0004181BA979C4383D78700C207C183898BFE
:103ED000E5D7832784FE138717002324E4FE83C6D7
:103EE00007000327C4FE0A0793874181BA979C43C2
:103EF0003E8793970601C1832316F700832744FE6C
:103F0000A9C701000327C4FE0A0793874181BA9716
:103F10009C4383D78700C207C183858BE5D70327DE
:103F2000C4FE0A0793874181BA979C4383D7C70091
:103F300093960701C182832744FE1387170023222B
:103F4000E4FE13F7F60F2380E700832704FE1387B0
:103F5000F7FF2320E4FEA5F301007244056182808F
:103F6000011122CE00102324A4FE2326B4FE37F72D
:103F700000E02320070037F700E02302070037F7AF
:103F800000E0A302070037F700E02303070037F73C
:103F900000E0A303070037F700E02304070037F72A
:103FA00000E0A304070037F700E02305070037F718
:103FB00000E0A305070037F700E0854614C30100C1
:103FC00037F700E011071843BA8701480327C4FEFA
:103FD000C286636DD7000327C4FEC286E312D7FEF4
:103FE000032784FEBE866363D700D9BF01007244F5
:103FF00005618280011106CE22CC00102326A4FE8A
:104000002324B4FE8327C4FE85E7032784FE854767
:104010006310F70293068031014685452545EFF090
:104020008FB79146014681452945EFF0CFB665A08F
:104030000327C4FE89476312F702930680310146C5
:10404000854513056002EFF00FB5914601468145A5
:1040500013057002EFF02FB4BDA80327C4FEC147BB
:104060006310F70293068031014685450945EFF05C
:104070008FB29146014681450D45EFF0CFB1A1A821
:104080000327C4FE930700026312F70293068031F0
:10409000014685451305A002EFF0EFAF91460146BA
:1040A00081451305B002EFF00FAF35A00327C4FE22
:1040B000930720026311F70293068031014685457C
:1040C0001305A004EFF02FAD91460146814513057D
:1040D000B004EFF04FAC0100F24062440561828011
:1040E000797106D622D40018232EA4FC232CB4FC0C
:1040F000232AC4FC2328D4FC85450545EFD08FDB5B
:10410000832504FD032544FDF535032744FD894738
:10411000631BF700032704FD8D476316F7008545F1
:104120001145EFD02F80032744FD93072002631F22
:10413000F700032704FD930730026319F700854554
:10414000B707140013850701EFC0DFFD8327C4FD07
:1041500091E785451165EFD0EFD535A00327C4FD64
:1041600085476318F700854537050200EFD0EFD883
:1041700019A80327C4FD89476317F700854537054C
:104180000400EFD08FD7832784FD2320F4FE231271
:1041900004FE231304FE231404FE231604FEB14779
:1041A0002315F4FE99670327C4FD0A079387C71EEA
:1041B000BA979C433E87930704FEBE853A85EFD0AD
:1041C000BFCB99670327C4FD0A079387C71EBA9719
:1041D0009C4385453E85EFD07FED0100B2502254CF
:1041E00045618280011122CE00102326A4FEAE87F5
:1041F000A305F4FE010099670327C4FE0A0793870D
:10420000C71EBA979C4383D70700C207C18393F7A1
:104210000708F5D399670327C4FE0A079387C71ECB
:10422000BA979C433E878347B4FEC207C1832312DB
:10423000F7000100724405618280011106CE22CC94
:1042400000102326A4FE2324B4FE2322C4FE29A8A2
:10425000832784FE138717002324E4FE83C7070007
:10426000BE850325C4FEBD3F832744FE1387F7FFA9
:104270002322E4FEF1FF0100F240624405618280E6
:10428000011106CE22CC00102326A4FEAE87A30582
:10429000F4FE99670327C4FE0A079387C71EBA97DF
:1042A0009C430546930550523E85EFD03FE6832759
:1042B000C4FE938757030347B4FEBA86014681457F
:1042C0003E85EFF08FAF0100F240624405618280CD
:1042D000411106C622C40008B7170240DC43C98357
:1042E00013F7F700B7177A00938707203307F70211
:1042F000B727F400938707403E9723ACE1828546B9
:104300000146F167938507200145EFF07FDD01004D
:10431000B240224441018280797106D622D400182D
:10432000232EA4FC232CB4FC232AC4FC232604FE45
:1043300099A00100996783A7C71E930500043E85D5
:10434000EFD0FFEBAA87FDD7996783A7C71EBE866C
:10435000832784FD13871700232CE4FC8387070041
:10436000C207C183BE853685EFD09FE68327C4FE92
:1043700085072326F4FE0327C4FE832744FDE34A72
:10438000F7FA832744FD3E85B2502254456182806E
:10439000011122CE0010232604FE232404FEB717A9
:1043A00002409443B71702404167558F98C3B7172F
:1043B00002409843B7070200F98F2324F4FE8327B5
:1043C000C4FE85072326F4FE832784FE99E703278E
:1043D000C4FE93070050E31CF7FCB7170240984354
:1043E000B7070200F98F89C785472324F4FE19A077
:1043F000232404FE032784FE85476317F70CB727A1
:1044000002409843B72702401367070198C3B727B4
:1044100002409843B7270240719B98C3B7270240D8
:104420009843B72702401367270098C33717024005
:10443000B71702405843D8C337170240B717024096
:104440005843D8C337170240B71702405843D8C360
:10445000B7170240D443B71702403707C1FF7D1793
:10446000758FD8C3B7170240D443B7170240370738
:104470002500558FD8C3B71702409443B7170240A1
:1044800037070001558F98C30100B71702409843C2
:10449000B7070002F98FF5DBB7170240D843B7170B
:1044A0000240719BD8C3B7170240D843B7170240E8
:1044B00013672700D8C30100B7170240DC4313F786
:1044C000C700A147E31AF7FE01007244056182802C
:1044D000411106C622C40008B71702409843B71717
:1044E00002401367170098C3B7170240D443B717A9
:1044F00002403707FFF8758FD8C3B71702409443BF
:10450000B71702403707F7FE7D17758F98C3B717A7
:1045100002409443B71702403707FCFF7D17758FA1
:1045200098C3B7170240D443B7170240370781FF3B
:104530007D17758FD8C3B717024037079F0098C7FC
:10454000EFF01FE50100B240224441018280797101
:1045500006D622D40018AA87A30FF4FC1306800CF9
:104560008145B727002013850764EFB07FBD130690
:10457000800C9305E005B72700201385476AEFB04C
:104580003FBC1306800C9305B00BB72700201385A2
:104590008770EFB0FFBA130720032391E1842394BF
:1045A0000184239501841307E0052394E180930798
:1045B00010032326F4FE21AC0327C4FE9307100347
:1045C000630FF702839781803E86B707002083261A
:1045D000C4FE1307C00B3387E6029387C717BA9749
:1045E000B29783C707000347F4FD63FAE700832708
:1045F000C4FE1397070141872391E184E9AA23931D
:104600000184039761842392E184839781803E87AC
:104610008397A180B307F7402324F4FEB5A8B7071A
:1046200000208326C4FE1307C00B3387E60293875E
:10463000C7173E97832784FEBA9783C707000347AF
:10464000F4FD63FAE700832784FE1397070141878F
:104650002390E184B1A08397A1803E87832784FEC5
:10466000998F63D307022390018405472392E18445
:1046700083978184C207C1838507C207C1831397CB
:10468000070141872394E1848397A1803E87832794
:1046900084FE998F2324F4FE832784FEE3D107F858
:1046A000839781803E878397A180BA972322F4FE67
:1046B00051A0B70700208326C4FE1307C00B338721
:1046C000E6029387C7173E97832744FEBA9783C7AE
:1046D00007000347F4FD63FAE700832744FE1397BE
:1046E000070141872396E180A1A88397A1803E8797
:1046F000832744FE3E979307B00B63D5E702130769
:10470000B00B2396E18005472393E1848397A1842E
:10471000C207C1838507C207C18313970701418779
:104720002395E1848397A1803E87832744FEBA972F
:104730002322F4FE032744FE9307B00BE3DBE7F6E6
:1047400003970184B72700208326C4FE860693873B
:104750000764B6972390E7000397C180B72700202E
:104760008326C4FE93864606860693870764B6971B
:104770002390E700839701843E878397C180BA978F
:104780008587139707014187B72700208326C4FE3A
:1047900093862603860693870764B6972390E700DF
:1047A0008397418485E38397618489EF83970184AC
:1047B0003E878397C180BA97858713970701418702
:1047C0002394E1808327C4FEFD172326F4FE83276C
:1047D000C4FEE3D307DE0100B2502254456182805B
:1047E000011122CE0010231704FE231604FE9307A6
:1047F00010032324F4FE49A813071003832784FE23
:104800001D8FB7070020060793874705BA97839740
:104810000700139707014183B7270020832684FEF2
:1048200093862603860693870764B69783970700C7
:10483000938727FAC207C183B307F70213970701CB
:1048400041838357E4FEBA97C207C1832317F4FE5E
:1048500013071003832784FE1D8FB7070020060768
:1048600093874705BA9783970700139707014183FA
:104870008357C4FEBA97C207C1832316F4FE832769
:1048800084FEFD172324F4FE839721843E8783272B
:1048900084FEE3D3E7F60317E4FE8317C4FEB347B1
:1048A000F702C207C1873E85724405618280938703
:1048B00001819C434111328806C6AA882E87C847C9
:1048C0003686972700009387A793631708009727DA
:1048D00000009387A7933E88C6869725000093859E
:1048E00025931920EF00300B397132D436D63EDAD9
:1048F0003AD842DC46DE938701812E86AA8588431A
:10490000341006CE36C69528F240216182801C46BE
:10491000FD171CC663D90700184E63C5E700A947F9
:104920006393F5005DA51C422E851387170018C2FE
:104930002380B7008280011122CC26CA4AC84EC605
:1049400052C406CE2A89AE893284B304D6007D5A79
:1049500063149400014511A8834504004E864A85DE
:10496000EFF0FFFA0504E31545FFF2406244D2443C
:104970004249B249224A05618280357122CD26CB57
:104980004AC94EC706CF52C556C35AC1DEDEE2DC65
:10499000E6DAAA89AE843289368409C51C4D99E3CA
:1049A000EF001026972700009387478F639DF40C34
:1049B00083A4490083D7C400A18BE5CB9C48F5C7ED
:1049C00093070002A304F1029307000302D2230518
:1049D000F10222C6930B5002972A0000938A4A865E
:1049E000054C294B4A848347040099C36391770F90
:1049F000B30C2441638E0C00E6864A86A6854E855C
:104A0000EFF07FF3FD576308F51E9256E69636D217
:104A1000834704006381071EFD571309140002C871
:104A200002CE3ECA02CCA309010482D48345090008
:104A300015465685EF00B04313041900C24751E9EB
:104A400013F7070109C713070002A309E10413F7CD
:104A5000870009C71307B002A309E10483460900D0
:104A60001307A002638FE606F2474A848146254673
:104A70000347040093051400130707FD6378E60A53
:104A8000ADCA3ECEBDA097270000938727836395CC
:104A9000F40083A4890039BF971700009387077E2D
:104AA000E39AF4F083A4C90031B7A6854E85F12BB3
:104AB00001D97D55FA406A44DA444A49BA492A4A3A
:104AC0009A4A0A4BF65B665CD65C0D6182800504EF
:104AD00019BF330555413315AC00C98F3EC8228933
:104AE000B1B7324793064700184336C663490702F9
:104AF0003ACE034704009307E002631FF70403471D
:104B000014009307A002631BF702B247090413873E
:104B100047009C433AC663C107023ECA35A8330723
:104B2000E04093E727003ACE3EC8E1B7B38767037A
:104B300085462E84BA972DBFFD57C5B7050402CA16
:104B40008146814725460347040093051400130757
:104B500007FD6378E606F1F2834504000D4617155C
:104B600000001305656EEF00903011CD971700001F
:104B70009387876D1D8D93070004B397A700424567
:104B800005045D8D2AC883450400194617150000E9
:104B90001305C56B130914002304B102EF00302D77
:104BA0003DC197B7FFFF9387E74595E74247B24777
:104BB0001377071009CF91073EC69257D2973ED27E
:104BC00015B5B387670385462E84BA97ADBF9D0799
:104BD000E19BA107D5B77800970600009386E6D53C
:104BE00026860C084E8597000000E7000000FD5760
:104BF0002A8AE314F5FC83D7C40093F70704E39AE9
:104C000007EA125545BD7800970600009386E6D264
:104C100026860C084E85012AD9BF797156CA9C494F
:104C2000BA8A984522D426D24ECE52CC06D64AD045
:104C30005AC85EC6AA892E84B284368A63D3E70036
:104C4000BA879CC00347340419C385079CC01C4025
:104C500093F7070281C79C4089079CC00329040081
:104C600013796900631A0900130B9401FD5B5C441E
:104C70009840998F634CF9041C408346340493F7A1
:104C80000702B336D000A5EB13063404D2854E8557
:104C9000829AFD576303F5041C4011469840998B96
:104CA000544481446397C700B384E64063D304004F
:104CB00081441C4418486354F700998FBE940149FD
:104CC00069047D5B63982405014509A885465A86D9
:104CD000D2854E85829A631E75017D55B25022544D
:104CE00092540259F249624AD24A424BB24B456150
:104CF00082800509ADBF3307D40013060003A3016A
:104D0000C7040347540493871600A2978906A3811A
:104D1000E7049DBF85462286D2854E85829AE30EA2
:104D200065FB050945B7797122D426D24AD04ECE0B
:104D300006D652CC56CA5AC8B68983C6850193078F
:104D4000E0063289AA842E84138635046381F61E18
:104D500063E2D706930730066382F60A63EDD70055
:104D6000638B061E930780056387F616930A240457
:104D70002301D40469A8930740066386F6009307CD
:104D80009006E395F6FE1C40084393F6070893054A
:104D90004500C1C21C410CC363D807001307D002F1
:104DA000B307F040A301E404971600009386864AF7
:104DB000294765A0930730076383F61A63EFD7008E
:104DC0009307F006638FF60493070007E390F6FA63
:104DD0009C4193E707029CC109A89307500763828F
:104DE000F60493078007E393F6F893078007A3027E
:104DF000F4049716000093862647E5A01C43938A87
:104E00002504938647009C4314C32381F5048547FA
:104E1000B5A293F607041C410CC3BDDEC207C187CF
:104E2000A5BF0C401C4313F8050813854700630514
:104E3000080008C39C4339A093F5050408C3FDD9B5
:104E400083D707001307F006638BE60C9716000064
:104E5000938646402947A30104044C400CC463C513
:104E6000050008406D9908C099E3B28A91CDB28AD5
:104E7000B3F5E702FD1AB69583C505002380BA0095
:104E8000B3D5E70263F3E70AA147631EF7001C40AE
:104E9000858B91CB58401C4863C7E70093070003FC
:104EA000A38FFAFEFD1A3306564110C84E87CA86F4
:104EB0007000A2852685EFF05FD67D5A6314450DFC
:104EC0007D55B250225492540259F249624AD24A54
:104ED000424B45618280A382D504971600009386D9
:104EE00066370C40084313F805081C4111056300A0
:104EF000080208C313F7150001C793E505020CC0AB
:104F00004147B1FB0C4093F5F5FD0CC0A9B713F870
:104F1000050408C3E30008FEC207C183E1BF97167A
:104F200000009386263321473DB7AE8791B7944161
:104F30001C43CC4913F80608138547006306080094
:104F400008C39C438CC301A808C393F606049C4382
:104F5000F5DA2390B70023280400B28A81BF1C43EE
:104F6000D04181459386470014C383AA0700568524
:104F7000FD2D01C53305554148C05C401CC8A30147
:104F800004042DB714485686CA8526858299E309FC
:104F900045F31C40898B8DE7B2474844E353F5F253
:104FA0003E8505B785465686CA8526858299E309DA
:104FB00065F1050A5C443247998FE345FAFEE9BF83
:104FC000014A930A94017D5BF5B7011122CC26CAF0
:104FD0004AC806CE4EC6AA842E89328401C51C4D0D
:104FE00091E33929971700009387472B6319F4063B
:104FF000C0401C4C1CC48357C400A18BC9C31C48AF
:10500000BDCF1C4808409379F90F1379F90F1D8D16
:105010005C486346F500A2852685D9242DE51C440D
:105020000505FD171CC41C401387170018C02380FA
:1050300037015C486389A7008357C400858B81CB07
:10504000A9476316F900A2852685592C0DEDF2407B
:1050500062444A85D2444249B24905618280971729
:1050600000009387A7256314F400804459B797176D
:1050700000009387A720E31EF4F6C0449DBFA285DD
:10508000268521203DDD7D59D9B7411193870181C6
:1050900026C2844322C44AC006C62A892E8489C4F3
:1050A0009C4C99E32685A92E971700009387071F2C
:1050B000631CF402C0400317C40093170701C183A7
:1050C00093F68700B5EE93F607019DEEA5472320E2
:1050D000F900136707042316E4007D55B24022440B
:1050E0009244024941018280971700009387071D6F
:1050F0006314F4008044C1B7971700009387071822
:10510000E31BF4FAC04445BF918B8DC74C5889C945
:10511000930744046384F5004A85BD23232A0402CF
:105120008357C4002322040093F7B7FD2316F4002D
:105130001C481CC08357C40093E787002316F40063
:105140001C4881EF8357C4001307002093F70728FA
:105150006385E700A2854A85A5298357C40013F714
:10516000170005C75C4823240400B307F0401CCC9B
:105170001C480145A5F78317C40013F7070839DF5A
:1051800093E707042316F40089BF898B014791E355
:10519000584818C4F1BF4111194506C6C52D05452B
:1051A000EF00F01A83D7C500011122CC26CA06CE23
:1051B0004AC84EC613F78700AA842E8471EFD841DF
:1051C000634DE000B841634AE0000145F2406244AB
:1051D000D2444249B2490561828058547DD703A91F
:1051E00004009396370123A0040063DD060670488F
:1051F0008357C400918B99C75C401D8E5C5899C33E
:105200003C401D8E5C540C50814626858297FD578C
:105210000357C400631DF5009440F54763E8D706C3
:10522000B70740208507B3D7D700858BA5C31C4897
:10523000232204001CC09317370163D80700FD57D1
:105240006314F5009C4091E368C84C5823A02401E6
:10525000ADDD930744046384F50026853521232AB8
:105260000402A5B70C500146854626850297FD57D6
:105270002A86E31FF5F69C40A5DF75476385E700A6
:1052800059476394E70423A0240181B713670704F7
:105290002316E4007D551DBF83A90501E38709F2AC
:1052A00003A905008D8B23A035013309394101473E
:1052B00091E3D84918C4E35A20F11C540C50CA8613
:1052C0004E86268582976349A0008357C40093E7E2
:1052D00007042316F4007DBFAA993309A940E1BF52
:1052E0009C49A5C3011122CC06CE2A8411C51C4DB0
:1052F00081E72EC63122B24597170000938707FA3F
:10530000639CF5004C408397C5009DC7228562448D
:10531000F24005616FF01FE997170000938707FAC5
:105320006394F5000C44C5B797170000938707F501
:10533000E39BF5FC4C44C1BFF2406244014505616A
:10534000828001458280411122C406C62A84231628
:10535000B5002317C50023200500232205002324C0
:1053600005002322050623280500232A0500232CF7
:105370000500214681451305C505EFA07FDC970791
:1053800000009387E7545CD0970700009387475746
:105390001CD4970700009387875B5CD497070000B5
:1053A0009387475E00D01CD8B240224441018280DE
:1053B00097050000938505F391AA411126C21306B3
:1053C00080069384F5FFB384C4024AC02E8922C4A8
:1053D00006C693854407992E2A8401CD2320050013
:1053E00023222501310508C4138684068145EFA0D8
:1053F0003FD52285B2402244924402494101828035
:105400001C4DA5E7411106C622C4970700009387EB
:1054100067FA1CD59387C1819C4323240504232666
:105420000504232805046314F50085471CCD2A8450
:10543000352848C022851D2808C42285052848C46F
:10544000484001469145EFF01FF008440546A54548
:10545000EFF07FEF48440946C945EFF0DFEE85479E
:105460001CCCB2402244410182808280411193874A
:10547000C18126C284434AC006C69C4C22C42A89E4
:1054800081E72685EFF0DFF7938484048044DC40D5
:10549000FD1763D607009C40B9CF8440C5BF0317F2
:1054A000C40039E7C17785072322040623200400BE
:1054B00023220400232404005CC423280400232A9C
:1054C0000400232C0400214681451305C405EFA0E8
:1054D0003FC7232A0402232C040223240404232686
:1054E00004042285B2402244924402494101828050
:1054F0001304840671BF91454A85EFF01FEC88C004
:1055000049FDB1472320F9000144E1BF797122D45C
:105510004AD052CC56CA5AC85EC606D626D24ECEFD
:105520002A8AAE8A130485040149054BFD5B09EC08
:10553000B25022544A8592540259F249624AD24AE0
:10554000424BB24B45618280044483294400FD19DB
:1055500063D409000040E1BF83D7C400637BFB0034
:105560008397E40063877701A6855285829A336921
:10557000A90093848406E1BF1971A6DAAE848395ED
:10558000E500A2DC86DE328463DC050083D7C4003C
:1055900023A0060093F707089DE39307004015A09A
:1055A000300836C6A121B246E34205FE7247BD6708
:1055B000F98F7977BA9793B717009CC2F9BF930711
:1055C00000041CC0F6506654D6540145096182801F
:1055D00083D7C500011122CC06CE26CA4AC8898BC2
:1055E0002E8489CF930774041CC01CC885475CC8EF
:1055F000F2406244D2444249056182807400300026
:10560000AA84EFF07FF7A2452A892685052201EDBD
:105610008317C40013F7072061FFF19B93E727006E
:105620002316F400C1B7970700009387A7D89CD42E
:105630008357C40008C008C893E707082316F4007E
:10564000A2475CC8B24789CF8315E4002685C12EE6
:1056500001C98357C400F19B93E717002316F40098
:105660008357C4003369F9002316240151B793F519
:10567000F50F2A966314C500014582808347050013
:10568000E38DB7FE0505FDB7CDC183A7C5FF411169
:1056900022C406C626C21384C5FF63D307003E9406
:1056A000AA84C5269387C1849C4399EB23220400D6
:1056B00023A681842244B240268592444101D9A682
:1056C000637EF40014403307D4006396E7009843E8
:1056D000DC43369718C05CC0E1BFBA87D84319C312
:1056E000E37DE4FE94433386D700631F86001040B9
:1056F000B29694C33386D700E31EC7FA10435843CB
:10570000B29694C3D8C37DB76375C400B1479CC03B
:1057100055B71040B306C4006316D700144358436E
:10572000B29614C058C0C0C371B78280011126CA96
:1057300093843500F19806CE22CC4AC84EC6A10407
:10574000B14763F1F404B14463E0B4042A89152E2F
:105750009387C18498433A8431E0938701859C43C1
:1057600091E781454A85512823A8A184A6854A85C9
:105770006920FD5963173507B1472320F9004A8591
:10578000112629A0E3D204FCB1471CC10145F24017
:105790006244D2444249B249056182801C40858FEF
:1057A00063CE0702AD4663F6F6001CC03E9404C00B
:1057B00031A05C406312870223A6F1844A85D92474
:1057C0001305B4009307440061993307F54061D392
:1057D0003A94898F1CC065BF5CC3CDB72287404017
:1057E000A5BF130435007198E30385FCB305A440FD
:1057F0004A852120E31D35FB41B7411122C42A848B
:105800002E8597D7FF1F23A507F606C6392EFD570D
:105810006319F50097D7FF1F938787F59C4391C3C2
:105820001CC0B240224441018280FD4763F6B700AC
:10583000D9471CC17D5582807C41011122CC06CE06
:105840002E862A8491C713972500BA97984319EB9F
:10585000228532C69D28AA85228562443246F240BE
:1058600005611DA8854601456308D700FD566319EB
:10587000D700D9471CC00545F240624405618280CB
:105880002E8523A0070002970145FDB7938701816C
:10589000AA8588436FF07FF9411122C42A842E859E
:1058A000B28597D7FF1F23A507EC06C6B924FD577D
:1058B0006319F50097D7FF1F938787EB9C4391C32C
:1058C0001CC0B24022444101828001AC411122C47B
:1058D0002E848395E50006C67D22634905007C4839
:1058E000AA977CC8B2402244410182808357C400F9
:1058F0007D777D17F98F2316F400EDB783D7C500A8
:10590000011122CC26CA4AC84EC606CE93F707100C
:10591000AA842E843289B68991C78395E500894689
:10592000014635228357C4007D777D17F98F2316F2
:10593000F4008315E4006244F240CE864A86B24900
:1059400042492685D24405613DA8411122C42E84D6
:105950008395E50006C6E528FD570357C400631B81
:10596000F500FD77FD17F98F2316F400B2402244AD
:10597000410182808567D98F2316F40068C8FDB77E
:105980008395E50025A8411122C42A842E85B2857D
:10599000368697D7FF1F23AD07DC06C6EFE0DF97FB
:1059A000FD576319F50097D7FF1F938767DC9C436A
:1059B00091C31CC0B240224441018280411122C4E3
:1059C0002A842E8597D7FF1F23A407DA06C6F52061
:1059D000FD576319F50097D7FF1F938767D99C433D
:1059E00091C31CC0B240224441018280411122C4B3
:1059F0002A842E85B28597D7FF1F23AB07D606C60C
:105A0000E920FD576319F50097D7FF1F938747D605
:105A10009C4391C31CC0B240224441018280411189
:105A200022C42A842E8597D7FF1F23A307D406C636
:105A30006D28FD576319F50097D7FF1F938747D34C
:105A40009C4391C31CC0B240224441018280411159
:105A500022C42A842E85B285368697D7FF1F23A9B4
:105A600007D006C65D20FD576319F50097D7FF1FC5
:105A7000938707D09C4391C31CC0B240224441018C
:105A8000828082808280411122C42A842E85B28540
:105A9000368697D7FF1F23AD07CC06C6BD28FD5716
:105AA0006319F50097D7FF1F938787CC9C4391C359
:105AB0001CC0B2402244410182809307800517D761
:105AC000FF1F2327F7CA7D5582809307800517D7CC
:105AD000FF1F232FF7C87D5582809307800517D7B6
