:100000006F00B01D1300000013000000130000007B
:100010001300000013000000130000001300000094
:100020001300000013000000130000001300000084
:08003000130000007300100032
:100038006FF09FFC000000006F00A0526F0060533B
:1000480000000000000000000000000000000000A8
:100058000000000000000000000000000000000098
:100068006FF09FF9000000006FF01FF9000000001A
:100078006FF09FF86FF05FF86FF01FF86FF0DFF721
:100088006FF09FF76FF05FF76F0080156F004016F5
:100098006F00A01A6F0060216F0020226FF0DFF55B
:1000A8006FF09FF56FF05FF56F0000476FF0DFF4BA
:1000B8006FF09FF46FF05FF46F00202300000000E2
:1000C8000000000000000000000000006F00E01FBA
:1000D8006F00A0226F00A0256F0060286F00A02D80
:1000E8006F0060366F00A0386F00405B6FF0DFF084
:1000F8006FF09FF06FF05FF06FF01FF06FF0DFEFC1
:100108006FF09FEF6F00A0396F00603A6F00C03F3B
:100118006F00A01C6FF05FEE6FF01FEE6FF0DFED69
:1001280000000000000000000000000000000000C7
:080138000000000000000000BF
:100140003D432A876373C3029377F700BDEFADE5A4
:10015000937606FF3D8ABA960CC34CC30CC74CC7B6
:100160004107E36BD7FE11E28280B306C3408A06E3
:100170009702000096966780A6002307B700A306A3
:10018000B7002306B700A305B7002305B700A304F3
:10019000B7002304B700A303B7002303B700A302EB
:1001A000B7002302B700A301B7002301B700A300E3
:1001B000B7002300B700828093F5F50F9396850072
:1001C000D58D93960501D58D61B79396270097023B
:1001D000000096968682E78086FA9680C1171D8F6A
:1001E0003E96E374C3F8A5B7411122C6000801008A
:1001F0003244410173002030411122C600080945F4
:10020000EF00D0592A8785476318F702B707002007
:1002100003A7C71189476315F700EF30401111A8F4
:10022000B707002003A7C71185476314F700EF3015
:10023000C0020945EF00F05B010032444101730048
:100240002030011122CE00101145EF00905A2326D4
:1002500004FEA9A0B72700200327C4FE9387C76820
:10026000BA9783C74706BE86B72700201387C7689B
:100270008327C4FEBA9783C70700B387F6408587F4
:1002800013F7F70F9386C1878327C4FEB6972380A1
:10029000E7008327C4FE85072326F4FE0327C4FE58
:1002A00093071003E3D8E7FA010072440561730075
:1002B0002030411122C60008010032444101730080
:1002C0002030411122C60008010032444101730070
:1002D0002030411122C60008010032444101730060
:1002E0002030411122C60008010032444101730050
:1002F0002030411122C60008010032444101730040
:100300002030411122C6000893050008B73701408C
:10031000138507C0EF107041AA8789CB93050008A9
:10032000B7370140138507C0EF1030470100324452
:10033000410173002030411122C600088545B737BE
:100340000140138507C0EF10503EAA8781CB854539
:10035000B7370140138507C0EF1030440100324425
:10036000410173002030411122C6000893050004AA
:10037000B7370140138507C0EF10303BAA8789CB00
:1003800093050004B7370140138507C0EF10F04014
:1003900093050002B7370140138507C0EF10F0380E
:1003A000AA8789CB93050002B7370140138507C0A0
:1003B000EF10B03E01003244410173002030411182
:1003C00022C600088945B7370140138507C0EF10E2
:1003D000D035AA8781CB8945B7370140138507C03F
:1003E000EF10B03B9145B7370140138507C0EF10C0
:1003F000D033AA8781CB9145B7370140138507C019
:10040000EF10B039A145B7370140138507C0EF1091
:10041000D031AA8781CBA145B7370140138507C0EA
:10042000EF10B037C145B7370140138507C0EF1053
:10043000D02FAA8781CBC145B7370140138507C0AC
:10044000EF10B035010032444101730020304111FA
:1004500022C60008854537050040EF10102DAA87F9
:1004600091C7854537050040EF1030330100324415
:10047000410173002030411122C600088545B707AD
:10048000004013850740EF10502AAA8781CB85458D
:10049000B707004013850740EF10303001003244A9
:1004A000410173002030411122C60008010032448E
:1004B000410173002030411122C6000893055052BB
:1004C000B747004013850740EF10D06CAA8785CF4F
:1004D00093055052B747004013850740EF10B07B9B
:1004E000B707002003A7C71189476315F700EF205E
:1004F000105D11A8B707002003A7C7118547631433
:10050000F700EF20F01F010032444101730020305A
:10051000411122C60008010032444101730020301D
:10052000411122C600080965EF0010072A87854798
:100530006318F7020965EF00F00BB707002003A767
:10054000C71189476315F700EF20D06111A8B707DD
:10055000002003A7C71185476314F700EF2050530D
:1005600001003244410173002030411122C60008CD
:1005700001003244410173002030411122C60008BD
:1005800001A0411106C622C400080545EF30F0095C
:10059000AA873E872390E1820945EF301009AA8798
:1005A0003E872391E1820545EF30500B0945EF303E
:1005B000F00A0100B240224441018280411122C66A
:1005C0000008130780FD2386E1869387C186130701
:1005D00000FBA380E70083970182A187C207C18740
:1005E00013F7F70F9387C1862381E7008397018272
:1005F00013F7F70F9387C186A381E7009387C1861E
:10060000130710FB2382E70083972182A187C2078B
:10061000C18713F7F70F9387C186A382E7008397FB
:10062000218213F7F70F9387C1862383E70093870F
:10063000C186130720FBA383E70083974182A1872C
:10064000C207C18713F7F70F9387C1862384E7009A
:100650008397418213F7F70F9387C186A384E7003E
:100660009387C186130730FB2385E7008397618258
:10067000A187C207C18713F7F70F9387C186A385A8
:10068000E7008397618213F7F70F9387C18623866C
:10069000E7009387C1863957A386E70001003244FB
:1006A00041018280411122C600088545B7170040EC
:1006B00013850780EF107007AA8785CF8545B71788
:1006C000004013850780EF10500DA96783A7C7D49A
:1006D0003E8785471CCB7535D53539469385C18610
:1006E0000945EF303060A96783A7C7D43E878547A7
:1006F0005CCB01003244410173002030130101B290
:10070000232E114C232C814C1304014E79731A9122
:10071000EF30A024EF309066EF20E006EF20D02BE2
:1007200093060031014685450145EF20D0709306C0
:10073000100213060002B7170700938507800945CA
:10074000EF309044A9450D45EF3060281306800432
:10075000B14513052002EF30400885460546854522
:100760006145EF30A00F154691450545EF30005625
:100770002D46A9450945EF3060550145EF3060220F
:1007800093074006A30FF4FCA30604FE03C7D1821F
:100790008547E31DF7FE8347F4FD3E85EF40E00506
:1007A000EF50C00A8347F4FD3E85EF50A028038731
:1007B000018591476308F700EF401057AA873E87ED
:1007C0002392E18205472393E1828347D4FE89EB9C
:1007D00083D741822317F4FE8547A306F4FE35A88C
:1007E000839741823E878317E4FE1D8F9307200382
:1007F00063CCE700839741823E878317E4FE1D8F19
:100800009307E0FC6357F7000357E4FE2392E1826D
:1008100029A083D741822317F4FE232404FE51A884
:10082000232204FEA5A8B7070020832684FE130711
:10083000C00B3387E6029387871C3E97832744FECD
:10084000BA9783C707000347F4FD6374F702F9778B
:10085000130704FF3E97832684FE9307C00BB387DC
:10086000F6023E97832744FEBA977D57238AE7B264
:100870000DA0F977130704FF3E97832684FE9307A4
:10088000C00BB387F6023E97832744FEBA97238AAC
:1008900007B2832744FE85072322F4FE032744FE84
:1008A0009307B00BE3D1E7F8832784FE8507232461
:1008B000F4FE032784FE93071003E3D3E7F69307C0
:1008C00010032320F4FE6DA0B7270020032704FEA9
:1008D00006079387C768BA97839707003E86F9771C
:1008E000130704FF3E97832604FE9307C00BB387CC
:1008F000F602BA97B297238A07B2B72700200327D8
:1009000004FE1307270306079387C768BA978397E0
:1009100007003E86F977130704FF3E97832604FEFF
:100920009307C00BB387F602BA97B297238A07B230
:10093000B7270020032704FE1307470606079387FF
:10094000C768BA97839707003E86F977130704FFB5
:100950003E97832604FE9307C00BB387F602BA972F
:10096000B297238A07B2832704FEFD172320F4FEE3
:10097000839741843E87832704FEE3D7E7F4F97722
:10098000938747B3130704FFBA9713062003930511
:10099000C00B3E85EF204042838701853E868D4512
:1009A0000145EF2020178387A1803E868D451305E2
:1009B0000005EF202016839741843E869D45014522
:1009C000EF200028839741823E869D451305000550
:1009D000EF200027A386018255BB97010020938159
:1009E000E1F3174100201301E161179500001305A1
:1009F000E56297F5FF1F9385E5601386018263FA30
:100A0000C5008322050023A0550011059105E3EAE6
:100A1000C5FE13850182972500209385E5E3637762
:100A2000B500232005001105E36DB5FE9302800893
:100A300073A0023097F2FFFF9382426093E21200AC
:100A400073905230EF30905397020000938242CB64
:100A50007390123473002030011122CE001023262F
:100A6000A4FE8327C4FE9843C167F9177D8F8327AF
:100A7000C4FE98C38327C4FE23A007008327C4FEB7
:100A800023A207008327C4FE23A407008327C4FEF4
:100A900023A607000327C4FEB7070240A107631B74
:100AA000F700B7070240D843B70702401367F700C3
:100AB000D8C375A20327C4FEB7070240F107631B22
:100AC000F700B7070240D843B70702401367070F84
:100AD000D8C371A20327C4FEB70702409387070358
:100AE000631DF700B7070240D443B707024005670C
:100AF000130707F0558FD8C39DA20327C4FEB7077D
:100B0000024093874704631BF700B7070240D443B2
:100B1000B70702403D67558FD8C391A20327C4FE93
:100B2000B707024093878705631CF700B7070240A9
:100B3000D443B707024037070F00558FD8C305A22B
:100B40000327C4FEB70702409387C706631CF7005C
:100B5000B7070240D443B70702403707F000558F6C
:100B6000D8C3F5A80327C4FEB70702409387070838
:100B7000631CF700B7070240D443B70702403707AA
:100B8000000F558FD8C3E1A80327C4FEB707024062
:100B900093878740631FF700B7070240938707409A
:100BA000D843B7070240938707401367F700D8C3BD
:100BB0007DA00327C4FEB70702409387C741631F88
:100BC000F700B707024093870740D843B7070240B2
:100BD000938707401367070FD8C351A00327C4FEAC
:100BE000B7070240938707436311F702B707024034
:100BF00093870740D443B7070240938707400567B0
:100C0000130707F0558FD8C399A80327C4FEB70769
:100C1000024093874744631FF700B707024093875A
:100C20000740D443B7070240938707403D67558F7D
:100C3000D8C335A00327C4FEB70702409387874572
:100C4000631FF700B707024093870740D443B707F5
:100C500002409387074037070F00558FD8C3010024
:100C6000724405618280797122D60018232EA4FC7B
:100C7000232CB4FC232604FE8327C4FD9C43232697
:100C8000F4FE0327C4FEE177BD07F98F2326F4FEA7
:100C9000832784FD9847832784FD9C535D8F83279A
:100CA00084FD9C4B5D8F832784FDDC4B5D8F832708
:100CB00084FD9C4F5D8F832784FDDC4F5D8F8327F0
:100CC00084FDDC535D8F832784FD9C57D98F0327D8
:100CD000C4FED98F2326F4FE8327C4FD0327C4FE58
:100CE00098C3832784FDD8478327C4FDD8C38327AF
:100CF00084FD98438327C4FD98C7832784FDD84388
:100D00008327C4FDD8C70100325445618280011198
:100D100022CE00102326A4FE2324B4FE832784FEC3
:100D200091CB8327C4FE9C4313E717008327C4FE9F
:100D300098C311A88327C4FE9843C167F9177D8F14
:100D40008327C4FE98C301007244056182800111AB
:100D500022CE00102326A4FE2324B4FE2322C4FEA8
:100D6000832744FE99CB8327C4FE9843832784FEC0
:100D70005D8F8327C4FE98C321A88327C4FE9843B0
:100D8000832784FE93C7F7FF7D8F8327C4FE98C314
:100D90000100724405618280797122D60018232EE9
:100DA000A4FC232604FE232404FE0327C4FDB70766
:100DB0000010F98F89CBB7070240938707409C4307
:100DC0002324F4FE31A0B70702409C432324F4FE01
:100DD000032784FE8327C4FDF98F89C7854723260F
:100DE000F4FE19A0232604FE8327C4FE3E85325458
:100DF00045618280011122CE00102326A4FE032724
:100E0000C4FEB7070010F98F89CBB707024093875C
:100E100007400327C4FED8C331A0B7070240032709
:100E2000C4FED8C30100724405618280797122D664
:100E30000018232EA4FC232604FEB7070140938745
:100E400007402326F4FE8327C4FDDC476380071296
:100E5000B70701409387074094438327C4FD9C4311
:100E600013C7F7FFB707014093870740758F98C3F3
:100E7000B707014093870740D4438327C4FD9C43B1
:100E800013C7F7FFB707014093870740758FD8C393
:100E90008327C4FDDC430327C4FEBA972326F4FE50
:100EA0008327C4FE94438327C4FD98438327C4FE4D
:100EB000558F98C3B707014093870740944783270E
:100EC000C4FD9C4313C7F7FFB70701409387074052
:100ED000758F98C7B707014093870740D44783278A
:100EE000C4FD9C4313C7F7FFB70701409387074032
:100EF000758FD8C78327C4FD9847C147631FF70282
:100F0000B70701409387074094478327C4FD984360
:100F1000B707014093870740558F98C7B70701402F
:100F200093870740D4478327C4FD9843B707014000
:100F300093870740558FD8C7B1A8B707014093875B
:100F400007402326F4FE8327C4FD9C470327C4FEE5
:100F5000BA972326F4FE8327C4FE94438327C4FD57
:100F600098438327C4FE558F98C32DA08327C4FDC3
:100F7000DC430327C4FEBA972326F4FE8327C4FE6E
:100F800094438327C4FD9C4313C7F7FF8327C4FE04
:100F9000758F98C30100325445618280797122D6E1
:100FA0000018232EA4FC232604FE232404FEB707E6
:100FB0000140938707409C430327C4FDF98F2324F6
:100FC000F4FEB707014093870740D84B8327C4FD41
:100FD000F98F81CB832784FE89C785472326F4FEBA
:100FE00019A0232604FE8327C4FE3E8532544561A2
:100FF0008280011122CE00102326A4FEB7070140F3
:10100000938707400327C4FED8CB010072440561D3
:101010008280397122DE80002326A4FC2324B4FCC4
:10102000232604FE232004FE232404FE232E04FC96
:10103000232204FE232C04FC832784FC9C47BD8BC5
:101040002326F4FE832784FC9C47C18B89CB83270E
:1010500084FCDC430327C4FED98F2326F4FE8327B8
:1010600084FC83D7070093F7F70FF1CF8327C4FCE5
:101070009C432322F4FE232404FE65A8832784FED8
:101080000547B317F700232EF4FC832784FC83D78E
:1010900007003E878327C4FDF98F2320F4FE032732
:1010A00004FE8327C4FD6311F708832784FE8A07A3
:1010B000232EF4FC8327C4FD3D47B317F700232CF0
:1010C000F4FC832784FD93C7F7FF032744FEF98FC1
:1010D0002322F4FE8327C4FD0327C4FEB317F700C1
:1010E000032744FED98F2322F4FE832784FC9847EC
:1010F00093078002631BF700832784FE054733179D
:10110000F7008327C4FCD8CB05A0832784FC98472D
:1011100093078004631AF700832784FE054733177B
:10112000F7008327C4FC98CB832784FE85072324FC
:10113000F4FE032784FE9D47E3F2E7F48327C4FC13
:10114000032744FE98C3832784FC03D70700930733
:10115000F00F63F1E70E8327C4FCDC432322F4FE87
:10116000232404FE75A8832784FEA1070547B3172F
:10117000F700232EF4FC832784FC83D707003E87E7
:101180008327C4FDF98F2320F4FE032704FE832761
:10119000C4FD6312F708832784FE8A07232EF4FC1C
:1011A0008327C4FD3D47B317F700232CF4FC8327A6
:1011B00084FD93C7F7FF032744FEF98F2322F4FE33
:1011C0008327C4FD0327C4FEB317F700032744FE9B
:1011D000D98F2322F4FE832784FC9847930780024B
:1011E000631BF700832784FEA10705473317F70029
:1011F0008327C4FCD8CB832784FC984793078004BB
:10120000631BF700832784FEA10705473317F70008
:101210008327C4FC98CB832784FE85072324F4FE10
:10122000032784FE9D47E3F0E7F48327C4FC0327EC
:1012300044FED8C30100725421618280011122CE84
:1012400000102326A4FEAE872322C4FE2315F4FE3D
:10125000832744FE99C70357A4FE8327C4FE98CB77
:1012600031A00357A4FE8327C4FED8CB01007244EB
:1012700005618280797122D60018232EA4FC232CCC
:10128000B4FC232404FE232204FE232604FE232090
:1012900004FE8327C4FD63D80700B7070140DC4F75
:1012A0002326F4FE31A0B7070140DC432326F4FED9
:1012B0008327C4FDC183BD8B2320F4FE0327C4FD17
:1012C000C167FD17F98F2324F4FE0327C4FDB70778
:1012D00030007D8FB70730006315F7020327C4FE87
:1012E000B70700F1FD17F98F2326F4FEB707014079
:1012F000D443B7070140370700F17D17758FD8C376
:10130000ADA00327C4FDB7071000F98F8DCB83274D
:1013100004FE0D47B317F7002322F4FE832744FE93
:1013200093C7F7FF0327C4FEF98F2326F4FE032794
:10133000C4FEB707000FD98F2326F4FE3DA08327F4
:10134000C4FDD5839207032784FEB317F70093C724
:10135000F7FF0327C4FEF98F2326F4FE0327C4FEFC
:10136000B707000FD98F2326F4FE832784FD91CF82
:101370008327C4FDD5839207032784FEB317F700A4
:101380000327C4FED98F2326F4FE8327C4FD63D828
:101390000700B70701400327C4FED8CF31A0B70725
:1013A00001400327C4FED8C3010032544561828046
:1013B000797122D60018AA872E87A30FF4FCBA876A
:1013C000230FF4FC232604FE8347E4FD8D8B8A075C
:1013D0003D47B317F7002326F4FE37070140834744
:1013E000E4FD898393F7F70F8A07BA979847832715
:1013F000C4FE93C7F7FFB70601400346E4FD098228
:101400001376F60F7D8F93172600B69798C7370788
:1014100001408347E4FD898393F7F70F8A07BA9762
:1014200098478346F4FD8347E4FD8D8B8A07B39785
:10143000F600B70601400346E4FD09821376F60F75
:101440005D8F93172600B69798C701003254456107
:101450008280011122CE00102326A4FE8327C4FE21
:10146000FD8B0547B316F70037E700E08327C4FE7E
:101470009583938707048A07BA9794C3010072443F
:1014800005618280011122CE00102326A4FE83274D
:10149000C4FEFD8B0547B316F70037E700E083274E
:1014A000C4FE9583938707068A07BA9794C3010001
:1014B000724405618280011122CE00102326A4FE11
:1014C000AE87A305F4FE37E700E08327C4FEBA9792
:1014D0000347B4FE2380E740010072440561828027
:1014E000011106CE22CC00102326A4FEB7E700E0AF
:1014F000BC47898B8DC38327C4FE83C707003E8703
:101500008327C4FE83C72700920793F7F70FBE8592
:101510003A85553795A0B7E700E0BC47898BA9EF1E
:101520008327C4FE03C7170085476318F702832784
:10153000C4FE83C707003E878327C4FE83C72700F6
:101540009207E207E18793E707F8E207E18793F75D
:10155000F70FBE853A85853705A08327C4FE83C76C
:1015600007003E878327C4FE83C72700920793F7AF
:10157000F70FBE853A8581378327C4FEDC4381CBD4
:101580008327C4FE83C707003E85E13539A0832742
:10159000C4FE83C707003E85F5350100F240624472
:1015A00005618280797122D60018232EA4FC23269F
:1015B00004FE232404FE232204FE232004FEB71786
:1015C0000240DC43B18B2326F4FE0327C4FE91477F
:1015D0006302F7020327C4FEA1476305F7028327CE
:1015E000C4FEC5E78327C4FD37177A001307072019
:1015F00098C365A08327C4FD37177A001307072017
:1016000098C361A8B7170240D843B7073C00F98FC9
:101610002324F4FEB7170240D843C167F98F232271
:10162000F4FE832784FEC98389072324F4FE8327DD
:1016300044FE89EF032784FEB7173D009387079088
:101640003307F7028327C4FD98C381A8B717024068
:10165000D843B7070200F98F89CF032784FEB71755
:101660003D00938707903307F7028327C4FD98C393
:101670002DA0032784FEB7177A009387072033072E
:10168000F7028327C4FD98C309A88327C4FD371731
:101690007A001307072098C30100B7170240DC4304
:1016A00093F7070F2326F4FE8327C4FE9183232696
:1016B000F4FEB7070020138707008327C4FEBA97FC
:1016C00083C7070093F7F70F2320F4FE8327C4FD99
:1016D0009843832704FE3357F7008327C4FDD8C3FC
:1016E000B7170240DC4393F707702326F4FE8327E5
:1016F000C4FEA1832326F4FEB7070020138707004A
:101700008327C4FEBA9783C7070093F7F70F2320F8
:10171000F4FE8327C4FDD843832704FE3357F70024
:101720008327C4FD98C7B7170240D84391679387B2
:101730000780F98F2326F4FE8327C4FEAD8323267A
:10174000F4FEB7070020138707008327C4FEBA976B
:1017500083C7070093F7F70F2320F4FE8327C4FD08
:10176000D843832704FE3357F7008327C4FDD8C727
:10177000B7170240D843B167F98F2326F4FE8327B9
:10178000C4FEB9832326F4FEB70700201387871110
:101790008327C4FEBA9783C7070093F7F70F232068
:1017A000F4FE8327C4FDD847832704FE3357F7028E
:1017B0008327C4FD98CB010032544561828001111A
:1017C00022CE00102326A4FE2324B4FE832784FE09
:1017D00099CBB7170240D44BB71702400327C4FE7A
:1017E000558FD8CB21A8B7170240D44B8327C4FE0E
:1017F00013C7F7FFB7170240758FD8CB01007244AB
:1018000005618280011122CE00102326A4FE23242C
:10181000B4FE832784FE99CBB7170240944FB717C5
:1018200002400327C4FE558F98CF21A8B717024066
:10183000944F8327C4FE13C7F7FFB7170240758F75
:1018400098CF0100724405618280011122CE001000
:101850002326A4FE2324B4FE832784FE99CBB71746
:101860000240D44FB71702400327C4FE558FD8CF8C
:1018700021A8B7170240D44F8327C4FE13C7F7FF30
:10188000B7170240758FD8CF01007244056182807E
:10189000797122D60018232EA4FC232CB4FC231724
:1018A00004FE8327C4FD83D707002317F4FE0357E4
:1018B000E4FE8D6793870704F98F2317F4FE8327CF
:1018C00084FD03D70700832784FD83D72700D98FA2
:1018D000139707014183832784FD83D74700D98F5E
:1018E000139707014183832784FD83D76700D98F2E
:1018F000139707014183832784FD83D78700D98FFE
:10190000139707014183832784FD83D7A700D98FCD
:10191000139707014183832784FD83D7C700D98F9D
:10192000139707014183832784FD83D7E700D98F6D
:101930001397070141838357E4FED98F2317F4FEE1
:101940008327C4FD0357E4FE2390E7008327C4FDEB
:1019500083D7C701139707014183FD779387F77FEB
:10196000F98F1397070141838327C4FD239EE70066
:10197000832784FD03D707018327C4FD2398E7004D
:101980000100325445618280011122CE00102326CD
:10199000A4FE2324B4FE832784FE8DC38327C4FEC4
:1019A00083D70700C207C18393E707041397070192
:1019B00041838327C4FE2390E70005A08327C4FE4C
:1019C00083D70700C207C18393F7F7FB139707017B
:1019D00041838327C4FE2390E70001007244056120
:1019E0008280797122D60018232EA4FC232CB4FC0B
:1019F000231704FE8327C4FD83D707002317F4FEB3
:101A00000327C4FDB7370140938707C06308F70277
:101A10000327C4FDB70700406302F7020327C4FD94
:101A2000B707004093870740630AF7000327C4FD08
:101A3000B7170040938707806311F7028357E4FECE
:101A400093F7F7F82317F4FE832784FD03D72700C5
:101A50008357E4FED98F2317F4FE8357E4FE93F7F0
:101A6000F7CF2317F4FE832784FD03D7670083573E
:101A7000E4FED98F2317F4FE8327C4FD0357E4FE49
:101A80002390E700832784FD03D747008327C4FD05
:101A90002396E702832784FD03D707008327C4FD2D
:101AA0002394E7020327C4FDB7370140938707C09B
:101AB000631DF700832784FD83C787001397070101
:101AC00041838327C4FD2398E7028327C4FD05478C
:101AD000239AE7000100325445618280011122CE31
:101AE00000102326A4FE8327C4FE7D572392E7001F
:101AF0008327C4FE239007008327C4FE2393070097
:101B00008327C4FE239107008327C4FE2384070094
:101B10000100724405618280011122CE001023264B
:101B2000A4FE2324B4FE832784FE8DC38327C4FE32
:101B300083D70700C207C18393E7170013970701F4
:101B400041838327C4FE2390E70039A88327C4FE7E
:101B500083D70700C207C183F99B1397070141830D
:101B60008327C4FE2390E700010072440561828050
:101B7000011122CE00102326A4FEAE872322C4FE2C
:101B80002315F4FE832744FE9DC38327C4FE83D719
:101B9000C7001397070141838357A4FED98F13977A
:101BA000070141838327C4FE2396E70035A08327DE
:101BB000C4FE83D7C7001397070141838357A4FE50
:101BC00093C7F7FFC207C183F98F139707014183BA
:101BD0008327C4FE2396E7000100724405618280DA
:101BE000011122CE00102326A4FEAE872322C4FEBC
:101BF0002315F4FE832744FE9DC38327C4FE83D7A9
:101C0000C7001397070141838357A4FED98F139709
:101C1000070141838327C4FE2396E70035A083276D
:101C2000C4FE83D7C7001397070141838357A4FEDF
:101C300093C7F7FFC207C183F98F13970701418349
:101C40008327C4FE2396E700010072440561828069
:101C5000797106D622D40018232EA4FCAE873687CD
:101C6000231DF4FCB287231CF4FCBA87231BF4FC6D
:101C7000231704FE835664FD035784FD8357A4FD98
:101C80003A86BE850325C4FD89288327C4FD83D7F2
:101C900087002317F4FE8357E4FEE19B2317F4FE2D
:101CA0008357E4FE93E777002317F4FE8357E4FE9F
:101CB00093F7F7F82317F4FE8357E4FE93E707073B
:101CC0002317F4FE8327C4FD0357E4FE2394E700A3
:101CD0000100B250225445618280797122D60018E9
:101CE000232EA4FCAE873687231DF4FCB287231C69
:101CF000F4FCBA87231BF4FC231704FE8327C4FDDE
:101D000083D787002317F4FE8357E4FE93F7F70F7A
:101D10002317F4FE835764FDA2071397070141833D
:101D2000835784FDD98F1397070141838357A4FDFF
:101D3000D98F1397070141838357E4FED98F231767
:101D4000F4FE8327C4FD0357E4FE2394E70001005B
:101D5000325445618280797122D60018232EA4FC6A
:101D6000AE87231DF4FC231704FE8327C4FD83D70D
:101D700087002317F4FE8357E4FE93F7F7F8231741
:101D8000F4FE0357E4FE8357A4FDD98F2317F4FE16
:101D90008327C4FD0357E4FE2394E7000100325477
:101DA00045618280797122D60018232EA4FCAE876B
:101DB0003687231DF4FCB287231CF4FCBA87231B4F
:101DC000F4FC231704FE231604FE231504FE8327C8
:101DD000C4FD83D787002317F4FE8327C4FD83D770
:101DE00087012316F4FE8327C4FD83D7070223153A
:101DF000F4FE8357E4FEE19B2317F4FE0357E4FE51
:101E00008357A4FDD98F2317F4FE8357C4FE93F79D
:101E1000C7CF2316F4FE8357C4FE93E7171023168B
:101E2000F4FE8357A4FE93F7D7FD2315F4FE8357E2
:101E300064FD9207139707014183835784FDD98F6F
:101E40001397070141838357A4FED98F2315F4FE0E
:101E50008327C4FD0357E4FE2394E7008327C4FDD2
:101E60000357C4FE239CE7008327C4FD0357A4FE49
:101E70002390E7020100325445618280011122CE95
:101E800000102326A4FEAE872315F4FE8327C4FE8C
:101E900083D78700C207C183E19B13970701418362
:101EA0008327C4FE2394E7008327C4FE83D78700DB
:101EB0001397070141838357A4FED98F1397070116
:101EC00041838327C4FE2394E70001007244056127
:101ED0008280011122CE00102326A4FEAE87231596
:101EE000F4FE8327C4FE83D78700C207C18393F71C
:101EF000F7F71397070141838327C4FE2394E70074
:101F00008327C4FE83D78700139707014183835734
:101F1000A4FED98F1397070141838327C4FE23941E
:101F2000E7000100724405618280797122D60018B1
:101F3000232EA4FCAE87231DF4FC232604FE2315C8
:101F400004FE231404FE8327C4FD83D707011397DF
:101F5000070141838357A4FDF98F2315F4FE8327DE
:101F6000C4FD83D7C7001397070141838357A4FD9E
:101F7000F98F2314F4FE8357A4FE81CB835784FE8C
:101F800089C785472326F4FE19A0232604FE83274C
:101F9000C4FE3E85325445618280011122CE00107C
:101FA0002326A4FEAE872315F4FE8357A4FE93C711
:101FB000F7FF1397070141838327C4FE2398E700A7
:101FC00001007244056182805D7186C6A2C48008EA
:101FD000232EA4FA232CB4FA232604FE232404FE81
:101FE000232204FE232004FE232E04FC8327C4FBAB
:101FF000232EF4FC8327C4FB83D70701C207C183C8
:102000002326F4FE0327C4FEB567FD17F98F2326A8
:10201000F4FE832784FB83D767003E878327C4FEB3
:10202000D98F2326F4FE8327C4FE1397070141832B
:102030008327C4FB2398E7008327C4FB83D7C7000B
:10204000C207C1832326F4FE0327C4FEBD6793871E
:10205000379FF98F2326F4FE832784FB03D747009D
:10206000832784FB83D78700D98F13970701418388
:10207000832784FB83D7A700D98FC207C1833E87FC
:102080008327C4FED98F2326F4FE8327C4FE13972B
:10209000070141838327C4FB2396E7008327C4FB02
:1020A00083D74701C207C1832326F4FE0327C4FE5A
:1020B000C1679387F7CFF98F2326F4FE832784FB2C
:1020C00083D7C7003E878327C4FED98F2326F4FE1B
:1020D0008327C4FE1397070141838327C4FB239AF8
:1020E000E700930784FC3E85EFF0CFCB0327C4FDC8
:1020F000B7470140938707806317F700832744FDA4
:102100002324F4FE29A0832704FD2324F4FE83273F
:10211000C4FB83D7C700C207C183C207C18763D28C
:102120000702032784FEBA878607BA978E073E9771
:10213000832784FB9C438607B357F7022322F4FED0
:1021400005A0032784FEBA878607BA978E073E97B5
:10215000832784FB9C438A07B357F7022322F4FEAC
:10216000032744FE93074006B357F702920723263E
:10217000F4FE8327C4FE13D7470093074006B30736
:10218000F702032744FEB307F7402320F4FE83271A
:10219000C4FB83D7C700C207C183C207C18763D20C
:1021A0000702832704FE8E07138727039307400641
:1021B000B357F7029D8B0327C4FED98F2326F4FE65
:1021C00005A0832704FE9207138727039307400681
:1021D000B357F702BD8B0327C4FED98F2326F4FE25
:1021E0008327C4FE1397070141838327C4FB2394ED
:1021F000E7000100B640264461618280011122CED1
:1022000000102326A4FE2324B4FE832784FE95C356
:102210008327C4FE83D7C7001397070141838967CB
:10222000D98F1397070141838327C4FE2396E700C4
:1022300015A08327C4FE83D7C700139707014183E6
:10224000F977FD17F98F1397070141838327C4FEA0
:102250002396E7000100724405618280797122D6DD
:102260000018232EA4FCAE87232AC4FC231DF4FCF3
:10227000232404FE232204FE232004FE232604FE3E
:102280008327C4FD2326F4FE8357A4FD93F7F70F9D
:10229000958393F7F70F2324F4FE8357A4FDFD8B5A
:1022A0002322F4FE832744FE0547B317F7002320BB
:1022B000F4FE032784FE85476318F7008327C4FED6
:1022C000B1072326F4FE0DA0032784FE8947631877
:1022D000F7008327C4FEC1072326F4FE31A083271D
:1022E000C4FED1072326F4FE832744FD99CB832720
:1022F000C4FE94438327C4FE032704FE558F98C36E
:1023000021A88327C4FE9443832704FE13C7F7FF45
:102310008327C4FE758F98C30100325445618280C3
:10232000011122CE00102326A4FEAE872315F4FE51
:102330008357A4FE93F7F71F139707014183832761
:10234000C4FE2392E7000100724405618280797126
:1023500022D60018232EA4FCAE87231DF4FC2326CE
:1023600004FE8327C4FD83D7070013970701418329
:102370008357A4FDF98FC207C18389C785472326E8
:10238000F4FE19A0232604FE8327C4FE3E853254A2
:1023900045618280797122D60018232EA4FCAE8775
:1023A000231DF4FC232204FE232604FE232004FE26
:1023B000232404FE8357A4FD93F7F70F958393F727
:1023C000F70F2320F4FE8357A4FDFD8B2326F4FE94
:1023D0008327C4FE0547B317F7002326F4FE03271F
:1023E00004FE8547631FF7008327C4FD83D7C7001A
:1023F000C207C1833E878327C4FEF98F2326F4FEDC
:102400003DA8032704FE8947631FF7008327C4FD07
:1024100083D70701C207C1833E878327C4FEF98F94
:102420002326F4FE29A88327C4FD83D74701C207CA
:10243000C1833E878327C4FEF98F2326F4FE83578A
:10244000A4FDA183C207C1832322F4FE832744FE97
:102450000547B317F7002322F4FE8327C4FD83D773
:102460000700C207C1833E87832744FEF98F2322DA
:10247000F4FE8327C4FE81CB832744FE89C78547AA
:102480002324F4FE19A0232404FE832784FE3E8522
:10249000325445618280797122D60018232EA4FC23
:1024A000AE87231DF4FC231704FE231604FE835776
:1024B000A4FDA1832317F4FE8357E4FE0547B31759
:1024C000F7002316F4FE8357C4FE93C7F7FF139754
:1024D000070141838327C4FD2390E70001003254A4
:1024E00045618280011106CE22CC0010AA87A30785
:1024F000F4FEA9679387C7D49C473E87A1675CCB4E
:10250000A9679387C7D49C473E8791675CCB9307A5
:10251000F4FE85460146BE850145EF10D042A9670D
:102520009387C7D49C473E87A1671CCB0100F2402C
:10253000624405618280011106CE22CC0010AA8778
:10254000A307F4FEA9679387C7D49C473E87A1677A
:102550005CCBA9679387C7D49C473E8791671CCB08
:102560001307F4FE9307F4FE85463A86BE850145BF
:10257000EF10703DA9679387C7D49C473E87A1673A
:102580001CCB0100F240624405618280797106D65D
:1025900022D40018AA87231FF4FCA9679387C7D405
:1025A0009C473E87A1675CCB8357E4FDA183C207AC
:1025B000C18393F7F70F2306F4FE8357E4FD93F7E7
:1025C000F70FA306F4FEA9679387C7D49C473E87FD
:1025D00091671CCB1307C4FE9307C4FE89463A8655
:1025E000BE850145EF103036A9679387C7D49C4755
:1025F0003E87A1671CCB0100B25022544561828006
:10260000011106CE22CC00102326A4FE2324B4FE02
:102610002322C4FE2320D4FE0327C4FE9307F0091F
:1026200063FFE700A56793868762A5671386C77473
:1026300093057005A5671385C763EF50B054032752
:1026400084FE9307F00763FFE700A567938607679B
:10265000A5671386C77493058005A5671385C763AF
:10266000EF505052032744FE9307F00963FFE70041
:10267000A56793864768A5671386C7749305A00569
:10268000A5671385C763EF50F04F032704FE930738
:10269000F00763FFE700A56793864769A567138680
:1026A000C7749305B005A5671385C763EF50904DB8
:1026B0001305A002053D0145BD3D8327C4FE93F7E8
:1026C000F70F850793F7F70F3E85B5350145A5351B
:1026D000832744FE93F7F70F850793F7F70F3E859F
:1026E000993D1305B002FD3B0145B135832784FEBA
:1026F00093F7F70F890793F7F70F3E852D3D0145B7
:102700001D3D832704FE93F7F70F890793F7F70F13
:102710003E8515351305C002F1330100F2406244D5
:1027200005618280797106D622D40018AA87231FFA
:10273000F4FC9306F0071306F00981450145C935FD
:10274000A30704FE05A8230704FE11A88357E4FD90
:102750003E852D3D8347E4FE85072307F4FE0347AE
:10276000E4FE9307F009E3F3E7FE8347F4FE8507F1
:10277000A307F4FE8307F4FEE3D707FC0100B25081
:10278000225445618280011106CE22CC4ACA4EC82D
:1027900052C656C45AC25EC0001001488147130792
:1027A000F00493063002054681450145EF105006BE
:1027B00093060031054685451305F004EF00B06728
:1027C00093060031014685451305D004EF00B0663D
:1027D00093060031014685451305E004EF00B0651E
:1027E000A9679387C7D49C473E8789675CCB03A7BB
:1027F00081838967938707F43357F702BA878A077B
:10280000BA9786073E8B814B5A85DE85EF10D01F25
:10281000A9679387C7D49C473E8789671CCB03A7CA
:1028200081838967938707F43357F702BA87920742
:10283000998F8E073E8A814A5285D685EF10D01C2B
:1028400045454D3103A781838967938707F4335743
:10285000F702BA879207998F8E073E8981494A8588
:10286000CE85EF10701A1305100BAD390545E13117
:102870001305C002C9311305D00275391305200BA9
:10288000953105454D391305C00275311305D00248
:102890005D311305300BB931054571391305C0029F
:1028A00059391305D0024139054571311305C0026C
:1028B00059311305D00241311305400B25311D4517
:1028C0009D391305000C39391305200AAD3109452E
:1028D0009D311305400885311305100C2131130576
:1028E000500C91391305200CF53E2945A9310145BD
:1028F00099311305300CFD361305A0082D39130549
:10290000A00215391305400CF13E1305A00825312E
:102910001305E00E0D311305500CE9363945213908
:1029200013056003C136130500063131010013059C
:10293000000E4D3E3D4501316945F53E3D45E53EC4
:102940006145D53E1305F002FD3613058002E536DC
:1029500013050002CD3613052002F13E7D45E13E10
:102960006D45D13E13053002F93613057003E1368B
:102970000145D1361D45C1360945753E4145653E87
:102980001305100E85363D457D366D456D363D454A
:102990005D365D454D3613053003713E1305C002AB
:1029A000593E13059002413E1305E00269361305B6
:1029B0000003513613050003BD3E13059003A53EE9
:1029C0001305F0038D3E0145BD361D45AD360D4561
:1029D0009D3641458D361305A00229360145A13E9D
:1029E0000945913E0145813E13052008A93613058E
:1029F000B002CD3C014581360D45353E0145253EB1
:102A0000130530080D3E1305000FE93C054525363A
:102A10001305600FC13C0145393E1305A003D934AD
:102A20001545113E13059002753CC1671385F7FFEC
:102A3000D5390100F24062445249C249324AA24AA1
:102A4000124B824B05618280797106D622D4001820
:102A5000AA87AE863287231FF4FCB687231EF4FCB8
:102A6000BA87A30DF4FCA30704FE59A80355E4FD9F
:102A70000357C4FD8347F4FEBA97BE858357E4FD30
:102A80009D073E860357C4FD8347F4FEBA97BE8672
:102A9000EFF01FB78307B4FD938607FE8347F4FE6C
:102AA000256792061307C7753697BA9783C707003D
:102AB000A306F4FE230704FE15A88347D4FE858BE6
:102AC00099C7C16713850780EFF05FAC31A0C1677C
:102AD0001385F7FFEFF09FAB8347D4FE8583A306F2
:102AE000F4FE8347E4FE85072307F4FE0347E4FE74
:102AF0009D47E3F4E7FC8347F4FE8507A307F4FE54
:102B00000347F4FEBD47E3F3E7F60100B250225459
:102B100045618280797106D622D40018AA87AE86D4
:102B20003287231FF4FCB687231EF4FCBA87A30D5B
:102B3000F4FC8307B4FD63D807028357C4FD9207F2
:102B40001397070141838357E4FD1306D002BA852A
:102B50003E85DD3D8347B4FDB307F04093F7F70FA3
:102B6000A30DF4FC31A88357C4FD92071397070106
:102B700041838357E4FD13060002BA853E85E9359B
:102B80000307B4FD93074006B347F702E207E18766
:102B900093F7F70F2306F4FE0307B4FDA947B347E5
:102BA000F702139787016187A947B367F702E20726
:102BB000E18793F7F70FA306F4FE0307B4FDA947D7
:102BC000B367F702E207E18793F7F70F2307F4FEF5
:102BD000A30704FEA1A88347F4FE8507C207C183AB
:102BE0008E071397070141838357E4FDBA97139724
:102BF000070141838357C4FD920793960701C18261
:102C00008347F4FE130604FFB29783C7C7FF938779
:102C1000070393F7F70FE207E1873E86B6853A850B
:102C200025358347F4FE8507A307F4FE0347F4FE2A
:102C30008947E3F2E7FA0100B250225445618280ED
:102C4000797106D622D40018AA87AE863287231F50
:102C5000F4FCB687231EF4FCBA87231DF4FC83170B
:102C6000A4FD63D807028357C4FD92071397070199
:102C700041838357E4FD1306D002BA853E85E933CC
:102C80008357A4FDB307F040C207C183231DF4FCA2
:102C900031A88357C4FD92071397070141838357D7
:102CA000E4FD13060002BA853E85793B0317A4FDB7
:102CB000896793870771B347F702C207C18793F704
:102CC000F70F2304F4FE0317A4FD9307803EB347D8
:102CD000F702139707014187A947B367F702C207B5
:102CE000C18793F7F70FA304F4FE0317A4FD93071E
:102CF0004006B347F702139707014187A947B36717
:102D0000F702C207C18793F7F70F2305F4FE0317F5
:102D1000A4FDA947B347F702139707014187A947C5
:102D2000B367F702C207C18793F7F70FA305F4FE55
:102D30000317A4FDA947B367F702C207C18793F73A
:102D4000F70F2306F4FEA30704FEA9A88347F4FEA9
:102D50008507C207C1838E071397070141838357F5
:102D6000E4FDBA971397070141838357C4FD920787
:102D700093960701C1828347F4FE130604FFB297BE
:102D800083C787FF9387070393F7F70FE207E1876E
:102D90003E86B6853A85EFF03FCB8347F4FE850744
:102DA000A307F4FE0347F4FE9147E3F1E7FA0100BD
:102DB000B250225445618280397106DE22DC8000E7
:102DC0002326A4FCAE8732872315F4FCBA8723148C
:102DD000F4FC231F04FC231504FE231404FE231318
:102DE00004FE8357A4FC93960701C1821307000ACF
:102DF0006374D7009307000A2314F4FE835784FCFE
:102E000093960701C182130700086374D7009307E4
:102E100000082313F4FE835784FEFD173E87835773
:102E200064FEFD17BE863A8681450145EFF04FFDF1
:102E3000232604FE5DA8232004FE69A80357A4FCF2
:102E40008327C4FE3307F7028356A4FC832704FEBE
:102E5000B386F602835784FEB3D7F602BA970327E8
:102E6000C4FCBA9783C707002315F4FE8357A4FE5A
:102E70008D83C207C183AE07231FF4FC8357A4FED2
:102E80008983C207C1839607C207C18793F7077E6C
:102E90001397070141878317E4FDD98FC207C187C4
:102EA000231FF4FC8357A4FE8D83C207C183FD8BCF
:102EB0001397070141838357E4FDD98F231FF4FC47
:102EC0008357E4FD3E85EFF06FEC832704FE850712
:102ED0002320F4FE835784FE032704FEE360F7F605
:102EE0008327C4FE85072326F4FE835764FE032749
:102EF000C4FEE362F7F40100F25062542161828063
:102F0000411122C60008A967938747D9DC4383D7BC
:102F1000470013970701418383C7B182BE861377A9
:102F2000F70F93878182B6972380E70083C7B1822A
:102F3000850713F7F70FA385E18203C7B1828547A1
:102F4000631AF70003C781829307500A6304F700EE
:102F5000A385018203C7B1828D476317F700A3855C
:102F6000018205472386E1820100324441018280CB
:102F7000797106D622D44AD24ED00018232EA4FC52
:102F8000232CB4FC23860182231704FE69A0930737
:102F900050FA2304F4FE8357E4FE8A07032784FDD6
:102FA000BA978397070093F7F70FA304F4FE8357AC
:102FB000E4FE8A07032784FDBA9783972700231628
:102FC000F4FE8357C4FEA183C207C18393F7F70FB2
:102FD0002305F4FE8357C4FE93F7F70FA305F4FE11
:102FE000930784FE1146BE850325C4FDEF10804F74
:102FF00003A781838967938707F4B357F70286078E
:103000003E8981494A85CE85EF1000208357E4FE32
:1030100085072317F4FE0357E4FEA147E3F9E7F61B
:10302000010083C7C18293F7F70FE5DF2386018292
:1030300001009387818203C717009307F00FE31AFB
:10304000F7FE9387818203C727009307F00FE312EF
:10305000F7FE0100B2502254125982594561828014
:10306000797106D622D40018232EA4FC232CB4FC9C
:10307000231704FE45A0930750FA2304F4FEC55716
:10308000A304F4FE8357E4FE8A07032784FDBA975E
:10309000839707002316F4FE8357C4FEA183C2075B
:1030A000C18393F7F70F2305F4FE8357C4FE93F70C
:1030B000F70FA305F4FE930784FE1146BE85032592
:1030C000C4FDEF102042010083C7C18293F7F70FC0
:1030D000E5DF238601829387818283C71700A207D9
:1030E00093960701C1869387818283C72700139730
:1030F000070141878357E4FE8A07032684FDB297C0
:10310000558F420741872391E7008357E4FE8507E7
:103110002317F4FE0357E4FE9D47E3FEE7F40100A6
:10312000B250225445618280411106C622C4000873
:1031300013068004B14505454D2585460146854564
:103140005D45EF00A0710100B24022444101828040
:10315000411106C622C40008B1450145412E0100B7
:10316000B240224441018280011106CE22CC0010DF
:10317000930700042307F4FE9D47A307F4FE05A070
:103180000347F4FE8347E4FEBA9791460146814522
:103190003E8555218347F4FEFD17A307F4FE8347C0
:1031A000F4FEF9FF83A7C1833E8789679386874B27
:1031B0003A86B717014093858700B7070240138509
:1031C0004704C12A8546014681457945412D0100C4
:1031D000F240624405618280411106C622C40008A3
:1031E000B7070020054723AEE71037070020130775
:1031F000871C23AEE182C5464146896793850758FF
:103200000545EF10601885450545EF102032014552
:10321000EF00207923860182B707002093854703BA
:1032200005453D3D23860182B707002093850701B0
:103230000545EFF0FFD323860182B7070020938571
:1032400047030545313DEF004071393F1137E93DF6
:103250000100B240224441018280411122C600088F
:10326000B70702409387470409671307874BD8C302
:10327000B7070240938747049843B70702409387F4
:1032800047041367170098C301003244410182804C
:10329000411122C600080547A386E182B707024014
:1032A000938747049443B7070240938747044167D5
:1032B0007917758F98C30100324441018280411112
:1032C00022C60008A967938747D9DC4383D7470004
:1032D00013970701418383C73183BE861377F70FA6
:1032E00093870183B6972380E70083C731838507DF
:1032F00013F7F70FA389E18203C731838547631A68
:10330000F70003C701839307500A6304F700A389FA
:10331000018203C731838D476317F700A3890182B8
:103320000547238AE1820100324441018280411134
:1033300022C60008B70702409387470405671307B2
:103340000796D8C3B7070240938747049843B70747
:103350000240938747041367170098C30100324463
:1033600041018280411122C600080547A38AE182FB
:10337000B7070240938747049443B70702409387F7
:10338000470441677917758F98C3010032444101A2
:1033900082805D7186C6A2C48008232EA4FA232CE5
:1033A000B4FA232AC4FA2328D4FA0327C4FBB707A4
:1033B0000240A1076301F7060327C4FBB7070240D9
:1033C000F107630AF7040327C4FBB707024093879A
:1033D00007036302F7040327C4FBB7070240938780
:1033E0004704630AF7020327C4FBB7070240938729
:1033F00087056302F7020327C4FBB70702409387E0
:10340000C706630AF7000327C4FBB7070240938788
:1034100007086317F70085450545EFE04FBAA9A8EF
:103420000327C4FBB7070240938787406302F70472
:103430000327C4FBB70702409387C741630AF7021B
:103440000327C4FBB7070240938707436302F702D1
:103450000327C4FBB707024093874744630AF7007A
:103460000327C4FBB7070240938787456316F7001D
:1034700085450945EFE0AFB40325C4FBEFD0CFDDB0
:10348000832784FB2322F4FC832744FB2324F4FCBE
:10349000232604FC832704FB2328F4FC232A04FCB2
:1034A00093070008232CF4FC232E04FC232004FEA5
:1034B000232204FE8D672324F4FE232604FE9307B3
:1034C00044FCBE850325C4FBEFD0EFF905468945D2
:1034D0000325C4FBEFD0BF8785450325C4FBEFD090
:1034E0001F830100B640264461618280797106D64F
:1034F00022D40018232EA4FC232CB4FC85450545BA
:10350000EFE04FB08327C4FD81EB854585671385C8
:103510000780EFE02FAF35A80327C4FD8547631769
:10352000F70085450545EFE04FB225A00327C4FD10
:1035300089476317F70085450945EFE00FB111A8EA
:103540000327C4FD8D476316F70085451145EFE05D
:10355000CFAF914601468145032584FDE928FD57FB
:103560002314F4FE231204FE231504FE231304FE89
:10357000230604FEA9670327C4FD0A07938747D7DC
:10358000BA979C433E87930744FEBE853A85EFE099
:103590004FC5A9670327C4FD0A07938747D7BA9782
:1035A0009C438146216681453E85EFE06FEAA9672D
:1035B0000327C4FD0A07938747D7BA979C4393050F
:1035C00000073E85EFE02FF9A9670327C4FD0A072E
:1035D000938747D7BA979C4391453E85EFE01F8A72
:1035E000A9670327C4FD0A07938747D7BA979C4367
:1035F000930500083E85EFE0DF8DA9670327C4FD32
:103600000A07938747D7BA979C4385453E85EFE0E5
:10361000AFD0A9670327C4FD0A07938747D7BA9796
:103620009C43054691653E85EFE08FDB0100B2507B
:10363000225445618280797106D622D40018232E47
:10364000A4FC232CB4FCB2872328D4FCA30BF4FCE9
:103650008327C4FD958393F7F70F9D8BA307F4FE93
:103660008327C4FD93F7F70FFD8B2307F4FE032791
:10367000C4FD93070008630DF7148327C4FD9583E9
:1036800091E785451145EFE0EF9761A88327C4FDD9
:1036900013D7570085476317F70085452145EFE0AD
:1036A0006F9641A08327C4FD13D75700894763173E
:1036B000F70085454145EFE0EF94A5A08327C4FDC1
:1036C00013D757008D476318F7008545130500028F
:1036D000EFE04F93B9A08327C4FD13D7570091475C
:1036E0006318F700854513050004EFE0AF9115A8B6
:1036F0008327C4FD13D7570095476318F700854506
:1037000013050008EFE00F9029A88327C4FD13D705
:10371000570099476317F700854513050010EFE040
:103720006F8E8347E4FE0547B317F700C207C183D6
:103730002310F4FE032784FD85476317F7028327D0
:1037400004FDC207C183A183C207C18389E78D47F6
:103750002322F4FE11A8832704FDC207C183A1839D
:10376000C207C1832322F4FE832704FDC207C1835D
:1037700093F7F70F2324F4FE0347F4FEA9670A0723
:103780009387C7D4BA979C433E87930704FEBE85B0
:103790003A85EFD01F88032784FD8547631BF70216
:1037A0000347F4FEA9670A079387C7D4BA979C43D7
:1037B000BE868347E4FE0547B317F700C207C183FF
:1037C000034774FD3A86BE853685EFD03FA711A02A
:1037D0000100B250225445618280797106D622D40C
:1037E0000018232EA4FC232CB4FC232AC4FC8545FA
:1037F0000545EFE02F81832644FD014681450325E1
:10380000C4FDEFF05FE38327C4FD958313F7F70F43
:103810008327C4FD93F7F70FFD8B93F7F70FBE8552
:103820003A85EFD0FFB88327C4FDFD8B0547B3175A
:10383000F7002320F4FE232204FE832784FD2324A3
:10384000F4FE85472326F4FE930704FE3E85EFD061
:10385000EFDD0100B250225445618280797106D6B5
:1038600022D40018232EA4FCAE873687A30DF4FCC7
:10387000B287230DF4FCBA87A30CF4FC8327C4FDA4
:1038800093F7F70F2304F4FE8347B4FDA304F4FE7B
:103890008347A4FD2305F4FE834794FD2326F4FE0D
:1038A000930784FE3E85EFD0BFC3B7E700E098439F
:1038B000FD777D8FB727002083A707685D8FB72727
:1038C000002023A0E768B7E700E0D843B70700105F
:1038D000FD177D8FB727002093870768DC435D8F36
:1038E000B727002093870768D8C3B727002093879E
:1038F000076803C7870085476313F700312001007D
:10390000B250225445618280411122C60008B7E7B7
:1039100000E07D5723A0E718B7E700E07D5723A21A
:10392000E7180100324441018280411122C600089B
:10393000B7E700E0372700200327076823A0E71038
:10394000B7E700E03727002013070768584323A292
:10395000E7100100324441018280011106CE22CCE1
:103960000010B72700209387076805472384E700E6
:10397000B727002083A7076891EBB727002093871C
:103980000768DC4381E7A30704FE21A08547A3075E
:10399000F4FE9D3F8347F4FE3E85F240624405619C
:1039A0008280011106CE22CC0010AA87A307F4FE64
:1039B0008347F4FE81EBB7270020938707682384B1
:1039C0000700A5370100F2406244056182807971E9
:1039D00006D622D40018232EA4FCAE87231DF4FCA7
:1039E0008327C4FD81EB8545856713850780EFD06C
:1039F0007FE135A80327C4FD85476317F700854598
:103A00000545EFD09FE425A00327C4FD8947631730
:103A1000F70085450945EFD05FE311A80327C4FDF2
:103A20008D476316F70085451145EFD01FE2835798
:103A3000A4FD91EFA5679386C76AA9671386C7D5CA
:103A400093052003A5671385076BEF40B01303A709
:103A500081839307007DB357F702C207C183FD1727
:103A6000C207C1832314F4FE8357A4FD8607C2074F
:103A7000C183FD17C207C1832312F4FE231504FE80
:103A8000231304FE230604FEA9670327C4FD0A07C7
:103A9000938747D7BA979C433E87930744FEBE85DA
:103AA0003A85EFD01FF4A9670327C4FD0A0793875F
:103AB00047D7BA979C43054685453E85EFE04F8B37
:103AC000A9670327C4FD0A07938747D7BA979C4382
:103AD00085453E85EFE06FCC8327C4FD89EB8546A5
:103AE0000946854513059002EFF05FD7B9A003277B
:103AF000C4FD8547631AF7008546094685451305C9
:103B0000C002EFF0BFD515A80327C4FD8947631A8B
:103B1000F7008546094685451305D002EFF01FD40E
:103B200029A80327C4FD8D476319F7008546094678
:103B300085451305E002EFF07FD2A9670327C4FD96
:103B40000A07938747D7BA979C4385453E85EFD0B0
:103B5000BFFC0100B250225445618280011106CEA3
:103B600022CC00102326A4FE2324B4FE8327C4FE07
:103B700081EB9146014681452145EFF0DFAB59A825
:103B80000327C4FE89476319F70091460146814522
:103B90000145EFF05FAABDA80327C4FE9147631952
:103BA000F7009146014681453D45EFF0DFA89DA015
:103BB0000327C4FE99476319F700914601468145E2
:103BC0001945EFF05FA7B9A00327C4FEA147631A08
:103BD000F70091460146814513056004EFF0BFA54B
:103BE00015A80327C4FEA947631AF70091460146AA
:103BF000814513054002EFF01FA429A80327C4FE46
:103C0000B1476319F70091460146814513056002EB
:103C1000EFF07FA2032784FE85476319F7009146E2
:103C2000014681452545EFF01FA161A8032784FEC9
:103C30008D476319F7009146014681450545EFF030
:103C40009F9F41A0032784FE9547631AF700914682
:103C50000146814513053002EFF0FF9D9DA003272B
:103C600084FE9D476319F7009146014681451D4535
:103C7000EFF07F9CB9A0032784FEA547631AF700E5
:103C800091460146814513057004EFF0DF9A15A8AF
:103C9000032784FEAD47631AF7009146014681452C
:103CA00013055002EFF03F9929A8032784FEB5477A
:103CB0006319F70091460146814513057002EFF044
:103CC0009F970100F240624405618280797106D6B7
:103CD00022D40018232EA4FC232CB4FC232AC4FCD9
:103CE0008327C4FD81EB8545856713850780EFD069
:103CF0007FB135A80327C4FD85476317F7008545C5
:103D00000545EFD09FB425A00327C4FD894763175D
:103D1000F70085450945EFD05FB311A80327C4FD1F
:103D20008D476316F70085451145EFD01FB28325F7
:103D300044FD032584FDEFF07FE285450545EFD086
:103D40007FAC032784FD9147631FF700032744FDE1
:103D50009547631AF7008545B707180013850730A4
:103D6000EFD04FD1A1A0032784FDA147631FF70027
:103D7000032744FDA547631AF7008545B7171A00C6
:103D8000138507C0EFD00FCF15A0032784FDA947E7
:103D9000631EF700032744FDAD476319F70085450F
:103DA000B7171A0013850780EFD0CFCC930744FED6
:103DB0003E85EFD0BFD285472312F4FEFD57231472
:103DC000F4FE231504FE231304FE230604FEA96754
:103DD0000327C4FD0A07938747D7BA979C433E87BA
:103DE000930744FEBE853A85EFD0BFBFA96703277E
:103DF000C4FD0A07938747D7BA979C43814601467B
:103E000089453E85EFD01FFAA9670327C4FD0A073D
:103E1000938747D7BA979C4385453E85EFD0DFCF40
:103E20000100B250225445618280797122D6001877
:103E3000232EA4FCA9670327C4FD0A07938747D74D
:103E4000BA979C4383D74702C207C1832317F4FE66
:103E50008317E4FE3E85325445618280011122CEF3
:103E600000102326A4FEA9670327C4FE0A07938730
:103E700047D7BA979C432392070201007244056119
:103E80008280011106CE22CC00102326A4FE23241A
:103E9000B4FE2322C4FE2320D4FE8327C4FE89EB74
:103EA00093068031054685451545EFF0CFF899A872
:103EB0000327C4FEC147631BF70093068031054604
:103EC000854513053002EFF00FF72DA80327C4FE38
:103ED00093070002631BF700930680310546854572
:103EE0001305D002EFF02FF531A8A5679386076E72
:103EF000A967138647D89305D002A5671385476E37
:103F0000EF404048032784FE8547631AF700930675
:103F10008031054685451D45EFF0EFF199A803274F
:103F200084FEC547631BF70093068031054685452F
:103F300013055002EFF02FF02DA8032784FE9307FE
:103F40001002631BF7009306803105468545130573
:103F5000F002EFF04FEE31A8A5679386076EA967D0
:103F6000138647D893052003A5671385476EEF4056
:103F70006041032744FE8947631AF70093068031A6
:103F8000054685451945EFF00FEBB5A0032744FE24
:103F9000C947631BF7009306803105468545130525
:103FA0004002EFF04FE981A8032744FE9307200267
:103FB000631BF70093068031054685451305E00233
:103FC000EFF06FE70DA8032744FE93073002631755
:103FD000F700930730022322F4FE31A8A5679386E9
:103FE000076EA967138647D893058003A5671385D5
:103FF000476EEF402039930600310546854503257D
:1040000004FEEFF04FE30100F2406244056182805C
:104010005D7186C6A2C480082326A4FC2324B4FCB8
:104020002322C4FC2320D4FC232EE4FA232A04FBFD
:10403000A30DF4FA8327C4FC81EB854585671385BE
:104040001700EFD02FFC21A80327C4FC8547631875
:10405000F7008545916713851700EFD00FFF832682
:10406000C4FB032604FC832544FC032584FCEFF0F9
:104070005FE1231E04FC93074010231FF4FC231070
:1040800004FE8347B4FB05476383E70205476344A7
:10409000F70089CB81A009476381E7020D4763845C
:1040A000E7020DA8231104FE231204FE25A023110C
:1040B00004FE85472312F4FE31A889472311F4FE3C
:1040C000231204FE01A889472311F4FE8547231219
:1040D000F4FE0100930700202313F4FE832744FB22
:1040E000C207C1838E07C207C1832314F4FE2315C0
:1040F00004FE9D472316F4FE0327C4FC0A0793879A
:104100000181BA979C433E879307C4FDBE853A85DB
:10411000EFD00FF8032784FCC1476316F7008545ED
:104120000545EFD02F950327C4FC0A07938701812B
:10413000BA979C4385453E85EFD01F850100B64068
:10414000264461618280011122CE00102326A4FE44
:104150002324B4FE2322C4FE2320D4FE59A8010048
:104160000327C4FE0A0793870181BA979C4383D72C
:104170008700C207C183898BE5D7832784FE138715
:1041800017002324E4FE83C607000327C4FE0A07A2
:1041900093870181BA979C433E8793970601C18319
:1041A0002316F700832744FEA9C701000327C4FE96
:1041B0000A0793870181BA979C4383D78700C20778
:1041C000C183858BE5D70327C4FE0A079387018146
:1041D000BA979C4383D7C70093960701C182832770
:1041E00044FE138717002322E4FE13F7F60F238003
:1041F000E700832704FE1387F7FF2320E4FEA5F3DF
:104200000100724405618280011122CE0010232436
:10421000A4FE2326B4FE37F700E02320070037F77B
:1042200000E02302070037F700E0A302070037F79A
:1042300000E02303070037F700E0A303070037F788
:1042400000E02304070037F700E0A304070037F776
:1042500000E02305070037F700E0A305070037F764
:1042600000E0854614C3010037F700E0110718434A
:10427000BA8701480327C4FEC286636DD7000327AF
:10428000C4FEC286E312D7FE032784FEBE866363A4
:10429000D700D9BF0100724405618280011106CEAA
:1042A00022CC00102326A4FE2324B4FE8327C4FEC0
:1042B00085E7032784FE85476310F7029306803164
:1042C000014685452545EFF00FB7914601468145EA
:1042D0002945EFF04FB665A00327C4FE8947631256
:1042E000F702930680310146854513056002EFF021
:1042F0008FB491460146814513057002EFF0AFB3CC
:10430000BDA80327C4FEC1476310F702930680319E
:10431000014685450945EFF00FB2914601468145BA
:104320000D45EFF04FB1A1A80327C4FE930700028B
:104330006312F70293068031014685451305A002FA
:10434000EFF06FAF9146014681451305B002EFF0E3
:104350008FAE35A00327C4FE930720026311F70236
:1043600093068031014685451305A004EFF0AFACFC
:104370009146014681451305B004EFF0CFAB010033
:10438000F240624405618280797106D622D4001819
:10439000232EA4FC232CB4FC232AC4FC2328D4FC05
:1043A00085450545EFD00FC6832504FD032544FD53
:1043B000EFF0DFEE032744FD8947631BF700032777
:1043C00004FD8D476316F70085451145EFC09FEA50
:1043D000032744FD93072002631FF700032704FD12
:1043E000930730026319F7008545B707140013855A
:1043F0000701EFC03FE88327C4FD91E785451165BC
:10440000EFD04FC035A00327C4FD85476318F700E0
:10441000854537050200EFD04FC319A80327C4FD17
:1044200089476317F700854537050400EFD0EFC1D2
:10443000832784FD2320F4FE231204FE231304FEAD
:10444000231404FE231604FEB1472315F4FEA967C6
:104450000327C4FD0A07938747D9BA979C433E8731
:10446000930704FEBE853A85EFD01FB6A9670327E0
:10447000C4FD0A07938747D9BA979C4385453E8573
:10448000EFD0DFD70100B250225445618280011184
:1044900022CE00102326A4FEAE87A305F4FE010061
:1044A000A9670327C4FE0A07938747D9BA979C4395
:1044B00083D70700C207C18393F70708F5D3A9671D
:1044C0000327C4FE0A07938747D9BA979C433E87C0
:1044D0008347B4FEC207C1832312F7000100724470
:1044E00005618280011106CE22CC00102326A4FE95
:1044F0002324B4FE2322C4FE31A8832784FE13871D
:1045000017002324E4FE83C70700BE850325C4FEED
:10451000EFF0FFF7832744FE1387F7FF2322E4FE23
:10452000E9FF0100F240624405618280011106CE7C
:1045300022CC00102326A4FEAE87A305F4FEA967B3
:104540000327C4FE0A07938747D9BA979C430546B9
:10455000930550523E85EFD07FD08327C4FE9387CA
:1045600057030347B4FEBA86014681453E85EFF006
:10457000EFAE0100F240624405618280411106C63F
:1045800022C40008B7170240DC43C98313F7F700C1
:10459000B7177A00938707203307F702B727F4008D
:1045A000938707403E9723ACE18285460146F16739
:1045B000938507200145EFF03FDD0100B240224422
:1045C00041018280797106D622D40018232EA4FCE2
:1045D000232CB4FC232AC4FC232604FE99A001004A
:1045E000A96783A747D9930500043E85EFD03FD63E
:1045F000AA87FDD7A96783A747D9BE86832784FDED
:1046000013871700232CE4FC83870700C207C183AC
:10461000BE853685EFD0DFD08327C4FE85072326ED
:10462000F4FE0327C4FE832744FDE34AF7FA8327F9
:1046300044FD3E85B250225445618280011122CE54
:104640000010232604FE232404FEB71702409443DF
:10465000B71702404167558F98C3B7170240984378
:10466000B7070200F98F2324F4FE8327C4FE8507D1
:104670002326F4FE832784FE99E70327C4FE9307CD
:104680000050E31CF7FCB71702409843B70702003D
:10469000F98F89C785472324F4FE19A0232404FE3B
:1046A000032784FE85476317F70CB727024098431A
:1046B000B72702401367070198C3B7270240984302
:1046C000B7270240719B98C3B72702409843B7278A
:1046D00002401367270098C337170240B7170240FC
:1046E0005843D8C337170240B71702405843D8C3BE
:1046F00037170240B71702405843D8C3B7170240D4
:10470000D443B71702403707C1FF7D17758FD8C351
:10471000B7170240D443B717024037072500558F1B
:10472000D8C3B71702409443B717024037070001B8
:10473000558F98C30100B71702409843B70700028E
:10474000F98FF5DBB7170240D843B7170240719BCA
:10475000D8C3B7170240D843B717024013672700E2
:10476000D8C30100B7170240DC4313F7C700A147C5
:10477000E31AF7FE0100724405618280411106C60A
:1047800022C40008B71702409843B71702401367C6
:10479000170098C3B7170240D443B7170240370732
:1047A000FFF8758FD8C3B71702409443B71702407C
:1047B0003707F7FE7D17758F98C3B71702409443EC
:1047C000B71702403707FCFF7D17758F98C3B717DF
:1047D0000240D443B7170240370781FF7D17758F1A
:1047E000D8C3B717024037079F0098C7EFF01FE5FF
:1047F0000100B240224441018280397106DE22DC90
:104800008000AA87A307F4FC1306800C8145B72714
:1048100000201385C768EFB0BF921306800C930584
:10482000E005B72700201385076FEFB07F911306CF
:10483000800C9305B00BB727002013854775EFB0A8
:104840003F90238C01842396018423970184239431
:10485000018423950184130710032392E1849D575B
:104860002326F4FEE5472324F4FE038701858947C8
:1048700063DFE70003870185914763CAE700838709
:10488000A18091E7930760FA2326F4FE25A0038711
:104890000185894763D0E70203870185914763CB90
:1048A000E7000387A18089476316F7009307A005F7
:1048B0002324F4FE8327C4FE9387E7052322F4FE16
:1048C00051A0930710032320F4FE31A0832704FE98
:1048D000FD172320F4FEB7070020832604FE1307EC
:1048E000C00B3387E6029387871C3E97832744FEDD
:1048F000BA9783C707000347F4FC6376F700832762
:1049000004FEE3D507FC839741843E87832704FE9A
:104910006345F702832704FEC207C183FD17C20760
:10492000C1831397070141872392E184832744FEC3
:104930001397070141872393E184832744FE85076A
:104940002322F4FE832784FE9387D705032744FEA2
:10495000E3D9E7F693071003232EF4FCA1AC839769
:1049600061843E8783978180B307F740232CF4FC52
:1049700069A8B70700208326C4FD1307C00B33873F
:10498000E6029387871C3E97832784FDBA9783C7E7
:1049900007000347F4FC63F3E702832784FD1397C2
:1049A000070141872390E184B72700201387877B85
:1049B0008327C4FDBA9723800700A1A8832784FD1D
:1049C0008DEF2390018405472394E184B7270020CD
:1049D0001387877B8327C4FDBA9705472380E700A9
:1049E0008397C184C207C1838507C207C183139718
:1049F000070141872396E18429A8839781803E8718
:104A0000832784FD998F232CF4FC832784FDE3D234
:104A100007F6839761843E8783978180BA97232A1C
:104A2000F4FC55A0B70700208326C4FD1307C00B74
:104A30003387E6029387871C3E97832744FDBA9706
:104A400083C707000347F4FC63F3E702832744FDB1
:104A50001397070141872391E184B727002003279B
:104A6000C4FD9387877BBA97238207069DA00327FF
:104A700044FD9307A00B6310F7041307A00B2391C9
:104A8000E18405472395E184B72700200327C4FD6F
:104A90009387877BBA9705472382E7068397E1844C
:104AA000C207C1838507C207C183139707014187E6
:104AB0002397E18439A8839781803E87832744FD2B
:104AC000BA97232AF4FC032744FD9307A00BE3DBEA
:104AD000E7F403970184B72700208326C4FD8606E8
:104AE0009387C768B6972390E70003972184B72779
:104AF00000208326C4FD9386460686069387C768F2
:104B0000B6972390E700839701843E87839721849B
:104B1000BA978587139707014187B7270020832617
:104B2000C4FD9386260386069387C768B6972390AD
:104B3000E7000327C4FD9307000363C8E706B72710
:104B400000200327C4FD1307270306079387C768C0
:104B5000BA97839707001397070141838327C4FD02
:104B600093861700B727002093862603860693872F
:104B7000C768B69783970700C207C183B307F7409A
:104B8000C207C1832319F4FC031724FDD94763C767
:104B9000E700031724FDA9576359F70083C78185F0
:104BA000850713F7F70F238CE1848327C4FDFD17D6
:104BB000232EF4FC839741843E878327C4FDE3D0F2
:104BC000E7DA0100F250625421618280797122D6C5
:104BD0000018AA87AE863287A30FF4FCB687230F8E
:104BE000F4FCBA87A30EF4FC232604FE0347F4FD6D
:104BF0008347E4FD6314F700854771AA0346F4FD7B
:104C00008347E4FD93F6F70F1377F60F6373D7002E
:104C1000B2872305F4FE0346F4FD8347E4FD93F6D3
:104C2000F70F1377F60F63F3E600B287A304F4FEE1
:104C30000346D4FD0347A4FEB727002093062003B4
:104C4000B306D602369706079387C768BA97839745
:104C5000070013F7F70F8345D4FD8347A4FE93861F
:104C60001700B7270020130620033386C502B2962B
:104C700086069387C768B6978397070093F7F70F61
:104C8000B307F74093F7F70F2304F4FE8347A4FE1E
:104C90008507A305F4FECDA80346D4FD0347B4FE63
:104CA000B727002093062003B306D60236970607DF
:104CB0009387C768BA978397070013F7F70F834561
:104CC000D4FD8347B4FE93861700B7270020130650
:104CD00020033386C502B29686069387C768B697C7
:104CE0008397070093F7F70FB307F74093F7F70F92
:104CF000A303F4FE0346D4FD0347B4FEB727002008
:104D000093062003B306D602369706079387C76833
:104D1000BA978397070095C70346D4FD0347B4FEAF
:104D2000B727002093062003B306D602369706075E
:104D30009387C768BA97039707009307B00B631769
:104D4000F7008327C4FE85072326F4FE0327C4FE4D
:104D5000A94763D4E70081473DA8030774FE830792
:104D600084FE1D8F854763CAE700030774FE83072F
:104D700084FE1D8FFD576354F700814729A88347A0
:104D8000B4FE8507A305F4FE0347B4FE834794FEF3
:104D9000E364F7F085473E8532544561828079713E
:104DA00022D60018AA872E87232CC4FC231FF4FCCC
:104DB000BA87231EF4FC832784FD6392071283576E
:104DC000E4FD9507C207C1832317F4FE01A2031770
:104DD000E4FEB727002006079387C768BA97839732
:104DE0000700BE868317E4FE13871700B72700204D
:104DF00006079387C768BA97839707003387F640FB
:104E0000954763DCE70A0317E4FEB727002006078F
:104E10009387C768BA9783970700BE868317E4FE17
:104E200013872700B727002006079387C768BA971C
:104E3000839707003387F640954763D0E708031749
:104E4000E4FEB727002006079387C768BA978397C1
:104E50000700BE868317E4FE13873700B7270020BC
:104E600006079387C768BA97839707003387F6408A
:104E7000954763D4E7040317E4FE8317E4FD1D8F11
:104E8000A54763C6E7028317E4FE13873700B727F9
:104E900000209387877BBA9703C70700854763186D
:104EA000F7000357E4FE239FE18485478DAA03574B
:104EB000E4FE239FE18485479DA28317E4FEC20799
:104EC000C1838507C207C1832317F4FE8317C4FD7E
:104ED0001387E7FF8317E4FEE3CBE7EE25AA8357AA
:104EE000E4FD9507C207C1832316F4FE21AA031728
:104EF000C4FEB72700201307470606079387C76835
:104F0000BA9783970700BE868317C4FE13871700DE
:104F1000B72700201307470606079387C768BA9785
:104F2000839707003387F640ED576354F70C031758
:104F3000C4FEB72700201307470606079387C768F4
:104F4000BA9783970700BE868317C4FE138727008E
:104F5000B72700201307470606079387C768BA9745
:104F6000839707003387F640ED576354F70803171C
:104F7000C4FEB72700201307470606079387C768B4
:104F8000BA9783970700BE868317C4FE138737003E
:104F9000B72700201307470606079387C768BA9705
:104FA000839707003387F640ED576354F7040317E0
:104FB000C4FE8317E4FD1D8FA54763C6E702831770
:104FC000C4FE13873700B72700209387877BBA97E3
:104FD00003C7470685476318F7000357C4FE239F9E
:104FE000E18485472DA80357C4FE239FE1848547AC
:104FF0003DA08317C4FEC207C1838507C207C183D2
:105000002316F4FE8317C4FD1387E7FF8317C4FE3E
:10501000E3CFE7EC1307F00F239FE18481473E8540
:10502000325445618280797122D60018AA872E8772
:10503000232CC4FC231FF4FCBA87231EF4FC832713
:1050400084FDCDE78357C4FDFD17C207C183231735
:10505000F4FE71A00317E4FEB7270020060793872C
:10506000C768BA9783970700BE868317E4FE138745
:10507000E7FFB727002006079387C768BA9783978B
:105080000700B387F6406353F0040317E4FEB72725
:10509000002006079387C768BA9783970700BE86E4
:1050A0008317E4FE13872700B7270020060793879E
:1050B000C768BA9783970700B387F6406358F00034
:1050C0000357E4FE239EE1848547CDA08317E4FEC9
:1050D000C207C183FD17C207C1832317F4FE03175C
:1050E000E4FD8317E4FEE347F7F665A88357C4FDA4
:1050F000FD17C207C1832316F4FE71A80317C4FE6F
:10510000B72700201307470606079387C768BA9793
:1051100083970700BE868317C4FE1387E7FFB72770
:1051200000201307470606079387C768BA97839737
:105130000700B387F64063D707040317C4FEB727F9
:1051400000201307470606079387C768BA97839717
:105150000700BE868317C4FE13872700B7270020E9
:105160001307470606079387C768BA978397070010
:10517000B387F64063D807000357C4FE239EE1843B
:1051800085472DA08317C4FEC207C183FD17C20740
:10519000C1832316F4FE0317E4FD8317C4FEE34F17
:1051A000F7F41307F00F239EE18481473E853254C4
:1051B00045618280797122D60018AA872E87232C18
:1051C000C4FC232AD4FC231FF4FCBA87231EF4FC5E
:1051D000832784FD6396071A832744FDDDE3835705
:1051E000C4FDFD17C207C1832317F4FE61A0031796
:1051F000E4FEB72700209387877BBA9783C7070011
:10520000ADE38317E4FE1387F7FFB72700209387EA
:10521000877BBA9703C7070085476314F704031712
:10522000E4FEB727002006079387C768BA978397DD
:105230000700BE868317E4FE1387F7FFB727002019
:1052400006079387C768BA97839707003387F640A6
:10525000A94763D8E7000357E4FE239DE18485470F
:10526000C1A48317E4FEC207C183FD17C207C1832F
:105270002317F4FE0317E4FE8317E4FDE359F7F662
:1052800059AC032744FD85476317F7288357C4FDAE
:105290002316F4FEE9A80317C4FEB727002013075E
:1052A000470606079387C768BA9783970700BE86A5
:1052B0008317C4FE1387F7FFB7270020130747069D
:1052C00006079387C768BA9783970700B387F640A6
:1052D00063D607080317C4FEB72700201307470645
:1052E00006079387C768BA9783970700BE86831718
:1052F000C4FE1387E7FFB7270020130747060607FA
:105300009387C768BA9783970700B387F64063D738
:1053100007040317C4FEB727002013074706060734
:105320009387C768BA9783970700BE868317C4FE22
:105330001387D7FFB7270020130747060607938771
:10534000C768BA9783970700B387F64063D807000A
:105350000357C4FE239DE1848547D9A28317C4FE69
:10536000C207C183FD17C207C1832316F4FE83174A
:10537000E4FD138727008317C4FEE34EF7F061AA0C
:10538000832744FDDDE78357C4FDFD17C207C183B2
:105390002315F4FE41A80317A4FEB7270020938726
:1053A000877BBA9783C74706ADE78317A4FE1387A9
:1053B000F7FFB72700209387877BBA9703C7470675
:1053C00085476318F7040317A4FEB72700201307C7
:1053D000470606079387C768BA9783970700BE8674
:1053E0008317A4FE1387F7FFB7270020130747068C
:1053F00006079387C768BA97839707003387F640F5
:10540000D9576358F7000357A4FE239DE1848547CD
:1054100001AA8317A4FEC207C183FD17C207C18377
:105420002315F4FE0317A4FE8317E4FDE355F7F6F6
:10543000DDA0032744FD8547631FF70C8357C4FD98
:105440002314F4FEC9A0031784FEB7270020060723
:105450009387C768BA9783970700BE86831784FE31
:105460001387E7FFB727002006079387C768BA9717
:1054700083970700B387F640635EF006031784FE48
:10548000B727002006079387C768BA978397070056
:10549000BE86831784FE1387C7FFB7270020060741
:1054A0009387C768BA9783970700B387F64063531B
:1054B000F004031784FEB727002006079387C76808
:1054C000BA9783970700BE86831784FE1387A7FFCA
:1054D000B727002006079387C768BA978397070006
:1054E000B387F6406358F000035784FE239DE184A0
:1054F00085473DA0831784FEC207C183FD17C207FD
:10550000C1832314F4FE8317E4FD13875700831728
:1055100084FEE34AF7F21307F00F239DE1848147ED
:105520003E85325445618280797106D622D426D2D6
:105530000018231704FE231604FE85472315F4FEE6
:10554000A56783A70771232EF4FCB7270020938754
:10555000C768839727063E87B72700209387C768C9
:105560008397A712BA978587139707014187B727B3
:1055700000209387C7682393E70C93070003232237
:10558000F4FE45A4B7270020032744FE06079387AF
:10559000C768BA9783970700BE86B72700200327FE
:1055A00044FE1307470606079387C768BA97839791
:1055B0000700B6978587139707014187B727002013
:1055C000832644FE9386260386069387C768B6978C
:1055D0002390E700038701858947631CF71A8387B7
:1055E000A180E1EBB7270020032744FE1307270320
:1055F00006079387C768BA9783970700BE868327F5
:1056000044FE13871700B727002013072703060758
:105610009387C768BA97839707003387F640954703
:1056200063D9E7080317A4FE832744FE3E97B727F4
:1056300000201307270306079387C768BA97839745
:1056400007003E85EF205040AA848317A4FE3E85C4
:10565000EF20903FAA878325C4FD3E85EF20205789
:10566000AA87BE852685EF20807FAA873E85EF200A
:105670009037AA872311F4FE831724FE63D4070012
:10568000231104FEB7270020032744FE1307270336
:1056900006079387C768BA97035724FE2390E7004D
:1056A0008317A4FEC207C1838507C207C1832315E0
:1056B000F4FE0387A1808947631DF70CB7270020FC
:1056C000032744FE1307270306079387C768BA9783
:1056D00083970700BE86832744FE13871700B727EA
:1056E00000201307270306079387C768BA97839795
:1056F00007003387F640ED57635DF7080317A4FEF4
:10570000832744FE3E97B727002013072703060789
:105710009387C768BA97839707003E85EF20D032FA
:10572000AA848317A4FE3E85EF201032AA87832522
:10573000C4FD3E85EF20A049AA87BE852685EF20BF
:105740004001AA873E85EF20102AAA872310F4FE85
:10575000031704FE9307B00B63D6E7009307B00B63
:105760002310F4FEB7270020032744FE1307270366
:1057700006079387C768BA97035704FE2390E7008C
:105780008317A4FEC207C1838507C207C1832315FF
:10579000F4FE13071003832744FE1D8FB707002074
:1057A000060793874705BA97839707001397070162
:1057B0004183B7270020832644FE9386260386066E
:1057C0009387C768B69783970700938727FAC2071E
:1057D000C183B307F7021397070141838357E4FEA0
:1057E000BA97C207C1832317F4FE13071003832758
:1057F00044FE1D8FB7070020060793874705BA9719
:10580000839707001397070141838357C4FEBA9714
:10581000C207C1832316F4FE832744FEFD1723220B
:10582000F4FE839741843E87832744FEE3DCE7D47C
:105830000317E4FE8317C4FEB347F702C207C1870C
:105840003E85B2502254925445618280411106C671
:1058500022C400088387018515476368F71C1397E6
:105860002700A967938747DABA979C43828703C7C3
:105870008185854763FFE7180146BD451305100381
:10588000EFF0CFB4AA8795C7839741848146094634
:10589000930510033E85EFF0FF91AA8799CB05474A
:1058A0002388E1840D4723AAE18409472385E18009
:1058B0008DA20946BD4513051003EFF02FB1AA874D
:1058C0006389071483974184814601469305100339
:1058D0003E85EFF03F8EAA87638D07120547238828
:1058E000E1840D4723AAE184238501801DA203974B
:1058F00041848387A18081463E86930510033A85C3
:10590000EFF05F8BAA876398071009472388E1842B
:1059100019A2039741848387A1803E8693051003D3
:105920003A85EFF0CFC7AA876399070E0D47238802
:10593000E184E5A08387A1809DE383974184854628
:105940000146930510033E85EFF0DF86AA873E8768
:1059500085476316F70011472388E184C9A00387B0
:10596000A1808947631DF70A8397418485460946CC
:10597000930510033E85EFF0FF83AA873E87854796
:10598000631FF70811472388E18451A803974184D6
:10599000CD4763C4E7028387A18085E38397418471
:1059A00085460146930510033E85EFF0BF80AA8728
:1059B00089E715472388E184ADA003974184CD474B
:1059C00063C1E7060387A1808947631CF7048397B7
:1059D000418485460946930510033E85EFF08FFD0F
:1059E000AA87A1E315472388E18425A8B7270020CB
:1059F0009387877B83C787029DE7B727002093871C
:105A0000877B83C7C70885E32388018423AA018491
:105A100019A8010011A8010001A8010031A001008E
:105A200021A0010011A0010001000100B2402244A8
:105A3000410182801D7186CEA2CCA6CACAC8CEC63C
:105A40008010AA87A307F4FA838701850947638B2F
:105A5000E7281547638DE7700547E394E70E8387D2
:105A6000A180639E07128397A185C207C183FD179A
:105A7000C207C183231FF4FC05472399E184839760
:105A8000A1853E87B727002006079387C768BA9786
:105A9000839707003E85EF10B0442A89AE8983972B
:105AA00021853E85EF10D043A56703A6877183A6A5
:105AB000C771EF00107DAA872E883E86C2864A8570
:105AC000CE85EF001009AA872E883E85C285EF108B
:105AD000B03AAA87231EF4FC79A80317E4FDB72780
